{
	"contracts/ProductTracking.sol": {
		"ProductTracking": {
			"abi": [
				{
					"inputs": [],
					"stateMutability": "nonpayable",
					"type": "constructor"
				},
				{
					"anonymous": false,
					"inputs": [
						{
							"indexed": true,
							"internalType": "address",
							"name": "beneficiary",
							"type": "address"
						}
					],
					"name": "AddedBeneficiary",
					"type": "event"
				},
				{
					"anonymous": false,
					"inputs": [
						{
							"indexed": false,
							"internalType": "uint256",
							"name": "lotId",
							"type": "uint256"
						},
						{
							"indexed": false,
							"internalType": "string",
							"name": "manufacturer",
							"type": "string"
						},
						{
							"indexed": false,
							"internalType": "string",
							"name": "productName",
							"type": "string"
						}
					],
					"name": "LotRegistered",
					"type": "event"
				},
				{
					"anonymous": false,
					"inputs": [
						{
							"indexed": false,
							"internalType": "uint256",
							"name": "lotId",
							"type": "uint256"
						}
					],
					"name": "LotRemoved",
					"type": "event"
				},
				{
					"anonymous": false,
					"inputs": [
						{
							"indexed": true,
							"internalType": "address",
							"name": "oldOwner",
							"type": "address"
						},
						{
							"indexed": true,
							"internalType": "address",
							"name": "newOwner",
							"type": "address"
						}
					],
					"name": "OwnerSet",
					"type": "event"
				},
				{
					"anonymous": false,
					"inputs": [
						{
							"indexed": false,
							"internalType": "uint256",
							"name": "lotId",
							"type": "uint256"
						},
						{
							"indexed": true,
							"internalType": "address",
							"name": "previousOwner",
							"type": "address"
						},
						{
							"indexed": true,
							"internalType": "address",
							"name": "newOwner",
							"type": "address"
						}
					],
					"name": "OwnershipTransferred",
					"type": "event"
				},
				{
					"inputs": [
						{
							"internalType": "address[]",
							"name": "beneficiaries",
							"type": "address[]"
						}
					],
					"name": "addToWhitelist",
					"outputs": [],
					"stateMutability": "nonpayable",
					"type": "function"
				},
				{
					"inputs": [
						{
							"internalType": "address",
							"name": "newOwner",
							"type": "address"
						}
					],
					"name": "changeOwner",
					"outputs": [],
					"stateMutability": "nonpayable",
					"type": "function"
				},
				{
					"inputs": [
						{
							"internalType": "uint256",
							"name": "",
							"type": "uint256"
						}
					],
					"name": "getLotsDetails",
					"outputs": [
						{
							"internalType": "uint256",
							"name": "id",
							"type": "uint256"
						},
						{
							"internalType": "string",
							"name": "manufacturer",
							"type": "string"
						},
						{
							"internalType": "uint256",
							"name": "productCount",
							"type": "uint256"
						},
						{
							"internalType": "string",
							"name": "productName",
							"type": "string"
						},
						{
							"internalType": "address",
							"name": "currentOwner",
							"type": "address"
						},
						{
							"internalType": "uint256",
							"name": "dateOfPurchase",
							"type": "uint256"
						},
						{
							"internalType": "bool",
							"name": "isActive",
							"type": "bool"
						}
					],
					"stateMutability": "view",
					"type": "function"
				},
				{
					"inputs": [],
					"name": "getOwner",
					"outputs": [
						{
							"internalType": "address",
							"name": "",
							"type": "address"
						}
					],
					"stateMutability": "view",
					"type": "function"
				},
				{
					"inputs": [
						{
							"internalType": "string",
							"name": "manufacturer",
							"type": "string"
						},
						{
							"internalType": "uint256",
							"name": "productCount",
							"type": "uint256"
						},
						{
							"internalType": "string",
							"name": "productName",
							"type": "string"
						}
					],
					"name": "registerLot",
					"outputs": [],
					"stateMutability": "nonpayable",
					"type": "function"
				},
				{
					"inputs": [
						{
							"internalType": "address",
							"name": "beneficiary",
							"type": "address"
						}
					],
					"name": "removeFromWhitelist",
					"outputs": [],
					"stateMutability": "nonpayable",
					"type": "function"
				},
				{
					"inputs": [
						{
							"internalType": "uint256",
							"name": "lotId",
							"type": "uint256"
						}
					],
					"name": "removeLot",
					"outputs": [],
					"stateMutability": "nonpayable",
					"type": "function"
				},
				{
					"inputs": [
						{
							"internalType": "uint256",
							"name": "lotId",
							"type": "uint256"
						},
						{
							"internalType": "address",
							"name": "newOwner",
							"type": "address"
						}
					],
					"name": "transferLotOwnership",
					"outputs": [],
					"stateMutability": "nonpayable",
					"type": "function"
				},
				{
					"inputs": [
						{
							"internalType": "address",
							"name": "",
							"type": "address"
						}
					],
					"name": "whitelist",
					"outputs": [
						{
							"internalType": "bool",
							"name": "",
							"type": "bool"
						}
					],
					"stateMutability": "view",
					"type": "function"
				}
			],
			"devdoc": {
				"details": "Tracks the registration and ownership of product lots",
				"kind": "dev",
				"methods": {
					"changeOwner(address)": {
						"details": "Change owner",
						"params": {
							"newOwner": "address of new owner"
						}
					},
					"getOwner()": {
						"details": "Return owner address",
						"returns": {
							"_0": "address of owner"
						}
					}
				},
				"title": "Product Tracking",
				"version": 1
			},
			"evm": {
				"assembly": "    /* \"contracts/ProductTracking.sol\":198:2228  contract ProductTracking is WhiteList {... */\n  mstore(0x40, 0x80)\n    /* \"contracts/ProductTracking.sol\":787:834  constructor() {... */\n  callvalue\n  dup1\n  iszero\n  tag_1\n  jumpi\n  0x00\n  dup1\n  revert\ntag_1:\n  pop\n    /* \"contracts/Owner.sol\":510:520  msg.sender */\n  caller\n    /* \"contracts/Owner.sol\":502:507  owner */\n  0x00\n  dup1\n    /* \"contracts/Owner.sol\":502:520  owner = msg.sender */\n  0x0100\n  exp\n  dup2\n  sload\n  dup2\n  0xffffffffffffffffffffffffffffffffffffffff\n  mul\n  not\n  and\n  swap1\n  dup4\n  0xffffffffffffffffffffffffffffffffffffffff\n  and\n  mul\n  or\n  swap1\n  sstore\n  pop\n    /* \"contracts/Owner.sol\":556:561  owner */\n  0x00\n  dup1\n  sload\n  swap1\n  0x0100\n  exp\n  swap1\n  div\n  0xffffffffffffffffffffffffffffffffffffffff\n  and\n    /* \"contracts/Owner.sol\":535:562  OwnerSet(address(0), owner) */\n  0xffffffffffffffffffffffffffffffffffffffff\n  and\n    /* \"contracts/Owner.sol\":552:553  0 */\n  0x00\n    /* \"contracts/Owner.sol\":535:562  OwnerSet(address(0), owner) */\n  0xffffffffffffffffffffffffffffffffffffffff\n  and\n  0x342827c97908e5e2f71151c08502a66d44b6f758e3ac2f1de95f02eb95f0a735\n  mload(0x40)\n  mload(0x40)\n  dup1\n  swap2\n  sub\n  swap1\n  log3\n    /* \"contracts/ProductTracking.sol\":825:826  0 */\n  0x00\n    /* \"contracts/ProductTracking.sol\":812:822  lotCounter */\n  0x02\n    /* \"contracts/ProductTracking.sol\":812:826  lotCounter = 0 */\n  dup2\n  swap1\n  sstore\n  pop\n    /* \"contracts/ProductTracking.sol\":198:2228  contract ProductTracking is WhiteList {... */\n  dataSize(sub_0)\n  dup1\n  dataOffset(sub_0)\n  0x00\n  codecopy\n  0x00\n  return\nstop\n\nsub_0: assembly {\n        /* \"contracts/ProductTracking.sol\":198:2228  contract ProductTracking is WhiteList {... */\n      mstore(0x40, 0x80)\n      callvalue\n      dup1\n      iszero\n      tag_1\n      jumpi\n      0x00\n      dup1\n      revert\n    tag_1:\n      pop\n      jumpi(tag_2, lt(calldatasize, 0x04))\n      shr(0xe0, calldataload(0x00))\n      dup1\n      0x8ab1d681\n      gt\n      tag_12\n      jumpi\n      dup1\n      0x8ab1d681\n      eq\n      tag_7\n      jumpi\n      dup1\n      0x9b19251a\n      eq\n      tag_8\n      jumpi\n      dup1\n      0xa6f9dae1\n      eq\n      tag_9\n      jumpi\n      dup1\n      0xc00b29d8\n      eq\n      tag_10\n      jumpi\n      dup1\n      0xe4cfa278\n      eq\n      tag_11\n      jumpi\n      jump(tag_2)\n    tag_12:\n      dup1\n      0x115a8e25\n      eq\n      tag_3\n      jumpi\n      dup1\n      0x5a4cbe51\n      eq\n      tag_4\n      jumpi\n      dup1\n      0x7f649783\n      eq\n      tag_5\n      jumpi\n      dup1\n      0x893d20e8\n      eq\n      tag_6\n      jumpi\n    tag_2:\n      0x00\n      dup1\n      revert\n        /* \"contracts/ProductTracking.sol\":502:547  mapping(uint256 => Lot) public getLotsDetails */\n    tag_3:\n      tag_13\n      0x04\n      dup1\n      calldatasize\n      sub\n      dup2\n      add\n      swap1\n      tag_14\n      swap2\n      swap1\n      tag_15\n      jump\t// in\n    tag_14:\n      tag_16\n      jump\t// in\n    tag_13:\n      mload(0x40)\n      tag_17\n      swap8\n      swap7\n      swap6\n      swap5\n      swap4\n      swap3\n      swap2\n      swap1\n      tag_18\n      jump\t// in\n    tag_17:\n      mload(0x40)\n      dup1\n      swap2\n      sub\n      swap1\n      return\n        /* \"contracts/ProductTracking.sol\":1988:2221  function removeLot(uint256 lotId) public isOwner {... */\n    tag_4:\n      tag_19\n      0x04\n      dup1\n      calldatasize\n      sub\n      dup2\n      add\n      swap1\n      tag_20\n      swap2\n      swap1\n      tag_15\n      jump\t// in\n    tag_20:\n      tag_21\n      jump\t// in\n    tag_19:\n      stop\n        /* \"contracts/WhiteList.sol\":447:704  function addToWhitelist(address[] calldata beneficiaries) public isOwner {... */\n    tag_5:\n      tag_22\n      0x04\n      dup1\n      calldatasize\n      sub\n      dup2\n      add\n      swap1\n      tag_23\n      swap2\n      swap1\n      tag_24\n      jump\t// in\n    tag_23:\n      tag_25\n      jump\t// in\n    tag_22:\n      stop\n        /* \"contracts/Owner.sol\":955:1036  function getOwner() external view returns (address) {... */\n    tag_6:\n      tag_26\n      tag_27\n      jump\t// in\n    tag_26:\n      mload(0x40)\n      tag_28\n      swap2\n      swap1\n      tag_29\n      jump\t// in\n    tag_28:\n      mload(0x40)\n      dup1\n      swap2\n      sub\n      swap1\n      return\n        /* \"contracts/WhiteList.sol\":712:923  function removeFromWhitelist(address beneficiary) public isOwner {... */\n    tag_7:\n      tag_30\n      0x04\n      dup1\n      calldatasize\n      sub\n      dup2\n      add\n      swap1\n      tag_31\n      swap2\n      swap1\n      tag_32\n      jump\t// in\n    tag_31:\n      tag_33\n      jump\t// in\n    tag_30:\n      stop\n        /* \"contracts/WhiteList.sol\":210:251  mapping(address => bool) public whitelist */\n    tag_8:\n      tag_34\n      0x04\n      dup1\n      calldatasize\n      sub\n      dup2\n      add\n      swap1\n      tag_35\n      swap2\n      swap1\n      tag_32\n      jump\t// in\n    tag_35:\n      tag_36\n      jump\t// in\n    tag_34:\n      mload(0x40)\n      tag_37\n      swap2\n      swap1\n      tag_38\n      jump\t// in\n    tag_37:\n      mload(0x40)\n      dup1\n      swap2\n      sub\n      swap1\n      return\n        /* \"contracts/Owner.sol\":660:868  function changeOwner(address newOwner) public isOwner {... */\n    tag_9:\n      tag_39\n      0x04\n      dup1\n      calldatasize\n      sub\n      dup2\n      add\n      swap1\n      tag_40\n      swap2\n      swap1\n      tag_32\n      jump\t// in\n    tag_40:\n      tag_41\n      jump\t// in\n    tag_39:\n      stop\n        /* \"contracts/ProductTracking.sol\":1421:1978  function transferLotOwnership(uint256 lotId, address newOwner) public {... */\n    tag_10:\n      tag_42\n      0x04\n      dup1\n      calldatasize\n      sub\n      dup2\n      add\n      swap1\n      tag_43\n      swap2\n      swap1\n      tag_44\n      jump\t// in\n    tag_43:\n      tag_45\n      jump\t// in\n    tag_42:\n      stop\n        /* \"contracts/ProductTracking.sol\":842:1413  function registerLot(string memory manufacturer, uint256 productCount, string memory productName) public isOwner {... */\n    tag_11:\n      tag_46\n      0x04\n      dup1\n      calldatasize\n      sub\n      dup2\n      add\n      swap1\n      tag_47\n      swap2\n      swap1\n      tag_48\n      jump\t// in\n    tag_47:\n      tag_49\n      jump\t// in\n    tag_46:\n      stop\n        /* \"contracts/ProductTracking.sol\":502:547  mapping(uint256 => Lot) public getLotsDetails */\n    tag_16:\n      mstore(0x20, 0x03)\n      dup1\n      0x00\n      mstore\n      keccak256(0x00, 0x40)\n      0x00\n      swap2\n      pop\n      swap1\n      pop\n      dup1\n      0x00\n      add\n      sload\n      swap1\n      dup1\n      0x01\n      add\n      dup1\n      sload\n      tag_50\n      swap1\n      tag_51\n      jump\t// in\n    tag_50:\n      dup1\n      0x1f\n      add\n      0x20\n      dup1\n      swap2\n      div\n      mul\n      0x20\n      add\n      mload(0x40)\n      swap1\n      dup2\n      add\n      0x40\n      mstore\n      dup1\n      swap3\n      swap2\n      swap1\n      dup2\n      dup2\n      mstore\n      0x20\n      add\n      dup3\n      dup1\n      sload\n      tag_52\n      swap1\n      tag_51\n      jump\t// in\n    tag_52:\n      dup1\n      iszero\n      tag_53\n      jumpi\n      dup1\n      0x1f\n      lt\n      tag_54\n      jumpi\n      0x0100\n      dup1\n      dup4\n      sload\n      div\n      mul\n      dup4\n      mstore\n      swap2\n      0x20\n      add\n      swap2\n      jump(tag_53)\n    tag_54:\n      dup3\n      add\n      swap2\n      swap1\n      0x00\n      mstore\n      keccak256(0x00, 0x20)\n      swap1\n    tag_55:\n      dup2\n      sload\n      dup2\n      mstore\n      swap1\n      0x01\n      add\n      swap1\n      0x20\n      add\n      dup1\n      dup4\n      gt\n      tag_55\n      jumpi\n      dup3\n      swap1\n      sub\n      0x1f\n      and\n      dup3\n      add\n      swap2\n    tag_53:\n      pop\n      pop\n      pop\n      pop\n      pop\n      swap1\n      dup1\n      0x02\n      add\n      sload\n      swap1\n      dup1\n      0x03\n      add\n      dup1\n      sload\n      tag_56\n      swap1\n      tag_51\n      jump\t// in\n    tag_56:\n      dup1\n      0x1f\n      add\n      0x20\n      dup1\n      swap2\n      div\n      mul\n      0x20\n      add\n      mload(0x40)\n      swap1\n      dup2\n      add\n      0x40\n      mstore\n      dup1\n      swap3\n      swap2\n      swap1\n      dup2\n      dup2\n      mstore\n      0x20\n      add\n      dup3\n      dup1\n      sload\n      tag_57\n      swap1\n      tag_51\n      jump\t// in\n    tag_57:\n      dup1\n      iszero\n      tag_58\n      jumpi\n      dup1\n      0x1f\n      lt\n      tag_59\n      jumpi\n      0x0100\n      dup1\n      dup4\n      sload\n      div\n      mul\n      dup4\n      mstore\n      swap2\n      0x20\n      add\n      swap2\n      jump(tag_58)\n    tag_59:\n      dup3\n      add\n      swap2\n      swap1\n      0x00\n      mstore\n      keccak256(0x00, 0x20)\n      swap1\n    tag_60:\n      dup2\n      sload\n      dup2\n      mstore\n      swap1\n      0x01\n      add\n      swap1\n      0x20\n      add\n      dup1\n      dup4\n      gt\n      tag_60\n      jumpi\n      dup3\n      swap1\n      sub\n      0x1f\n      and\n      dup3\n      add\n      swap2\n    tag_58:\n      pop\n      pop\n      pop\n      pop\n      pop\n      swap1\n      dup1\n      0x04\n      add\n      0x00\n      swap1\n      sload\n      swap1\n      0x0100\n      exp\n      swap1\n      div\n      0xffffffffffffffffffffffffffffffffffffffff\n      and\n      swap1\n      dup1\n      0x05\n      add\n      sload\n      swap1\n      dup1\n      0x06\n      add\n      0x00\n      swap1\n      sload\n      swap1\n      0x0100\n      exp\n      swap1\n      div\n      0xff\n      and\n      swap1\n      pop\n      dup8\n      jump\t// out\n        /* \"contracts/ProductTracking.sol\":1988:2221  function removeLot(uint256 lotId) public isOwner {... */\n    tag_21:\n        /* \"contracts/Owner.sol\":366:371  owner */\n      0x00\n      dup1\n      sload\n      swap1\n      0x0100\n      exp\n      swap1\n      div\n      0xffffffffffffffffffffffffffffffffffffffff\n      and\n        /* \"contracts/Owner.sol\":352:371  msg.sender == owner */\n      0xffffffffffffffffffffffffffffffffffffffff\n      and\n        /* \"contracts/Owner.sol\":352:362  msg.sender */\n      caller\n        /* \"contracts/Owner.sol\":352:371  msg.sender == owner */\n      0xffffffffffffffffffffffffffffffffffffffff\n      and\n      eq\n        /* \"contracts/Owner.sol\":344:395  require(msg.sender == owner, \"Caller is not owner\") */\n      tag_62\n      jumpi\n      mload(0x40)\n      0x08c379a000000000000000000000000000000000000000000000000000000000\n      dup2\n      mstore\n      0x04\n      add\n      tag_63\n      swap1\n      tag_64\n      jump\t// in\n    tag_63:\n      mload(0x40)\n      dup1\n      swap2\n      sub\n      swap1\n      revert\n    tag_62:\n        /* \"contracts/ProductTracking.sol\":2056:2070  getLotsDetails */\n      0x03\n        /* \"contracts/ProductTracking.sol\":2056:2077  getLotsDetails[lotId] */\n      0x00\n        /* \"contracts/ProductTracking.sol\":2071:2076  lotId */\n      dup3\n        /* \"contracts/ProductTracking.sol\":2056:2077  getLotsDetails[lotId] */\n      dup2\n      mstore\n      0x20\n      add\n      swap1\n      dup2\n      mstore\n      0x20\n      add\n      0x00\n      keccak256\n        /* \"contracts/ProductTracking.sol\":2056:2086  getLotsDetails[lotId].isActive */\n      0x06\n      add\n      0x00\n      swap1\n      sload\n      swap1\n      0x0100\n      exp\n      swap1\n      div\n      0xff\n      and\n        /* \"contracts/ProductTracking.sol\":2048:2128  require(getLotsDetails[lotId].isActive, \"Lot already removed or does not exist\") */\n      tag_66\n      jumpi\n      mload(0x40)\n      0x08c379a000000000000000000000000000000000000000000000000000000000\n      dup2\n      mstore\n      0x04\n      add\n      tag_67\n      swap1\n      tag_68\n      jump\t// in\n    tag_67:\n      mload(0x40)\n      dup1\n      swap2\n      sub\n      swap1\n      revert\n    tag_66:\n        /* \"contracts/ProductTracking.sol\":2174:2179  false */\n      0x00\n        /* \"contracts/ProductTracking.sol\":2141:2155  getLotsDetails */\n      0x03\n        /* \"contracts/ProductTracking.sol\":2141:2162  getLotsDetails[lotId] */\n      0x00\n        /* \"contracts/ProductTracking.sol\":2156:2161  lotId */\n      dup4\n        /* \"contracts/ProductTracking.sol\":2141:2162  getLotsDetails[lotId] */\n      dup2\n      mstore\n      0x20\n      add\n      swap1\n      dup2\n      mstore\n      0x20\n      add\n      0x00\n      keccak256\n        /* \"contracts/ProductTracking.sol\":2141:2171  getLotsDetails[lotId].isActive */\n      0x06\n      add\n      0x00\n        /* \"contracts/ProductTracking.sol\":2141:2179  getLotsDetails[lotId].isActive = false */\n      0x0100\n      exp\n      dup2\n      sload\n      dup2\n      0xff\n      mul\n      not\n      and\n      swap1\n      dup4\n      iszero\n      iszero\n      mul\n      or\n      swap1\n      sstore\n      pop\n        /* \"contracts/ProductTracking.sol\":2195:2212  LotRemoved(lotId) */\n      0x50ff6c8267104354ffd393edb06d421ec439784c4a2c0595e11e5fb6b1ecbf43\n        /* \"contracts/ProductTracking.sol\":2206:2211  lotId */\n      dup2\n        /* \"contracts/ProductTracking.sol\":2195:2212  LotRemoved(lotId) */\n      mload(0x40)\n      tag_69\n      swap2\n      swap1\n      tag_70\n      jump\t// in\n    tag_69:\n      mload(0x40)\n      dup1\n      swap2\n      sub\n      swap1\n      log1\n        /* \"contracts/ProductTracking.sol\":1988:2221  function removeLot(uint256 lotId) public isOwner {... */\n      pop\n      jump\t// out\n        /* \"contracts/WhiteList.sol\":447:704  function addToWhitelist(address[] calldata beneficiaries) public isOwner {... */\n    tag_25:\n        /* \"contracts/Owner.sol\":366:371  owner */\n      0x00\n      dup1\n      sload\n      swap1\n      0x0100\n      exp\n      swap1\n      div\n      0xffffffffffffffffffffffffffffffffffffffff\n      and\n        /* \"contracts/Owner.sol\":352:371  msg.sender == owner */\n      0xffffffffffffffffffffffffffffffffffffffff\n      and\n        /* \"contracts/Owner.sol\":352:362  msg.sender */\n      caller\n        /* \"contracts/Owner.sol\":352:371  msg.sender == owner */\n      0xffffffffffffffffffffffffffffffffffffffff\n      and\n      eq\n        /* \"contracts/Owner.sol\":344:395  require(msg.sender == owner, \"Caller is not owner\") */\n      tag_72\n      jumpi\n      mload(0x40)\n      0x08c379a000000000000000000000000000000000000000000000000000000000\n      dup2\n      mstore\n      0x04\n      add\n      tag_73\n      swap1\n      tag_64\n      jump\t// in\n    tag_73:\n      mload(0x40)\n      dup1\n      swap2\n      sub\n      swap1\n      revert\n    tag_72:\n        /* \"contracts/WhiteList.sol\":536:545  uint256 i */\n      0x00\n        /* \"contracts/WhiteList.sol\":531:697  for (uint256 i = 0; i < beneficiaries.length; i++) {... */\n    tag_75:\n        /* \"contracts/WhiteList.sol\":555:568  beneficiaries */\n      dup3\n      dup3\n        /* \"contracts/WhiteList.sol\":555:575  beneficiaries.length */\n      swap1\n      pop\n        /* \"contracts/WhiteList.sol\":551:552  i */\n      dup2\n        /* \"contracts/WhiteList.sol\":551:575  i < beneficiaries.length */\n      lt\n        /* \"contracts/WhiteList.sol\":531:697  for (uint256 i = 0; i < beneficiaries.length; i++) {... */\n      iszero\n      tag_76\n      jumpi\n        /* \"contracts/WhiteList.sol\":627:631  true */\n      0x01\n        /* \"contracts/WhiteList.sol\":597:606  whitelist */\n      dup1\n        /* \"contracts/WhiteList.sol\":597:624  whitelist[beneficiaries[i]] */\n      0x00\n        /* \"contracts/WhiteList.sol\":607:620  beneficiaries */\n      dup6\n      dup6\n        /* \"contracts/WhiteList.sol\":621:622  i */\n      dup6\n        /* \"contracts/WhiteList.sol\":607:623  beneficiaries[i] */\n      dup2\n      dup2\n      lt\n      tag_78\n      jumpi\n      tag_79\n      tag_80\n      jump\t// in\n    tag_79:\n    tag_78:\n      swap1\n      pop\n      0x20\n      mul\n      add\n      0x20\n      dup2\n      add\n      swap1\n      tag_81\n      swap2\n      swap1\n      tag_32\n      jump\t// in\n    tag_81:\n        /* \"contracts/WhiteList.sol\":597:624  whitelist[beneficiaries[i]] */\n      0xffffffffffffffffffffffffffffffffffffffff\n      and\n      0xffffffffffffffffffffffffffffffffffffffff\n      and\n      dup2\n      mstore\n      0x20\n      add\n      swap1\n      dup2\n      mstore\n      0x20\n      add\n      0x00\n      keccak256\n      0x00\n        /* \"contracts/WhiteList.sol\":597:631  whitelist[beneficiaries[i]] = true */\n      0x0100\n      exp\n      dup2\n      sload\n      dup2\n      0xff\n      mul\n      not\n      and\n      swap1\n      dup4\n      iszero\n      iszero\n      mul\n      or\n      swap1\n      sstore\n      pop\n        /* \"contracts/WhiteList.sol\":668:681  beneficiaries */\n      dup3\n      dup3\n        /* \"contracts/WhiteList.sol\":682:683  i */\n      dup3\n        /* \"contracts/WhiteList.sol\":668:684  beneficiaries[i] */\n      dup2\n      dup2\n      lt\n      tag_82\n      jumpi\n      tag_83\n      tag_80\n      jump\t// in\n    tag_83:\n    tag_82:\n      swap1\n      pop\n      0x20\n      mul\n      add\n      0x20\n      dup2\n      add\n      swap1\n      tag_84\n      swap2\n      swap1\n      tag_32\n      jump\t// in\n    tag_84:\n        /* \"contracts/WhiteList.sol\":651:685  AddedBeneficiary(beneficiaries[i]) */\n      0xffffffffffffffffffffffffffffffffffffffff\n      and\n      0x2e3361a4e7a8b067d0bbafcb5811e35ba5eccbb7a274be8bcfe4fb6f81fe30c8\n      mload(0x40)\n      mload(0x40)\n      dup1\n      swap2\n      sub\n      swap1\n      log2\n        /* \"contracts/WhiteList.sol\":577:580  i++ */\n      dup1\n      dup1\n      0x01\n      add\n      swap2\n      pop\n      pop\n        /* \"contracts/WhiteList.sol\":531:697  for (uint256 i = 0; i < beneficiaries.length; i++) {... */\n      jump(tag_75)\n    tag_76:\n      pop\n        /* \"contracts/WhiteList.sol\":447:704  function addToWhitelist(address[] calldata beneficiaries) public isOwner {... */\n      pop\n      pop\n      jump\t// out\n        /* \"contracts/Owner.sol\":955:1036  function getOwner() external view returns (address) {... */\n    tag_27:\n        /* \"contracts/Owner.sol\":998:1005  address */\n      0x00\n        /* \"contracts/Owner.sol\":1024:1029  owner */\n      dup1\n      0x00\n      swap1\n      sload\n      swap1\n      0x0100\n      exp\n      swap1\n      div\n      0xffffffffffffffffffffffffffffffffffffffff\n      and\n        /* \"contracts/Owner.sol\":1017:1029  return owner */\n      swap1\n      pop\n        /* \"contracts/Owner.sol\":955:1036  function getOwner() external view returns (address) {... */\n      swap1\n      jump\t// out\n        /* \"contracts/WhiteList.sol\":712:923  function removeFromWhitelist(address beneficiary) public isOwner {... */\n    tag_33:\n        /* \"contracts/Owner.sol\":366:371  owner */\n      0x00\n      dup1\n      sload\n      swap1\n      0x0100\n      exp\n      swap1\n      div\n      0xffffffffffffffffffffffffffffffffffffffff\n      and\n        /* \"contracts/Owner.sol\":352:371  msg.sender == owner */\n      0xffffffffffffffffffffffffffffffffffffffff\n      and\n        /* \"contracts/Owner.sol\":352:362  msg.sender */\n      caller\n        /* \"contracts/Owner.sol\":352:371  msg.sender == owner */\n      0xffffffffffffffffffffffffffffffffffffffff\n      and\n      eq\n        /* \"contracts/Owner.sol\":344:395  require(msg.sender == owner, \"Caller is not owner\") */\n      tag_87\n      jumpi\n      mload(0x40)\n      0x08c379a000000000000000000000000000000000000000000000000000000000\n      dup2\n      mstore\n      0x04\n      add\n      tag_88\n      swap1\n      tag_64\n      jump\t// in\n    tag_88:\n      mload(0x40)\n      dup1\n      swap2\n      sub\n      swap1\n      revert\n    tag_87:\n        /* \"contracts/WhiteList.sol\":813:818  false */\n      0x00\n        /* \"contracts/WhiteList.sol\":788:797  whitelist */\n      0x01\n        /* \"contracts/WhiteList.sol\":788:810  whitelist[beneficiary] */\n      0x00\n        /* \"contracts/WhiteList.sol\":798:809  beneficiary */\n      dup4\n        /* \"contracts/WhiteList.sol\":788:810  whitelist[beneficiary] */\n      0xffffffffffffffffffffffffffffffffffffffff\n      and\n      0xffffffffffffffffffffffffffffffffffffffff\n      and\n      dup2\n      mstore\n      0x20\n      add\n      swap1\n      dup2\n      mstore\n      0x20\n      add\n      0x00\n      keccak256\n      0x00\n        /* \"contracts/WhiteList.sol\":788:818  whitelist[beneficiary] = false */\n      0x0100\n      exp\n      dup2\n      sload\n      dup2\n      0xff\n      mul\n      not\n      and\n      swap1\n      dup4\n      iszero\n      iszero\n      mul\n      or\n      swap1\n      sstore\n      pop\n        /* \"contracts/WhiteList.sol\":851:862  beneficiary */\n      dup1\n        /* \"contracts/WhiteList.sol\":834:863  AddedBeneficiary(beneficiary) */\n      0xffffffffffffffffffffffffffffffffffffffff\n      and\n      0x2e3361a4e7a8b067d0bbafcb5811e35ba5eccbb7a274be8bcfe4fb6f81fe30c8\n      mload(0x40)\n      mload(0x40)\n      dup1\n      swap2\n      sub\n      swap1\n      log2\n        /* \"contracts/WhiteList.sol\":712:923  function removeFromWhitelist(address beneficiary) public isOwner {... */\n      pop\n      jump\t// out\n        /* \"contracts/WhiteList.sol\":210:251  mapping(address => bool) public whitelist */\n    tag_36:\n      mstore(0x20, 0x01)\n      dup1\n      0x00\n      mstore\n      keccak256(0x00, 0x40)\n      0x00\n      swap2\n      pop\n      sload\n      swap1\n      0x0100\n      exp\n      swap1\n      div\n      0xff\n      and\n      dup2\n      jump\t// out\n        /* \"contracts/Owner.sol\":660:868  function changeOwner(address newOwner) public isOwner {... */\n    tag_41:\n        /* \"contracts/Owner.sol\":366:371  owner */\n      0x00\n      dup1\n      sload\n      swap1\n      0x0100\n      exp\n      swap1\n      div\n      0xffffffffffffffffffffffffffffffffffffffff\n      and\n        /* \"contracts/Owner.sol\":352:371  msg.sender == owner */\n      0xffffffffffffffffffffffffffffffffffffffff\n      and\n        /* \"contracts/Owner.sol\":352:362  msg.sender */\n      caller\n        /* \"contracts/Owner.sol\":352:371  msg.sender == owner */\n      0xffffffffffffffffffffffffffffffffffffffff\n      and\n      eq\n        /* \"contracts/Owner.sol\":344:395  require(msg.sender == owner, \"Caller is not owner\") */\n      tag_91\n      jumpi\n      mload(0x40)\n      0x08c379a000000000000000000000000000000000000000000000000000000000\n      dup2\n      mstore\n      0x04\n      add\n      tag_92\n      swap1\n      tag_64\n      jump\t// in\n    tag_92:\n      mload(0x40)\n      dup1\n      swap2\n      sub\n      swap1\n      revert\n    tag_91:\n        /* \"contracts/Owner.sol\":752:753  0 */\n      0x00\n        /* \"contracts/Owner.sol\":732:754  newOwner != address(0) */\n      0xffffffffffffffffffffffffffffffffffffffff\n      and\n        /* \"contracts/Owner.sol\":732:740  newOwner */\n      dup2\n        /* \"contracts/Owner.sol\":732:754  newOwner != address(0) */\n      0xffffffffffffffffffffffffffffffffffffffff\n      and\n      sub\n        /* \"contracts/Owner.sol\":724:795  require(newOwner != address(0), \"New owner cannot be the zero address\") */\n      tag_94\n      jumpi\n      mload(0x40)\n      0x08c379a000000000000000000000000000000000000000000000000000000000\n      dup2\n      mstore\n      0x04\n      add\n      tag_95\n      swap1\n      tag_96\n      jump\t// in\n    tag_95:\n      mload(0x40)\n      dup1\n      swap2\n      sub\n      swap1\n      revert\n    tag_94:\n        /* \"contracts/Owner.sol\":826:834  newOwner */\n      dup1\n        /* \"contracts/Owner.sol\":810:835  OwnerSet(owner, newOwner) */\n      0xffffffffffffffffffffffffffffffffffffffff\n      and\n        /* \"contracts/Owner.sol\":819:824  owner */\n      0x00\n      dup1\n      sload\n      swap1\n      0x0100\n      exp\n      swap1\n      div\n      0xffffffffffffffffffffffffffffffffffffffff\n      and\n        /* \"contracts/Owner.sol\":810:835  OwnerSet(owner, newOwner) */\n      0xffffffffffffffffffffffffffffffffffffffff\n      and\n      0x342827c97908e5e2f71151c08502a66d44b6f758e3ac2f1de95f02eb95f0a735\n      mload(0x40)\n      mload(0x40)\n      dup1\n      swap2\n      sub\n      swap1\n      log3\n        /* \"contracts/Owner.sol\":853:861  newOwner */\n      dup1\n        /* \"contracts/Owner.sol\":845:850  owner */\n      0x00\n      dup1\n        /* \"contracts/Owner.sol\":845:861  owner = newOwner */\n      0x0100\n      exp\n      dup2\n      sload\n      dup2\n      0xffffffffffffffffffffffffffffffffffffffff\n      mul\n      not\n      and\n      swap1\n      dup4\n      0xffffffffffffffffffffffffffffffffffffffff\n      and\n      mul\n      or\n      swap1\n      sstore\n      pop\n        /* \"contracts/Owner.sol\":660:868  function changeOwner(address newOwner) public isOwner {... */\n      pop\n      jump\t// out\n        /* \"contracts/ProductTracking.sol\":1421:1978  function transferLotOwnership(uint256 lotId, address newOwner) public {... */\n    tag_45:\n        /* \"contracts/ProductTracking.sol\":1510:1533  isWhitelisted(newOwner) */\n      tag_98\n        /* \"contracts/ProductTracking.sol\":1524:1532  newOwner */\n      dup2\n        /* \"contracts/ProductTracking.sol\":1510:1523  isWhitelisted */\n      tag_99\n        /* \"contracts/ProductTracking.sol\":1510:1533  isWhitelisted(newOwner) */\n      jump\t// in\n    tag_98:\n        /* \"contracts/ProductTracking.sol\":1502:1566  require(isWhitelisted(newOwner), \"New owner is not whitelisted\") */\n      tag_100\n      jumpi\n      mload(0x40)\n      0x08c379a000000000000000000000000000000000000000000000000000000000\n      dup2\n      mstore\n      0x04\n      add\n      tag_101\n      swap1\n      tag_102\n      jump\t// in\n    tag_101:\n      mload(0x40)\n      dup1\n      swap2\n      sub\n      swap1\n      revert\n    tag_100:\n        /* \"contracts/ProductTracking.sol\":1577:1592  Lot storage lot */\n      0x00\n        /* \"contracts/ProductTracking.sol\":1595:1609  getLotsDetails */\n      0x03\n        /* \"contracts/ProductTracking.sol\":1595:1616  getLotsDetails[lotId] */\n      0x00\n        /* \"contracts/ProductTracking.sol\":1610:1615  lotId */\n      dup5\n        /* \"contracts/ProductTracking.sol\":1595:1616  getLotsDetails[lotId] */\n      dup2\n      mstore\n      0x20\n      add\n      swap1\n      dup2\n      mstore\n      0x20\n      add\n      0x00\n      keccak256\n        /* \"contracts/ProductTracking.sol\":1577:1616  Lot storage lot = getLotsDetails[lotId] */\n      swap1\n      pop\n        /* \"contracts/ProductTracking.sol\":1635:1638  lot */\n      dup1\n        /* \"contracts/ProductTracking.sol\":1635:1647  lot.isActive */\n      0x06\n      add\n      0x00\n      swap1\n      sload\n      swap1\n      0x0100\n      exp\n      swap1\n      div\n      0xff\n      and\n        /* \"contracts/ProductTracking.sol\":1627:1669  require(lot.isActive, \"Lot is not active\") */\n      tag_103\n      jumpi\n      mload(0x40)\n      0x08c379a000000000000000000000000000000000000000000000000000000000\n      dup2\n      mstore\n      0x04\n      add\n      tag_104\n      swap1\n      tag_105\n      jump\t// in\n    tag_104:\n      mload(0x40)\n      dup1\n      swap2\n      sub\n      swap1\n      revert\n    tag_103:\n        /* \"contracts/ProductTracking.sol\":1702:1705  lot */\n      dup1\n        /* \"contracts/ProductTracking.sol\":1702:1718  lot.currentOwner */\n      0x04\n      add\n      0x00\n      swap1\n      sload\n      swap1\n      0x0100\n      exp\n      swap1\n      div\n      0xffffffffffffffffffffffffffffffffffffffff\n      and\n        /* \"contracts/ProductTracking.sol\":1688:1718  msg.sender == lot.currentOwner */\n      0xffffffffffffffffffffffffffffffffffffffff\n      and\n        /* \"contracts/ProductTracking.sol\":1688:1698  msg.sender */\n      caller\n        /* \"contracts/ProductTracking.sol\":1688:1718  msg.sender == lot.currentOwner */\n      0xffffffffffffffffffffffffffffffffffffffff\n      and\n      eq\n        /* \"contracts/ProductTracking.sol\":1680:1762  require(msg.sender == lot.currentOwner, \"Only current owner can transfer the lot\") */\n      tag_106\n      jumpi\n      mload(0x40)\n      0x08c379a000000000000000000000000000000000000000000000000000000000\n      dup2\n      mstore\n      0x04\n      add\n      tag_107\n      swap1\n      tag_108\n      jump\t// in\n    tag_107:\n      mload(0x40)\n      dup1\n      swap2\n      sub\n      swap1\n      revert\n    tag_106:\n        /* \"contracts/ProductTracking.sol\":1775:1796  address previousOwner */\n      0x00\n        /* \"contracts/ProductTracking.sol\":1799:1802  lot */\n      dup2\n        /* \"contracts/ProductTracking.sol\":1799:1815  lot.currentOwner */\n      0x04\n      add\n      0x00\n      swap1\n      sload\n      swap1\n      0x0100\n      exp\n      swap1\n      div\n      0xffffffffffffffffffffffffffffffffffffffff\n      and\n        /* \"contracts/ProductTracking.sol\":1775:1815  address previousOwner = lot.currentOwner */\n      swap1\n      pop\n        /* \"contracts/ProductTracking.sol\":1845:1853  newOwner */\n      dup3\n        /* \"contracts/ProductTracking.sol\":1826:1829  lot */\n      dup3\n        /* \"contracts/ProductTracking.sol\":1826:1842  lot.currentOwner */\n      0x04\n      add\n      0x00\n        /* \"contracts/ProductTracking.sol\":1826:1853  lot.currentOwner = newOwner */\n      0x0100\n      exp\n      dup2\n      sload\n      dup2\n      0xffffffffffffffffffffffffffffffffffffffff\n      mul\n      not\n      and\n      swap1\n      dup4\n      0xffffffffffffffffffffffffffffffffffffffff\n      and\n      mul\n      or\n      swap1\n      sstore\n      pop\n        /* \"contracts/ProductTracking.sol\":1885:1900  block.timestamp */\n      timestamp\n        /* \"contracts/ProductTracking.sol\":1864:1867  lot */\n      dup3\n        /* \"contracts/ProductTracking.sol\":1864:1882  lot.dateOfPurchase */\n      0x05\n      add\n        /* \"contracts/ProductTracking.sol\":1864:1900  lot.dateOfPurchase = block.timestamp */\n      dup2\n      swap1\n      sstore\n      pop\n        /* \"contracts/ProductTracking.sol\":1961:1969  newOwner */\n      dup3\n        /* \"contracts/ProductTracking.sol\":1918:1970  OwnershipTransferred(lotId, previousOwner, newOwner) */\n      0xffffffffffffffffffffffffffffffffffffffff\n      and\n        /* \"contracts/ProductTracking.sol\":1946:1959  previousOwner */\n      dup2\n        /* \"contracts/ProductTracking.sol\":1918:1970  OwnershipTransferred(lotId, previousOwner, newOwner) */\n      0xffffffffffffffffffffffffffffffffffffffff\n      and\n      0x16b85f49bf01212961345d3016c9a531894accf62eb7680f2045d79185cc0ec0\n        /* \"contracts/ProductTracking.sol\":1939:1944  lotId */\n      dup7\n        /* \"contracts/ProductTracking.sol\":1918:1970  OwnershipTransferred(lotId, previousOwner, newOwner) */\n      mload(0x40)\n      tag_109\n      swap2\n      swap1\n      tag_70\n      jump\t// in\n    tag_109:\n      mload(0x40)\n      dup1\n      swap2\n      sub\n      swap1\n      log3\n        /* \"contracts/ProductTracking.sol\":1491:1978  {... */\n      pop\n      pop\n        /* \"contracts/ProductTracking.sol\":1421:1978  function transferLotOwnership(uint256 lotId, address newOwner) public {... */\n      pop\n      pop\n      jump\t// out\n        /* \"contracts/ProductTracking.sol\":842:1413  function registerLot(string memory manufacturer, uint256 productCount, string memory productName) public isOwner {... */\n    tag_49:\n        /* \"contracts/Owner.sol\":366:371  owner */\n      0x00\n      dup1\n      sload\n      swap1\n      0x0100\n      exp\n      swap1\n      div\n      0xffffffffffffffffffffffffffffffffffffffff\n      and\n        /* \"contracts/Owner.sol\":352:371  msg.sender == owner */\n      0xffffffffffffffffffffffffffffffffffffffff\n      and\n        /* \"contracts/Owner.sol\":352:362  msg.sender */\n      caller\n        /* \"contracts/Owner.sol\":352:371  msg.sender == owner */\n      0xffffffffffffffffffffffffffffffffffffffff\n      and\n      eq\n        /* \"contracts/Owner.sol\":344:395  require(msg.sender == owner, \"Caller is not owner\") */\n      tag_111\n      jumpi\n      mload(0x40)\n      0x08c379a000000000000000000000000000000000000000000000000000000000\n      dup2\n      mstore\n      0x04\n      add\n      tag_112\n      swap1\n      tag_64\n      jump\t// in\n    tag_112:\n      mload(0x40)\n      dup1\n      swap2\n      sub\n      swap1\n      revert\n    tag_111:\n        /* \"contracts/ProductTracking.sol\":966:976  lotCounter */\n      0x02\n      0x00\n        /* \"contracts/ProductTracking.sol\":966:978  lotCounter++ */\n      dup2\n      sload\n      dup1\n      swap3\n      swap2\n      swap1\n      tag_114\n      swap1\n      tag_115\n      jump\t// in\n    tag_114:\n      swap2\n      swap1\n      pop\n      sstore\n      pop\n        /* \"contracts/ProductTracking.sol\":989:1005  uint256 newLotId */\n      0x00\n        /* \"contracts/ProductTracking.sol\":1008:1018  lotCounter */\n      sload(0x02)\n        /* \"contracts/ProductTracking.sol\":989:1018  uint256 newLotId = lotCounter */\n      swap1\n      pop\n        /* \"contracts/ProductTracking.sol\":1058:1337  Lot({... */\n      mload(0x40)\n      dup1\n      0xe0\n      add\n      0x40\n      mstore\n      dup1\n        /* \"contracts/ProductTracking.sol\":1081:1089  newLotId */\n      dup3\n        /* \"contracts/ProductTracking.sol\":1058:1337  Lot({... */\n      dup2\n      mstore\n      0x20\n      add\n        /* \"contracts/ProductTracking.sol\":1118:1130  manufacturer */\n      dup6\n        /* \"contracts/ProductTracking.sol\":1058:1337  Lot({... */\n      dup2\n      mstore\n      0x20\n      add\n        /* \"contracts/ProductTracking.sol\":1159:1171  productCount */\n      dup5\n        /* \"contracts/ProductTracking.sol\":1058:1337  Lot({... */\n      dup2\n      mstore\n      0x20\n      add\n        /* \"contracts/ProductTracking.sol\":1199:1210  productName */\n      dup4\n        /* \"contracts/ProductTracking.sol\":1058:1337  Lot({... */\n      dup2\n      mstore\n      0x20\n      add\n        /* \"contracts/ProductTracking.sol\":1239:1249  msg.sender */\n      caller\n        /* \"contracts/ProductTracking.sol\":1058:1337  Lot({... */\n      0xffffffffffffffffffffffffffffffffffffffff\n      and\n      dup2\n      mstore\n      0x20\n      add\n        /* \"contracts/ProductTracking.sol\":1280:1295  block.timestamp */\n      timestamp\n        /* \"contracts/ProductTracking.sol\":1058:1337  Lot({... */\n      dup2\n      mstore\n      0x20\n      add\n        /* \"contracts/ProductTracking.sol\":1321:1325  true */\n      0x01\n        /* \"contracts/ProductTracking.sol\":1058:1337  Lot({... */\n      iszero\n      iszero\n      dup2\n      mstore\n      pop\n        /* \"contracts/ProductTracking.sol\":1031:1045  getLotsDetails */\n      0x03\n        /* \"contracts/ProductTracking.sol\":1031:1055  getLotsDetails[newLotId] */\n      0x00\n        /* \"contracts/ProductTracking.sol\":1046:1054  newLotId */\n      dup4\n        /* \"contracts/ProductTracking.sol\":1031:1055  getLotsDetails[newLotId] */\n      dup2\n      mstore\n      0x20\n      add\n      swap1\n      dup2\n      mstore\n      0x20\n      add\n      0x00\n      keccak256\n        /* \"contracts/ProductTracking.sol\":1031:1337  getLotsDetails[newLotId] = Lot({... */\n      0x00\n      dup3\n      add\n      mload\n      dup2\n      0x00\n      add\n      sstore\n      0x20\n      dup3\n      add\n      mload\n      dup2\n      0x01\n      add\n      swap1\n      dup2\n      tag_116\n      swap2\n      swap1\n      tag_117\n      jump\t// in\n    tag_116:\n      pop\n      0x40\n      dup3\n      add\n      mload\n      dup2\n      0x02\n      add\n      sstore\n      0x60\n      dup3\n      add\n      mload\n      dup2\n      0x03\n      add\n      swap1\n      dup2\n      tag_118\n      swap2\n      swap1\n      tag_117\n      jump\t// in\n    tag_118:\n      pop\n      0x80\n      dup3\n      add\n      mload\n      dup2\n      0x04\n      add\n      exp(0x0100, 0x00)\n      dup2\n      sload\n      dup2\n      0xffffffffffffffffffffffffffffffffffffffff\n      mul\n      not\n      and\n      swap1\n      dup4\n      0xffffffffffffffffffffffffffffffffffffffff\n      and\n      mul\n      or\n      swap1\n      sstore\n      pop\n      0xa0\n      dup3\n      add\n      mload\n      dup2\n      0x05\n      add\n      sstore\n      0xc0\n      dup3\n      add\n      mload\n      dup2\n      0x06\n      add\n      exp(0x0100, 0x00)\n      dup2\n      sload\n      dup2\n      0xff\n      mul\n      not\n      and\n      swap1\n      dup4\n      iszero\n      iszero\n      mul\n      or\n      swap1\n      sstore\n      pop\n      swap1\n      pop\n      pop\n        /* \"contracts/ProductTracking.sol\":1355:1405  LotRegistered(newLotId, manufacturer, productName) */\n      0x15b6890af0e66873b46f545c2578a72329a3f376146d1847dd82e30d4b37bfd6\n        /* \"contracts/ProductTracking.sol\":1369:1377  newLotId */\n      dup2\n        /* \"contracts/ProductTracking.sol\":1379:1391  manufacturer */\n      dup6\n        /* \"contracts/ProductTracking.sol\":1393:1404  productName */\n      dup5\n        /* \"contracts/ProductTracking.sol\":1355:1405  LotRegistered(newLotId, manufacturer, productName) */\n      mload(0x40)\n      tag_119\n      swap4\n      swap3\n      swap2\n      swap1\n      tag_120\n      jump\t// in\n    tag_119:\n      mload(0x40)\n      dup1\n      swap2\n      sub\n      swap1\n      log1\n        /* \"contracts/ProductTracking.sol\":955:1413  {... */\n      pop\n        /* \"contracts/ProductTracking.sol\":842:1413  function registerLot(string memory manufacturer, uint256 productCount, string memory productName) public isOwner {... */\n      pop\n      pop\n      pop\n      jump\t// out\n        /* \"contracts/WhiteList.sol\":318:439  function isWhitelisted(address beneficiary) internal view returns (bool) {... */\n    tag_99:\n        /* \"contracts/WhiteList.sol\":385:389  bool */\n      0x00\n        /* \"contracts/WhiteList.sol\":409:418  whitelist */\n      0x01\n        /* \"contracts/WhiteList.sol\":409:431  whitelist[beneficiary] */\n      0x00\n        /* \"contracts/WhiteList.sol\":419:430  beneficiary */\n      dup4\n        /* \"contracts/WhiteList.sol\":409:431  whitelist[beneficiary] */\n      0xffffffffffffffffffffffffffffffffffffffff\n      and\n      0xffffffffffffffffffffffffffffffffffffffff\n      and\n      dup2\n      mstore\n      0x20\n      add\n      swap1\n      dup2\n      mstore\n      0x20\n      add\n      0x00\n      keccak256\n      0x00\n      swap1\n      sload\n      swap1\n      0x0100\n      exp\n      swap1\n      div\n      0xff\n      and\n        /* \"contracts/WhiteList.sol\":402:431  return whitelist[beneficiary] */\n      swap1\n      pop\n        /* \"contracts/WhiteList.sol\":318:439  function isWhitelisted(address beneficiary) internal view returns (bool) {... */\n      swap2\n      swap1\n      pop\n      jump\t// out\n        /* \"#utility.yul\":7:82   */\n    tag_122:\n        /* \"#utility.yul\":40:46   */\n      0x00\n        /* \"#utility.yul\":73:75   */\n      0x40\n        /* \"#utility.yul\":67:76   */\n      mload\n        /* \"#utility.yul\":57:76   */\n      swap1\n      pop\n        /* \"#utility.yul\":7:82   */\n      swap1\n      jump\t// out\n        /* \"#utility.yul\":88:205   */\n    tag_123:\n        /* \"#utility.yul\":197:198   */\n      0x00\n        /* \"#utility.yul\":194:195   */\n      dup1\n        /* \"#utility.yul\":187:199   */\n      revert\n        /* \"#utility.yul\":211:328   */\n    tag_124:\n        /* \"#utility.yul\":320:321   */\n      0x00\n        /* \"#utility.yul\":317:318   */\n      dup1\n        /* \"#utility.yul\":310:322   */\n      revert\n        /* \"#utility.yul\":334:411   */\n    tag_125:\n        /* \"#utility.yul\":371:378   */\n      0x00\n        /* \"#utility.yul\":400:405   */\n      dup2\n        /* \"#utility.yul\":389:405   */\n      swap1\n      pop\n        /* \"#utility.yul\":334:411   */\n      swap2\n      swap1\n      pop\n      jump\t// out\n        /* \"#utility.yul\":417:539   */\n    tag_126:\n        /* \"#utility.yul\":490:514   */\n      tag_188\n        /* \"#utility.yul\":508:513   */\n      dup2\n        /* \"#utility.yul\":490:514   */\n      tag_125\n      jump\t// in\n    tag_188:\n        /* \"#utility.yul\":483:488   */\n      dup2\n        /* \"#utility.yul\":480:515   */\n      eq\n        /* \"#utility.yul\":470:533   */\n      tag_189\n      jumpi\n        /* \"#utility.yul\":529:530   */\n      0x00\n        /* \"#utility.yul\":526:527   */\n      dup1\n        /* \"#utility.yul\":519:531   */\n      revert\n        /* \"#utility.yul\":470:533   */\n    tag_189:\n        /* \"#utility.yul\":417:539   */\n      pop\n      jump\t// out\n        /* \"#utility.yul\":545:684   */\n    tag_127:\n        /* \"#utility.yul\":591:596   */\n      0x00\n        /* \"#utility.yul\":629:635   */\n      dup2\n        /* \"#utility.yul\":616:636   */\n      calldataload\n        /* \"#utility.yul\":607:636   */\n      swap1\n      pop\n        /* \"#utility.yul\":645:678   */\n      tag_191\n        /* \"#utility.yul\":672:677   */\n      dup2\n        /* \"#utility.yul\":645:678   */\n      tag_126\n      jump\t// in\n    tag_191:\n        /* \"#utility.yul\":545:684   */\n      swap3\n      swap2\n      pop\n      pop\n      jump\t// out\n        /* \"#utility.yul\":690:1019   */\n    tag_15:\n        /* \"#utility.yul\":749:755   */\n      0x00\n        /* \"#utility.yul\":798:800   */\n      0x20\n        /* \"#utility.yul\":786:795   */\n      dup3\n        /* \"#utility.yul\":777:784   */\n      dup5\n        /* \"#utility.yul\":773:796   */\n      sub\n        /* \"#utility.yul\":769:801   */\n      slt\n        /* \"#utility.yul\":766:885   */\n      iszero\n      tag_193\n      jumpi\n        /* \"#utility.yul\":804:883   */\n      tag_194\n      tag_123\n      jump\t// in\n    tag_194:\n        /* \"#utility.yul\":766:885   */\n    tag_193:\n        /* \"#utility.yul\":924:925   */\n      0x00\n        /* \"#utility.yul\":949:1002   */\n      tag_195\n        /* \"#utility.yul\":994:1001   */\n      dup5\n        /* \"#utility.yul\":985:991   */\n      dup3\n        /* \"#utility.yul\":974:983   */\n      dup6\n        /* \"#utility.yul\":970:992   */\n      add\n        /* \"#utility.yul\":949:1002   */\n      tag_127\n      jump\t// in\n    tag_195:\n        /* \"#utility.yul\":939:1002   */\n      swap2\n      pop\n        /* \"#utility.yul\":895:1012   */\n      pop\n        /* \"#utility.yul\":690:1019   */\n      swap3\n      swap2\n      pop\n      pop\n      jump\t// out\n        /* \"#utility.yul\":1025:1143   */\n    tag_128:\n        /* \"#utility.yul\":1112:1136   */\n      tag_197\n        /* \"#utility.yul\":1130:1135   */\n      dup2\n        /* \"#utility.yul\":1112:1136   */\n      tag_125\n      jump\t// in\n    tag_197:\n        /* \"#utility.yul\":1107:1110   */\n      dup3\n        /* \"#utility.yul\":1100:1137   */\n      mstore\n        /* \"#utility.yul\":1025:1143   */\n      pop\n      pop\n      jump\t// out\n        /* \"#utility.yul\":1149:1248   */\n    tag_129:\n        /* \"#utility.yul\":1201:1207   */\n      0x00\n        /* \"#utility.yul\":1235:1240   */\n      dup2\n        /* \"#utility.yul\":1229:1241   */\n      mload\n        /* \"#utility.yul\":1219:1241   */\n      swap1\n      pop\n        /* \"#utility.yul\":1149:1248   */\n      swap2\n      swap1\n      pop\n      jump\t// out\n        /* \"#utility.yul\":1254:1423   */\n    tag_130:\n        /* \"#utility.yul\":1338:1349   */\n      0x00\n        /* \"#utility.yul\":1372:1378   */\n      dup3\n        /* \"#utility.yul\":1367:1370   */\n      dup3\n        /* \"#utility.yul\":1360:1379   */\n      mstore\n        /* \"#utility.yul\":1412:1416   */\n      0x20\n        /* \"#utility.yul\":1407:1410   */\n      dup3\n        /* \"#utility.yul\":1403:1417   */\n      add\n        /* \"#utility.yul\":1388:1417   */\n      swap1\n      pop\n        /* \"#utility.yul\":1254:1423   */\n      swap3\n      swap2\n      pop\n      pop\n      jump\t// out\n        /* \"#utility.yul\":1429:1677   */\n    tag_131:\n        /* \"#utility.yul\":1511:1512   */\n      0x00\n        /* \"#utility.yul\":1521:1634   */\n    tag_201:\n        /* \"#utility.yul\":1535:1541   */\n      dup4\n        /* \"#utility.yul\":1532:1533   */\n      dup2\n        /* \"#utility.yul\":1529:1542   */\n      lt\n        /* \"#utility.yul\":1521:1634   */\n      iszero\n      tag_203\n      jumpi\n        /* \"#utility.yul\":1620:1621   */\n      dup1\n        /* \"#utility.yul\":1615:1618   */\n      dup3\n        /* \"#utility.yul\":1611:1622   */\n      add\n        /* \"#utility.yul\":1605:1623   */\n      mload\n        /* \"#utility.yul\":1601:1602   */\n      dup2\n        /* \"#utility.yul\":1596:1599   */\n      dup5\n        /* \"#utility.yul\":1592:1603   */\n      add\n        /* \"#utility.yul\":1585:1624   */\n      mstore\n        /* \"#utility.yul\":1557:1559   */\n      0x20\n        /* \"#utility.yul\":1554:1555   */\n      dup2\n        /* \"#utility.yul\":1550:1560   */\n      add\n        /* \"#utility.yul\":1545:1560   */\n      swap1\n      pop\n        /* \"#utility.yul\":1521:1634   */\n      jump(tag_201)\n    tag_203:\n        /* \"#utility.yul\":1668:1669   */\n      0x00\n        /* \"#utility.yul\":1659:1665   */\n      dup5\n        /* \"#utility.yul\":1654:1657   */\n      dup5\n        /* \"#utility.yul\":1650:1666   */\n      add\n        /* \"#utility.yul\":1643:1670   */\n      mstore\n        /* \"#utility.yul\":1491:1677   */\n      pop\n        /* \"#utility.yul\":1429:1677   */\n      pop\n      pop\n      pop\n      jump\t// out\n        /* \"#utility.yul\":1683:1785   */\n    tag_132:\n        /* \"#utility.yul\":1724:1730   */\n      0x00\n        /* \"#utility.yul\":1775:1777   */\n      0x1f\n        /* \"#utility.yul\":1771:1778   */\n      not\n        /* \"#utility.yul\":1766:1768   */\n      0x1f\n        /* \"#utility.yul\":1759:1764   */\n      dup4\n        /* \"#utility.yul\":1755:1769   */\n      add\n        /* \"#utility.yul\":1751:1779   */\n      and\n        /* \"#utility.yul\":1741:1779   */\n      swap1\n      pop\n        /* \"#utility.yul\":1683:1785   */\n      swap2\n      swap1\n      pop\n      jump\t// out\n        /* \"#utility.yul\":1791:2168   */\n    tag_133:\n        /* \"#utility.yul\":1879:1882   */\n      0x00\n        /* \"#utility.yul\":1907:1946   */\n      tag_206\n        /* \"#utility.yul\":1940:1945   */\n      dup3\n        /* \"#utility.yul\":1907:1946   */\n      tag_129\n      jump\t// in\n    tag_206:\n        /* \"#utility.yul\":1962:2033   */\n      tag_207\n        /* \"#utility.yul\":2026:2032   */\n      dup2\n        /* \"#utility.yul\":2021:2024   */\n      dup6\n        /* \"#utility.yul\":1962:2033   */\n      tag_130\n      jump\t// in\n    tag_207:\n        /* \"#utility.yul\":1955:2033   */\n      swap4\n      pop\n        /* \"#utility.yul\":2042:2107   */\n      tag_208\n        /* \"#utility.yul\":2100:2106   */\n      dup2\n        /* \"#utility.yul\":2095:2098   */\n      dup6\n        /* \"#utility.yul\":2088:2092   */\n      0x20\n        /* \"#utility.yul\":2081:2086   */\n      dup7\n        /* \"#utility.yul\":2077:2093   */\n      add\n        /* \"#utility.yul\":2042:2107   */\n      tag_131\n      jump\t// in\n    tag_208:\n        /* \"#utility.yul\":2132:2161   */\n      tag_209\n        /* \"#utility.yul\":2154:2160   */\n      dup2\n        /* \"#utility.yul\":2132:2161   */\n      tag_132\n      jump\t// in\n    tag_209:\n        /* \"#utility.yul\":2127:2130   */\n      dup5\n        /* \"#utility.yul\":2123:2162   */\n      add\n        /* \"#utility.yul\":2116:2162   */\n      swap2\n      pop\n        /* \"#utility.yul\":1883:2168   */\n      pop\n        /* \"#utility.yul\":1791:2168   */\n      swap3\n      swap2\n      pop\n      pop\n      jump\t// out\n        /* \"#utility.yul\":2174:2300   */\n    tag_134:\n        /* \"#utility.yul\":2211:2218   */\n      0x00\n        /* \"#utility.yul\":2251:2293   */\n      0xffffffffffffffffffffffffffffffffffffffff\n        /* \"#utility.yul\":2244:2249   */\n      dup3\n        /* \"#utility.yul\":2240:2294   */\n      and\n        /* \"#utility.yul\":2229:2294   */\n      swap1\n      pop\n        /* \"#utility.yul\":2174:2300   */\n      swap2\n      swap1\n      pop\n      jump\t// out\n        /* \"#utility.yul\":2306:2402   */\n    tag_135:\n        /* \"#utility.yul\":2343:2350   */\n      0x00\n        /* \"#utility.yul\":2372:2396   */\n      tag_212\n        /* \"#utility.yul\":2390:2395   */\n      dup3\n        /* \"#utility.yul\":2372:2396   */\n      tag_134\n      jump\t// in\n    tag_212:\n        /* \"#utility.yul\":2361:2396   */\n      swap1\n      pop\n        /* \"#utility.yul\":2306:2402   */\n      swap2\n      swap1\n      pop\n      jump\t// out\n        /* \"#utility.yul\":2408:2526   */\n    tag_136:\n        /* \"#utility.yul\":2495:2519   */\n      tag_214\n        /* \"#utility.yul\":2513:2518   */\n      dup2\n        /* \"#utility.yul\":2495:2519   */\n      tag_135\n      jump\t// in\n    tag_214:\n        /* \"#utility.yul\":2490:2493   */\n      dup3\n        /* \"#utility.yul\":2483:2520   */\n      mstore\n        /* \"#utility.yul\":2408:2526   */\n      pop\n      pop\n      jump\t// out\n        /* \"#utility.yul\":2532:2622   */\n    tag_137:\n        /* \"#utility.yul\":2566:2573   */\n      0x00\n        /* \"#utility.yul\":2609:2614   */\n      dup2\n        /* \"#utility.yul\":2602:2615   */\n      iszero\n        /* \"#utility.yul\":2595:2616   */\n      iszero\n        /* \"#utility.yul\":2584:2616   */\n      swap1\n      pop\n        /* \"#utility.yul\":2532:2622   */\n      swap2\n      swap1\n      pop\n      jump\t// out\n        /* \"#utility.yul\":2628:2737   */\n    tag_138:\n        /* \"#utility.yul\":2709:2730   */\n      tag_217\n        /* \"#utility.yul\":2724:2729   */\n      dup2\n        /* \"#utility.yul\":2709:2730   */\n      tag_137\n      jump\t// in\n    tag_217:\n        /* \"#utility.yul\":2704:2707   */\n      dup3\n        /* \"#utility.yul\":2697:2731   */\n      mstore\n        /* \"#utility.yul\":2628:2737   */\n      pop\n      pop\n      jump\t// out\n        /* \"#utility.yul\":2743:3799   */\n    tag_18:\n        /* \"#utility.yul\":3038:3042   */\n      0x00\n        /* \"#utility.yul\":3076:3079   */\n      0xe0\n        /* \"#utility.yul\":3065:3074   */\n      dup3\n        /* \"#utility.yul\":3061:3080   */\n      add\n        /* \"#utility.yul\":3053:3080   */\n      swap1\n      pop\n        /* \"#utility.yul\":3090:3161   */\n      tag_219\n        /* \"#utility.yul\":3158:3159   */\n      0x00\n        /* \"#utility.yul\":3147:3156   */\n      dup4\n        /* \"#utility.yul\":3143:3160   */\n      add\n        /* \"#utility.yul\":3134:3140   */\n      dup11\n        /* \"#utility.yul\":3090:3161   */\n      tag_128\n      jump\t// in\n    tag_219:\n        /* \"#utility.yul\":3208:3217   */\n      dup2\n        /* \"#utility.yul\":3202:3206   */\n      dup2\n        /* \"#utility.yul\":3198:3218   */\n      sub\n        /* \"#utility.yul\":3193:3195   */\n      0x20\n        /* \"#utility.yul\":3182:3191   */\n      dup4\n        /* \"#utility.yul\":3178:3196   */\n      add\n        /* \"#utility.yul\":3171:3219   */\n      mstore\n        /* \"#utility.yul\":3236:3314   */\n      tag_220\n        /* \"#utility.yul\":3309:3313   */\n      dup2\n        /* \"#utility.yul\":3300:3306   */\n      dup10\n        /* \"#utility.yul\":3236:3314   */\n      tag_133\n      jump\t// in\n    tag_220:\n        /* \"#utility.yul\":3228:3314   */\n      swap1\n      pop\n        /* \"#utility.yul\":3324:3396   */\n      tag_221\n        /* \"#utility.yul\":3392:3394   */\n      0x40\n        /* \"#utility.yul\":3381:3390   */\n      dup4\n        /* \"#utility.yul\":3377:3395   */\n      add\n        /* \"#utility.yul\":3368:3374   */\n      dup9\n        /* \"#utility.yul\":3324:3396   */\n      tag_128\n      jump\t// in\n    tag_221:\n        /* \"#utility.yul\":3443:3452   */\n      dup2\n        /* \"#utility.yul\":3437:3441   */\n      dup2\n        /* \"#utility.yul\":3433:3453   */\n      sub\n        /* \"#utility.yul\":3428:3430   */\n      0x60\n        /* \"#utility.yul\":3417:3426   */\n      dup4\n        /* \"#utility.yul\":3413:3431   */\n      add\n        /* \"#utility.yul\":3406:3454   */\n      mstore\n        /* \"#utility.yul\":3471:3549   */\n      tag_222\n        /* \"#utility.yul\":3544:3548   */\n      dup2\n        /* \"#utility.yul\":3535:3541   */\n      dup8\n        /* \"#utility.yul\":3471:3549   */\n      tag_133\n      jump\t// in\n    tag_222:\n        /* \"#utility.yul\":3463:3549   */\n      swap1\n      pop\n        /* \"#utility.yul\":3559:3632   */\n      tag_223\n        /* \"#utility.yul\":3627:3630   */\n      0x80\n        /* \"#utility.yul\":3616:3625   */\n      dup4\n        /* \"#utility.yul\":3612:3631   */\n      add\n        /* \"#utility.yul\":3603:3609   */\n      dup7\n        /* \"#utility.yul\":3559:3632   */\n      tag_136\n      jump\t// in\n    tag_223:\n        /* \"#utility.yul\":3642:3715   */\n      tag_224\n        /* \"#utility.yul\":3710:3713   */\n      0xa0\n        /* \"#utility.yul\":3699:3708   */\n      dup4\n        /* \"#utility.yul\":3695:3714   */\n      add\n        /* \"#utility.yul\":3686:3692   */\n      dup6\n        /* \"#utility.yul\":3642:3715   */\n      tag_128\n      jump\t// in\n    tag_224:\n        /* \"#utility.yul\":3725:3792   */\n      tag_225\n        /* \"#utility.yul\":3787:3790   */\n      0xc0\n        /* \"#utility.yul\":3776:3785   */\n      dup4\n        /* \"#utility.yul\":3772:3791   */\n      add\n        /* \"#utility.yul\":3763:3769   */\n      dup5\n        /* \"#utility.yul\":3725:3792   */\n      tag_138\n      jump\t// in\n    tag_225:\n        /* \"#utility.yul\":2743:3799   */\n      swap9\n      swap8\n      pop\n      pop\n      pop\n      pop\n      pop\n      pop\n      pop\n      pop\n      jump\t// out\n        /* \"#utility.yul\":3805:3922   */\n    tag_139:\n        /* \"#utility.yul\":3914:3915   */\n      0x00\n        /* \"#utility.yul\":3911:3912   */\n      dup1\n        /* \"#utility.yul\":3904:3916   */\n      revert\n        /* \"#utility.yul\":3928:4045   */\n    tag_140:\n        /* \"#utility.yul\":4037:4038   */\n      0x00\n        /* \"#utility.yul\":4034:4035   */\n      dup1\n        /* \"#utility.yul\":4027:4039   */\n      revert\n        /* \"#utility.yul\":4051:4168   */\n    tag_141:\n        /* \"#utility.yul\":4160:4161   */\n      0x00\n        /* \"#utility.yul\":4157:4158   */\n      dup1\n        /* \"#utility.yul\":4150:4162   */\n      revert\n        /* \"#utility.yul\":4191:4759   */\n    tag_142:\n        /* \"#utility.yul\":4264:4272   */\n      0x00\n        /* \"#utility.yul\":4274:4280   */\n      dup1\n        /* \"#utility.yul\":4324:4327   */\n      dup4\n        /* \"#utility.yul\":4317:4321   */\n      0x1f\n        /* \"#utility.yul\":4309:4315   */\n      dup5\n        /* \"#utility.yul\":4305:4322   */\n      add\n        /* \"#utility.yul\":4301:4328   */\n      slt\n        /* \"#utility.yul\":4291:4413   */\n      tag_230\n      jumpi\n        /* \"#utility.yul\":4332:4411   */\n      tag_231\n      tag_139\n      jump\t// in\n    tag_231:\n        /* \"#utility.yul\":4291:4413   */\n    tag_230:\n        /* \"#utility.yul\":4445:4451   */\n      dup3\n        /* \"#utility.yul\":4432:4452   */\n      calldataload\n        /* \"#utility.yul\":4422:4452   */\n      swap1\n      pop\n        /* \"#utility.yul\":4475:4493   */\n      0xffffffffffffffff\n        /* \"#utility.yul\":4467:4473   */\n      dup2\n        /* \"#utility.yul\":4464:4494   */\n      gt\n        /* \"#utility.yul\":4461:4578   */\n      iszero\n      tag_232\n      jumpi\n        /* \"#utility.yul\":4497:4576   */\n      tag_233\n      tag_140\n      jump\t// in\n    tag_233:\n        /* \"#utility.yul\":4461:4578   */\n    tag_232:\n        /* \"#utility.yul\":4611:4615   */\n      0x20\n        /* \"#utility.yul\":4603:4609   */\n      dup4\n        /* \"#utility.yul\":4599:4616   */\n      add\n        /* \"#utility.yul\":4587:4616   */\n      swap2\n      pop\n        /* \"#utility.yul\":4665:4668   */\n      dup4\n        /* \"#utility.yul\":4657:4661   */\n      0x20\n        /* \"#utility.yul\":4649:4655   */\n      dup3\n        /* \"#utility.yul\":4645:4662   */\n      mul\n        /* \"#utility.yul\":4635:4643   */\n      dup4\n        /* \"#utility.yul\":4631:4663   */\n      add\n        /* \"#utility.yul\":4628:4669   */\n      gt\n        /* \"#utility.yul\":4625:4753   */\n      iszero\n      tag_234\n      jumpi\n        /* \"#utility.yul\":4672:4751   */\n      tag_235\n      tag_141\n      jump\t// in\n    tag_235:\n        /* \"#utility.yul\":4625:4753   */\n    tag_234:\n        /* \"#utility.yul\":4191:4759   */\n      swap3\n      pop\n      swap3\n      swap1\n      pop\n      jump\t// out\n        /* \"#utility.yul\":4765:5324   */\n    tag_24:\n        /* \"#utility.yul\":4851:4857   */\n      0x00\n        /* \"#utility.yul\":4859:4865   */\n      dup1\n        /* \"#utility.yul\":4908:4910   */\n      0x20\n        /* \"#utility.yul\":4896:4905   */\n      dup4\n        /* \"#utility.yul\":4887:4894   */\n      dup6\n        /* \"#utility.yul\":4883:4906   */\n      sub\n        /* \"#utility.yul\":4879:4911   */\n      slt\n        /* \"#utility.yul\":4876:4995   */\n      iszero\n      tag_237\n      jumpi\n        /* \"#utility.yul\":4914:4993   */\n      tag_238\n      tag_123\n      jump\t// in\n    tag_238:\n        /* \"#utility.yul\":4876:4995   */\n    tag_237:\n        /* \"#utility.yul\":5062:5063   */\n      0x00\n        /* \"#utility.yul\":5051:5060   */\n      dup4\n        /* \"#utility.yul\":5047:5064   */\n      add\n        /* \"#utility.yul\":5034:5065   */\n      calldataload\n        /* \"#utility.yul\":5092:5110   */\n      0xffffffffffffffff\n        /* \"#utility.yul\":5084:5090   */\n      dup2\n        /* \"#utility.yul\":5081:5111   */\n      gt\n        /* \"#utility.yul\":5078:5195   */\n      iszero\n      tag_239\n      jumpi\n        /* \"#utility.yul\":5114:5193   */\n      tag_240\n      tag_124\n      jump\t// in\n    tag_240:\n        /* \"#utility.yul\":5078:5195   */\n    tag_239:\n        /* \"#utility.yul\":5227:5307   */\n      tag_241\n        /* \"#utility.yul\":5299:5306   */\n      dup6\n        /* \"#utility.yul\":5290:5296   */\n      dup3\n        /* \"#utility.yul\":5279:5288   */\n      dup7\n        /* \"#utility.yul\":5275:5297   */\n      add\n        /* \"#utility.yul\":5227:5307   */\n      tag_142\n      jump\t// in\n    tag_241:\n        /* \"#utility.yul\":5209:5307   */\n      swap3\n      pop\n      swap3\n      pop\n        /* \"#utility.yul\":5005:5317   */\n      pop\n        /* \"#utility.yul\":4765:5324   */\n      swap3\n      pop\n      swap3\n      swap1\n      pop\n      jump\t// out\n        /* \"#utility.yul\":5330:5552   */\n    tag_29:\n        /* \"#utility.yul\":5423:5427   */\n      0x00\n        /* \"#utility.yul\":5461:5463   */\n      0x20\n        /* \"#utility.yul\":5450:5459   */\n      dup3\n        /* \"#utility.yul\":5446:5464   */\n      add\n        /* \"#utility.yul\":5438:5464   */\n      swap1\n      pop\n        /* \"#utility.yul\":5474:5545   */\n      tag_243\n        /* \"#utility.yul\":5542:5543   */\n      0x00\n        /* \"#utility.yul\":5531:5540   */\n      dup4\n        /* \"#utility.yul\":5527:5544   */\n      add\n        /* \"#utility.yul\":5518:5524   */\n      dup5\n        /* \"#utility.yul\":5474:5545   */\n      tag_136\n      jump\t// in\n    tag_243:\n        /* \"#utility.yul\":5330:5552   */\n      swap3\n      swap2\n      pop\n      pop\n      jump\t// out\n        /* \"#utility.yul\":5558:5680   */\n    tag_143:\n        /* \"#utility.yul\":5631:5655   */\n      tag_245\n        /* \"#utility.yul\":5649:5654   */\n      dup2\n        /* \"#utility.yul\":5631:5655   */\n      tag_135\n      jump\t// in\n    tag_245:\n        /* \"#utility.yul\":5624:5629   */\n      dup2\n        /* \"#utility.yul\":5621:5656   */\n      eq\n        /* \"#utility.yul\":5611:5674   */\n      tag_246\n      jumpi\n        /* \"#utility.yul\":5670:5671   */\n      0x00\n        /* \"#utility.yul\":5667:5668   */\n      dup1\n        /* \"#utility.yul\":5660:5672   */\n      revert\n        /* \"#utility.yul\":5611:5674   */\n    tag_246:\n        /* \"#utility.yul\":5558:5680   */\n      pop\n      jump\t// out\n        /* \"#utility.yul\":5686:5825   */\n    tag_144:\n        /* \"#utility.yul\":5732:5737   */\n      0x00\n        /* \"#utility.yul\":5770:5776   */\n      dup2\n        /* \"#utility.yul\":5757:5777   */\n      calldataload\n        /* \"#utility.yul\":5748:5777   */\n      swap1\n      pop\n        /* \"#utility.yul\":5786:5819   */\n      tag_248\n        /* \"#utility.yul\":5813:5818   */\n      dup2\n        /* \"#utility.yul\":5786:5819   */\n      tag_143\n      jump\t// in\n    tag_248:\n        /* \"#utility.yul\":5686:5825   */\n      swap3\n      swap2\n      pop\n      pop\n      jump\t// out\n        /* \"#utility.yul\":5831:6160   */\n    tag_32:\n        /* \"#utility.yul\":5890:5896   */\n      0x00\n        /* \"#utility.yul\":5939:5941   */\n      0x20\n        /* \"#utility.yul\":5927:5936   */\n      dup3\n        /* \"#utility.yul\":5918:5925   */\n      dup5\n        /* \"#utility.yul\":5914:5937   */\n      sub\n        /* \"#utility.yul\":5910:5942   */\n      slt\n        /* \"#utility.yul\":5907:6026   */\n      iszero\n      tag_250\n      jumpi\n        /* \"#utility.yul\":5945:6024   */\n      tag_251\n      tag_123\n      jump\t// in\n    tag_251:\n        /* \"#utility.yul\":5907:6026   */\n    tag_250:\n        /* \"#utility.yul\":6065:6066   */\n      0x00\n        /* \"#utility.yul\":6090:6143   */\n      tag_252\n        /* \"#utility.yul\":6135:6142   */\n      dup5\n        /* \"#utility.yul\":6126:6132   */\n      dup3\n        /* \"#utility.yul\":6115:6124   */\n      dup6\n        /* \"#utility.yul\":6111:6133   */\n      add\n        /* \"#utility.yul\":6090:6143   */\n      tag_144\n      jump\t// in\n    tag_252:\n        /* \"#utility.yul\":6080:6143   */\n      swap2\n      pop\n        /* \"#utility.yul\":6036:6153   */\n      pop\n        /* \"#utility.yul\":5831:6160   */\n      swap3\n      swap2\n      pop\n      pop\n      jump\t// out\n        /* \"#utility.yul\":6166:6376   */\n    tag_38:\n        /* \"#utility.yul\":6253:6257   */\n      0x00\n        /* \"#utility.yul\":6291:6293   */\n      0x20\n        /* \"#utility.yul\":6280:6289   */\n      dup3\n        /* \"#utility.yul\":6276:6294   */\n      add\n        /* \"#utility.yul\":6268:6294   */\n      swap1\n      pop\n        /* \"#utility.yul\":6304:6369   */\n      tag_254\n        /* \"#utility.yul\":6366:6367   */\n      0x00\n        /* \"#utility.yul\":6355:6364   */\n      dup4\n        /* \"#utility.yul\":6351:6368   */\n      add\n        /* \"#utility.yul\":6342:6348   */\n      dup5\n        /* \"#utility.yul\":6304:6369   */\n      tag_138\n      jump\t// in\n    tag_254:\n        /* \"#utility.yul\":6166:6376   */\n      swap3\n      swap2\n      pop\n      pop\n      jump\t// out\n        /* \"#utility.yul\":6382:6856   */\n    tag_44:\n        /* \"#utility.yul\":6450:6456   */\n      0x00\n        /* \"#utility.yul\":6458:6464   */\n      dup1\n        /* \"#utility.yul\":6507:6509   */\n      0x40\n        /* \"#utility.yul\":6495:6504   */\n      dup4\n        /* \"#utility.yul\":6486:6493   */\n      dup6\n        /* \"#utility.yul\":6482:6505   */\n      sub\n        /* \"#utility.yul\":6478:6510   */\n      slt\n        /* \"#utility.yul\":6475:6594   */\n      iszero\n      tag_256\n      jumpi\n        /* \"#utility.yul\":6513:6592   */\n      tag_257\n      tag_123\n      jump\t// in\n    tag_257:\n        /* \"#utility.yul\":6475:6594   */\n    tag_256:\n        /* \"#utility.yul\":6633:6634   */\n      0x00\n        /* \"#utility.yul\":6658:6711   */\n      tag_258\n        /* \"#utility.yul\":6703:6710   */\n      dup6\n        /* \"#utility.yul\":6694:6700   */\n      dup3\n        /* \"#utility.yul\":6683:6692   */\n      dup7\n        /* \"#utility.yul\":6679:6701   */\n      add\n        /* \"#utility.yul\":6658:6711   */\n      tag_127\n      jump\t// in\n    tag_258:\n        /* \"#utility.yul\":6648:6711   */\n      swap3\n      pop\n        /* \"#utility.yul\":6604:6721   */\n      pop\n        /* \"#utility.yul\":6760:6762   */\n      0x20\n        /* \"#utility.yul\":6786:6839   */\n      tag_259\n        /* \"#utility.yul\":6831:6838   */\n      dup6\n        /* \"#utility.yul\":6822:6828   */\n      dup3\n        /* \"#utility.yul\":6811:6820   */\n      dup7\n        /* \"#utility.yul\":6807:6829   */\n      add\n        /* \"#utility.yul\":6786:6839   */\n      tag_144\n      jump\t// in\n    tag_259:\n        /* \"#utility.yul\":6776:6839   */\n      swap2\n      pop\n        /* \"#utility.yul\":6731:6849   */\n      pop\n        /* \"#utility.yul\":6382:6856   */\n      swap3\n      pop\n      swap3\n      swap1\n      pop\n      jump\t// out\n        /* \"#utility.yul\":6862:6979   */\n    tag_145:\n        /* \"#utility.yul\":6971:6972   */\n      0x00\n        /* \"#utility.yul\":6968:6969   */\n      dup1\n        /* \"#utility.yul\":6961:6973   */\n      revert\n        /* \"#utility.yul\":6985:7165   */\n    tag_146:\n        /* \"#utility.yul\":7033:7110   */\n      0x4e487b7100000000000000000000000000000000000000000000000000000000\n        /* \"#utility.yul\":7030:7031   */\n      0x00\n        /* \"#utility.yul\":7023:7111   */\n      mstore\n        /* \"#utility.yul\":7130:7134   */\n      0x41\n        /* \"#utility.yul\":7127:7128   */\n      0x04\n        /* \"#utility.yul\":7120:7135   */\n      mstore\n        /* \"#utility.yul\":7154:7158   */\n      0x24\n        /* \"#utility.yul\":7151:7152   */\n      0x00\n        /* \"#utility.yul\":7144:7159   */\n      revert\n        /* \"#utility.yul\":7171:7452   */\n    tag_147:\n        /* \"#utility.yul\":7254:7281   */\n      tag_263\n        /* \"#utility.yul\":7276:7280   */\n      dup3\n        /* \"#utility.yul\":7254:7281   */\n      tag_132\n      jump\t// in\n    tag_263:\n        /* \"#utility.yul\":7246:7252   */\n      dup2\n        /* \"#utility.yul\":7242:7282   */\n      add\n        /* \"#utility.yul\":7384:7390   */\n      dup2\n        /* \"#utility.yul\":7372:7382   */\n      dup2\n        /* \"#utility.yul\":7369:7391   */\n      lt\n        /* \"#utility.yul\":7348:7366   */\n      0xffffffffffffffff\n        /* \"#utility.yul\":7336:7346   */\n      dup3\n        /* \"#utility.yul\":7333:7367   */\n      gt\n        /* \"#utility.yul\":7330:7392   */\n      or\n        /* \"#utility.yul\":7327:7415   */\n      iszero\n      tag_264\n      jumpi\n        /* \"#utility.yul\":7395:7413   */\n      tag_265\n      tag_146\n      jump\t// in\n    tag_265:\n        /* \"#utility.yul\":7327:7415   */\n    tag_264:\n        /* \"#utility.yul\":7435:7445   */\n      dup1\n        /* \"#utility.yul\":7431:7433   */\n      0x40\n        /* \"#utility.yul\":7424:7446   */\n      mstore\n        /* \"#utility.yul\":7214:7452   */\n      pop\n        /* \"#utility.yul\":7171:7452   */\n      pop\n      pop\n      jump\t// out\n        /* \"#utility.yul\":7458:7587   */\n    tag_148:\n        /* \"#utility.yul\":7492:7498   */\n      0x00\n        /* \"#utility.yul\":7519:7539   */\n      tag_267\n      tag_122\n      jump\t// in\n    tag_267:\n        /* \"#utility.yul\":7509:7539   */\n      swap1\n      pop\n        /* \"#utility.yul\":7548:7581   */\n      tag_268\n        /* \"#utility.yul\":7576:7580   */\n      dup3\n        /* \"#utility.yul\":7568:7574   */\n      dup3\n        /* \"#utility.yul\":7548:7581   */\n      tag_147\n      jump\t// in\n    tag_268:\n        /* \"#utility.yul\":7458:7587   */\n      swap2\n      swap1\n      pop\n      jump\t// out\n        /* \"#utility.yul\":7593:7901   */\n    tag_149:\n        /* \"#utility.yul\":7655:7659   */\n      0x00\n        /* \"#utility.yul\":7745:7763   */\n      0xffffffffffffffff\n        /* \"#utility.yul\":7737:7743   */\n      dup3\n        /* \"#utility.yul\":7734:7764   */\n      gt\n        /* \"#utility.yul\":7731:7787   */\n      iszero\n      tag_270\n      jumpi\n        /* \"#utility.yul\":7767:7785   */\n      tag_271\n      tag_146\n      jump\t// in\n    tag_271:\n        /* \"#utility.yul\":7731:7787   */\n    tag_270:\n        /* \"#utility.yul\":7805:7834   */\n      tag_272\n        /* \"#utility.yul\":7827:7833   */\n      dup3\n        /* \"#utility.yul\":7805:7834   */\n      tag_132\n      jump\t// in\n    tag_272:\n        /* \"#utility.yul\":7797:7834   */\n      swap1\n      pop\n        /* \"#utility.yul\":7889:7893   */\n      0x20\n        /* \"#utility.yul\":7883:7887   */\n      dup2\n        /* \"#utility.yul\":7879:7894   */\n      add\n        /* \"#utility.yul\":7871:7894   */\n      swap1\n      pop\n        /* \"#utility.yul\":7593:7901   */\n      swap2\n      swap1\n      pop\n      jump\t// out\n        /* \"#utility.yul\":7907:8055   */\n    tag_150:\n        /* \"#utility.yul\":8005:8011   */\n      dup3\n        /* \"#utility.yul\":8000:8003   */\n      dup2\n        /* \"#utility.yul\":7995:7998   */\n      dup4\n        /* \"#utility.yul\":7982:8012   */\n      calldatacopy\n        /* \"#utility.yul\":8046:8047   */\n      0x00\n        /* \"#utility.yul\":8037:8043   */\n      dup4\n        /* \"#utility.yul\":8032:8035   */\n      dup4\n        /* \"#utility.yul\":8028:8044   */\n      add\n        /* \"#utility.yul\":8021:8048   */\n      mstore\n        /* \"#utility.yul\":7907:8055   */\n      pop\n      pop\n      pop\n      jump\t// out\n        /* \"#utility.yul\":8061:8486   */\n    tag_151:\n        /* \"#utility.yul\":8139:8144   */\n      0x00\n        /* \"#utility.yul\":8164:8230   */\n      tag_275\n        /* \"#utility.yul\":8180:8229   */\n      tag_276\n        /* \"#utility.yul\":8222:8228   */\n      dup5\n        /* \"#utility.yul\":8180:8229   */\n      tag_149\n      jump\t// in\n    tag_276:\n        /* \"#utility.yul\":8164:8230   */\n      tag_148\n      jump\t// in\n    tag_275:\n        /* \"#utility.yul\":8155:8230   */\n      swap1\n      pop\n        /* \"#utility.yul\":8253:8259   */\n      dup3\n        /* \"#utility.yul\":8246:8251   */\n      dup2\n        /* \"#utility.yul\":8239:8260   */\n      mstore\n        /* \"#utility.yul\":8291:8295   */\n      0x20\n        /* \"#utility.yul\":8284:8289   */\n      dup2\n        /* \"#utility.yul\":8280:8296   */\n      add\n        /* \"#utility.yul\":8329:8332   */\n      dup5\n        /* \"#utility.yul\":8320:8326   */\n      dup5\n        /* \"#utility.yul\":8315:8318   */\n      dup5\n        /* \"#utility.yul\":8311:8327   */\n      add\n        /* \"#utility.yul\":8308:8333   */\n      gt\n        /* \"#utility.yul\":8305:8417   */\n      iszero\n      tag_277\n      jumpi\n        /* \"#utility.yul\":8336:8415   */\n      tag_278\n      tag_145\n      jump\t// in\n    tag_278:\n        /* \"#utility.yul\":8305:8417   */\n    tag_277:\n        /* \"#utility.yul\":8426:8480   */\n      tag_279\n        /* \"#utility.yul\":8473:8479   */\n      dup5\n        /* \"#utility.yul\":8468:8471   */\n      dup3\n        /* \"#utility.yul\":8463:8466   */\n      dup6\n        /* \"#utility.yul\":8426:8480   */\n      tag_150\n      jump\t// in\n    tag_279:\n        /* \"#utility.yul\":8145:8486   */\n      pop\n        /* \"#utility.yul\":8061:8486   */\n      swap4\n      swap3\n      pop\n      pop\n      pop\n      jump\t// out\n        /* \"#utility.yul\":8506:8846   */\n    tag_152:\n        /* \"#utility.yul\":8562:8567   */\n      0x00\n        /* \"#utility.yul\":8611:8614   */\n      dup3\n        /* \"#utility.yul\":8604:8608   */\n      0x1f\n        /* \"#utility.yul\":8596:8602   */\n      dup4\n        /* \"#utility.yul\":8592:8609   */\n      add\n        /* \"#utility.yul\":8588:8615   */\n      slt\n        /* \"#utility.yul\":8578:8700   */\n      tag_281\n      jumpi\n        /* \"#utility.yul\":8619:8698   */\n      tag_282\n      tag_139\n      jump\t// in\n    tag_282:\n        /* \"#utility.yul\":8578:8700   */\n    tag_281:\n        /* \"#utility.yul\":8736:8742   */\n      dup2\n        /* \"#utility.yul\":8723:8743   */\n      calldataload\n        /* \"#utility.yul\":8761:8840   */\n      tag_283\n        /* \"#utility.yul\":8836:8839   */\n      dup5\n        /* \"#utility.yul\":8828:8834   */\n      dup3\n        /* \"#utility.yul\":8821:8825   */\n      0x20\n        /* \"#utility.yul\":8813:8819   */\n      dup7\n        /* \"#utility.yul\":8809:8826   */\n      add\n        /* \"#utility.yul\":8761:8840   */\n      tag_151\n      jump\t// in\n    tag_283:\n        /* \"#utility.yul\":8752:8840   */\n      swap2\n      pop\n        /* \"#utility.yul\":8568:8846   */\n      pop\n        /* \"#utility.yul\":8506:8846   */\n      swap3\n      swap2\n      pop\n      pop\n      jump\t// out\n        /* \"#utility.yul\":8852:9831   */\n    tag_48:\n        /* \"#utility.yul\":8949:8955   */\n      0x00\n        /* \"#utility.yul\":8957:8963   */\n      dup1\n        /* \"#utility.yul\":8965:8971   */\n      0x00\n        /* \"#utility.yul\":9014:9016   */\n      0x60\n        /* \"#utility.yul\":9002:9011   */\n      dup5\n        /* \"#utility.yul\":8993:9000   */\n      dup7\n        /* \"#utility.yul\":8989:9012   */\n      sub\n        /* \"#utility.yul\":8985:9017   */\n      slt\n        /* \"#utility.yul\":8982:9101   */\n      iszero\n      tag_285\n      jumpi\n        /* \"#utility.yul\":9020:9099   */\n      tag_286\n      tag_123\n      jump\t// in\n    tag_286:\n        /* \"#utility.yul\":8982:9101   */\n    tag_285:\n        /* \"#utility.yul\":9168:9169   */\n      0x00\n        /* \"#utility.yul\":9157:9166   */\n      dup5\n        /* \"#utility.yul\":9153:9170   */\n      add\n        /* \"#utility.yul\":9140:9171   */\n      calldataload\n        /* \"#utility.yul\":9198:9216   */\n      0xffffffffffffffff\n        /* \"#utility.yul\":9190:9196   */\n      dup2\n        /* \"#utility.yul\":9187:9217   */\n      gt\n        /* \"#utility.yul\":9184:9301   */\n      iszero\n      tag_287\n      jumpi\n        /* \"#utility.yul\":9220:9299   */\n      tag_288\n      tag_124\n      jump\t// in\n    tag_288:\n        /* \"#utility.yul\":9184:9301   */\n    tag_287:\n        /* \"#utility.yul\":9325:9388   */\n      tag_289\n        /* \"#utility.yul\":9380:9387   */\n      dup7\n        /* \"#utility.yul\":9371:9377   */\n      dup3\n        /* \"#utility.yul\":9360:9369   */\n      dup8\n        /* \"#utility.yul\":9356:9378   */\n      add\n        /* \"#utility.yul\":9325:9388   */\n      tag_152\n      jump\t// in\n    tag_289:\n        /* \"#utility.yul\":9315:9388   */\n      swap4\n      pop\n        /* \"#utility.yul\":9111:9398   */\n      pop\n        /* \"#utility.yul\":9437:9439   */\n      0x20\n        /* \"#utility.yul\":9463:9516   */\n      tag_290\n        /* \"#utility.yul\":9508:9515   */\n      dup7\n        /* \"#utility.yul\":9499:9505   */\n      dup3\n        /* \"#utility.yul\":9488:9497   */\n      dup8\n        /* \"#utility.yul\":9484:9506   */\n      add\n        /* \"#utility.yul\":9463:9516   */\n      tag_127\n      jump\t// in\n    tag_290:\n        /* \"#utility.yul\":9453:9516   */\n      swap3\n      pop\n        /* \"#utility.yul\":9408:9526   */\n      pop\n        /* \"#utility.yul\":9593:9595   */\n      0x40\n        /* \"#utility.yul\":9582:9591   */\n      dup5\n        /* \"#utility.yul\":9578:9596   */\n      add\n        /* \"#utility.yul\":9565:9597   */\n      calldataload\n        /* \"#utility.yul\":9624:9642   */\n      0xffffffffffffffff\n        /* \"#utility.yul\":9616:9622   */\n      dup2\n        /* \"#utility.yul\":9613:9643   */\n      gt\n        /* \"#utility.yul\":9610:9727   */\n      iszero\n      tag_291\n      jumpi\n        /* \"#utility.yul\":9646:9725   */\n      tag_292\n      tag_124\n      jump\t// in\n    tag_292:\n        /* \"#utility.yul\":9610:9727   */\n    tag_291:\n        /* \"#utility.yul\":9751:9814   */\n      tag_293\n        /* \"#utility.yul\":9806:9813   */\n      dup7\n        /* \"#utility.yul\":9797:9803   */\n      dup3\n        /* \"#utility.yul\":9786:9795   */\n      dup8\n        /* \"#utility.yul\":9782:9804   */\n      add\n        /* \"#utility.yul\":9751:9814   */\n      tag_152\n      jump\t// in\n    tag_293:\n        /* \"#utility.yul\":9741:9814   */\n      swap2\n      pop\n        /* \"#utility.yul\":9536:9824   */\n      pop\n        /* \"#utility.yul\":8852:9831   */\n      swap3\n      pop\n      swap3\n      pop\n      swap3\n      jump\t// out\n        /* \"#utility.yul\":9837:10017   */\n    tag_153:\n        /* \"#utility.yul\":9885:9962   */\n      0x4e487b7100000000000000000000000000000000000000000000000000000000\n        /* \"#utility.yul\":9882:9883   */\n      0x00\n        /* \"#utility.yul\":9875:9963   */\n      mstore\n        /* \"#utility.yul\":9982:9986   */\n      0x22\n        /* \"#utility.yul\":9979:9980   */\n      0x04\n        /* \"#utility.yul\":9972:9987   */\n      mstore\n        /* \"#utility.yul\":10006:10010   */\n      0x24\n        /* \"#utility.yul\":10003:10004   */\n      0x00\n        /* \"#utility.yul\":9996:10011   */\n      revert\n        /* \"#utility.yul\":10023:10343   */\n    tag_51:\n        /* \"#utility.yul\":10067:10073   */\n      0x00\n        /* \"#utility.yul\":10104:10105   */\n      0x02\n        /* \"#utility.yul\":10098:10102   */\n      dup3\n        /* \"#utility.yul\":10094:10106   */\n      div\n        /* \"#utility.yul\":10084:10106   */\n      swap1\n      pop\n        /* \"#utility.yul\":10151:10152   */\n      0x01\n        /* \"#utility.yul\":10145:10149   */\n      dup3\n        /* \"#utility.yul\":10141:10153   */\n      and\n        /* \"#utility.yul\":10172:10190   */\n      dup1\n        /* \"#utility.yul\":10162:10243   */\n      tag_296\n      jumpi\n        /* \"#utility.yul\":10228:10232   */\n      0x7f\n        /* \"#utility.yul\":10220:10226   */\n      dup3\n        /* \"#utility.yul\":10216:10233   */\n      and\n        /* \"#utility.yul\":10206:10233   */\n      swap2\n      pop\n        /* \"#utility.yul\":10162:10243   */\n    tag_296:\n        /* \"#utility.yul\":10290:10292   */\n      0x20\n        /* \"#utility.yul\":10282:10288   */\n      dup3\n        /* \"#utility.yul\":10279:10293   */\n      lt\n        /* \"#utility.yul\":10259:10277   */\n      dup2\n        /* \"#utility.yul\":10256:10294   */\n      sub\n        /* \"#utility.yul\":10253:10337   */\n      tag_297\n      jumpi\n        /* \"#utility.yul\":10309:10327   */\n      tag_298\n      tag_153\n      jump\t// in\n    tag_298:\n        /* \"#utility.yul\":10253:10337   */\n    tag_297:\n        /* \"#utility.yul\":10074:10343   */\n      pop\n        /* \"#utility.yul\":10023:10343   */\n      swap2\n      swap1\n      pop\n      jump\t// out\n        /* \"#utility.yul\":10349:10518   */\n    tag_154:\n        /* \"#utility.yul\":10489:10510   */\n      0x43616c6c6572206973206e6f74206f776e657200000000000000000000000000\n        /* \"#utility.yul\":10485:10486   */\n      0x00\n        /* \"#utility.yul\":10477:10483   */\n      dup3\n        /* \"#utility.yul\":10473:10487   */\n      add\n        /* \"#utility.yul\":10466:10511   */\n      mstore\n        /* \"#utility.yul\":10349:10518   */\n      pop\n      jump\t// out\n        /* \"#utility.yul\":10524:10890   */\n    tag_155:\n        /* \"#utility.yul\":10666:10669   */\n      0x00\n        /* \"#utility.yul\":10687:10754   */\n      tag_301\n        /* \"#utility.yul\":10751:10753   */\n      0x13\n        /* \"#utility.yul\":10746:10749   */\n      dup4\n        /* \"#utility.yul\":10687:10754   */\n      tag_130\n      jump\t// in\n    tag_301:\n        /* \"#utility.yul\":10680:10754   */\n      swap2\n      pop\n        /* \"#utility.yul\":10763:10856   */\n      tag_302\n        /* \"#utility.yul\":10852:10855   */\n      dup3\n        /* \"#utility.yul\":10763:10856   */\n      tag_154\n      jump\t// in\n    tag_302:\n        /* \"#utility.yul\":10881:10883   */\n      0x20\n        /* \"#utility.yul\":10876:10879   */\n      dup3\n        /* \"#utility.yul\":10872:10884   */\n      add\n        /* \"#utility.yul\":10865:10884   */\n      swap1\n      pop\n        /* \"#utility.yul\":10524:10890   */\n      swap2\n      swap1\n      pop\n      jump\t// out\n        /* \"#utility.yul\":10896:11315   */\n    tag_64:\n        /* \"#utility.yul\":11062:11066   */\n      0x00\n        /* \"#utility.yul\":11100:11102   */\n      0x20\n        /* \"#utility.yul\":11089:11098   */\n      dup3\n        /* \"#utility.yul\":11085:11103   */\n      add\n        /* \"#utility.yul\":11077:11103   */\n      swap1\n      pop\n        /* \"#utility.yul\":11149:11158   */\n      dup2\n        /* \"#utility.yul\":11143:11147   */\n      dup2\n        /* \"#utility.yul\":11139:11159   */\n      sub\n        /* \"#utility.yul\":11135:11136   */\n      0x00\n        /* \"#utility.yul\":11124:11133   */\n      dup4\n        /* \"#utility.yul\":11120:11137   */\n      add\n        /* \"#utility.yul\":11113:11160   */\n      mstore\n        /* \"#utility.yul\":11177:11308   */\n      tag_304\n        /* \"#utility.yul\":11303:11307   */\n      dup2\n        /* \"#utility.yul\":11177:11308   */\n      tag_155\n      jump\t// in\n    tag_304:\n        /* \"#utility.yul\":11169:11308   */\n      swap1\n      pop\n        /* \"#utility.yul\":10896:11315   */\n      swap2\n      swap1\n      pop\n      jump\t// out\n        /* \"#utility.yul\":11321:11545   */\n    tag_156:\n        /* \"#utility.yul\":11461:11495   */\n      0x4c6f7420616c72656164792072656d6f766564206f7220646f6573206e6f7420\n        /* \"#utility.yul\":11457:11458   */\n      0x00\n        /* \"#utility.yul\":11449:11455   */\n      dup3\n        /* \"#utility.yul\":11445:11459   */\n      add\n        /* \"#utility.yul\":11438:11496   */\n      mstore\n        /* \"#utility.yul\":11530:11537   */\n      0x6578697374000000000000000000000000000000000000000000000000000000\n        /* \"#utility.yul\":11525:11527   */\n      0x20\n        /* \"#utility.yul\":11517:11523   */\n      dup3\n        /* \"#utility.yul\":11513:11528   */\n      add\n        /* \"#utility.yul\":11506:11538   */\n      mstore\n        /* \"#utility.yul\":11321:11545   */\n      pop\n      jump\t// out\n        /* \"#utility.yul\":11551:11917   */\n    tag_157:\n        /* \"#utility.yul\":11693:11696   */\n      0x00\n        /* \"#utility.yul\":11714:11781   */\n      tag_307\n        /* \"#utility.yul\":11778:11780   */\n      0x25\n        /* \"#utility.yul\":11773:11776   */\n      dup4\n        /* \"#utility.yul\":11714:11781   */\n      tag_130\n      jump\t// in\n    tag_307:\n        /* \"#utility.yul\":11707:11781   */\n      swap2\n      pop\n        /* \"#utility.yul\":11790:11883   */\n      tag_308\n        /* \"#utility.yul\":11879:11882   */\n      dup3\n        /* \"#utility.yul\":11790:11883   */\n      tag_156\n      jump\t// in\n    tag_308:\n        /* \"#utility.yul\":11908:11910   */\n      0x40\n        /* \"#utility.yul\":11903:11906   */\n      dup3\n        /* \"#utility.yul\":11899:11911   */\n      add\n        /* \"#utility.yul\":11892:11911   */\n      swap1\n      pop\n        /* \"#utility.yul\":11551:11917   */\n      swap2\n      swap1\n      pop\n      jump\t// out\n        /* \"#utility.yul\":11923:12342   */\n    tag_68:\n        /* \"#utility.yul\":12089:12093   */\n      0x00\n        /* \"#utility.yul\":12127:12129   */\n      0x20\n        /* \"#utility.yul\":12116:12125   */\n      dup3\n        /* \"#utility.yul\":12112:12130   */\n      add\n        /* \"#utility.yul\":12104:12130   */\n      swap1\n      pop\n        /* \"#utility.yul\":12176:12185   */\n      dup2\n        /* \"#utility.yul\":12170:12174   */\n      dup2\n        /* \"#utility.yul\":12166:12186   */\n      sub\n        /* \"#utility.yul\":12162:12163   */\n      0x00\n        /* \"#utility.yul\":12151:12160   */\n      dup4\n        /* \"#utility.yul\":12147:12164   */\n      add\n        /* \"#utility.yul\":12140:12187   */\n      mstore\n        /* \"#utility.yul\":12204:12335   */\n      tag_310\n        /* \"#utility.yul\":12330:12334   */\n      dup2\n        /* \"#utility.yul\":12204:12335   */\n      tag_157\n      jump\t// in\n    tag_310:\n        /* \"#utility.yul\":12196:12335   */\n      swap1\n      pop\n        /* \"#utility.yul\":11923:12342   */\n      swap2\n      swap1\n      pop\n      jump\t// out\n        /* \"#utility.yul\":12348:12570   */\n    tag_70:\n        /* \"#utility.yul\":12441:12445   */\n      0x00\n        /* \"#utility.yul\":12479:12481   */\n      0x20\n        /* \"#utility.yul\":12468:12477   */\n      dup3\n        /* \"#utility.yul\":12464:12482   */\n      add\n        /* \"#utility.yul\":12456:12482   */\n      swap1\n      pop\n        /* \"#utility.yul\":12492:12563   */\n      tag_312\n        /* \"#utility.yul\":12560:12561   */\n      0x00\n        /* \"#utility.yul\":12549:12558   */\n      dup4\n        /* \"#utility.yul\":12545:12562   */\n      add\n        /* \"#utility.yul\":12536:12542   */\n      dup5\n        /* \"#utility.yul\":12492:12563   */\n      tag_128\n      jump\t// in\n    tag_312:\n        /* \"#utility.yul\":12348:12570   */\n      swap3\n      swap2\n      pop\n      pop\n      jump\t// out\n        /* \"#utility.yul\":12576:12756   */\n    tag_80:\n        /* \"#utility.yul\":12624:12701   */\n      0x4e487b7100000000000000000000000000000000000000000000000000000000\n        /* \"#utility.yul\":12621:12622   */\n      0x00\n        /* \"#utility.yul\":12614:12702   */\n      mstore\n        /* \"#utility.yul\":12721:12725   */\n      0x32\n        /* \"#utility.yul\":12718:12719   */\n      0x04\n        /* \"#utility.yul\":12711:12726   */\n      mstore\n        /* \"#utility.yul\":12745:12749   */\n      0x24\n        /* \"#utility.yul\":12742:12743   */\n      0x00\n        /* \"#utility.yul\":12735:12750   */\n      revert\n        /* \"#utility.yul\":12762:12985   */\n    tag_158:\n        /* \"#utility.yul\":12902:12936   */\n      0x4e6577206f776e65722063616e6e6f7420626520746865207a65726f20616464\n        /* \"#utility.yul\":12898:12899   */\n      0x00\n        /* \"#utility.yul\":12890:12896   */\n      dup3\n        /* \"#utility.yul\":12886:12900   */\n      add\n        /* \"#utility.yul\":12879:12937   */\n      mstore\n        /* \"#utility.yul\":12971:12977   */\n      0x7265737300000000000000000000000000000000000000000000000000000000\n        /* \"#utility.yul\":12966:12968   */\n      0x20\n        /* \"#utility.yul\":12958:12964   */\n      dup3\n        /* \"#utility.yul\":12954:12969   */\n      add\n        /* \"#utility.yul\":12947:12978   */\n      mstore\n        /* \"#utility.yul\":12762:12985   */\n      pop\n      jump\t// out\n        /* \"#utility.yul\":12991:13357   */\n    tag_159:\n        /* \"#utility.yul\":13133:13136   */\n      0x00\n        /* \"#utility.yul\":13154:13221   */\n      tag_316\n        /* \"#utility.yul\":13218:13220   */\n      0x24\n        /* \"#utility.yul\":13213:13216   */\n      dup4\n        /* \"#utility.yul\":13154:13221   */\n      tag_130\n      jump\t// in\n    tag_316:\n        /* \"#utility.yul\":13147:13221   */\n      swap2\n      pop\n        /* \"#utility.yul\":13230:13323   */\n      tag_317\n        /* \"#utility.yul\":13319:13322   */\n      dup3\n        /* \"#utility.yul\":13230:13323   */\n      tag_158\n      jump\t// in\n    tag_317:\n        /* \"#utility.yul\":13348:13350   */\n      0x40\n        /* \"#utility.yul\":13343:13346   */\n      dup3\n        /* \"#utility.yul\":13339:13351   */\n      add\n        /* \"#utility.yul\":13332:13351   */\n      swap1\n      pop\n        /* \"#utility.yul\":12991:13357   */\n      swap2\n      swap1\n      pop\n      jump\t// out\n        /* \"#utility.yul\":13363:13782   */\n    tag_96:\n        /* \"#utility.yul\":13529:13533   */\n      0x00\n        /* \"#utility.yul\":13567:13569   */\n      0x20\n        /* \"#utility.yul\":13556:13565   */\n      dup3\n        /* \"#utility.yul\":13552:13570   */\n      add\n        /* \"#utility.yul\":13544:13570   */\n      swap1\n      pop\n        /* \"#utility.yul\":13616:13625   */\n      dup2\n        /* \"#utility.yul\":13610:13614   */\n      dup2\n        /* \"#utility.yul\":13606:13626   */\n      sub\n        /* \"#utility.yul\":13602:13603   */\n      0x00\n        /* \"#utility.yul\":13591:13600   */\n      dup4\n        /* \"#utility.yul\":13587:13604   */\n      add\n        /* \"#utility.yul\":13580:13627   */\n      mstore\n        /* \"#utility.yul\":13644:13775   */\n      tag_319\n        /* \"#utility.yul\":13770:13774   */\n      dup2\n        /* \"#utility.yul\":13644:13775   */\n      tag_159\n      jump\t// in\n    tag_319:\n        /* \"#utility.yul\":13636:13775   */\n      swap1\n      pop\n        /* \"#utility.yul\":13363:13782   */\n      swap2\n      swap1\n      pop\n      jump\t// out\n        /* \"#utility.yul\":13788:13966   */\n    tag_160:\n        /* \"#utility.yul\":13928:13958   */\n      0x4e6577206f776e6572206973206e6f742077686974656c697374656400000000\n        /* \"#utility.yul\":13924:13925   */\n      0x00\n        /* \"#utility.yul\":13916:13922   */\n      dup3\n        /* \"#utility.yul\":13912:13926   */\n      add\n        /* \"#utility.yul\":13905:13959   */\n      mstore\n        /* \"#utility.yul\":13788:13966   */\n      pop\n      jump\t// out\n        /* \"#utility.yul\":13972:14338   */\n    tag_161:\n        /* \"#utility.yul\":14114:14117   */\n      0x00\n        /* \"#utility.yul\":14135:14202   */\n      tag_322\n        /* \"#utility.yul\":14199:14201   */\n      0x1c\n        /* \"#utility.yul\":14194:14197   */\n      dup4\n        /* \"#utility.yul\":14135:14202   */\n      tag_130\n      jump\t// in\n    tag_322:\n        /* \"#utility.yul\":14128:14202   */\n      swap2\n      pop\n        /* \"#utility.yul\":14211:14304   */\n      tag_323\n        /* \"#utility.yul\":14300:14303   */\n      dup3\n        /* \"#utility.yul\":14211:14304   */\n      tag_160\n      jump\t// in\n    tag_323:\n        /* \"#utility.yul\":14329:14331   */\n      0x20\n        /* \"#utility.yul\":14324:14327   */\n      dup3\n        /* \"#utility.yul\":14320:14332   */\n      add\n        /* \"#utility.yul\":14313:14332   */\n      swap1\n      pop\n        /* \"#utility.yul\":13972:14338   */\n      swap2\n      swap1\n      pop\n      jump\t// out\n        /* \"#utility.yul\":14344:14763   */\n    tag_102:\n        /* \"#utility.yul\":14510:14514   */\n      0x00\n        /* \"#utility.yul\":14548:14550   */\n      0x20\n        /* \"#utility.yul\":14537:14546   */\n      dup3\n        /* \"#utility.yul\":14533:14551   */\n      add\n        /* \"#utility.yul\":14525:14551   */\n      swap1\n      pop\n        /* \"#utility.yul\":14597:14606   */\n      dup2\n        /* \"#utility.yul\":14591:14595   */\n      dup2\n        /* \"#utility.yul\":14587:14607   */\n      sub\n        /* \"#utility.yul\":14583:14584   */\n      0x00\n        /* \"#utility.yul\":14572:14581   */\n      dup4\n        /* \"#utility.yul\":14568:14585   */\n      add\n        /* \"#utility.yul\":14561:14608   */\n      mstore\n        /* \"#utility.yul\":14625:14756   */\n      tag_325\n        /* \"#utility.yul\":14751:14755   */\n      dup2\n        /* \"#utility.yul\":14625:14756   */\n      tag_161\n      jump\t// in\n    tag_325:\n        /* \"#utility.yul\":14617:14756   */\n      swap1\n      pop\n        /* \"#utility.yul\":14344:14763   */\n      swap2\n      swap1\n      pop\n      jump\t// out\n        /* \"#utility.yul\":14769:14936   */\n    tag_162:\n        /* \"#utility.yul\":14909:14928   */\n      0x4c6f74206973206e6f7420616374697665000000000000000000000000000000\n        /* \"#utility.yul\":14905:14906   */\n      0x00\n        /* \"#utility.yul\":14897:14903   */\n      dup3\n        /* \"#utility.yul\":14893:14907   */\n      add\n        /* \"#utility.yul\":14886:14929   */\n      mstore\n        /* \"#utility.yul\":14769:14936   */\n      pop\n      jump\t// out\n        /* \"#utility.yul\":14942:15308   */\n    tag_163:\n        /* \"#utility.yul\":15084:15087   */\n      0x00\n        /* \"#utility.yul\":15105:15172   */\n      tag_328\n        /* \"#utility.yul\":15169:15171   */\n      0x11\n        /* \"#utility.yul\":15164:15167   */\n      dup4\n        /* \"#utility.yul\":15105:15172   */\n      tag_130\n      jump\t// in\n    tag_328:\n        /* \"#utility.yul\":15098:15172   */\n      swap2\n      pop\n        /* \"#utility.yul\":15181:15274   */\n      tag_329\n        /* \"#utility.yul\":15270:15273   */\n      dup3\n        /* \"#utility.yul\":15181:15274   */\n      tag_162\n      jump\t// in\n    tag_329:\n        /* \"#utility.yul\":15299:15301   */\n      0x20\n        /* \"#utility.yul\":15294:15297   */\n      dup3\n        /* \"#utility.yul\":15290:15302   */\n      add\n        /* \"#utility.yul\":15283:15302   */\n      swap1\n      pop\n        /* \"#utility.yul\":14942:15308   */\n      swap2\n      swap1\n      pop\n      jump\t// out\n        /* \"#utility.yul\":15314:15733   */\n    tag_105:\n        /* \"#utility.yul\":15480:15484   */\n      0x00\n        /* \"#utility.yul\":15518:15520   */\n      0x20\n        /* \"#utility.yul\":15507:15516   */\n      dup3\n        /* \"#utility.yul\":15503:15521   */\n      add\n        /* \"#utility.yul\":15495:15521   */\n      swap1\n      pop\n        /* \"#utility.yul\":15567:15576   */\n      dup2\n        /* \"#utility.yul\":15561:15565   */\n      dup2\n        /* \"#utility.yul\":15557:15577   */\n      sub\n        /* \"#utility.yul\":15553:15554   */\n      0x00\n        /* \"#utility.yul\":15542:15551   */\n      dup4\n        /* \"#utility.yul\":15538:15555   */\n      add\n        /* \"#utility.yul\":15531:15578   */\n      mstore\n        /* \"#utility.yul\":15595:15726   */\n      tag_331\n        /* \"#utility.yul\":15721:15725   */\n      dup2\n        /* \"#utility.yul\":15595:15726   */\n      tag_163\n      jump\t// in\n    tag_331:\n        /* \"#utility.yul\":15587:15726   */\n      swap1\n      pop\n        /* \"#utility.yul\":15314:15733   */\n      swap2\n      swap1\n      pop\n      jump\t// out\n        /* \"#utility.yul\":15739:15965   */\n    tag_164:\n        /* \"#utility.yul\":15879:15913   */\n      0x4f6e6c792063757272656e74206f776e65722063616e207472616e7366657220\n        /* \"#utility.yul\":15875:15876   */\n      0x00\n        /* \"#utility.yul\":15867:15873   */\n      dup3\n        /* \"#utility.yul\":15863:15877   */\n      add\n        /* \"#utility.yul\":15856:15914   */\n      mstore\n        /* \"#utility.yul\":15948:15957   */\n      0x746865206c6f7400000000000000000000000000000000000000000000000000\n        /* \"#utility.yul\":15943:15945   */\n      0x20\n        /* \"#utility.yul\":15935:15941   */\n      dup3\n        /* \"#utility.yul\":15931:15946   */\n      add\n        /* \"#utility.yul\":15924:15958   */\n      mstore\n        /* \"#utility.yul\":15739:15965   */\n      pop\n      jump\t// out\n        /* \"#utility.yul\":15971:16337   */\n    tag_165:\n        /* \"#utility.yul\":16113:16116   */\n      0x00\n        /* \"#utility.yul\":16134:16201   */\n      tag_334\n        /* \"#utility.yul\":16198:16200   */\n      0x27\n        /* \"#utility.yul\":16193:16196   */\n      dup4\n        /* \"#utility.yul\":16134:16201   */\n      tag_130\n      jump\t// in\n    tag_334:\n        /* \"#utility.yul\":16127:16201   */\n      swap2\n      pop\n        /* \"#utility.yul\":16210:16303   */\n      tag_335\n        /* \"#utility.yul\":16299:16302   */\n      dup3\n        /* \"#utility.yul\":16210:16303   */\n      tag_164\n      jump\t// in\n    tag_335:\n        /* \"#utility.yul\":16328:16330   */\n      0x40\n        /* \"#utility.yul\":16323:16326   */\n      dup3\n        /* \"#utility.yul\":16319:16331   */\n      add\n        /* \"#utility.yul\":16312:16331   */\n      swap1\n      pop\n        /* \"#utility.yul\":15971:16337   */\n      swap2\n      swap1\n      pop\n      jump\t// out\n        /* \"#utility.yul\":16343:16762   */\n    tag_108:\n        /* \"#utility.yul\":16509:16513   */\n      0x00\n        /* \"#utility.yul\":16547:16549   */\n      0x20\n        /* \"#utility.yul\":16536:16545   */\n      dup3\n        /* \"#utility.yul\":16532:16550   */\n      add\n        /* \"#utility.yul\":16524:16550   */\n      swap1\n      pop\n        /* \"#utility.yul\":16596:16605   */\n      dup2\n        /* \"#utility.yul\":16590:16594   */\n      dup2\n        /* \"#utility.yul\":16586:16606   */\n      sub\n        /* \"#utility.yul\":16582:16583   */\n      0x00\n        /* \"#utility.yul\":16571:16580   */\n      dup4\n        /* \"#utility.yul\":16567:16584   */\n      add\n        /* \"#utility.yul\":16560:16607   */\n      mstore\n        /* \"#utility.yul\":16624:16755   */\n      tag_337\n        /* \"#utility.yul\":16750:16754   */\n      dup2\n        /* \"#utility.yul\":16624:16755   */\n      tag_165\n      jump\t// in\n    tag_337:\n        /* \"#utility.yul\":16616:16755   */\n      swap1\n      pop\n        /* \"#utility.yul\":16343:16762   */\n      swap2\n      swap1\n      pop\n      jump\t// out\n        /* \"#utility.yul\":16768:16948   */\n    tag_166:\n        /* \"#utility.yul\":16816:16893   */\n      0x4e487b7100000000000000000000000000000000000000000000000000000000\n        /* \"#utility.yul\":16813:16814   */\n      0x00\n        /* \"#utility.yul\":16806:16894   */\n      mstore\n        /* \"#utility.yul\":16913:16917   */\n      0x11\n        /* \"#utility.yul\":16910:16911   */\n      0x04\n        /* \"#utility.yul\":16903:16918   */\n      mstore\n        /* \"#utility.yul\":16937:16941   */\n      0x24\n        /* \"#utility.yul\":16934:16935   */\n      0x00\n        /* \"#utility.yul\":16927:16942   */\n      revert\n        /* \"#utility.yul\":16954:17187   */\n    tag_115:\n        /* \"#utility.yul\":16993:16996   */\n      0x00\n        /* \"#utility.yul\":17016:17040   */\n      tag_340\n        /* \"#utility.yul\":17034:17039   */\n      dup3\n        /* \"#utility.yul\":17016:17040   */\n      tag_125\n      jump\t// in\n    tag_340:\n        /* \"#utility.yul\":17007:17040   */\n      swap2\n      pop\n        /* \"#utility.yul\":17062:17128   */\n      0xffffffffffffffffffffffffffffffffffffffffffffffffffffffffffffffff\n        /* \"#utility.yul\":17055:17060   */\n      dup3\n        /* \"#utility.yul\":17052:17129   */\n      sub\n        /* \"#utility.yul\":17049:17152   */\n      tag_341\n      jumpi\n        /* \"#utility.yul\":17132:17150   */\n      tag_342\n      tag_166\n      jump\t// in\n    tag_342:\n        /* \"#utility.yul\":17049:17152   */\n    tag_341:\n        /* \"#utility.yul\":17179:17180   */\n      0x01\n        /* \"#utility.yul\":17172:17177   */\n      dup3\n        /* \"#utility.yul\":17168:17181   */\n      add\n        /* \"#utility.yul\":17161:17181   */\n      swap1\n      pop\n        /* \"#utility.yul\":16954:17187   */\n      swap2\n      swap1\n      pop\n      jump\t// out\n        /* \"#utility.yul\":17193:17334   */\n    tag_167:\n        /* \"#utility.yul\":17242:17246   */\n      0x00\n        /* \"#utility.yul\":17265:17268   */\n      dup2\n        /* \"#utility.yul\":17257:17268   */\n      swap1\n      pop\n        /* \"#utility.yul\":17288:17291   */\n      dup2\n        /* \"#utility.yul\":17285:17286   */\n      0x00\n        /* \"#utility.yul\":17278:17292   */\n      mstore\n        /* \"#utility.yul\":17322:17326   */\n      0x20\n        /* \"#utility.yul\":17319:17320   */\n      0x00\n        /* \"#utility.yul\":17309:17327   */\n      keccak256\n        /* \"#utility.yul\":17301:17327   */\n      swap1\n      pop\n        /* \"#utility.yul\":17193:17334   */\n      swap2\n      swap1\n      pop\n      jump\t// out\n        /* \"#utility.yul\":17340:17433   */\n    tag_168:\n        /* \"#utility.yul\":17377:17383   */\n      0x00\n        /* \"#utility.yul\":17424:17426   */\n      0x20\n        /* \"#utility.yul\":17419:17421   */\n      0x1f\n        /* \"#utility.yul\":17412:17417   */\n      dup4\n        /* \"#utility.yul\":17408:17422   */\n      add\n        /* \"#utility.yul\":17404:17427   */\n      div\n        /* \"#utility.yul\":17394:17427   */\n      swap1\n      pop\n        /* \"#utility.yul\":17340:17433   */\n      swap2\n      swap1\n      pop\n      jump\t// out\n        /* \"#utility.yul\":17439:17546   */\n    tag_169:\n        /* \"#utility.yul\":17483:17491   */\n      0x00\n        /* \"#utility.yul\":17533:17538   */\n      dup3\n        /* \"#utility.yul\":17527:17531   */\n      dup3\n        /* \"#utility.yul\":17523:17539   */\n      shl\n        /* \"#utility.yul\":17502:17539   */\n      swap1\n      pop\n        /* \"#utility.yul\":17439:17546   */\n      swap3\n      swap2\n      pop\n      pop\n      jump\t// out\n        /* \"#utility.yul\":17552:17945   */\n    tag_170:\n        /* \"#utility.yul\":17621:17627   */\n      0x00\n        /* \"#utility.yul\":17671:17672   */\n      0x08\n        /* \"#utility.yul\":17659:17669   */\n      dup4\n        /* \"#utility.yul\":17655:17673   */\n      mul\n        /* \"#utility.yul\":17694:17791   */\n      tag_347\n        /* \"#utility.yul\":17724:17790   */\n      0xffffffffffffffffffffffffffffffffffffffffffffffffffffffffffffffff\n        /* \"#utility.yul\":17713:17722   */\n      dup3\n        /* \"#utility.yul\":17694:17791   */\n      tag_169\n      jump\t// in\n    tag_347:\n        /* \"#utility.yul\":17812:17851   */\n      tag_348\n        /* \"#utility.yul\":17842:17850   */\n      dup7\n        /* \"#utility.yul\":17831:17840   */\n      dup4\n        /* \"#utility.yul\":17812:17851   */\n      tag_169\n      jump\t// in\n    tag_348:\n        /* \"#utility.yul\":17800:17851   */\n      swap6\n      pop\n        /* \"#utility.yul\":17884:17888   */\n      dup1\n        /* \"#utility.yul\":17880:17889   */\n      not\n        /* \"#utility.yul\":17873:17878   */\n      dup5\n        /* \"#utility.yul\":17869:17890   */\n      and\n        /* \"#utility.yul\":17860:17890   */\n      swap4\n      pop\n        /* \"#utility.yul\":17933:17937   */\n      dup1\n        /* \"#utility.yul\":17923:17931   */\n      dup7\n        /* \"#utility.yul\":17919:17938   */\n      and\n        /* \"#utility.yul\":17912:17917   */\n      dup5\n        /* \"#utility.yul\":17909:17939   */\n      or\n        /* \"#utility.yul\":17899:17939   */\n      swap3\n      pop\n        /* \"#utility.yul\":17628:17945   */\n      pop\n      pop\n        /* \"#utility.yul\":17552:17945   */\n      swap4\n      swap3\n      pop\n      pop\n      pop\n      jump\t// out\n        /* \"#utility.yul\":17951:18011   */\n    tag_171:\n        /* \"#utility.yul\":17979:17982   */\n      0x00\n        /* \"#utility.yul\":18000:18005   */\n      dup2\n        /* \"#utility.yul\":17993:18005   */\n      swap1\n      pop\n        /* \"#utility.yul\":17951:18011   */\n      swap2\n      swap1\n      pop\n      jump\t// out\n        /* \"#utility.yul\":18017:18159   */\n    tag_172:\n        /* \"#utility.yul\":18067:18076   */\n      0x00\n        /* \"#utility.yul\":18100:18153   */\n      tag_351\n        /* \"#utility.yul\":18118:18152   */\n      tag_352\n        /* \"#utility.yul\":18127:18151   */\n      tag_353\n        /* \"#utility.yul\":18145:18150   */\n      dup5\n        /* \"#utility.yul\":18127:18151   */\n      tag_125\n      jump\t// in\n    tag_353:\n        /* \"#utility.yul\":18118:18152   */\n      tag_171\n      jump\t// in\n    tag_352:\n        /* \"#utility.yul\":18100:18153   */\n      tag_125\n      jump\t// in\n    tag_351:\n        /* \"#utility.yul\":18087:18153   */\n      swap1\n      pop\n        /* \"#utility.yul\":18017:18159   */\n      swap2\n      swap1\n      pop\n      jump\t// out\n        /* \"#utility.yul\":18165:18240   */\n    tag_173:\n        /* \"#utility.yul\":18208:18211   */\n      0x00\n        /* \"#utility.yul\":18229:18234   */\n      dup2\n        /* \"#utility.yul\":18222:18234   */\n      swap1\n      pop\n        /* \"#utility.yul\":18165:18240   */\n      swap2\n      swap1\n      pop\n      jump\t// out\n        /* \"#utility.yul\":18246:18515   */\n    tag_174:\n        /* \"#utility.yul\":18356:18395   */\n      tag_356\n        /* \"#utility.yul\":18387:18394   */\n      dup4\n        /* \"#utility.yul\":18356:18395   */\n      tag_172\n      jump\t// in\n    tag_356:\n        /* \"#utility.yul\":18417:18508   */\n      tag_357\n        /* \"#utility.yul\":18466:18507   */\n      tag_358\n        /* \"#utility.yul\":18490:18506   */\n      dup3\n        /* \"#utility.yul\":18466:18507   */\n      tag_173\n      jump\t// in\n    tag_358:\n        /* \"#utility.yul\":18458:18464   */\n      dup5\n        /* \"#utility.yul\":18451:18455   */\n      dup5\n        /* \"#utility.yul\":18445:18456   */\n      sload\n        /* \"#utility.yul\":18417:18508   */\n      tag_170\n      jump\t// in\n    tag_357:\n        /* \"#utility.yul\":18411:18415   */\n      dup3\n        /* \"#utility.yul\":18404:18509   */\n      sstore\n        /* \"#utility.yul\":18322:18515   */\n      pop\n        /* \"#utility.yul\":18246:18515   */\n      pop\n      pop\n      pop\n      jump\t// out\n        /* \"#utility.yul\":18521:18594   */\n    tag_175:\n        /* \"#utility.yul\":18566:18569   */\n      0x00\n        /* \"#utility.yul\":18521:18594   */\n      swap1\n      jump\t// out\n        /* \"#utility.yul\":18600:18789   */\n    tag_176:\n        /* \"#utility.yul\":18677:18709   */\n      tag_361\n      tag_175\n      jump\t// in\n    tag_361:\n        /* \"#utility.yul\":18718:18783   */\n      tag_362\n        /* \"#utility.yul\":18776:18782   */\n      dup2\n        /* \"#utility.yul\":18768:18774   */\n      dup5\n        /* \"#utility.yul\":18762:18766   */\n      dup5\n        /* \"#utility.yul\":18718:18783   */\n      tag_174\n      jump\t// in\n    tag_362:\n        /* \"#utility.yul\":18653:18789   */\n      pop\n        /* \"#utility.yul\":18600:18789   */\n      pop\n      pop\n      jump\t// out\n        /* \"#utility.yul\":18795:18981   */\n    tag_177:\n        /* \"#utility.yul\":18855:18975   */\n    tag_364:\n        /* \"#utility.yul\":18872:18875   */\n      dup2\n        /* \"#utility.yul\":18865:18870   */\n      dup2\n        /* \"#utility.yul\":18862:18876   */\n      lt\n        /* \"#utility.yul\":18855:18975   */\n      iszero\n      tag_366\n      jumpi\n        /* \"#utility.yul\":18926:18965   */\n      tag_367\n        /* \"#utility.yul\":18963:18964   */\n      0x00\n        /* \"#utility.yul\":18956:18961   */\n      dup3\n        /* \"#utility.yul\":18926:18965   */\n      tag_176\n      jump\t// in\n    tag_367:\n        /* \"#utility.yul\":18899:18900   */\n      0x01\n        /* \"#utility.yul\":18892:18897   */\n      dup2\n        /* \"#utility.yul\":18888:18901   */\n      add\n        /* \"#utility.yul\":18879:18901   */\n      swap1\n      pop\n        /* \"#utility.yul\":18855:18975   */\n      jump(tag_364)\n    tag_366:\n        /* \"#utility.yul\":18795:18981   */\n      pop\n      pop\n      jump\t// out\n        /* \"#utility.yul\":18987:19530   */\n    tag_178:\n        /* \"#utility.yul\":19088:19090   */\n      0x1f\n        /* \"#utility.yul\":19083:19086   */\n      dup3\n        /* \"#utility.yul\":19080:19091   */\n      gt\n        /* \"#utility.yul\":19077:19523   */\n      iszero\n      tag_369\n      jumpi\n        /* \"#utility.yul\":19122:19160   */\n      tag_370\n        /* \"#utility.yul\":19154:19159   */\n      dup2\n        /* \"#utility.yul\":19122:19160   */\n      tag_167\n      jump\t// in\n    tag_370:\n        /* \"#utility.yul\":19206:19235   */\n      tag_371\n        /* \"#utility.yul\":19224:19234   */\n      dup5\n        /* \"#utility.yul\":19206:19235   */\n      tag_168\n      jump\t// in\n    tag_371:\n        /* \"#utility.yul\":19196:19204   */\n      dup2\n        /* \"#utility.yul\":19192:19236   */\n      add\n        /* \"#utility.yul\":19389:19391   */\n      0x20\n        /* \"#utility.yul\":19377:19387   */\n      dup6\n        /* \"#utility.yul\":19374:19392   */\n      lt\n        /* \"#utility.yul\":19371:19420   */\n      iszero\n      tag_372\n      jumpi\n        /* \"#utility.yul\":19410:19418   */\n      dup2\n        /* \"#utility.yul\":19395:19418   */\n      swap1\n      pop\n        /* \"#utility.yul\":19371:19420   */\n    tag_372:\n        /* \"#utility.yul\":19433:19513   */\n      tag_373\n        /* \"#utility.yul\":19489:19511   */\n      tag_374\n        /* \"#utility.yul\":19507:19510   */\n      dup6\n        /* \"#utility.yul\":19489:19511   */\n      tag_168\n      jump\t// in\n    tag_374:\n        /* \"#utility.yul\":19479:19487   */\n      dup4\n        /* \"#utility.yul\":19475:19512   */\n      add\n        /* \"#utility.yul\":19462:19473   */\n      dup3\n        /* \"#utility.yul\":19433:19513   */\n      tag_177\n      jump\t// in\n    tag_373:\n        /* \"#utility.yul\":19092:19523   */\n      pop\n      pop\n        /* \"#utility.yul\":19077:19523   */\n    tag_369:\n        /* \"#utility.yul\":18987:19530   */\n      pop\n      pop\n      pop\n      jump\t// out\n        /* \"#utility.yul\":19536:19653   */\n    tag_179:\n        /* \"#utility.yul\":19590:19598   */\n      0x00\n        /* \"#utility.yul\":19640:19645   */\n      dup3\n        /* \"#utility.yul\":19634:19638   */\n      dup3\n        /* \"#utility.yul\":19630:19646   */\n      shr\n        /* \"#utility.yul\":19609:19646   */\n      swap1\n      pop\n        /* \"#utility.yul\":19536:19653   */\n      swap3\n      swap2\n      pop\n      pop\n      jump\t// out\n        /* \"#utility.yul\":19659:19828   */\n    tag_180:\n        /* \"#utility.yul\":19703:19709   */\n      0x00\n        /* \"#utility.yul\":19736:19787   */\n      tag_377\n        /* \"#utility.yul\":19784:19785   */\n      0x00\n        /* \"#utility.yul\":19780:19786   */\n      not\n        /* \"#utility.yul\":19772:19777   */\n      dup5\n        /* \"#utility.yul\":19769:19770   */\n      0x08\n        /* \"#utility.yul\":19765:19778   */\n      mul\n        /* \"#utility.yul\":19736:19787   */\n      tag_179\n      jump\t// in\n    tag_377:\n        /* \"#utility.yul\":19732:19788   */\n      not\n        /* \"#utility.yul\":19817:19821   */\n      dup1\n        /* \"#utility.yul\":19811:19815   */\n      dup4\n        /* \"#utility.yul\":19807:19822   */\n      and\n        /* \"#utility.yul\":19797:19822   */\n      swap2\n      pop\n        /* \"#utility.yul\":19710:19828   */\n      pop\n        /* \"#utility.yul\":19659:19828   */\n      swap3\n      swap2\n      pop\n      pop\n      jump\t// out\n        /* \"#utility.yul\":19833:20128   */\n    tag_181:\n        /* \"#utility.yul\":19909:19913   */\n      0x00\n        /* \"#utility.yul\":20055:20084   */\n      tag_379\n        /* \"#utility.yul\":20080:20083   */\n      dup4\n        /* \"#utility.yul\":20074:20078   */\n      dup4\n        /* \"#utility.yul\":20055:20084   */\n      tag_180\n      jump\t// in\n    tag_379:\n        /* \"#utility.yul\":20047:20084   */\n      swap2\n      pop\n        /* \"#utility.yul\":20117:20120   */\n      dup3\n        /* \"#utility.yul\":20114:20115   */\n      0x02\n        /* \"#utility.yul\":20110:20121   */\n      mul\n        /* \"#utility.yul\":20104:20108   */\n      dup3\n        /* \"#utility.yul\":20101:20122   */\n      or\n        /* \"#utility.yul\":20093:20122   */\n      swap1\n      pop\n        /* \"#utility.yul\":19833:20128   */\n      swap3\n      swap2\n      pop\n      pop\n      jump\t// out\n        /* \"#utility.yul\":20133:21528   */\n    tag_117:\n        /* \"#utility.yul\":20250:20287   */\n      tag_381\n        /* \"#utility.yul\":20283:20286   */\n      dup3\n        /* \"#utility.yul\":20250:20287   */\n      tag_129\n      jump\t// in\n    tag_381:\n        /* \"#utility.yul\":20352:20370   */\n      0xffffffffffffffff\n        /* \"#utility.yul\":20344:20350   */\n      dup2\n        /* \"#utility.yul\":20341:20371   */\n      gt\n        /* \"#utility.yul\":20338:20394   */\n      iszero\n      tag_382\n      jumpi\n        /* \"#utility.yul\":20374:20392   */\n      tag_383\n      tag_146\n      jump\t// in\n    tag_383:\n        /* \"#utility.yul\":20338:20394   */\n    tag_382:\n        /* \"#utility.yul\":20418:20456   */\n      tag_384\n        /* \"#utility.yul\":20450:20454   */\n      dup3\n        /* \"#utility.yul\":20444:20455   */\n      sload\n        /* \"#utility.yul\":20418:20456   */\n      tag_51\n      jump\t// in\n    tag_384:\n        /* \"#utility.yul\":20503:20570   */\n      tag_385\n        /* \"#utility.yul\":20563:20569   */\n      dup3\n        /* \"#utility.yul\":20555:20561   */\n      dup3\n        /* \"#utility.yul\":20549:20553   */\n      dup6\n        /* \"#utility.yul\":20503:20570   */\n      tag_178\n      jump\t// in\n    tag_385:\n        /* \"#utility.yul\":20597:20598   */\n      0x00\n        /* \"#utility.yul\":20621:20625   */\n      0x20\n        /* \"#utility.yul\":20608:20625   */\n      swap1\n      pop\n        /* \"#utility.yul\":20653:20655   */\n      0x1f\n        /* \"#utility.yul\":20645:20651   */\n      dup4\n        /* \"#utility.yul\":20642:20656   */\n      gt\n        /* \"#utility.yul\":20670:20671   */\n      0x01\n        /* \"#utility.yul\":20665:21283   */\n      dup2\n      eq\n      tag_387\n      jumpi\n        /* \"#utility.yul\":21327:21328   */\n      0x00\n        /* \"#utility.yul\":21344:21350   */\n      dup5\n        /* \"#utility.yul\":21341:21418   */\n      iszero\n      tag_388\n      jumpi\n        /* \"#utility.yul\":21393:21402   */\n      dup3\n        /* \"#utility.yul\":21388:21391   */\n      dup8\n        /* \"#utility.yul\":21384:21403   */\n      add\n        /* \"#utility.yul\":21378:21404   */\n      mload\n        /* \"#utility.yul\":21369:21404   */\n      swap1\n      pop\n        /* \"#utility.yul\":21341:21418   */\n    tag_388:\n        /* \"#utility.yul\":21444:21511   */\n      tag_389\n        /* \"#utility.yul\":21504:21510   */\n      dup6\n        /* \"#utility.yul\":21497:21502   */\n      dup3\n        /* \"#utility.yul\":21444:21511   */\n      tag_181\n      jump\t// in\n    tag_389:\n        /* \"#utility.yul\":21438:21442   */\n      dup7\n        /* \"#utility.yul\":21431:21512   */\n      sstore\n        /* \"#utility.yul\":21300:21522   */\n      pop\n        /* \"#utility.yul\":20635:21522   */\n      jump(tag_386)\n        /* \"#utility.yul\":20665:21283   */\n    tag_387:\n        /* \"#utility.yul\":20717:20721   */\n      0x1f\n        /* \"#utility.yul\":20713:20722   */\n      not\n        /* \"#utility.yul\":20705:20711   */\n      dup5\n        /* \"#utility.yul\":20701:20723   */\n      and\n        /* \"#utility.yul\":20751:20788   */\n      tag_390\n        /* \"#utility.yul\":20783:20787   */\n      dup7\n        /* \"#utility.yul\":20751:20788   */\n      tag_167\n      jump\t// in\n    tag_390:\n        /* \"#utility.yul\":20810:20811   */\n      0x00\n        /* \"#utility.yul\":20824:21032   */\n    tag_391:\n        /* \"#utility.yul\":20838:20845   */\n      dup3\n        /* \"#utility.yul\":20835:20836   */\n      dup2\n        /* \"#utility.yul\":20832:20846   */\n      lt\n        /* \"#utility.yul\":20824:21032   */\n      iszero\n      tag_393\n      jumpi\n        /* \"#utility.yul\":20917:20926   */\n      dup5\n        /* \"#utility.yul\":20912:20915   */\n      dup10\n        /* \"#utility.yul\":20908:20927   */\n      add\n        /* \"#utility.yul\":20902:20928   */\n      mload\n        /* \"#utility.yul\":20894:20900   */\n      dup3\n        /* \"#utility.yul\":20887:20929   */\n      sstore\n        /* \"#utility.yul\":20968:20969   */\n      0x01\n        /* \"#utility.yul\":20960:20966   */\n      dup3\n        /* \"#utility.yul\":20956:20970   */\n      add\n        /* \"#utility.yul\":20946:20970   */\n      swap2\n      pop\n        /* \"#utility.yul\":21015:21017   */\n      0x20\n        /* \"#utility.yul\":21004:21013   */\n      dup6\n        /* \"#utility.yul\":21000:21018   */\n      add\n        /* \"#utility.yul\":20987:21018   */\n      swap5\n      pop\n        /* \"#utility.yul\":20861:20865   */\n      0x20\n        /* \"#utility.yul\":20858:20859   */\n      dup2\n        /* \"#utility.yul\":20854:20866   */\n      add\n        /* \"#utility.yul\":20849:20866   */\n      swap1\n      pop\n        /* \"#utility.yul\":20824:21032   */\n      jump(tag_391)\n    tag_393:\n        /* \"#utility.yul\":21060:21066   */\n      dup7\n        /* \"#utility.yul\":21051:21058   */\n      dup4\n        /* \"#utility.yul\":21048:21067   */\n      lt\n        /* \"#utility.yul\":21045:21224   */\n      iszero\n      tag_394\n      jumpi\n        /* \"#utility.yul\":21118:21127   */\n      dup5\n        /* \"#utility.yul\":21113:21116   */\n      dup10\n        /* \"#utility.yul\":21109:21128   */\n      add\n        /* \"#utility.yul\":21103:21129   */\n      mload\n        /* \"#utility.yul\":21161:21209   */\n      tag_395\n        /* \"#utility.yul\":21203:21207   */\n      0x1f\n        /* \"#utility.yul\":21195:21201   */\n      dup10\n        /* \"#utility.yul\":21191:21208   */\n      and\n        /* \"#utility.yul\":21180:21189   */\n      dup3\n        /* \"#utility.yul\":21161:21209   */\n      tag_180\n      jump\t// in\n    tag_395:\n        /* \"#utility.yul\":21153:21159   */\n      dup4\n        /* \"#utility.yul\":21146:21210   */\n      sstore\n        /* \"#utility.yul\":21068:21224   */\n      pop\n        /* \"#utility.yul\":21045:21224   */\n    tag_394:\n        /* \"#utility.yul\":21270:21271   */\n      0x01\n        /* \"#utility.yul\":21266:21267   */\n      0x02\n        /* \"#utility.yul\":21258:21264   */\n      dup9\n        /* \"#utility.yul\":21254:21268   */\n      mul\n        /* \"#utility.yul\":21250:21272   */\n      add\n        /* \"#utility.yul\":21244:21248   */\n      dup9\n        /* \"#utility.yul\":21237:21273   */\n      sstore\n        /* \"#utility.yul\":20672:21283   */\n      pop\n      pop\n      pop\n        /* \"#utility.yul\":20635:21522   */\n    tag_386:\n      pop\n        /* \"#utility.yul\":20225:21528   */\n      pop\n      pop\n      pop\n        /* \"#utility.yul\":20133:21528   */\n      pop\n      pop\n      jump\t// out\n        /* \"#utility.yul\":21534:22158   */\n    tag_120:\n        /* \"#utility.yul\":21723:21727   */\n      0x00\n        /* \"#utility.yul\":21761:21763   */\n      0x60\n        /* \"#utility.yul\":21750:21759   */\n      dup3\n        /* \"#utility.yul\":21746:21764   */\n      add\n        /* \"#utility.yul\":21738:21764   */\n      swap1\n      pop\n        /* \"#utility.yul\":21774:21845   */\n      tag_397\n        /* \"#utility.yul\":21842:21843   */\n      0x00\n        /* \"#utility.yul\":21831:21840   */\n      dup4\n        /* \"#utility.yul\":21827:21844   */\n      add\n        /* \"#utility.yul\":21818:21824   */\n      dup7\n        /* \"#utility.yul\":21774:21845   */\n      tag_128\n      jump\t// in\n    tag_397:\n        /* \"#utility.yul\":21892:21901   */\n      dup2\n        /* \"#utility.yul\":21886:21890   */\n      dup2\n        /* \"#utility.yul\":21882:21902   */\n      sub\n        /* \"#utility.yul\":21877:21879   */\n      0x20\n        /* \"#utility.yul\":21866:21875   */\n      dup4\n        /* \"#utility.yul\":21862:21880   */\n      add\n        /* \"#utility.yul\":21855:21903   */\n      mstore\n        /* \"#utility.yul\":21920:21998   */\n      tag_398\n        /* \"#utility.yul\":21993:21997   */\n      dup2\n        /* \"#utility.yul\":21984:21990   */\n      dup6\n        /* \"#utility.yul\":21920:21998   */\n      tag_133\n      jump\t// in\n    tag_398:\n        /* \"#utility.yul\":21912:21998   */\n      swap1\n      pop\n        /* \"#utility.yul\":22045:22054   */\n      dup2\n        /* \"#utility.yul\":22039:22043   */\n      dup2\n        /* \"#utility.yul\":22035:22055   */\n      sub\n        /* \"#utility.yul\":22030:22032   */\n      0x40\n        /* \"#utility.yul\":22019:22028   */\n      dup4\n        /* \"#utility.yul\":22015:22033   */\n      add\n        /* \"#utility.yul\":22008:22056   */\n      mstore\n        /* \"#utility.yul\":22073:22151   */\n      tag_399\n        /* \"#utility.yul\":22146:22150   */\n      dup2\n        /* \"#utility.yul\":22137:22143   */\n      dup5\n        /* \"#utility.yul\":22073:22151   */\n      tag_133\n      jump\t// in\n    tag_399:\n        /* \"#utility.yul\":22065:22151   */\n      swap1\n      pop\n        /* \"#utility.yul\":21534:22158   */\n      swap5\n      swap4\n      pop\n      pop\n      pop\n      pop\n      jump\t// out\n\n    auxdata: 0xa2646970667358221220db4fbcfaf745d379e7c15fbaea1e25f0f4e690529b50a42b8765ae63a9fb275a64736f6c63430008190033\n}\n",
				"bytecode": {
					"linkReferences": {},
					"object": "6080604052348015600f57600080fd5b50336000806101000a81548173ffffffffffffffffffffffffffffffffffffffff021916908373ffffffffffffffffffffffffffffffffffffffff16021790555060008054906101000a900473ffffffffffffffffffffffffffffffffffffffff1673ffffffffffffffffffffffffffffffffffffffff16600073ffffffffffffffffffffffffffffffffffffffff167f342827c97908e5e2f71151c08502a66d44b6f758e3ac2f1de95f02eb95f0a73560405160405180910390a36000600281905550611a1a806100e26000396000f3fe608060405234801561001057600080fd5b50600436106100935760003560e01c80638ab1d681116100665780638ab1d681146101245780639b19251a14610140578063a6f9dae114610170578063c00b29d81461018c578063e4cfa278146101a857610093565b8063115a8e25146100985780635a4cbe51146100ce5780637f649783146100ea578063893d20e814610106575b600080fd5b6100b260048036038101906100ad9190610e25565b6101c4565b6040516100c59796959493929190610f4d565b60405180910390f35b6100e860048036038101906100e39190610e25565b610343565b005b61010460048036038101906100ff919061102f565b61049d565b005b61010e610633565b60405161011b919061107c565b60405180910390f35b61013e600480360381019061013991906110c3565b61065c565b005b61015a600480360381019061015591906110c3565b610788565b60405161016791906110f0565b60405180910390f35b61018a600480360381019061018591906110c3565b6107a8565b005b6101a660048036038101906101a1919061110b565b610962565b005b6101c260048036038101906101bd919061127b565b610b84565b005b60036020528060005260406000206000915090508060000154908060010180546101ed90611335565b80601f016020809104026020016040519081016040528092919081815260200182805461021990611335565b80156102665780601f1061023b57610100808354040283529160200191610266565b820191906000526020600020905b81548152906001019060200180831161024957829003601f168201915b50505050509080600201549080600301805461028190611335565b80601f01602080910402602001604051908101604052809291908181526020018280546102ad90611335565b80156102fa5780601f106102cf576101008083540402835291602001916102fa565b820191906000526020600020905b8154815290600101906020018083116102dd57829003601f168201915b5050505050908060040160009054906101000a900473ffffffffffffffffffffffffffffffffffffffff16908060050154908060060160009054906101000a900460ff16905087565b60008054906101000a900473ffffffffffffffffffffffffffffffffffffffff1673ffffffffffffffffffffffffffffffffffffffff163373ffffffffffffffffffffffffffffffffffffffff16146103d1576040517f08c379a00000000000000000000000000000000000000000000000000000000081526004016103c8906113b2565b60405180910390fd5b6003600082815260200190815260200160002060060160009054906101000a900460ff16610434576040517f08c379a000000000000000000000000000000000000000000000000000000000815260040161042b90611444565b60405180910390fd5b60006003600083815260200190815260200160002060060160006101000a81548160ff0219169083151502179055507f50ff6c8267104354ffd393edb06d421ec439784c4a2c0595e11e5fb6b1ecbf43816040516104929190611464565b60405180910390a150565b60008054906101000a900473ffffffffffffffffffffffffffffffffffffffff1673ffffffffffffffffffffffffffffffffffffffff163373ffffffffffffffffffffffffffffffffffffffff161461052b576040517f08c379a0000000000000000000000000000000000000000000000000000000008152600401610522906113b2565b60405180910390fd5b60005b8282905081101561062e5760018060008585858181106105515761055061147f565b5b905060200201602081019061056691906110c3565b73ffffffffffffffffffffffffffffffffffffffff1673ffffffffffffffffffffffffffffffffffffffff16815260200190815260200160002060006101000a81548160ff0219169083151502179055508282828181106105ca576105c961147f565b5b90506020020160208101906105df91906110c3565b73ffffffffffffffffffffffffffffffffffffffff167f2e3361a4e7a8b067d0bbafcb5811e35ba5eccbb7a274be8bcfe4fb6f81fe30c860405160405180910390a2808060010191505061052e565b505050565b60008060009054906101000a900473ffffffffffffffffffffffffffffffffffffffff16905090565b60008054906101000a900473ffffffffffffffffffffffffffffffffffffffff1673ffffffffffffffffffffffffffffffffffffffff163373ffffffffffffffffffffffffffffffffffffffff16146106ea576040517f08c379a00000000000000000000000000000000000000000000000000000000081526004016106e1906113b2565b60405180910390fd5b6000600160008373ffffffffffffffffffffffffffffffffffffffff1673ffffffffffffffffffffffffffffffffffffffff16815260200190815260200160002060006101000a81548160ff0219169083151502179055508073ffffffffffffffffffffffffffffffffffffffff167f2e3361a4e7a8b067d0bbafcb5811e35ba5eccbb7a274be8bcfe4fb6f81fe30c860405160405180910390a250565b60016020528060005260406000206000915054906101000a900460ff1681565b60008054906101000a900473ffffffffffffffffffffffffffffffffffffffff1673ffffffffffffffffffffffffffffffffffffffff163373ffffffffffffffffffffffffffffffffffffffff1614610836576040517f08c379a000000000000000000000000000000000000000000000000000000000815260040161082d906113b2565b60405180910390fd5b600073ffffffffffffffffffffffffffffffffffffffff168173ffffffffffffffffffffffffffffffffffffffff16036108a5576040517f08c379a000000000000000000000000000000000000000000000000000000000815260040161089c90611520565b60405180910390fd5b8073ffffffffffffffffffffffffffffffffffffffff1660008054906101000a900473ffffffffffffffffffffffffffffffffffffffff1673ffffffffffffffffffffffffffffffffffffffff167f342827c97908e5e2f71151c08502a66d44b6f758e3ac2f1de95f02eb95f0a73560405160405180910390a3806000806101000a81548173ffffffffffffffffffffffffffffffffffffffff021916908373ffffffffffffffffffffffffffffffffffffffff16021790555050565b61096b81610d85565b6109aa576040517f08c379a00000000000000000000000000000000000000000000000000000000081526004016109a19061158c565b60405180910390fd5b60006003600084815260200190815260200160002090508060060160009054906101000a900460ff16610a12576040517f08c379a0000000000000000000000000000000000000000000000000000000008152600401610a09906115f8565b60405180910390fd5b8060040160009054906101000a900473ffffffffffffffffffffffffffffffffffffffff1673ffffffffffffffffffffffffffffffffffffffff163373ffffffffffffffffffffffffffffffffffffffff1614610aa4576040517f08c379a0000000000000000000000000000000000000000000000000000000008152600401610a9b9061168a565b60405180910390fd5b60008160040160009054906101000a900473ffffffffffffffffffffffffffffffffffffffff169050828260040160006101000a81548173ffffffffffffffffffffffffffffffffffffffff021916908373ffffffffffffffffffffffffffffffffffffffff1602179055504282600501819055508273ffffffffffffffffffffffffffffffffffffffff168173ffffffffffffffffffffffffffffffffffffffff167f16b85f49bf01212961345d3016c9a531894accf62eb7680f2045d79185cc0ec086604051610b769190611464565b60405180910390a350505050565b60008054906101000a900473ffffffffffffffffffffffffffffffffffffffff1673ffffffffffffffffffffffffffffffffffffffff163373ffffffffffffffffffffffffffffffffffffffff1614610c12576040517f08c379a0000000000000000000000000000000000000000000000000000000008152600401610c09906113b2565b60405180910390fd5b60026000815480929190610c25906116d9565b9190505550600060025490506040518060e001604052808281526020018581526020018481526020018381526020013373ffffffffffffffffffffffffffffffffffffffff1681526020014281526020016001151581525060036000838152602001908152602001600020600082015181600001556020820151816001019081610caf91906118cd565b50604082015181600201556060820151816003019081610ccf91906118cd565b5060808201518160040160006101000a81548173ffffffffffffffffffffffffffffffffffffffff021916908373ffffffffffffffffffffffffffffffffffffffff16021790555060a0820151816005015560c08201518160060160006101000a81548160ff0219169083151502179055509050507f15b6890af0e66873b46f545c2578a72329a3f376146d1847dd82e30d4b37bfd6818584604051610d779392919061199f565b60405180910390a150505050565b6000600160008373ffffffffffffffffffffffffffffffffffffffff1673ffffffffffffffffffffffffffffffffffffffff16815260200190815260200160002060009054906101000a900460ff169050919050565b6000604051905090565b600080fd5b600080fd5b6000819050919050565b610e0281610def565b8114610e0d57600080fd5b50565b600081359050610e1f81610df9565b92915050565b600060208284031215610e3b57610e3a610de5565b5b6000610e4984828501610e10565b91505092915050565b610e5b81610def565b82525050565b600081519050919050565b600082825260208201905092915050565b60005b83811015610e9b578082015181840152602081019050610e80565b60008484015250505050565b6000601f19601f8301169050919050565b6000610ec382610e61565b610ecd8185610e6c565b9350610edd818560208601610e7d565b610ee681610ea7565b840191505092915050565b600073ffffffffffffffffffffffffffffffffffffffff82169050919050565b6000610f1c82610ef1565b9050919050565b610f2c81610f11565b82525050565b60008115159050919050565b610f4781610f32565b82525050565b600060e082019050610f62600083018a610e52565b8181036020830152610f748189610eb8565b9050610f836040830188610e52565b8181036060830152610f958187610eb8565b9050610fa46080830186610f23565b610fb160a0830185610e52565b610fbe60c0830184610f3e565b98975050505050505050565b600080fd5b600080fd5b600080fd5b60008083601f840112610fef57610fee610fca565b5b8235905067ffffffffffffffff81111561100c5761100b610fcf565b5b60208301915083602082028301111561102857611027610fd4565b5b9250929050565b6000806020838503121561104657611045610de5565b5b600083013567ffffffffffffffff81111561106457611063610dea565b5b61107085828601610fd9565b92509250509250929050565b60006020820190506110916000830184610f23565b92915050565b6110a081610f11565b81146110ab57600080fd5b50565b6000813590506110bd81611097565b92915050565b6000602082840312156110d9576110d8610de5565b5b60006110e7848285016110ae565b91505092915050565b60006020820190506111056000830184610f3e565b92915050565b6000806040838503121561112257611121610de5565b5b600061113085828601610e10565b9250506020611141858286016110ae565b9150509250929050565b600080fd5b7f4e487b7100000000000000000000000000000000000000000000000000000000600052604160045260246000fd5b61118882610ea7565b810181811067ffffffffffffffff821117156111a7576111a6611150565b5b80604052505050565b60006111ba610ddb565b90506111c6828261117f565b919050565b600067ffffffffffffffff8211156111e6576111e5611150565b5b6111ef82610ea7565b9050602081019050919050565b82818337600083830152505050565b600061121e611219846111cb565b6111b0565b90508281526020810184848401111561123a5761123961114b565b5b6112458482856111fc565b509392505050565b600082601f83011261126257611261610fca565b5b813561127284826020860161120b565b91505092915050565b60008060006060848603121561129457611293610de5565b5b600084013567ffffffffffffffff8111156112b2576112b1610dea565b5b6112be8682870161124d565b93505060206112cf86828701610e10565b925050604084013567ffffffffffffffff8111156112f0576112ef610dea565b5b6112fc8682870161124d565b9150509250925092565b7f4e487b7100000000000000000000000000000000000000000000000000000000600052602260045260246000fd5b6000600282049050600182168061134d57607f821691505b6020821081036113605761135f611306565b5b50919050565b7f43616c6c6572206973206e6f74206f776e657200000000000000000000000000600082015250565b600061139c601383610e6c565b91506113a782611366565b602082019050919050565b600060208201905081810360008301526113cb8161138f565b9050919050565b7f4c6f7420616c72656164792072656d6f766564206f7220646f6573206e6f742060008201527f6578697374000000000000000000000000000000000000000000000000000000602082015250565b600061142e602583610e6c565b9150611439826113d2565b604082019050919050565b6000602082019050818103600083015261145d81611421565b9050919050565b60006020820190506114796000830184610e52565b92915050565b7f4e487b7100000000000000000000000000000000000000000000000000000000600052603260045260246000fd5b7f4e6577206f776e65722063616e6e6f7420626520746865207a65726f2061646460008201527f7265737300000000000000000000000000000000000000000000000000000000602082015250565b600061150a602483610e6c565b9150611515826114ae565b604082019050919050565b60006020820190508181036000830152611539816114fd565b9050919050565b7f4e6577206f776e6572206973206e6f742077686974656c697374656400000000600082015250565b6000611576601c83610e6c565b915061158182611540565b602082019050919050565b600060208201905081810360008301526115a581611569565b9050919050565b7f4c6f74206973206e6f7420616374697665000000000000000000000000000000600082015250565b60006115e2601183610e6c565b91506115ed826115ac565b602082019050919050565b60006020820190508181036000830152611611816115d5565b9050919050565b7f4f6e6c792063757272656e74206f776e65722063616e207472616e736665722060008201527f746865206c6f7400000000000000000000000000000000000000000000000000602082015250565b6000611674602783610e6c565b915061167f82611618565b604082019050919050565b600060208201905081810360008301526116a381611667565b9050919050565b7f4e487b7100000000000000000000000000000000000000000000000000000000600052601160045260246000fd5b60006116e482610def565b91507fffffffffffffffffffffffffffffffffffffffffffffffffffffffffffffffff8203611716576117156116aa565b5b600182019050919050565b60008190508160005260206000209050919050565b60006020601f8301049050919050565b600082821b905092915050565b6000600883026117837fffffffffffffffffffffffffffffffffffffffffffffffffffffffffffffffff82611746565b61178d8683611746565b95508019841693508086168417925050509392505050565b6000819050919050565b60006117ca6117c56117c084610def565b6117a5565b610def565b9050919050565b6000819050919050565b6117e4836117af565b6117f86117f0826117d1565b848454611753565b825550505050565b600090565b61180d611800565b6118188184846117db565b505050565b5b8181101561183c57611831600082611805565b60018101905061181e565b5050565b601f8211156118815761185281611721565b61185b84611736565b8101602085101561186a578190505b61187e61187685611736565b83018261181d565b50505b505050565b600082821c905092915050565b60006118a460001984600802611886565b1980831691505092915050565b60006118bd8383611893565b9150826002028217905092915050565b6118d682610e61565b67ffffffffffffffff8111156118ef576118ee611150565b5b6118f98254611335565b611904828285611840565b600060209050601f8311600181146119375760008415611925578287015190505b61192f85826118b1565b865550611997565b601f19841661194586611721565b60005b8281101561196d57848901518255600182019150602085019450602081019050611948565b8683101561198a5784890151611986601f891682611893565b8355505b6001600288020188555050505b505050505050565b60006060820190506119b46000830186610e52565b81810360208301526119c68185610eb8565b905081810360408301526119da8184610eb8565b905094935050505056fea2646970667358221220db4fbcfaf745d379e7c15fbaea1e25f0f4e690529b50a42b8765ae63a9fb275a64736f6c63430008190033",
					"opcodes": "PUSH1 0x80 PUSH1 0x40 MSTORE CALLVALUE DUP1 ISZERO PUSH1 0xF JUMPI PUSH1 0x0 DUP1 REVERT JUMPDEST POP CALLER PUSH1 0x0 DUP1 PUSH2 0x100 EXP DUP2 SLOAD DUP2 PUSH20 0xFFFFFFFFFFFFFFFFFFFFFFFFFFFFFFFFFFFFFFFF MUL NOT AND SWAP1 DUP4 PUSH20 0xFFFFFFFFFFFFFFFFFFFFFFFFFFFFFFFFFFFFFFFF AND MUL OR SWAP1 SSTORE POP PUSH1 0x0 DUP1 SLOAD SWAP1 PUSH2 0x100 EXP SWAP1 DIV PUSH20 0xFFFFFFFFFFFFFFFFFFFFFFFFFFFFFFFFFFFFFFFF AND PUSH20 0xFFFFFFFFFFFFFFFFFFFFFFFFFFFFFFFFFFFFFFFF AND PUSH1 0x0 PUSH20 0xFFFFFFFFFFFFFFFFFFFFFFFFFFFFFFFFFFFFFFFF AND PUSH32 0x342827C97908E5E2F71151C08502A66D44B6F758E3AC2F1DE95F02EB95F0A735 PUSH1 0x40 MLOAD PUSH1 0x40 MLOAD DUP1 SWAP2 SUB SWAP1 LOG3 PUSH1 0x0 PUSH1 0x2 DUP2 SWAP1 SSTORE POP PUSH2 0x1A1A DUP1 PUSH2 0xE2 PUSH1 0x0 CODECOPY PUSH1 0x0 RETURN INVALID PUSH1 0x80 PUSH1 0x40 MSTORE CALLVALUE DUP1 ISZERO PUSH2 0x10 JUMPI PUSH1 0x0 DUP1 REVERT JUMPDEST POP PUSH1 0x4 CALLDATASIZE LT PUSH2 0x93 JUMPI PUSH1 0x0 CALLDATALOAD PUSH1 0xE0 SHR DUP1 PUSH4 0x8AB1D681 GT PUSH2 0x66 JUMPI DUP1 PUSH4 0x8AB1D681 EQ PUSH2 0x124 JUMPI DUP1 PUSH4 0x9B19251A EQ PUSH2 0x140 JUMPI DUP1 PUSH4 0xA6F9DAE1 EQ PUSH2 0x170 JUMPI DUP1 PUSH4 0xC00B29D8 EQ PUSH2 0x18C JUMPI DUP1 PUSH4 0xE4CFA278 EQ PUSH2 0x1A8 JUMPI PUSH2 0x93 JUMP JUMPDEST DUP1 PUSH4 0x115A8E25 EQ PUSH2 0x98 JUMPI DUP1 PUSH4 0x5A4CBE51 EQ PUSH2 0xCE JUMPI DUP1 PUSH4 0x7F649783 EQ PUSH2 0xEA JUMPI DUP1 PUSH4 0x893D20E8 EQ PUSH2 0x106 JUMPI JUMPDEST PUSH1 0x0 DUP1 REVERT JUMPDEST PUSH2 0xB2 PUSH1 0x4 DUP1 CALLDATASIZE SUB DUP2 ADD SWAP1 PUSH2 0xAD SWAP2 SWAP1 PUSH2 0xE25 JUMP JUMPDEST PUSH2 0x1C4 JUMP JUMPDEST PUSH1 0x40 MLOAD PUSH2 0xC5 SWAP8 SWAP7 SWAP6 SWAP5 SWAP4 SWAP3 SWAP2 SWAP1 PUSH2 0xF4D JUMP JUMPDEST PUSH1 0x40 MLOAD DUP1 SWAP2 SUB SWAP1 RETURN JUMPDEST PUSH2 0xE8 PUSH1 0x4 DUP1 CALLDATASIZE SUB DUP2 ADD SWAP1 PUSH2 0xE3 SWAP2 SWAP1 PUSH2 0xE25 JUMP JUMPDEST PUSH2 0x343 JUMP JUMPDEST STOP JUMPDEST PUSH2 0x104 PUSH1 0x4 DUP1 CALLDATASIZE SUB DUP2 ADD SWAP1 PUSH2 0xFF SWAP2 SWAP1 PUSH2 0x102F JUMP JUMPDEST PUSH2 0x49D JUMP JUMPDEST STOP JUMPDEST PUSH2 0x10E PUSH2 0x633 JUMP JUMPDEST PUSH1 0x40 MLOAD PUSH2 0x11B SWAP2 SWAP1 PUSH2 0x107C JUMP JUMPDEST PUSH1 0x40 MLOAD DUP1 SWAP2 SUB SWAP1 RETURN JUMPDEST PUSH2 0x13E PUSH1 0x4 DUP1 CALLDATASIZE SUB DUP2 ADD SWAP1 PUSH2 0x139 SWAP2 SWAP1 PUSH2 0x10C3 JUMP JUMPDEST PUSH2 0x65C JUMP JUMPDEST STOP JUMPDEST PUSH2 0x15A PUSH1 0x4 DUP1 CALLDATASIZE SUB DUP2 ADD SWAP1 PUSH2 0x155 SWAP2 SWAP1 PUSH2 0x10C3 JUMP JUMPDEST PUSH2 0x788 JUMP JUMPDEST PUSH1 0x40 MLOAD PUSH2 0x167 SWAP2 SWAP1 PUSH2 0x10F0 JUMP JUMPDEST PUSH1 0x40 MLOAD DUP1 SWAP2 SUB SWAP1 RETURN JUMPDEST PUSH2 0x18A PUSH1 0x4 DUP1 CALLDATASIZE SUB DUP2 ADD SWAP1 PUSH2 0x185 SWAP2 SWAP1 PUSH2 0x10C3 JUMP JUMPDEST PUSH2 0x7A8 JUMP JUMPDEST STOP JUMPDEST PUSH2 0x1A6 PUSH1 0x4 DUP1 CALLDATASIZE SUB DUP2 ADD SWAP1 PUSH2 0x1A1 SWAP2 SWAP1 PUSH2 0x110B JUMP JUMPDEST PUSH2 0x962 JUMP JUMPDEST STOP JUMPDEST PUSH2 0x1C2 PUSH1 0x4 DUP1 CALLDATASIZE SUB DUP2 ADD SWAP1 PUSH2 0x1BD SWAP2 SWAP1 PUSH2 0x127B JUMP JUMPDEST PUSH2 0xB84 JUMP JUMPDEST STOP JUMPDEST PUSH1 0x3 PUSH1 0x20 MSTORE DUP1 PUSH1 0x0 MSTORE PUSH1 0x40 PUSH1 0x0 KECCAK256 PUSH1 0x0 SWAP2 POP SWAP1 POP DUP1 PUSH1 0x0 ADD SLOAD SWAP1 DUP1 PUSH1 0x1 ADD DUP1 SLOAD PUSH2 0x1ED SWAP1 PUSH2 0x1335 JUMP JUMPDEST DUP1 PUSH1 0x1F ADD PUSH1 0x20 DUP1 SWAP2 DIV MUL PUSH1 0x20 ADD PUSH1 0x40 MLOAD SWAP1 DUP2 ADD PUSH1 0x40 MSTORE DUP1 SWAP3 SWAP2 SWAP1 DUP2 DUP2 MSTORE PUSH1 0x20 ADD DUP3 DUP1 SLOAD PUSH2 0x219 SWAP1 PUSH2 0x1335 JUMP JUMPDEST DUP1 ISZERO PUSH2 0x266 JUMPI DUP1 PUSH1 0x1F LT PUSH2 0x23B JUMPI PUSH2 0x100 DUP1 DUP4 SLOAD DIV MUL DUP4 MSTORE SWAP2 PUSH1 0x20 ADD SWAP2 PUSH2 0x266 JUMP JUMPDEST DUP3 ADD SWAP2 SWAP1 PUSH1 0x0 MSTORE PUSH1 0x20 PUSH1 0x0 KECCAK256 SWAP1 JUMPDEST DUP2 SLOAD DUP2 MSTORE SWAP1 PUSH1 0x1 ADD SWAP1 PUSH1 0x20 ADD DUP1 DUP4 GT PUSH2 0x249 JUMPI DUP3 SWAP1 SUB PUSH1 0x1F AND DUP3 ADD SWAP2 JUMPDEST POP POP POP POP POP SWAP1 DUP1 PUSH1 0x2 ADD SLOAD SWAP1 DUP1 PUSH1 0x3 ADD DUP1 SLOAD PUSH2 0x281 SWAP1 PUSH2 0x1335 JUMP JUMPDEST DUP1 PUSH1 0x1F ADD PUSH1 0x20 DUP1 SWAP2 DIV MUL PUSH1 0x20 ADD PUSH1 0x40 MLOAD SWAP1 DUP2 ADD PUSH1 0x40 MSTORE DUP1 SWAP3 SWAP2 SWAP1 DUP2 DUP2 MSTORE PUSH1 0x20 ADD DUP3 DUP1 SLOAD PUSH2 0x2AD SWAP1 PUSH2 0x1335 JUMP JUMPDEST DUP1 ISZERO PUSH2 0x2FA JUMPI DUP1 PUSH1 0x1F LT PUSH2 0x2CF JUMPI PUSH2 0x100 DUP1 DUP4 SLOAD DIV MUL DUP4 MSTORE SWAP2 PUSH1 0x20 ADD SWAP2 PUSH2 0x2FA JUMP JUMPDEST DUP3 ADD SWAP2 SWAP1 PUSH1 0x0 MSTORE PUSH1 0x20 PUSH1 0x0 KECCAK256 SWAP1 JUMPDEST DUP2 SLOAD DUP2 MSTORE SWAP1 PUSH1 0x1 ADD SWAP1 PUSH1 0x20 ADD DUP1 DUP4 GT PUSH2 0x2DD JUMPI DUP3 SWAP1 SUB PUSH1 0x1F AND DUP3 ADD SWAP2 JUMPDEST POP POP POP POP POP SWAP1 DUP1 PUSH1 0x4 ADD PUSH1 0x0 SWAP1 SLOAD SWAP1 PUSH2 0x100 EXP SWAP1 DIV PUSH20 0xFFFFFFFFFFFFFFFFFFFFFFFFFFFFFFFFFFFFFFFF AND SWAP1 DUP1 PUSH1 0x5 ADD SLOAD SWAP1 DUP1 PUSH1 0x6 ADD PUSH1 0x0 SWAP1 SLOAD SWAP1 PUSH2 0x100 EXP SWAP1 DIV PUSH1 0xFF AND SWAP1 POP DUP8 JUMP JUMPDEST PUSH1 0x0 DUP1 SLOAD SWAP1 PUSH2 0x100 EXP SWAP1 DIV PUSH20 0xFFFFFFFFFFFFFFFFFFFFFFFFFFFFFFFFFFFFFFFF AND PUSH20 0xFFFFFFFFFFFFFFFFFFFFFFFFFFFFFFFFFFFFFFFF AND CALLER PUSH20 0xFFFFFFFFFFFFFFFFFFFFFFFFFFFFFFFFFFFFFFFF AND EQ PUSH2 0x3D1 JUMPI PUSH1 0x40 MLOAD PUSH32 0x8C379A000000000000000000000000000000000000000000000000000000000 DUP2 MSTORE PUSH1 0x4 ADD PUSH2 0x3C8 SWAP1 PUSH2 0x13B2 JUMP JUMPDEST PUSH1 0x40 MLOAD DUP1 SWAP2 SUB SWAP1 REVERT JUMPDEST PUSH1 0x3 PUSH1 0x0 DUP3 DUP2 MSTORE PUSH1 0x20 ADD SWAP1 DUP2 MSTORE PUSH1 0x20 ADD PUSH1 0x0 KECCAK256 PUSH1 0x6 ADD PUSH1 0x0 SWAP1 SLOAD SWAP1 PUSH2 0x100 EXP SWAP1 DIV PUSH1 0xFF AND PUSH2 0x434 JUMPI PUSH1 0x40 MLOAD PUSH32 0x8C379A000000000000000000000000000000000000000000000000000000000 DUP2 MSTORE PUSH1 0x4 ADD PUSH2 0x42B SWAP1 PUSH2 0x1444 JUMP JUMPDEST PUSH1 0x40 MLOAD DUP1 SWAP2 SUB SWAP1 REVERT JUMPDEST PUSH1 0x0 PUSH1 0x3 PUSH1 0x0 DUP4 DUP2 MSTORE PUSH1 0x20 ADD SWAP1 DUP2 MSTORE PUSH1 0x20 ADD PUSH1 0x0 KECCAK256 PUSH1 0x6 ADD PUSH1 0x0 PUSH2 0x100 EXP DUP2 SLOAD DUP2 PUSH1 0xFF MUL NOT AND SWAP1 DUP4 ISZERO ISZERO MUL OR SWAP1 SSTORE POP PUSH32 0x50FF6C8267104354FFD393EDB06D421EC439784C4A2C0595E11E5FB6B1ECBF43 DUP2 PUSH1 0x40 MLOAD PUSH2 0x492 SWAP2 SWAP1 PUSH2 0x1464 JUMP JUMPDEST PUSH1 0x40 MLOAD DUP1 SWAP2 SUB SWAP1 LOG1 POP JUMP JUMPDEST PUSH1 0x0 DUP1 SLOAD SWAP1 PUSH2 0x100 EXP SWAP1 DIV PUSH20 0xFFFFFFFFFFFFFFFFFFFFFFFFFFFFFFFFFFFFFFFF AND PUSH20 0xFFFFFFFFFFFFFFFFFFFFFFFFFFFFFFFFFFFFFFFF AND CALLER PUSH20 0xFFFFFFFFFFFFFFFFFFFFFFFFFFFFFFFFFFFFFFFF AND EQ PUSH2 0x52B JUMPI PUSH1 0x40 MLOAD PUSH32 0x8C379A000000000000000000000000000000000000000000000000000000000 DUP2 MSTORE PUSH1 0x4 ADD PUSH2 0x522 SWAP1 PUSH2 0x13B2 JUMP JUMPDEST PUSH1 0x40 MLOAD DUP1 SWAP2 SUB SWAP1 REVERT JUMPDEST PUSH1 0x0 JUMPDEST DUP3 DUP3 SWAP1 POP DUP2 LT ISZERO PUSH2 0x62E JUMPI PUSH1 0x1 DUP1 PUSH1 0x0 DUP6 DUP6 DUP6 DUP2 DUP2 LT PUSH2 0x551 JUMPI PUSH2 0x550 PUSH2 0x147F JUMP JUMPDEST JUMPDEST SWAP1 POP PUSH1 0x20 MUL ADD PUSH1 0x20 DUP2 ADD SWAP1 PUSH2 0x566 SWAP2 SWAP1 PUSH2 0x10C3 JUMP JUMPDEST PUSH20 0xFFFFFFFFFFFFFFFFFFFFFFFFFFFFFFFFFFFFFFFF AND PUSH20 0xFFFFFFFFFFFFFFFFFFFFFFFFFFFFFFFFFFFFFFFF AND DUP2 MSTORE PUSH1 0x20 ADD SWAP1 DUP2 MSTORE PUSH1 0x20 ADD PUSH1 0x0 KECCAK256 PUSH1 0x0 PUSH2 0x100 EXP DUP2 SLOAD DUP2 PUSH1 0xFF MUL NOT AND SWAP1 DUP4 ISZERO ISZERO MUL OR SWAP1 SSTORE POP DUP3 DUP3 DUP3 DUP2 DUP2 LT PUSH2 0x5CA JUMPI PUSH2 0x5C9 PUSH2 0x147F JUMP JUMPDEST JUMPDEST SWAP1 POP PUSH1 0x20 MUL ADD PUSH1 0x20 DUP2 ADD SWAP1 PUSH2 0x5DF SWAP2 SWAP1 PUSH2 0x10C3 JUMP JUMPDEST PUSH20 0xFFFFFFFFFFFFFFFFFFFFFFFFFFFFFFFFFFFFFFFF AND PUSH32 0x2E3361A4E7A8B067D0BBAFCB5811E35BA5ECCBB7A274BE8BCFE4FB6F81FE30C8 PUSH1 0x40 MLOAD PUSH1 0x40 MLOAD DUP1 SWAP2 SUB SWAP1 LOG2 DUP1 DUP1 PUSH1 0x1 ADD SWAP2 POP POP PUSH2 0x52E JUMP JUMPDEST POP POP POP JUMP JUMPDEST PUSH1 0x0 DUP1 PUSH1 0x0 SWAP1 SLOAD SWAP1 PUSH2 0x100 EXP SWAP1 DIV PUSH20 0xFFFFFFFFFFFFFFFFFFFFFFFFFFFFFFFFFFFFFFFF AND SWAP1 POP SWAP1 JUMP JUMPDEST PUSH1 0x0 DUP1 SLOAD SWAP1 PUSH2 0x100 EXP SWAP1 DIV PUSH20 0xFFFFFFFFFFFFFFFFFFFFFFFFFFFFFFFFFFFFFFFF AND PUSH20 0xFFFFFFFFFFFFFFFFFFFFFFFFFFFFFFFFFFFFFFFF AND CALLER PUSH20 0xFFFFFFFFFFFFFFFFFFFFFFFFFFFFFFFFFFFFFFFF AND EQ PUSH2 0x6EA JUMPI PUSH1 0x40 MLOAD PUSH32 0x8C379A000000000000000000000000000000000000000000000000000000000 DUP2 MSTORE PUSH1 0x4 ADD PUSH2 0x6E1 SWAP1 PUSH2 0x13B2 JUMP JUMPDEST PUSH1 0x40 MLOAD DUP1 SWAP2 SUB SWAP1 REVERT JUMPDEST PUSH1 0x0 PUSH1 0x1 PUSH1 0x0 DUP4 PUSH20 0xFFFFFFFFFFFFFFFFFFFFFFFFFFFFFFFFFFFFFFFF AND PUSH20 0xFFFFFFFFFFFFFFFFFFFFFFFFFFFFFFFFFFFFFFFF AND DUP2 MSTORE PUSH1 0x20 ADD SWAP1 DUP2 MSTORE PUSH1 0x20 ADD PUSH1 0x0 KECCAK256 PUSH1 0x0 PUSH2 0x100 EXP DUP2 SLOAD DUP2 PUSH1 0xFF MUL NOT AND SWAP1 DUP4 ISZERO ISZERO MUL OR SWAP1 SSTORE POP DUP1 PUSH20 0xFFFFFFFFFFFFFFFFFFFFFFFFFFFFFFFFFFFFFFFF AND PUSH32 0x2E3361A4E7A8B067D0BBAFCB5811E35BA5ECCBB7A274BE8BCFE4FB6F81FE30C8 PUSH1 0x40 MLOAD PUSH1 0x40 MLOAD DUP1 SWAP2 SUB SWAP1 LOG2 POP JUMP JUMPDEST PUSH1 0x1 PUSH1 0x20 MSTORE DUP1 PUSH1 0x0 MSTORE PUSH1 0x40 PUSH1 0x0 KECCAK256 PUSH1 0x0 SWAP2 POP SLOAD SWAP1 PUSH2 0x100 EXP SWAP1 DIV PUSH1 0xFF AND DUP2 JUMP JUMPDEST PUSH1 0x0 DUP1 SLOAD SWAP1 PUSH2 0x100 EXP SWAP1 DIV PUSH20 0xFFFFFFFFFFFFFFFFFFFFFFFFFFFFFFFFFFFFFFFF AND PUSH20 0xFFFFFFFFFFFFFFFFFFFFFFFFFFFFFFFFFFFFFFFF AND CALLER PUSH20 0xFFFFFFFFFFFFFFFFFFFFFFFFFFFFFFFFFFFFFFFF AND EQ PUSH2 0x836 JUMPI PUSH1 0x40 MLOAD PUSH32 0x8C379A000000000000000000000000000000000000000000000000000000000 DUP2 MSTORE PUSH1 0x4 ADD PUSH2 0x82D SWAP1 PUSH2 0x13B2 JUMP JUMPDEST PUSH1 0x40 MLOAD DUP1 SWAP2 SUB SWAP1 REVERT JUMPDEST PUSH1 0x0 PUSH20 0xFFFFFFFFFFFFFFFFFFFFFFFFFFFFFFFFFFFFFFFF AND DUP2 PUSH20 0xFFFFFFFFFFFFFFFFFFFFFFFFFFFFFFFFFFFFFFFF AND SUB PUSH2 0x8A5 JUMPI PUSH1 0x40 MLOAD PUSH32 0x8C379A000000000000000000000000000000000000000000000000000000000 DUP2 MSTORE PUSH1 0x4 ADD PUSH2 0x89C SWAP1 PUSH2 0x1520 JUMP JUMPDEST PUSH1 0x40 MLOAD DUP1 SWAP2 SUB SWAP1 REVERT JUMPDEST DUP1 PUSH20 0xFFFFFFFFFFFFFFFFFFFFFFFFFFFFFFFFFFFFFFFF AND PUSH1 0x0 DUP1 SLOAD SWAP1 PUSH2 0x100 EXP SWAP1 DIV PUSH20 0xFFFFFFFFFFFFFFFFFFFFFFFFFFFFFFFFFFFFFFFF AND PUSH20 0xFFFFFFFFFFFFFFFFFFFFFFFFFFFFFFFFFFFFFFFF AND PUSH32 0x342827C97908E5E2F71151C08502A66D44B6F758E3AC2F1DE95F02EB95F0A735 PUSH1 0x40 MLOAD PUSH1 0x40 MLOAD DUP1 SWAP2 SUB SWAP1 LOG3 DUP1 PUSH1 0x0 DUP1 PUSH2 0x100 EXP DUP2 SLOAD DUP2 PUSH20 0xFFFFFFFFFFFFFFFFFFFFFFFFFFFFFFFFFFFFFFFF MUL NOT AND SWAP1 DUP4 PUSH20 0xFFFFFFFFFFFFFFFFFFFFFFFFFFFFFFFFFFFFFFFF AND MUL OR SWAP1 SSTORE POP POP JUMP JUMPDEST PUSH2 0x96B DUP2 PUSH2 0xD85 JUMP JUMPDEST PUSH2 0x9AA JUMPI PUSH1 0x40 MLOAD PUSH32 0x8C379A000000000000000000000000000000000000000000000000000000000 DUP2 MSTORE PUSH1 0x4 ADD PUSH2 0x9A1 SWAP1 PUSH2 0x158C JUMP JUMPDEST PUSH1 0x40 MLOAD DUP1 SWAP2 SUB SWAP1 REVERT JUMPDEST PUSH1 0x0 PUSH1 0x3 PUSH1 0x0 DUP5 DUP2 MSTORE PUSH1 0x20 ADD SWAP1 DUP2 MSTORE PUSH1 0x20 ADD PUSH1 0x0 KECCAK256 SWAP1 POP DUP1 PUSH1 0x6 ADD PUSH1 0x0 SWAP1 SLOAD SWAP1 PUSH2 0x100 EXP SWAP1 DIV PUSH1 0xFF AND PUSH2 0xA12 JUMPI PUSH1 0x40 MLOAD PUSH32 0x8C379A000000000000000000000000000000000000000000000000000000000 DUP2 MSTORE PUSH1 0x4 ADD PUSH2 0xA09 SWAP1 PUSH2 0x15F8 JUMP JUMPDEST PUSH1 0x40 MLOAD DUP1 SWAP2 SUB SWAP1 REVERT JUMPDEST DUP1 PUSH1 0x4 ADD PUSH1 0x0 SWAP1 SLOAD SWAP1 PUSH2 0x100 EXP SWAP1 DIV PUSH20 0xFFFFFFFFFFFFFFFFFFFFFFFFFFFFFFFFFFFFFFFF AND PUSH20 0xFFFFFFFFFFFFFFFFFFFFFFFFFFFFFFFFFFFFFFFF AND CALLER PUSH20 0xFFFFFFFFFFFFFFFFFFFFFFFFFFFFFFFFFFFFFFFF AND EQ PUSH2 0xAA4 JUMPI PUSH1 0x40 MLOAD PUSH32 0x8C379A000000000000000000000000000000000000000000000000000000000 DUP2 MSTORE PUSH1 0x4 ADD PUSH2 0xA9B SWAP1 PUSH2 0x168A JUMP JUMPDEST PUSH1 0x40 MLOAD DUP1 SWAP2 SUB SWAP1 REVERT JUMPDEST PUSH1 0x0 DUP2 PUSH1 0x4 ADD PUSH1 0x0 SWAP1 SLOAD SWAP1 PUSH2 0x100 EXP SWAP1 DIV PUSH20 0xFFFFFFFFFFFFFFFFFFFFFFFFFFFFFFFFFFFFFFFF AND SWAP1 POP DUP3 DUP3 PUSH1 0x4 ADD PUSH1 0x0 PUSH2 0x100 EXP DUP2 SLOAD DUP2 PUSH20 0xFFFFFFFFFFFFFFFFFFFFFFFFFFFFFFFFFFFFFFFF MUL NOT AND SWAP1 DUP4 PUSH20 0xFFFFFFFFFFFFFFFFFFFFFFFFFFFFFFFFFFFFFFFF AND MUL OR SWAP1 SSTORE POP TIMESTAMP DUP3 PUSH1 0x5 ADD DUP2 SWAP1 SSTORE POP DUP3 PUSH20 0xFFFFFFFFFFFFFFFFFFFFFFFFFFFFFFFFFFFFFFFF AND DUP2 PUSH20 0xFFFFFFFFFFFFFFFFFFFFFFFFFFFFFFFFFFFFFFFF AND PUSH32 0x16B85F49BF01212961345D3016C9A531894ACCF62EB7680F2045D79185CC0EC0 DUP7 PUSH1 0x40 MLOAD PUSH2 0xB76 SWAP2 SWAP1 PUSH2 0x1464 JUMP JUMPDEST PUSH1 0x40 MLOAD DUP1 SWAP2 SUB SWAP1 LOG3 POP POP POP POP JUMP JUMPDEST PUSH1 0x0 DUP1 SLOAD SWAP1 PUSH2 0x100 EXP SWAP1 DIV PUSH20 0xFFFFFFFFFFFFFFFFFFFFFFFFFFFFFFFFFFFFFFFF AND PUSH20 0xFFFFFFFFFFFFFFFFFFFFFFFFFFFFFFFFFFFFFFFF AND CALLER PUSH20 0xFFFFFFFFFFFFFFFFFFFFFFFFFFFFFFFFFFFFFFFF AND EQ PUSH2 0xC12 JUMPI PUSH1 0x40 MLOAD PUSH32 0x8C379A000000000000000000000000000000000000000000000000000000000 DUP2 MSTORE PUSH1 0x4 ADD PUSH2 0xC09 SWAP1 PUSH2 0x13B2 JUMP JUMPDEST PUSH1 0x40 MLOAD DUP1 SWAP2 SUB SWAP1 REVERT JUMPDEST PUSH1 0x2 PUSH1 0x0 DUP2 SLOAD DUP1 SWAP3 SWAP2 SWAP1 PUSH2 0xC25 SWAP1 PUSH2 0x16D9 JUMP JUMPDEST SWAP2 SWAP1 POP SSTORE POP PUSH1 0x0 PUSH1 0x2 SLOAD SWAP1 POP PUSH1 0x40 MLOAD DUP1 PUSH1 0xE0 ADD PUSH1 0x40 MSTORE DUP1 DUP3 DUP2 MSTORE PUSH1 0x20 ADD DUP6 DUP2 MSTORE PUSH1 0x20 ADD DUP5 DUP2 MSTORE PUSH1 0x20 ADD DUP4 DUP2 MSTORE PUSH1 0x20 ADD CALLER PUSH20 0xFFFFFFFFFFFFFFFFFFFFFFFFFFFFFFFFFFFFFFFF AND DUP2 MSTORE PUSH1 0x20 ADD TIMESTAMP DUP2 MSTORE PUSH1 0x20 ADD PUSH1 0x1 ISZERO ISZERO DUP2 MSTORE POP PUSH1 0x3 PUSH1 0x0 DUP4 DUP2 MSTORE PUSH1 0x20 ADD SWAP1 DUP2 MSTORE PUSH1 0x20 ADD PUSH1 0x0 KECCAK256 PUSH1 0x0 DUP3 ADD MLOAD DUP2 PUSH1 0x0 ADD SSTORE PUSH1 0x20 DUP3 ADD MLOAD DUP2 PUSH1 0x1 ADD SWAP1 DUP2 PUSH2 0xCAF SWAP2 SWAP1 PUSH2 0x18CD JUMP JUMPDEST POP PUSH1 0x40 DUP3 ADD MLOAD DUP2 PUSH1 0x2 ADD SSTORE PUSH1 0x60 DUP3 ADD MLOAD DUP2 PUSH1 0x3 ADD SWAP1 DUP2 PUSH2 0xCCF SWAP2 SWAP1 PUSH2 0x18CD JUMP JUMPDEST POP PUSH1 0x80 DUP3 ADD MLOAD DUP2 PUSH1 0x4 ADD PUSH1 0x0 PUSH2 0x100 EXP DUP2 SLOAD DUP2 PUSH20 0xFFFFFFFFFFFFFFFFFFFFFFFFFFFFFFFFFFFFFFFF MUL NOT AND SWAP1 DUP4 PUSH20 0xFFFFFFFFFFFFFFFFFFFFFFFFFFFFFFFFFFFFFFFF AND MUL OR SWAP1 SSTORE POP PUSH1 0xA0 DUP3 ADD MLOAD DUP2 PUSH1 0x5 ADD SSTORE PUSH1 0xC0 DUP3 ADD MLOAD DUP2 PUSH1 0x6 ADD PUSH1 0x0 PUSH2 0x100 EXP DUP2 SLOAD DUP2 PUSH1 0xFF MUL NOT AND SWAP1 DUP4 ISZERO ISZERO MUL OR SWAP1 SSTORE POP SWAP1 POP POP PUSH32 0x15B6890AF0E66873B46F545C2578A72329A3F376146D1847DD82E30D4B37BFD6 DUP2 DUP6 DUP5 PUSH1 0x40 MLOAD PUSH2 0xD77 SWAP4 SWAP3 SWAP2 SWAP1 PUSH2 0x199F JUMP JUMPDEST PUSH1 0x40 MLOAD DUP1 SWAP2 SUB SWAP1 LOG1 POP POP POP POP JUMP JUMPDEST PUSH1 0x0 PUSH1 0x1 PUSH1 0x0 DUP4 PUSH20 0xFFFFFFFFFFFFFFFFFFFFFFFFFFFFFFFFFFFFFFFF AND PUSH20 0xFFFFFFFFFFFFFFFFFFFFFFFFFFFFFFFFFFFFFFFF AND DUP2 MSTORE PUSH1 0x20 ADD SWAP1 DUP2 MSTORE PUSH1 0x20 ADD PUSH1 0x0 KECCAK256 PUSH1 0x0 SWAP1 SLOAD SWAP1 PUSH2 0x100 EXP SWAP1 DIV PUSH1 0xFF AND SWAP1 POP SWAP2 SWAP1 POP JUMP JUMPDEST PUSH1 0x0 PUSH1 0x40 MLOAD SWAP1 POP SWAP1 JUMP JUMPDEST PUSH1 0x0 DUP1 REVERT JUMPDEST PUSH1 0x0 DUP1 REVERT JUMPDEST PUSH1 0x0 DUP2 SWAP1 POP SWAP2 SWAP1 POP JUMP JUMPDEST PUSH2 0xE02 DUP2 PUSH2 0xDEF JUMP JUMPDEST DUP2 EQ PUSH2 0xE0D JUMPI PUSH1 0x0 DUP1 REVERT JUMPDEST POP JUMP JUMPDEST PUSH1 0x0 DUP2 CALLDATALOAD SWAP1 POP PUSH2 0xE1F DUP2 PUSH2 0xDF9 JUMP JUMPDEST SWAP3 SWAP2 POP POP JUMP JUMPDEST PUSH1 0x0 PUSH1 0x20 DUP3 DUP5 SUB SLT ISZERO PUSH2 0xE3B JUMPI PUSH2 0xE3A PUSH2 0xDE5 JUMP JUMPDEST JUMPDEST PUSH1 0x0 PUSH2 0xE49 DUP5 DUP3 DUP6 ADD PUSH2 0xE10 JUMP JUMPDEST SWAP2 POP POP SWAP3 SWAP2 POP POP JUMP JUMPDEST PUSH2 0xE5B DUP2 PUSH2 0xDEF JUMP JUMPDEST DUP3 MSTORE POP POP JUMP JUMPDEST PUSH1 0x0 DUP2 MLOAD SWAP1 POP SWAP2 SWAP1 POP JUMP JUMPDEST PUSH1 0x0 DUP3 DUP3 MSTORE PUSH1 0x20 DUP3 ADD SWAP1 POP SWAP3 SWAP2 POP POP JUMP JUMPDEST PUSH1 0x0 JUMPDEST DUP4 DUP2 LT ISZERO PUSH2 0xE9B JUMPI DUP1 DUP3 ADD MLOAD DUP2 DUP5 ADD MSTORE PUSH1 0x20 DUP2 ADD SWAP1 POP PUSH2 0xE80 JUMP JUMPDEST PUSH1 0x0 DUP5 DUP5 ADD MSTORE POP POP POP POP JUMP JUMPDEST PUSH1 0x0 PUSH1 0x1F NOT PUSH1 0x1F DUP4 ADD AND SWAP1 POP SWAP2 SWAP1 POP JUMP JUMPDEST PUSH1 0x0 PUSH2 0xEC3 DUP3 PUSH2 0xE61 JUMP JUMPDEST PUSH2 0xECD DUP2 DUP6 PUSH2 0xE6C JUMP JUMPDEST SWAP4 POP PUSH2 0xEDD DUP2 DUP6 PUSH1 0x20 DUP7 ADD PUSH2 0xE7D JUMP JUMPDEST PUSH2 0xEE6 DUP2 PUSH2 0xEA7 JUMP JUMPDEST DUP5 ADD SWAP2 POP POP SWAP3 SWAP2 POP POP JUMP JUMPDEST PUSH1 0x0 PUSH20 0xFFFFFFFFFFFFFFFFFFFFFFFFFFFFFFFFFFFFFFFF DUP3 AND SWAP1 POP SWAP2 SWAP1 POP JUMP JUMPDEST PUSH1 0x0 PUSH2 0xF1C DUP3 PUSH2 0xEF1 JUMP JUMPDEST SWAP1 POP SWAP2 SWAP1 POP JUMP JUMPDEST PUSH2 0xF2C DUP2 PUSH2 0xF11 JUMP JUMPDEST DUP3 MSTORE POP POP JUMP JUMPDEST PUSH1 0x0 DUP2 ISZERO ISZERO SWAP1 POP SWAP2 SWAP1 POP JUMP JUMPDEST PUSH2 0xF47 DUP2 PUSH2 0xF32 JUMP JUMPDEST DUP3 MSTORE POP POP JUMP JUMPDEST PUSH1 0x0 PUSH1 0xE0 DUP3 ADD SWAP1 POP PUSH2 0xF62 PUSH1 0x0 DUP4 ADD DUP11 PUSH2 0xE52 JUMP JUMPDEST DUP2 DUP2 SUB PUSH1 0x20 DUP4 ADD MSTORE PUSH2 0xF74 DUP2 DUP10 PUSH2 0xEB8 JUMP JUMPDEST SWAP1 POP PUSH2 0xF83 PUSH1 0x40 DUP4 ADD DUP9 PUSH2 0xE52 JUMP JUMPDEST DUP2 DUP2 SUB PUSH1 0x60 DUP4 ADD MSTORE PUSH2 0xF95 DUP2 DUP8 PUSH2 0xEB8 JUMP JUMPDEST SWAP1 POP PUSH2 0xFA4 PUSH1 0x80 DUP4 ADD DUP7 PUSH2 0xF23 JUMP JUMPDEST PUSH2 0xFB1 PUSH1 0xA0 DUP4 ADD DUP6 PUSH2 0xE52 JUMP JUMPDEST PUSH2 0xFBE PUSH1 0xC0 DUP4 ADD DUP5 PUSH2 0xF3E JUMP JUMPDEST SWAP9 SWAP8 POP POP POP POP POP POP POP POP JUMP JUMPDEST PUSH1 0x0 DUP1 REVERT JUMPDEST PUSH1 0x0 DUP1 REVERT JUMPDEST PUSH1 0x0 DUP1 REVERT JUMPDEST PUSH1 0x0 DUP1 DUP4 PUSH1 0x1F DUP5 ADD SLT PUSH2 0xFEF JUMPI PUSH2 0xFEE PUSH2 0xFCA JUMP JUMPDEST JUMPDEST DUP3 CALLDATALOAD SWAP1 POP PUSH8 0xFFFFFFFFFFFFFFFF DUP2 GT ISZERO PUSH2 0x100C JUMPI PUSH2 0x100B PUSH2 0xFCF JUMP JUMPDEST JUMPDEST PUSH1 0x20 DUP4 ADD SWAP2 POP DUP4 PUSH1 0x20 DUP3 MUL DUP4 ADD GT ISZERO PUSH2 0x1028 JUMPI PUSH2 0x1027 PUSH2 0xFD4 JUMP JUMPDEST JUMPDEST SWAP3 POP SWAP3 SWAP1 POP JUMP JUMPDEST PUSH1 0x0 DUP1 PUSH1 0x20 DUP4 DUP6 SUB SLT ISZERO PUSH2 0x1046 JUMPI PUSH2 0x1045 PUSH2 0xDE5 JUMP JUMPDEST JUMPDEST PUSH1 0x0 DUP4 ADD CALLDATALOAD PUSH8 0xFFFFFFFFFFFFFFFF DUP2 GT ISZERO PUSH2 0x1064 JUMPI PUSH2 0x1063 PUSH2 0xDEA JUMP JUMPDEST JUMPDEST PUSH2 0x1070 DUP6 DUP3 DUP7 ADD PUSH2 0xFD9 JUMP JUMPDEST SWAP3 POP SWAP3 POP POP SWAP3 POP SWAP3 SWAP1 POP JUMP JUMPDEST PUSH1 0x0 PUSH1 0x20 DUP3 ADD SWAP1 POP PUSH2 0x1091 PUSH1 0x0 DUP4 ADD DUP5 PUSH2 0xF23 JUMP JUMPDEST SWAP3 SWAP2 POP POP JUMP JUMPDEST PUSH2 0x10A0 DUP2 PUSH2 0xF11 JUMP JUMPDEST DUP2 EQ PUSH2 0x10AB JUMPI PUSH1 0x0 DUP1 REVERT JUMPDEST POP JUMP JUMPDEST PUSH1 0x0 DUP2 CALLDATALOAD SWAP1 POP PUSH2 0x10BD DUP2 PUSH2 0x1097 JUMP JUMPDEST SWAP3 SWAP2 POP POP JUMP JUMPDEST PUSH1 0x0 PUSH1 0x20 DUP3 DUP5 SUB SLT ISZERO PUSH2 0x10D9 JUMPI PUSH2 0x10D8 PUSH2 0xDE5 JUMP JUMPDEST JUMPDEST PUSH1 0x0 PUSH2 0x10E7 DUP5 DUP3 DUP6 ADD PUSH2 0x10AE JUMP JUMPDEST SWAP2 POP POP SWAP3 SWAP2 POP POP JUMP JUMPDEST PUSH1 0x0 PUSH1 0x20 DUP3 ADD SWAP1 POP PUSH2 0x1105 PUSH1 0x0 DUP4 ADD DUP5 PUSH2 0xF3E JUMP JUMPDEST SWAP3 SWAP2 POP POP JUMP JUMPDEST PUSH1 0x0 DUP1 PUSH1 0x40 DUP4 DUP6 SUB SLT ISZERO PUSH2 0x1122 JUMPI PUSH2 0x1121 PUSH2 0xDE5 JUMP JUMPDEST JUMPDEST PUSH1 0x0 PUSH2 0x1130 DUP6 DUP3 DUP7 ADD PUSH2 0xE10 JUMP JUMPDEST SWAP3 POP POP PUSH1 0x20 PUSH2 0x1141 DUP6 DUP3 DUP7 ADD PUSH2 0x10AE JUMP JUMPDEST SWAP2 POP POP SWAP3 POP SWAP3 SWAP1 POP JUMP JUMPDEST PUSH1 0x0 DUP1 REVERT JUMPDEST PUSH32 0x4E487B7100000000000000000000000000000000000000000000000000000000 PUSH1 0x0 MSTORE PUSH1 0x41 PUSH1 0x4 MSTORE PUSH1 0x24 PUSH1 0x0 REVERT JUMPDEST PUSH2 0x1188 DUP3 PUSH2 0xEA7 JUMP JUMPDEST DUP2 ADD DUP2 DUP2 LT PUSH8 0xFFFFFFFFFFFFFFFF DUP3 GT OR ISZERO PUSH2 0x11A7 JUMPI PUSH2 0x11A6 PUSH2 0x1150 JUMP JUMPDEST JUMPDEST DUP1 PUSH1 0x40 MSTORE POP POP POP JUMP JUMPDEST PUSH1 0x0 PUSH2 0x11BA PUSH2 0xDDB JUMP JUMPDEST SWAP1 POP PUSH2 0x11C6 DUP3 DUP3 PUSH2 0x117F JUMP JUMPDEST SWAP2 SWAP1 POP JUMP JUMPDEST PUSH1 0x0 PUSH8 0xFFFFFFFFFFFFFFFF DUP3 GT ISZERO PUSH2 0x11E6 JUMPI PUSH2 0x11E5 PUSH2 0x1150 JUMP JUMPDEST JUMPDEST PUSH2 0x11EF DUP3 PUSH2 0xEA7 JUMP JUMPDEST SWAP1 POP PUSH1 0x20 DUP2 ADD SWAP1 POP SWAP2 SWAP1 POP JUMP JUMPDEST DUP3 DUP2 DUP4 CALLDATACOPY PUSH1 0x0 DUP4 DUP4 ADD MSTORE POP POP POP JUMP JUMPDEST PUSH1 0x0 PUSH2 0x121E PUSH2 0x1219 DUP5 PUSH2 0x11CB JUMP JUMPDEST PUSH2 0x11B0 JUMP JUMPDEST SWAP1 POP DUP3 DUP2 MSTORE PUSH1 0x20 DUP2 ADD DUP5 DUP5 DUP5 ADD GT ISZERO PUSH2 0x123A JUMPI PUSH2 0x1239 PUSH2 0x114B JUMP JUMPDEST JUMPDEST PUSH2 0x1245 DUP5 DUP3 DUP6 PUSH2 0x11FC JUMP JUMPDEST POP SWAP4 SWAP3 POP POP POP JUMP JUMPDEST PUSH1 0x0 DUP3 PUSH1 0x1F DUP4 ADD SLT PUSH2 0x1262 JUMPI PUSH2 0x1261 PUSH2 0xFCA JUMP JUMPDEST JUMPDEST DUP2 CALLDATALOAD PUSH2 0x1272 DUP5 DUP3 PUSH1 0x20 DUP7 ADD PUSH2 0x120B JUMP JUMPDEST SWAP2 POP POP SWAP3 SWAP2 POP POP JUMP JUMPDEST PUSH1 0x0 DUP1 PUSH1 0x0 PUSH1 0x60 DUP5 DUP7 SUB SLT ISZERO PUSH2 0x1294 JUMPI PUSH2 0x1293 PUSH2 0xDE5 JUMP JUMPDEST JUMPDEST PUSH1 0x0 DUP5 ADD CALLDATALOAD PUSH8 0xFFFFFFFFFFFFFFFF DUP2 GT ISZERO PUSH2 0x12B2 JUMPI PUSH2 0x12B1 PUSH2 0xDEA JUMP JUMPDEST JUMPDEST PUSH2 0x12BE DUP7 DUP3 DUP8 ADD PUSH2 0x124D JUMP JUMPDEST SWAP4 POP POP PUSH1 0x20 PUSH2 0x12CF DUP7 DUP3 DUP8 ADD PUSH2 0xE10 JUMP JUMPDEST SWAP3 POP POP PUSH1 0x40 DUP5 ADD CALLDATALOAD PUSH8 0xFFFFFFFFFFFFFFFF DUP2 GT ISZERO PUSH2 0x12F0 JUMPI PUSH2 0x12EF PUSH2 0xDEA JUMP JUMPDEST JUMPDEST PUSH2 0x12FC DUP7 DUP3 DUP8 ADD PUSH2 0x124D JUMP JUMPDEST SWAP2 POP POP SWAP3 POP SWAP3 POP SWAP3 JUMP JUMPDEST PUSH32 0x4E487B7100000000000000000000000000000000000000000000000000000000 PUSH1 0x0 MSTORE PUSH1 0x22 PUSH1 0x4 MSTORE PUSH1 0x24 PUSH1 0x0 REVERT JUMPDEST PUSH1 0x0 PUSH1 0x2 DUP3 DIV SWAP1 POP PUSH1 0x1 DUP3 AND DUP1 PUSH2 0x134D JUMPI PUSH1 0x7F DUP3 AND SWAP2 POP JUMPDEST PUSH1 0x20 DUP3 LT DUP2 SUB PUSH2 0x1360 JUMPI PUSH2 0x135F PUSH2 0x1306 JUMP JUMPDEST JUMPDEST POP SWAP2 SWAP1 POP JUMP JUMPDEST PUSH32 0x43616C6C6572206973206E6F74206F776E657200000000000000000000000000 PUSH1 0x0 DUP3 ADD MSTORE POP JUMP JUMPDEST PUSH1 0x0 PUSH2 0x139C PUSH1 0x13 DUP4 PUSH2 0xE6C JUMP JUMPDEST SWAP2 POP PUSH2 0x13A7 DUP3 PUSH2 0x1366 JUMP JUMPDEST PUSH1 0x20 DUP3 ADD SWAP1 POP SWAP2 SWAP1 POP JUMP JUMPDEST PUSH1 0x0 PUSH1 0x20 DUP3 ADD SWAP1 POP DUP2 DUP2 SUB PUSH1 0x0 DUP4 ADD MSTORE PUSH2 0x13CB DUP2 PUSH2 0x138F JUMP JUMPDEST SWAP1 POP SWAP2 SWAP1 POP JUMP JUMPDEST PUSH32 0x4C6F7420616C72656164792072656D6F766564206F7220646F6573206E6F7420 PUSH1 0x0 DUP3 ADD MSTORE PUSH32 0x6578697374000000000000000000000000000000000000000000000000000000 PUSH1 0x20 DUP3 ADD MSTORE POP JUMP JUMPDEST PUSH1 0x0 PUSH2 0x142E PUSH1 0x25 DUP4 PUSH2 0xE6C JUMP JUMPDEST SWAP2 POP PUSH2 0x1439 DUP3 PUSH2 0x13D2 JUMP JUMPDEST PUSH1 0x40 DUP3 ADD SWAP1 POP SWAP2 SWAP1 POP JUMP JUMPDEST PUSH1 0x0 PUSH1 0x20 DUP3 ADD SWAP1 POP DUP2 DUP2 SUB PUSH1 0x0 DUP4 ADD MSTORE PUSH2 0x145D DUP2 PUSH2 0x1421 JUMP JUMPDEST SWAP1 POP SWAP2 SWAP1 POP JUMP JUMPDEST PUSH1 0x0 PUSH1 0x20 DUP3 ADD SWAP1 POP PUSH2 0x1479 PUSH1 0x0 DUP4 ADD DUP5 PUSH2 0xE52 JUMP JUMPDEST SWAP3 SWAP2 POP POP JUMP JUMPDEST PUSH32 0x4E487B7100000000000000000000000000000000000000000000000000000000 PUSH1 0x0 MSTORE PUSH1 0x32 PUSH1 0x4 MSTORE PUSH1 0x24 PUSH1 0x0 REVERT JUMPDEST PUSH32 0x4E6577206F776E65722063616E6E6F7420626520746865207A65726F20616464 PUSH1 0x0 DUP3 ADD MSTORE PUSH32 0x7265737300000000000000000000000000000000000000000000000000000000 PUSH1 0x20 DUP3 ADD MSTORE POP JUMP JUMPDEST PUSH1 0x0 PUSH2 0x150A PUSH1 0x24 DUP4 PUSH2 0xE6C JUMP JUMPDEST SWAP2 POP PUSH2 0x1515 DUP3 PUSH2 0x14AE JUMP JUMPDEST PUSH1 0x40 DUP3 ADD SWAP1 POP SWAP2 SWAP1 POP JUMP JUMPDEST PUSH1 0x0 PUSH1 0x20 DUP3 ADD SWAP1 POP DUP2 DUP2 SUB PUSH1 0x0 DUP4 ADD MSTORE PUSH2 0x1539 DUP2 PUSH2 0x14FD JUMP JUMPDEST SWAP1 POP SWAP2 SWAP1 POP JUMP JUMPDEST PUSH32 0x4E6577206F776E6572206973206E6F742077686974656C697374656400000000 PUSH1 0x0 DUP3 ADD MSTORE POP JUMP JUMPDEST PUSH1 0x0 PUSH2 0x1576 PUSH1 0x1C DUP4 PUSH2 0xE6C JUMP JUMPDEST SWAP2 POP PUSH2 0x1581 DUP3 PUSH2 0x1540 JUMP JUMPDEST PUSH1 0x20 DUP3 ADD SWAP1 POP SWAP2 SWAP1 POP JUMP JUMPDEST PUSH1 0x0 PUSH1 0x20 DUP3 ADD SWAP1 POP DUP2 DUP2 SUB PUSH1 0x0 DUP4 ADD MSTORE PUSH2 0x15A5 DUP2 PUSH2 0x1569 JUMP JUMPDEST SWAP1 POP SWAP2 SWAP1 POP JUMP JUMPDEST PUSH32 0x4C6F74206973206E6F7420616374697665000000000000000000000000000000 PUSH1 0x0 DUP3 ADD MSTORE POP JUMP JUMPDEST PUSH1 0x0 PUSH2 0x15E2 PUSH1 0x11 DUP4 PUSH2 0xE6C JUMP JUMPDEST SWAP2 POP PUSH2 0x15ED DUP3 PUSH2 0x15AC JUMP JUMPDEST PUSH1 0x20 DUP3 ADD SWAP1 POP SWAP2 SWAP1 POP JUMP JUMPDEST PUSH1 0x0 PUSH1 0x20 DUP3 ADD SWAP1 POP DUP2 DUP2 SUB PUSH1 0x0 DUP4 ADD MSTORE PUSH2 0x1611 DUP2 PUSH2 0x15D5 JUMP JUMPDEST SWAP1 POP SWAP2 SWAP1 POP JUMP JUMPDEST PUSH32 0x4F6E6C792063757272656E74206F776E65722063616E207472616E7366657220 PUSH1 0x0 DUP3 ADD MSTORE PUSH32 0x746865206C6F7400000000000000000000000000000000000000000000000000 PUSH1 0x20 DUP3 ADD MSTORE POP JUMP JUMPDEST PUSH1 0x0 PUSH2 0x1674 PUSH1 0x27 DUP4 PUSH2 0xE6C JUMP JUMPDEST SWAP2 POP PUSH2 0x167F DUP3 PUSH2 0x1618 JUMP JUMPDEST PUSH1 0x40 DUP3 ADD SWAP1 POP SWAP2 SWAP1 POP JUMP JUMPDEST PUSH1 0x0 PUSH1 0x20 DUP3 ADD SWAP1 POP DUP2 DUP2 SUB PUSH1 0x0 DUP4 ADD MSTORE PUSH2 0x16A3 DUP2 PUSH2 0x1667 JUMP JUMPDEST SWAP1 POP SWAP2 SWAP1 POP JUMP JUMPDEST PUSH32 0x4E487B7100000000000000000000000000000000000000000000000000000000 PUSH1 0x0 MSTORE PUSH1 0x11 PUSH1 0x4 MSTORE PUSH1 0x24 PUSH1 0x0 REVERT JUMPDEST PUSH1 0x0 PUSH2 0x16E4 DUP3 PUSH2 0xDEF JUMP JUMPDEST SWAP2 POP PUSH32 0xFFFFFFFFFFFFFFFFFFFFFFFFFFFFFFFFFFFFFFFFFFFFFFFFFFFFFFFFFFFFFFFF DUP3 SUB PUSH2 0x1716 JUMPI PUSH2 0x1715 PUSH2 0x16AA JUMP JUMPDEST JUMPDEST PUSH1 0x1 DUP3 ADD SWAP1 POP SWAP2 SWAP1 POP JUMP JUMPDEST PUSH1 0x0 DUP2 SWAP1 POP DUP2 PUSH1 0x0 MSTORE PUSH1 0x20 PUSH1 0x0 KECCAK256 SWAP1 POP SWAP2 SWAP1 POP JUMP JUMPDEST PUSH1 0x0 PUSH1 0x20 PUSH1 0x1F DUP4 ADD DIV SWAP1 POP SWAP2 SWAP1 POP JUMP JUMPDEST PUSH1 0x0 DUP3 DUP3 SHL SWAP1 POP SWAP3 SWAP2 POP POP JUMP JUMPDEST PUSH1 0x0 PUSH1 0x8 DUP4 MUL PUSH2 0x1783 PUSH32 0xFFFFFFFFFFFFFFFFFFFFFFFFFFFFFFFFFFFFFFFFFFFFFFFFFFFFFFFFFFFFFFFF DUP3 PUSH2 0x1746 JUMP JUMPDEST PUSH2 0x178D DUP7 DUP4 PUSH2 0x1746 JUMP JUMPDEST SWAP6 POP DUP1 NOT DUP5 AND SWAP4 POP DUP1 DUP7 AND DUP5 OR SWAP3 POP POP POP SWAP4 SWAP3 POP POP POP JUMP JUMPDEST PUSH1 0x0 DUP2 SWAP1 POP SWAP2 SWAP1 POP JUMP JUMPDEST PUSH1 0x0 PUSH2 0x17CA PUSH2 0x17C5 PUSH2 0x17C0 DUP5 PUSH2 0xDEF JUMP JUMPDEST PUSH2 0x17A5 JUMP JUMPDEST PUSH2 0xDEF JUMP JUMPDEST SWAP1 POP SWAP2 SWAP1 POP JUMP JUMPDEST PUSH1 0x0 DUP2 SWAP1 POP SWAP2 SWAP1 POP JUMP JUMPDEST PUSH2 0x17E4 DUP4 PUSH2 0x17AF JUMP JUMPDEST PUSH2 0x17F8 PUSH2 0x17F0 DUP3 PUSH2 0x17D1 JUMP JUMPDEST DUP5 DUP5 SLOAD PUSH2 0x1753 JUMP JUMPDEST DUP3 SSTORE POP POP POP POP JUMP JUMPDEST PUSH1 0x0 SWAP1 JUMP JUMPDEST PUSH2 0x180D PUSH2 0x1800 JUMP JUMPDEST PUSH2 0x1818 DUP2 DUP5 DUP5 PUSH2 0x17DB JUMP JUMPDEST POP POP POP JUMP JUMPDEST JUMPDEST DUP2 DUP2 LT ISZERO PUSH2 0x183C JUMPI PUSH2 0x1831 PUSH1 0x0 DUP3 PUSH2 0x1805 JUMP JUMPDEST PUSH1 0x1 DUP2 ADD SWAP1 POP PUSH2 0x181E JUMP JUMPDEST POP POP JUMP JUMPDEST PUSH1 0x1F DUP3 GT ISZERO PUSH2 0x1881 JUMPI PUSH2 0x1852 DUP2 PUSH2 0x1721 JUMP JUMPDEST PUSH2 0x185B DUP5 PUSH2 0x1736 JUMP JUMPDEST DUP2 ADD PUSH1 0x20 DUP6 LT ISZERO PUSH2 0x186A JUMPI DUP2 SWAP1 POP JUMPDEST PUSH2 0x187E PUSH2 0x1876 DUP6 PUSH2 0x1736 JUMP JUMPDEST DUP4 ADD DUP3 PUSH2 0x181D JUMP JUMPDEST POP POP JUMPDEST POP POP POP JUMP JUMPDEST PUSH1 0x0 DUP3 DUP3 SHR SWAP1 POP SWAP3 SWAP2 POP POP JUMP JUMPDEST PUSH1 0x0 PUSH2 0x18A4 PUSH1 0x0 NOT DUP5 PUSH1 0x8 MUL PUSH2 0x1886 JUMP JUMPDEST NOT DUP1 DUP4 AND SWAP2 POP POP SWAP3 SWAP2 POP POP JUMP JUMPDEST PUSH1 0x0 PUSH2 0x18BD DUP4 DUP4 PUSH2 0x1893 JUMP JUMPDEST SWAP2 POP DUP3 PUSH1 0x2 MUL DUP3 OR SWAP1 POP SWAP3 SWAP2 POP POP JUMP JUMPDEST PUSH2 0x18D6 DUP3 PUSH2 0xE61 JUMP JUMPDEST PUSH8 0xFFFFFFFFFFFFFFFF DUP2 GT ISZERO PUSH2 0x18EF JUMPI PUSH2 0x18EE PUSH2 0x1150 JUMP JUMPDEST JUMPDEST PUSH2 0x18F9 DUP3 SLOAD PUSH2 0x1335 JUMP JUMPDEST PUSH2 0x1904 DUP3 DUP3 DUP6 PUSH2 0x1840 JUMP JUMPDEST PUSH1 0x0 PUSH1 0x20 SWAP1 POP PUSH1 0x1F DUP4 GT PUSH1 0x1 DUP2 EQ PUSH2 0x1937 JUMPI PUSH1 0x0 DUP5 ISZERO PUSH2 0x1925 JUMPI DUP3 DUP8 ADD MLOAD SWAP1 POP JUMPDEST PUSH2 0x192F DUP6 DUP3 PUSH2 0x18B1 JUMP JUMPDEST DUP7 SSTORE POP PUSH2 0x1997 JUMP JUMPDEST PUSH1 0x1F NOT DUP5 AND PUSH2 0x1945 DUP7 PUSH2 0x1721 JUMP JUMPDEST PUSH1 0x0 JUMPDEST DUP3 DUP2 LT ISZERO PUSH2 0x196D JUMPI DUP5 DUP10 ADD MLOAD DUP3 SSTORE PUSH1 0x1 DUP3 ADD SWAP2 POP PUSH1 0x20 DUP6 ADD SWAP5 POP PUSH1 0x20 DUP2 ADD SWAP1 POP PUSH2 0x1948 JUMP JUMPDEST DUP7 DUP4 LT ISZERO PUSH2 0x198A JUMPI DUP5 DUP10 ADD MLOAD PUSH2 0x1986 PUSH1 0x1F DUP10 AND DUP3 PUSH2 0x1893 JUMP JUMPDEST DUP4 SSTORE POP JUMPDEST PUSH1 0x1 PUSH1 0x2 DUP9 MUL ADD DUP9 SSTORE POP POP POP JUMPDEST POP POP POP POP POP POP JUMP JUMPDEST PUSH1 0x0 PUSH1 0x60 DUP3 ADD SWAP1 POP PUSH2 0x19B4 PUSH1 0x0 DUP4 ADD DUP7 PUSH2 0xE52 JUMP JUMPDEST DUP2 DUP2 SUB PUSH1 0x20 DUP4 ADD MSTORE PUSH2 0x19C6 DUP2 DUP6 PUSH2 0xEB8 JUMP JUMPDEST SWAP1 POP DUP2 DUP2 SUB PUSH1 0x40 DUP4 ADD MSTORE PUSH2 0x19DA DUP2 DUP5 PUSH2 0xEB8 JUMP JUMPDEST SWAP1 POP SWAP5 SWAP4 POP POP POP POP JUMP INVALID LOG2 PUSH5 0x6970667358 0x22 SLT KECCAK256 0xDB 0x4F 0xBC STATICCALL 0xF7 GASLIMIT 0xD3 PUSH26 0xE7C15FBAEA1E25F0F4E690529B50A42B8765AE63A9FB275A6473 PUSH16 0x6C634300081900330000000000000000 "
				},
				"gasEstimates": {
					"creation": {
						"codeDepositCost": "1336400",
						"executionCost": "34348",
						"totalCost": "1370748"
					},
					"external": {
						"addToWhitelist(address[])": "infinite",
						"changeOwner(address)": "30646",
						"getLotsDetails(uint256)": "infinite",
						"getOwner()": "2589",
						"registerLot(string,uint256,string)": "infinite",
						"removeFromWhitelist(address)": "28140",
						"removeLot(uint256)": "infinite",
						"transferLotOwnership(uint256,address)": "infinite",
						"whitelist(address)": "2867"
					}
				},
				"methodIdentifiers": {
					"addToWhitelist(address[])": "7f649783",
					"changeOwner(address)": "a6f9dae1",
					"getLotsDetails(uint256)": "115a8e25",
					"getOwner()": "893d20e8",
					"registerLot(string,uint256,string)": "e4cfa278",
					"removeFromWhitelist(address)": "8ab1d681",
					"removeLot(uint256)": "5a4cbe51",
					"transferLotOwnership(uint256,address)": "c00b29d8",
					"whitelist(address)": "9b19251a"
				}
			},
			"storageLayout": {
				"storage": [
					{
						"astId": 4,
						"contract": "contracts/ProductTracking.sol:ProductTracking",
						"label": "owner",
						"offset": 0,
						"slot": "0",
						"type": "t_address"
					},
					{
						"astId": 274,
						"contract": "contracts/ProductTracking.sol:ProductTracking",
						"label": "whitelist",
						"offset": 0,
						"slot": "1",
						"type": "t_mapping(t_address,t_bool)"
					},
					{
						"astId": 101,
						"contract": "contracts/ProductTracking.sol:ProductTracking",
						"label": "lotCounter",
						"offset": 0,
						"slot": "2",
						"type": "t_uint256"
					},
					{
						"astId": 106,
						"contract": "contracts/ProductTracking.sol:ProductTracking",
						"label": "getLotsDetails",
						"offset": 0,
						"slot": "3",
						"type": "t_mapping(t_uint256,t_struct(Lot)99_storage)"
					}
				],
				"types": {
					"t_address": {
						"encoding": "inplace",
						"label": "address",
						"numberOfBytes": "20"
					},
					"t_bool": {
						"encoding": "inplace",
						"label": "bool",
						"numberOfBytes": "1"
					},
					"t_mapping(t_address,t_bool)": {
						"encoding": "mapping",
						"key": "t_address",
						"label": "mapping(address => bool)",
						"numberOfBytes": "32",
						"value": "t_bool"
					},
					"t_mapping(t_uint256,t_struct(Lot)99_storage)": {
						"encoding": "mapping",
						"key": "t_uint256",
						"label": "mapping(uint256 => struct ProductTracking.Lot)",
						"numberOfBytes": "32",
						"value": "t_struct(Lot)99_storage"
					},
					"t_string_storage": {
						"encoding": "bytes",
						"label": "string",
						"numberOfBytes": "32"
					},
					"t_struct(Lot)99_storage": {
						"encoding": "inplace",
						"label": "struct ProductTracking.Lot",
						"members": [
							{
								"astId": 86,
								"contract": "contracts/ProductTracking.sol:ProductTracking",
								"label": "id",
								"offset": 0,
								"slot": "0",
								"type": "t_uint256"
							},
							{
								"astId": 88,
								"contract": "contracts/ProductTracking.sol:ProductTracking",
								"label": "manufacturer",
								"offset": 0,
								"slot": "1",
								"type": "t_string_storage"
							},
							{
								"astId": 90,
								"contract": "contracts/ProductTracking.sol:ProductTracking",
								"label": "productCount",
								"offset": 0,
								"slot": "2",
								"type": "t_uint256"
							},
							{
								"astId": 92,
								"contract": "contracts/ProductTracking.sol:ProductTracking",
								"label": "productName",
								"offset": 0,
								"slot": "3",
								"type": "t_string_storage"
							},
							{
								"astId": 94,
								"contract": "contracts/ProductTracking.sol:ProductTracking",
								"label": "currentOwner",
								"offset": 0,
								"slot": "4",
								"type": "t_address"
							},
							{
								"astId": 96,
								"contract": "contracts/ProductTracking.sol:ProductTracking",
								"label": "dateOfPurchase",
								"offset": 0,
								"slot": "5",
								"type": "t_uint256"
							},
							{
								"astId": 98,
								"contract": "contracts/ProductTracking.sol:ProductTracking",
								"label": "isActive",
								"offset": 0,
								"slot": "6",
								"type": "t_bool"
							}
						],
						"numberOfBytes": "224"
					},
					"t_uint256": {
						"encoding": "inplace",
						"label": "uint256",
						"numberOfBytes": "32"
					}
				}
			},
			"userdoc": {
				"kind": "user",
				"methods": {},
				"version": 1
			}
		}
	}
}