{
	"contracts/ProductTracking.sol": {
		"ProductTracking": {
			"abi": [
				{
					"inputs": [],
					"stateMutability": "nonpayable",
					"type": "constructor"
				},
				{
					"anonymous": false,
					"inputs": [
						{
							"indexed": true,
							"internalType": "address",
							"name": "beneficiary",
							"type": "address"
						}
					],
					"name": "AddedBeneficiary",
					"type": "event"
				},
				{
					"anonymous": false,
					"inputs": [
						{
							"indexed": false,
							"internalType": "uint256",
							"name": "lotId",
							"type": "uint256"
						},
						{
							"indexed": false,
							"internalType": "string",
							"name": "manufacturer",
							"type": "string"
						},
						{
							"indexed": false,
							"internalType": "string",
							"name": "productName",
							"type": "string"
						}
					],
					"name": "LotRegistered",
					"type": "event"
				},
				{
					"anonymous": false,
					"inputs": [
						{
							"indexed": true,
							"internalType": "address",
							"name": "oldOwner",
							"type": "address"
						},
						{
							"indexed": true,
							"internalType": "address",
							"name": "newOwner",
							"type": "address"
						}
					],
					"name": "OwnerSet",
					"type": "event"
				},
				{
					"anonymous": false,
					"inputs": [
						{
							"indexed": false,
							"internalType": "uint256",
							"name": "lotId",
							"type": "uint256"
						},
						{
							"indexed": true,
							"internalType": "address",
							"name": "previousOwner",
							"type": "address"
						},
						{
							"indexed": true,
							"internalType": "address",
							"name": "newOwner",
							"type": "address"
						}
					],
					"name": "OwnershipTransferred",
					"type": "event"
				},
				{
					"inputs": [
						{
							"internalType": "address[]",
							"name": "beneficiaries",
							"type": "address[]"
						}
					],
					"name": "addToWhitelist",
					"outputs": [],
					"stateMutability": "nonpayable",
					"type": "function"
				},
				{
					"inputs": [
						{
							"internalType": "address",
							"name": "newOwner",
							"type": "address"
						}
					],
					"name": "changeOwner",
					"outputs": [],
					"stateMutability": "nonpayable",
					"type": "function"
				},
				{
					"inputs": [
						{
							"internalType": "uint256",
							"name": "lotId",
							"type": "uint256"
						}
					],
					"name": "getLotDetails",
					"outputs": [
						{
							"internalType": "uint256",
							"name": "",
							"type": "uint256"
						},
						{
							"internalType": "string",
							"name": "",
							"type": "string"
						},
						{
							"internalType": "uint256",
							"name": "",
							"type": "uint256"
						},
						{
							"internalType": "string",
							"name": "",
							"type": "string"
						},
						{
							"internalType": "address",
							"name": "",
							"type": "address"
						},
						{
							"internalType": "uint256",
							"name": "",
							"type": "uint256"
						}
					],
					"stateMutability": "view",
					"type": "function"
				},
				{
					"inputs": [],
					"name": "getOwner",
					"outputs": [
						{
							"internalType": "address",
							"name": "",
							"type": "address"
						}
					],
					"stateMutability": "view",
					"type": "function"
				},
				{
					"inputs": [
						{
							"internalType": "uint256",
							"name": "",
							"type": "uint256"
						}
					],
					"name": "lots",
					"outputs": [
						{
							"internalType": "uint256",
							"name": "id",
							"type": "uint256"
						},
						{
							"internalType": "string",
							"name": "manufacturer",
							"type": "string"
						},
						{
							"internalType": "uint256",
							"name": "productCount",
							"type": "uint256"
						},
						{
							"internalType": "string",
							"name": "productName",
							"type": "string"
						},
						{
							"internalType": "address",
							"name": "currentOwner",
							"type": "address"
						},
						{
							"internalType": "uint256",
							"name": "dateOfPurchase",
							"type": "uint256"
						}
					],
					"stateMutability": "view",
					"type": "function"
				},
				{
					"inputs": [
						{
							"internalType": "string",
							"name": "manufacturer",
							"type": "string"
						},
						{
							"internalType": "uint256",
							"name": "productCount",
							"type": "uint256"
						},
						{
							"internalType": "string",
							"name": "productName",
							"type": "string"
						}
					],
					"name": "registerLot",
					"outputs": [],
					"stateMutability": "nonpayable",
					"type": "function"
				},
				{
					"inputs": [
						{
							"internalType": "address",
							"name": "beneficiary",
							"type": "address"
						}
					],
					"name": "removeFromWhitelist",
					"outputs": [],
					"stateMutability": "nonpayable",
					"type": "function"
				},
				{
					"inputs": [
						{
							"internalType": "uint256",
							"name": "lotId",
							"type": "uint256"
						},
						{
							"internalType": "address",
							"name": "newOwner",
							"type": "address"
						}
					],
					"name": "transferLotOwnership",
					"outputs": [],
					"stateMutability": "nonpayable",
					"type": "function"
				},
				{
					"inputs": [
						{
							"internalType": "address",
							"name": "",
							"type": "address"
						}
					],
					"name": "whitelist",
					"outputs": [
						{
							"internalType": "bool",
							"name": "",
							"type": "bool"
						}
					],
					"stateMutability": "view",
					"type": "function"
				}
			],
			"devdoc": {
				"details": "Tracks the registration and ownership of product lots",
				"kind": "dev",
				"methods": {
					"changeOwner(address)": {
						"details": "Change owner",
						"params": {
							"newOwner": "address of new owner"
						}
					},
					"getOwner()": {
						"details": "Return owner address",
						"returns": {
							"_0": "address of owner"
						}
					}
				},
				"title": "Product Tracking",
				"version": 1
			},
			"evm": {
				"assembly": "    /* \"contracts/ProductTracking.sol\":198:2099  contract ProductTracking is WhiteList {... */\n  mstore(0x40, 0x80)\n    /* \"contracts/ProductTracking.sol\":711:758  constructor() {... */\n  callvalue\n  dup1\n  iszero\n  tag_1\n  jumpi\n  0x00\n  dup1\n  revert\ntag_1:\n  pop\n    /* \"contracts/Owner.sol\":510:520  msg.sender */\n  caller\n    /* \"contracts/Owner.sol\":502:507  owner */\n  0x00\n  dup1\n    /* \"contracts/Owner.sol\":502:520  owner = msg.sender */\n  0x0100\n  exp\n  dup2\n  sload\n  dup2\n  0xffffffffffffffffffffffffffffffffffffffff\n  mul\n  not\n  and\n  swap1\n  dup4\n  0xffffffffffffffffffffffffffffffffffffffff\n  and\n  mul\n  or\n  swap1\n  sstore\n  pop\n    /* \"contracts/Owner.sol\":556:561  owner */\n  0x00\n  dup1\n  sload\n  swap1\n  0x0100\n  exp\n  swap1\n  div\n  0xffffffffffffffffffffffffffffffffffffffff\n  and\n    /* \"contracts/Owner.sol\":535:562  OwnerSet(address(0), owner) */\n  0xffffffffffffffffffffffffffffffffffffffff\n  and\n    /* \"contracts/Owner.sol\":552:553  0 */\n  0x00\n    /* \"contracts/Owner.sol\":535:562  OwnerSet(address(0), owner) */\n  0xffffffffffffffffffffffffffffffffffffffff\n  and\n  0x342827c97908e5e2f71151c08502a66d44b6f758e3ac2f1de95f02eb95f0a735\n  mload(0x40)\n  mload(0x40)\n  dup1\n  swap2\n  sub\n  swap1\n  log3\n    /* \"contracts/ProductTracking.sol\":749:750  0 */\n  0x00\n    /* \"contracts/ProductTracking.sol\":736:746  lotCounter */\n  0x02\n    /* \"contracts/ProductTracking.sol\":736:750  lotCounter = 0 */\n  dup2\n  swap1\n  sstore\n  pop\n    /* \"contracts/ProductTracking.sol\":198:2099  contract ProductTracking is WhiteList {... */\n  dataSize(sub_0)\n  dup1\n  dataOffset(sub_0)\n  0x00\n  codecopy\n  0x00\n  return\nstop\n\nsub_0: assembly {\n        /* \"contracts/ProductTracking.sol\":198:2099  contract ProductTracking is WhiteList {... */\n      mstore(0x40, 0x80)\n      callvalue\n      dup1\n      iszero\n      tag_1\n      jumpi\n      0x00\n      dup1\n      revert\n    tag_1:\n      pop\n      jumpi(tag_2, lt(calldatasize, 0x04))\n      shr(0xe0, calldataload(0x00))\n      dup1\n      0xa6f9dae1\n      gt\n      tag_12\n      jumpi\n      dup1\n      0xa6f9dae1\n      eq\n      tag_7\n      jumpi\n      dup1\n      0xc00b29d8\n      eq\n      tag_8\n      jumpi\n      dup1\n      0xe3c7f6df\n      eq\n      tag_9\n      jumpi\n      dup1\n      0xe4cfa278\n      eq\n      tag_10\n      jumpi\n      dup1\n      0xf1648e84\n      eq\n      tag_11\n      jumpi\n      jump(tag_2)\n    tag_12:\n      dup1\n      0x7f649783\n      eq\n      tag_3\n      jumpi\n      dup1\n      0x893d20e8\n      eq\n      tag_4\n      jumpi\n      dup1\n      0x8ab1d681\n      eq\n      tag_5\n      jumpi\n      dup1\n      0x9b19251a\n      eq\n      tag_6\n      jumpi\n    tag_2:\n      0x00\n      dup1\n      revert\n        /* \"contracts/WhiteList.sol\":447:704  function addToWhitelist(address[] calldata beneficiaries) public isOwner {... */\n    tag_3:\n      tag_13\n      0x04\n      dup1\n      calldatasize\n      sub\n      dup2\n      add\n      swap1\n      tag_14\n      swap2\n      swap1\n      tag_15\n      jump\t// in\n    tag_14:\n      tag_16\n      jump\t// in\n    tag_13:\n      stop\n        /* \"contracts/Owner.sol\":955:1036  function getOwner() external view returns (address) {... */\n    tag_4:\n      tag_17\n      tag_18\n      jump\t// in\n    tag_17:\n      mload(0x40)\n      tag_19\n      swap2\n      swap1\n      tag_20\n      jump\t// in\n    tag_19:\n      mload(0x40)\n      dup1\n      swap2\n      sub\n      swap1\n      return\n        /* \"contracts/WhiteList.sol\":712:923  function removeFromWhitelist(address beneficiary) public isOwner {... */\n    tag_5:\n      tag_21\n      0x04\n      dup1\n      calldatasize\n      sub\n      dup2\n      add\n      swap1\n      tag_22\n      swap2\n      swap1\n      tag_23\n      jump\t// in\n    tag_22:\n      tag_24\n      jump\t// in\n    tag_21:\n      stop\n        /* \"contracts/WhiteList.sol\":210:251  mapping(address => bool) public whitelist */\n    tag_6:\n      tag_25\n      0x04\n      dup1\n      calldatasize\n      sub\n      dup2\n      add\n      swap1\n      tag_26\n      swap2\n      swap1\n      tag_23\n      jump\t// in\n    tag_26:\n      tag_27\n      jump\t// in\n    tag_25:\n      mload(0x40)\n      tag_28\n      swap2\n      swap1\n      tag_29\n      jump\t// in\n    tag_28:\n      mload(0x40)\n      dup1\n      swap2\n      sub\n      swap1\n      return\n        /* \"contracts/Owner.sol\":660:868  function changeOwner(address newOwner) public isOwner {... */\n    tag_7:\n      tag_30\n      0x04\n      dup1\n      calldatasize\n      sub\n      dup2\n      add\n      swap1\n      tag_31\n      swap2\n      swap1\n      tag_23\n      jump\t// in\n    tag_31:\n      tag_32\n      jump\t// in\n    tag_30:\n      stop\n        /* \"contracts/ProductTracking.sol\":1305:1799  function transferLotOwnership(uint256 lotId, address newOwner) public {... */\n    tag_8:\n      tag_33\n      0x04\n      dup1\n      calldatasize\n      sub\n      dup2\n      add\n      swap1\n      tag_34\n      swap2\n      swap1\n      tag_35\n      jump\t// in\n    tag_34:\n      tag_36\n      jump\t// in\n    tag_33:\n      stop\n        /* \"contracts/ProductTracking.sol\":1807:2096  function getLotDetails(uint256 lotId) public view returns (uint256, string memory, uint256, string memory, address, uint256) {... */\n    tag_9:\n      tag_37\n      0x04\n      dup1\n      calldatasize\n      sub\n      dup2\n      add\n      swap1\n      tag_38\n      swap2\n      swap1\n      tag_39\n      jump\t// in\n    tag_38:\n      tag_40\n      jump\t// in\n    tag_37:\n      mload(0x40)\n      tag_41\n      swap7\n      swap6\n      swap5\n      swap4\n      swap3\n      swap2\n      swap1\n      tag_42\n      jump\t// in\n    tag_41:\n      mload(0x40)\n      dup1\n      swap2\n      sub\n      swap1\n      return\n        /* \"contracts/ProductTracking.sol\":766:1297  function registerLot(string memory manufacturer, uint256 productCount, string memory productName) public isOwner {... */\n    tag_10:\n      tag_43\n      0x04\n      dup1\n      calldatasize\n      sub\n      dup2\n      add\n      swap1\n      tag_44\n      swap2\n      swap1\n      tag_45\n      jump\t// in\n    tag_44:\n      tag_46\n      jump\t// in\n    tag_43:\n      stop\n        /* \"contracts/ProductTracking.sol\":478:513  mapping(uint256 => Lot) public lots */\n    tag_11:\n      tag_47\n      0x04\n      dup1\n      calldatasize\n      sub\n      dup2\n      add\n      swap1\n      tag_48\n      swap2\n      swap1\n      tag_39\n      jump\t// in\n    tag_48:\n      tag_49\n      jump\t// in\n    tag_47:\n      mload(0x40)\n      tag_50\n      swap7\n      swap6\n      swap5\n      swap4\n      swap3\n      swap2\n      swap1\n      tag_42\n      jump\t// in\n    tag_50:\n      mload(0x40)\n      dup1\n      swap2\n      sub\n      swap1\n      return\n        /* \"contracts/WhiteList.sol\":447:704  function addToWhitelist(address[] calldata beneficiaries) public isOwner {... */\n    tag_16:\n        /* \"contracts/Owner.sol\":366:371  owner */\n      0x00\n      dup1\n      sload\n      swap1\n      0x0100\n      exp\n      swap1\n      div\n      0xffffffffffffffffffffffffffffffffffffffff\n      and\n        /* \"contracts/Owner.sol\":352:371  msg.sender == owner */\n      0xffffffffffffffffffffffffffffffffffffffff\n      and\n        /* \"contracts/Owner.sol\":352:362  msg.sender */\n      caller\n        /* \"contracts/Owner.sol\":352:371  msg.sender == owner */\n      0xffffffffffffffffffffffffffffffffffffffff\n      and\n      eq\n        /* \"contracts/Owner.sol\":344:395  require(msg.sender == owner, \"Caller is not owner\") */\n      tag_52\n      jumpi\n      mload(0x40)\n      0x08c379a000000000000000000000000000000000000000000000000000000000\n      dup2\n      mstore\n      0x04\n      add\n      tag_53\n      swap1\n      tag_54\n      jump\t// in\n    tag_53:\n      mload(0x40)\n      dup1\n      swap2\n      sub\n      swap1\n      revert\n    tag_52:\n        /* \"contracts/WhiteList.sol\":536:545  uint256 i */\n      0x00\n        /* \"contracts/WhiteList.sol\":531:697  for (uint256 i = 0; i < beneficiaries.length; i++) {... */\n    tag_56:\n        /* \"contracts/WhiteList.sol\":555:568  beneficiaries */\n      dup3\n      dup3\n        /* \"contracts/WhiteList.sol\":555:575  beneficiaries.length */\n      swap1\n      pop\n        /* \"contracts/WhiteList.sol\":551:552  i */\n      dup2\n        /* \"contracts/WhiteList.sol\":551:575  i < beneficiaries.length */\n      lt\n        /* \"contracts/WhiteList.sol\":531:697  for (uint256 i = 0; i < beneficiaries.length; i++) {... */\n      iszero\n      tag_57\n      jumpi\n        /* \"contracts/WhiteList.sol\":627:631  true */\n      0x01\n        /* \"contracts/WhiteList.sol\":597:606  whitelist */\n      dup1\n        /* \"contracts/WhiteList.sol\":597:624  whitelist[beneficiaries[i]] */\n      0x00\n        /* \"contracts/WhiteList.sol\":607:620  beneficiaries */\n      dup6\n      dup6\n        /* \"contracts/WhiteList.sol\":621:622  i */\n      dup6\n        /* \"contracts/WhiteList.sol\":607:623  beneficiaries[i] */\n      dup2\n      dup2\n      lt\n      tag_59\n      jumpi\n      tag_60\n      tag_61\n      jump\t// in\n    tag_60:\n    tag_59:\n      swap1\n      pop\n      0x20\n      mul\n      add\n      0x20\n      dup2\n      add\n      swap1\n      tag_62\n      swap2\n      swap1\n      tag_23\n      jump\t// in\n    tag_62:\n        /* \"contracts/WhiteList.sol\":597:624  whitelist[beneficiaries[i]] */\n      0xffffffffffffffffffffffffffffffffffffffff\n      and\n      0xffffffffffffffffffffffffffffffffffffffff\n      and\n      dup2\n      mstore\n      0x20\n      add\n      swap1\n      dup2\n      mstore\n      0x20\n      add\n      0x00\n      keccak256\n      0x00\n        /* \"contracts/WhiteList.sol\":597:631  whitelist[beneficiaries[i]] = true */\n      0x0100\n      exp\n      dup2\n      sload\n      dup2\n      0xff\n      mul\n      not\n      and\n      swap1\n      dup4\n      iszero\n      iszero\n      mul\n      or\n      swap1\n      sstore\n      pop\n        /* \"contracts/WhiteList.sol\":668:681  beneficiaries */\n      dup3\n      dup3\n        /* \"contracts/WhiteList.sol\":682:683  i */\n      dup3\n        /* \"contracts/WhiteList.sol\":668:684  beneficiaries[i] */\n      dup2\n      dup2\n      lt\n      tag_63\n      jumpi\n      tag_64\n      tag_61\n      jump\t// in\n    tag_64:\n    tag_63:\n      swap1\n      pop\n      0x20\n      mul\n      add\n      0x20\n      dup2\n      add\n      swap1\n      tag_65\n      swap2\n      swap1\n      tag_23\n      jump\t// in\n    tag_65:\n        /* \"contracts/WhiteList.sol\":651:685  AddedBeneficiary(beneficiaries[i]) */\n      0xffffffffffffffffffffffffffffffffffffffff\n      and\n      0x2e3361a4e7a8b067d0bbafcb5811e35ba5eccbb7a274be8bcfe4fb6f81fe30c8\n      mload(0x40)\n      mload(0x40)\n      dup1\n      swap2\n      sub\n      swap1\n      log2\n        /* \"contracts/WhiteList.sol\":577:580  i++ */\n      dup1\n      dup1\n      0x01\n      add\n      swap2\n      pop\n      pop\n        /* \"contracts/WhiteList.sol\":531:697  for (uint256 i = 0; i < beneficiaries.length; i++) {... */\n      jump(tag_56)\n    tag_57:\n      pop\n        /* \"contracts/WhiteList.sol\":447:704  function addToWhitelist(address[] calldata beneficiaries) public isOwner {... */\n      pop\n      pop\n      jump\t// out\n        /* \"contracts/Owner.sol\":955:1036  function getOwner() external view returns (address) {... */\n    tag_18:\n        /* \"contracts/Owner.sol\":998:1005  address */\n      0x00\n        /* \"contracts/Owner.sol\":1024:1029  owner */\n      dup1\n      0x00\n      swap1\n      sload\n      swap1\n      0x0100\n      exp\n      swap1\n      div\n      0xffffffffffffffffffffffffffffffffffffffff\n      and\n        /* \"contracts/Owner.sol\":1017:1029  return owner */\n      swap1\n      pop\n        /* \"contracts/Owner.sol\":955:1036  function getOwner() external view returns (address) {... */\n      swap1\n      jump\t// out\n        /* \"contracts/WhiteList.sol\":712:923  function removeFromWhitelist(address beneficiary) public isOwner {... */\n    tag_24:\n        /* \"contracts/Owner.sol\":366:371  owner */\n      0x00\n      dup1\n      sload\n      swap1\n      0x0100\n      exp\n      swap1\n      div\n      0xffffffffffffffffffffffffffffffffffffffff\n      and\n        /* \"contracts/Owner.sol\":352:371  msg.sender == owner */\n      0xffffffffffffffffffffffffffffffffffffffff\n      and\n        /* \"contracts/Owner.sol\":352:362  msg.sender */\n      caller\n        /* \"contracts/Owner.sol\":352:371  msg.sender == owner */\n      0xffffffffffffffffffffffffffffffffffffffff\n      and\n      eq\n        /* \"contracts/Owner.sol\":344:395  require(msg.sender == owner, \"Caller is not owner\") */\n      tag_68\n      jumpi\n      mload(0x40)\n      0x08c379a000000000000000000000000000000000000000000000000000000000\n      dup2\n      mstore\n      0x04\n      add\n      tag_69\n      swap1\n      tag_54\n      jump\t// in\n    tag_69:\n      mload(0x40)\n      dup1\n      swap2\n      sub\n      swap1\n      revert\n    tag_68:\n        /* \"contracts/WhiteList.sol\":813:818  false */\n      0x00\n        /* \"contracts/WhiteList.sol\":788:797  whitelist */\n      0x01\n        /* \"contracts/WhiteList.sol\":788:810  whitelist[beneficiary] */\n      0x00\n        /* \"contracts/WhiteList.sol\":798:809  beneficiary */\n      dup4\n        /* \"contracts/WhiteList.sol\":788:810  whitelist[beneficiary] */\n      0xffffffffffffffffffffffffffffffffffffffff\n      and\n      0xffffffffffffffffffffffffffffffffffffffff\n      and\n      dup2\n      mstore\n      0x20\n      add\n      swap1\n      dup2\n      mstore\n      0x20\n      add\n      0x00\n      keccak256\n      0x00\n        /* \"contracts/WhiteList.sol\":788:818  whitelist[beneficiary] = false */\n      0x0100\n      exp\n      dup2\n      sload\n      dup2\n      0xff\n      mul\n      not\n      and\n      swap1\n      dup4\n      iszero\n      iszero\n      mul\n      or\n      swap1\n      sstore\n      pop\n        /* \"contracts/WhiteList.sol\":851:862  beneficiary */\n      dup1\n        /* \"contracts/WhiteList.sol\":834:863  AddedBeneficiary(beneficiary) */\n      0xffffffffffffffffffffffffffffffffffffffff\n      and\n      0x2e3361a4e7a8b067d0bbafcb5811e35ba5eccbb7a274be8bcfe4fb6f81fe30c8\n      mload(0x40)\n      mload(0x40)\n      dup1\n      swap2\n      sub\n      swap1\n      log2\n        /* \"contracts/WhiteList.sol\":712:923  function removeFromWhitelist(address beneficiary) public isOwner {... */\n      pop\n      jump\t// out\n        /* \"contracts/WhiteList.sol\":210:251  mapping(address => bool) public whitelist */\n    tag_27:\n      mstore(0x20, 0x01)\n      dup1\n      0x00\n      mstore\n      keccak256(0x00, 0x40)\n      0x00\n      swap2\n      pop\n      sload\n      swap1\n      0x0100\n      exp\n      swap1\n      div\n      0xff\n      and\n      dup2\n      jump\t// out\n        /* \"contracts/Owner.sol\":660:868  function changeOwner(address newOwner) public isOwner {... */\n    tag_32:\n        /* \"contracts/Owner.sol\":366:371  owner */\n      0x00\n      dup1\n      sload\n      swap1\n      0x0100\n      exp\n      swap1\n      div\n      0xffffffffffffffffffffffffffffffffffffffff\n      and\n        /* \"contracts/Owner.sol\":352:371  msg.sender == owner */\n      0xffffffffffffffffffffffffffffffffffffffff\n      and\n        /* \"contracts/Owner.sol\":352:362  msg.sender */\n      caller\n        /* \"contracts/Owner.sol\":352:371  msg.sender == owner */\n      0xffffffffffffffffffffffffffffffffffffffff\n      and\n      eq\n        /* \"contracts/Owner.sol\":344:395  require(msg.sender == owner, \"Caller is not owner\") */\n      tag_72\n      jumpi\n      mload(0x40)\n      0x08c379a000000000000000000000000000000000000000000000000000000000\n      dup2\n      mstore\n      0x04\n      add\n      tag_73\n      swap1\n      tag_54\n      jump\t// in\n    tag_73:\n      mload(0x40)\n      dup1\n      swap2\n      sub\n      swap1\n      revert\n    tag_72:\n        /* \"contracts/Owner.sol\":752:753  0 */\n      0x00\n        /* \"contracts/Owner.sol\":732:754  newOwner != address(0) */\n      0xffffffffffffffffffffffffffffffffffffffff\n      and\n        /* \"contracts/Owner.sol\":732:740  newOwner */\n      dup2\n        /* \"contracts/Owner.sol\":732:754  newOwner != address(0) */\n      0xffffffffffffffffffffffffffffffffffffffff\n      and\n      sub\n        /* \"contracts/Owner.sol\":724:795  require(newOwner != address(0), \"New owner cannot be the zero address\") */\n      tag_75\n      jumpi\n      mload(0x40)\n      0x08c379a000000000000000000000000000000000000000000000000000000000\n      dup2\n      mstore\n      0x04\n      add\n      tag_76\n      swap1\n      tag_77\n      jump\t// in\n    tag_76:\n      mload(0x40)\n      dup1\n      swap2\n      sub\n      swap1\n      revert\n    tag_75:\n        /* \"contracts/Owner.sol\":826:834  newOwner */\n      dup1\n        /* \"contracts/Owner.sol\":810:835  OwnerSet(owner, newOwner) */\n      0xffffffffffffffffffffffffffffffffffffffff\n      and\n        /* \"contracts/Owner.sol\":819:824  owner */\n      0x00\n      dup1\n      sload\n      swap1\n      0x0100\n      exp\n      swap1\n      div\n      0xffffffffffffffffffffffffffffffffffffffff\n      and\n        /* \"contracts/Owner.sol\":810:835  OwnerSet(owner, newOwner) */\n      0xffffffffffffffffffffffffffffffffffffffff\n      and\n      0x342827c97908e5e2f71151c08502a66d44b6f758e3ac2f1de95f02eb95f0a735\n      mload(0x40)\n      mload(0x40)\n      dup1\n      swap2\n      sub\n      swap1\n      log3\n        /* \"contracts/Owner.sol\":853:861  newOwner */\n      dup1\n        /* \"contracts/Owner.sol\":845:850  owner */\n      0x00\n      dup1\n        /* \"contracts/Owner.sol\":845:861  owner = newOwner */\n      0x0100\n      exp\n      dup2\n      sload\n      dup2\n      0xffffffffffffffffffffffffffffffffffffffff\n      mul\n      not\n      and\n      swap1\n      dup4\n      0xffffffffffffffffffffffffffffffffffffffff\n      and\n      mul\n      or\n      swap1\n      sstore\n      pop\n        /* \"contracts/Owner.sol\":660:868  function changeOwner(address newOwner) public isOwner {... */\n      pop\n      jump\t// out\n        /* \"contracts/ProductTracking.sol\":1305:1799  function transferLotOwnership(uint256 lotId, address newOwner) public {... */\n    tag_36:\n        /* \"contracts/ProductTracking.sol\":1394:1417  isWhitelisted(newOwner) */\n      tag_79\n        /* \"contracts/ProductTracking.sol\":1408:1416  newOwner */\n      dup2\n        /* \"contracts/ProductTracking.sol\":1394:1407  isWhitelisted */\n      tag_80\n        /* \"contracts/ProductTracking.sol\":1394:1417  isWhitelisted(newOwner) */\n      jump\t// in\n    tag_79:\n        /* \"contracts/ProductTracking.sol\":1386:1450  require(isWhitelisted(newOwner), \"New owner is not whitelisted\") */\n      tag_81\n      jumpi\n      mload(0x40)\n      0x08c379a000000000000000000000000000000000000000000000000000000000\n      dup2\n      mstore\n      0x04\n      add\n      tag_82\n      swap1\n      tag_83\n      jump\t// in\n    tag_82:\n      mload(0x40)\n      dup1\n      swap2\n      sub\n      swap1\n      revert\n    tag_81:\n        /* \"contracts/ProductTracking.sol\":1461:1476  Lot storage lot */\n      0x00\n        /* \"contracts/ProductTracking.sol\":1479:1483  lots */\n      0x03\n        /* \"contracts/ProductTracking.sol\":1479:1490  lots[lotId] */\n      0x00\n        /* \"contracts/ProductTracking.sol\":1484:1489  lotId */\n      dup5\n        /* \"contracts/ProductTracking.sol\":1479:1490  lots[lotId] */\n      dup2\n      mstore\n      0x20\n      add\n      swap1\n      dup2\n      mstore\n      0x20\n      add\n      0x00\n      keccak256\n        /* \"contracts/ProductTracking.sol\":1461:1490  Lot storage lot = lots[lotId] */\n      swap1\n      pop\n        /* \"contracts/ProductTracking.sol\":1523:1526  lot */\n      dup1\n        /* \"contracts/ProductTracking.sol\":1523:1539  lot.currentOwner */\n      0x04\n      add\n      0x00\n      swap1\n      sload\n      swap1\n      0x0100\n      exp\n      swap1\n      div\n      0xffffffffffffffffffffffffffffffffffffffff\n      and\n        /* \"contracts/ProductTracking.sol\":1509:1539  msg.sender == lot.currentOwner */\n      0xffffffffffffffffffffffffffffffffffffffff\n      and\n        /* \"contracts/ProductTracking.sol\":1509:1519  msg.sender */\n      caller\n        /* \"contracts/ProductTracking.sol\":1509:1539  msg.sender == lot.currentOwner */\n      0xffffffffffffffffffffffffffffffffffffffff\n      and\n      eq\n        /* \"contracts/ProductTracking.sol\":1501:1583  require(msg.sender == lot.currentOwner, \"Only current owner can transfer the lot\") */\n      tag_84\n      jumpi\n      mload(0x40)\n      0x08c379a000000000000000000000000000000000000000000000000000000000\n      dup2\n      mstore\n      0x04\n      add\n      tag_85\n      swap1\n      tag_86\n      jump\t// in\n    tag_85:\n      mload(0x40)\n      dup1\n      swap2\n      sub\n      swap1\n      revert\n    tag_84:\n        /* \"contracts/ProductTracking.sol\":1596:1617  address previousOwner */\n      0x00\n        /* \"contracts/ProductTracking.sol\":1620:1623  lot */\n      dup2\n        /* \"contracts/ProductTracking.sol\":1620:1636  lot.currentOwner */\n      0x04\n      add\n      0x00\n      swap1\n      sload\n      swap1\n      0x0100\n      exp\n      swap1\n      div\n      0xffffffffffffffffffffffffffffffffffffffff\n      and\n        /* \"contracts/ProductTracking.sol\":1596:1636  address previousOwner = lot.currentOwner */\n      swap1\n      pop\n        /* \"contracts/ProductTracking.sol\":1666:1674  newOwner */\n      dup3\n        /* \"contracts/ProductTracking.sol\":1647:1650  lot */\n      dup3\n        /* \"contracts/ProductTracking.sol\":1647:1663  lot.currentOwner */\n      0x04\n      add\n      0x00\n        /* \"contracts/ProductTracking.sol\":1647:1674  lot.currentOwner = newOwner */\n      0x0100\n      exp\n      dup2\n      sload\n      dup2\n      0xffffffffffffffffffffffffffffffffffffffff\n      mul\n      not\n      and\n      swap1\n      dup4\n      0xffffffffffffffffffffffffffffffffffffffff\n      and\n      mul\n      or\n      swap1\n      sstore\n      pop\n        /* \"contracts/ProductTracking.sol\":1706:1721  block.timestamp */\n      timestamp\n        /* \"contracts/ProductTracking.sol\":1685:1688  lot */\n      dup3\n        /* \"contracts/ProductTracking.sol\":1685:1703  lot.dateOfPurchase */\n      0x05\n      add\n        /* \"contracts/ProductTracking.sol\":1685:1721  lot.dateOfPurchase = block.timestamp */\n      dup2\n      swap1\n      sstore\n      pop\n        /* \"contracts/ProductTracking.sol\":1782:1790  newOwner */\n      dup3\n        /* \"contracts/ProductTracking.sol\":1739:1791  OwnershipTransferred(lotId, previousOwner, newOwner) */\n      0xffffffffffffffffffffffffffffffffffffffff\n      and\n        /* \"contracts/ProductTracking.sol\":1767:1780  previousOwner */\n      dup2\n        /* \"contracts/ProductTracking.sol\":1739:1791  OwnershipTransferred(lotId, previousOwner, newOwner) */\n      0xffffffffffffffffffffffffffffffffffffffff\n      and\n      0x16b85f49bf01212961345d3016c9a531894accf62eb7680f2045d79185cc0ec0\n        /* \"contracts/ProductTracking.sol\":1760:1765  lotId */\n      dup7\n        /* \"contracts/ProductTracking.sol\":1739:1791  OwnershipTransferred(lotId, previousOwner, newOwner) */\n      mload(0x40)\n      tag_87\n      swap2\n      swap1\n      tag_88\n      jump\t// in\n    tag_87:\n      mload(0x40)\n      dup1\n      swap2\n      sub\n      swap1\n      log3\n        /* \"contracts/ProductTracking.sol\":1375:1799  {... */\n      pop\n      pop\n        /* \"contracts/ProductTracking.sol\":1305:1799  function transferLotOwnership(uint256 lotId, address newOwner) public {... */\n      pop\n      pop\n      jump\t// out\n        /* \"contracts/ProductTracking.sol\":1807:2096  function getLotDetails(uint256 lotId) public view returns (uint256, string memory, uint256, string memory, address, uint256) {... */\n    tag_40:\n        /* \"contracts/ProductTracking.sol\":1866:1873  uint256 */\n      0x00\n        /* \"contracts/ProductTracking.sol\":1875:1888  string memory */\n      0x60\n        /* \"contracts/ProductTracking.sol\":1890:1897  uint256 */\n      0x00\n        /* \"contracts/ProductTracking.sol\":1899:1912  string memory */\n      0x60\n        /* \"contracts/ProductTracking.sol\":1914:1921  address */\n      0x00\n        /* \"contracts/ProductTracking.sol\":1923:1930  uint256 */\n      dup1\n        /* \"contracts/ProductTracking.sol\":1943:1957  Lot memory lot */\n      0x00\n        /* \"contracts/ProductTracking.sol\":1960:1964  lots */\n      0x03\n        /* \"contracts/ProductTracking.sol\":1960:1971  lots[lotId] */\n      0x00\n        /* \"contracts/ProductTracking.sol\":1965:1970  lotId */\n      dup10\n        /* \"contracts/ProductTracking.sol\":1960:1971  lots[lotId] */\n      dup2\n      mstore\n      0x20\n      add\n      swap1\n      dup2\n      mstore\n      0x20\n      add\n      0x00\n      keccak256\n        /* \"contracts/ProductTracking.sol\":1943:1971  Lot memory lot = lots[lotId] */\n      mload(0x40)\n      dup1\n      0xc0\n      add\n      0x40\n      mstore\n      swap1\n      dup2\n      0x00\n      dup3\n      add\n      sload\n      dup2\n      mstore\n      0x20\n      add\n      0x01\n      dup3\n      add\n      dup1\n      sload\n      tag_90\n      swap1\n      tag_91\n      jump\t// in\n    tag_90:\n      dup1\n      0x1f\n      add\n      0x20\n      dup1\n      swap2\n      div\n      mul\n      0x20\n      add\n      mload(0x40)\n      swap1\n      dup2\n      add\n      0x40\n      mstore\n      dup1\n      swap3\n      swap2\n      swap1\n      dup2\n      dup2\n      mstore\n      0x20\n      add\n      dup3\n      dup1\n      sload\n      tag_92\n      swap1\n      tag_91\n      jump\t// in\n    tag_92:\n      dup1\n      iszero\n      tag_93\n      jumpi\n      dup1\n      0x1f\n      lt\n      tag_94\n      jumpi\n      0x0100\n      dup1\n      dup4\n      sload\n      div\n      mul\n      dup4\n      mstore\n      swap2\n      0x20\n      add\n      swap2\n      jump(tag_93)\n    tag_94:\n      dup3\n      add\n      swap2\n      swap1\n      0x00\n      mstore\n      keccak256(0x00, 0x20)\n      swap1\n    tag_95:\n      dup2\n      sload\n      dup2\n      mstore\n      swap1\n      0x01\n      add\n      swap1\n      0x20\n      add\n      dup1\n      dup4\n      gt\n      tag_95\n      jumpi\n      dup3\n      swap1\n      sub\n      0x1f\n      and\n      dup3\n      add\n      swap2\n    tag_93:\n      pop\n      pop\n      pop\n      pop\n      pop\n      dup2\n      mstore\n      0x20\n      add\n      0x02\n      dup3\n      add\n      sload\n      dup2\n      mstore\n      0x20\n      add\n      0x03\n      dup3\n      add\n      dup1\n      sload\n      tag_96\n      swap1\n      tag_91\n      jump\t// in\n    tag_96:\n      dup1\n      0x1f\n      add\n      0x20\n      dup1\n      swap2\n      div\n      mul\n      0x20\n      add\n      mload(0x40)\n      swap1\n      dup2\n      add\n      0x40\n      mstore\n      dup1\n      swap3\n      swap2\n      swap1\n      dup2\n      dup2\n      mstore\n      0x20\n      add\n      dup3\n      dup1\n      sload\n      tag_97\n      swap1\n      tag_91\n      jump\t// in\n    tag_97:\n      dup1\n      iszero\n      tag_98\n      jumpi\n      dup1\n      0x1f\n      lt\n      tag_99\n      jumpi\n      0x0100\n      dup1\n      dup4\n      sload\n      div\n      mul\n      dup4\n      mstore\n      swap2\n      0x20\n      add\n      swap2\n      jump(tag_98)\n    tag_99:\n      dup3\n      add\n      swap2\n      swap1\n      0x00\n      mstore\n      keccak256(0x00, 0x20)\n      swap1\n    tag_100:\n      dup2\n      sload\n      dup2\n      mstore\n      swap1\n      0x01\n      add\n      swap1\n      0x20\n      add\n      dup1\n      dup4\n      gt\n      tag_100\n      jumpi\n      dup3\n      swap1\n      sub\n      0x1f\n      and\n      dup3\n      add\n      swap2\n    tag_98:\n      pop\n      pop\n      pop\n      pop\n      pop\n      dup2\n      mstore\n      0x20\n      add\n      0x04\n      dup3\n      add\n      0x00\n      swap1\n      sload\n      swap1\n      0x0100\n      exp\n      swap1\n      div\n      0xffffffffffffffffffffffffffffffffffffffff\n      and\n      0xffffffffffffffffffffffffffffffffffffffff\n      and\n      0xffffffffffffffffffffffffffffffffffffffff\n      and\n      dup2\n      mstore\n      0x20\n      add\n      0x05\n      dup3\n      add\n      sload\n      dup2\n      mstore\n      pop\n      pop\n      swap1\n      pop\n        /* \"contracts/ProductTracking.sol\":1990:1993  lot */\n      dup1\n        /* \"contracts/ProductTracking.sol\":1990:1996  lot.id */\n      0x00\n      add\n      mload\n        /* \"contracts/ProductTracking.sol\":1998:2001  lot */\n      dup2\n        /* \"contracts/ProductTracking.sol\":1998:2014  lot.manufacturer */\n      0x20\n      add\n      mload\n        /* \"contracts/ProductTracking.sol\":2016:2019  lot */\n      dup3\n        /* \"contracts/ProductTracking.sol\":2016:2032  lot.productCount */\n      0x40\n      add\n      mload\n        /* \"contracts/ProductTracking.sol\":2034:2037  lot */\n      dup4\n        /* \"contracts/ProductTracking.sol\":2034:2049  lot.productName */\n      0x60\n      add\n      mload\n        /* \"contracts/ProductTracking.sol\":2051:2054  lot */\n      dup5\n        /* \"contracts/ProductTracking.sol\":2051:2067  lot.currentOwner */\n      0x80\n      add\n      mload\n        /* \"contracts/ProductTracking.sol\":2069:2072  lot */\n      dup6\n        /* \"contracts/ProductTracking.sol\":2069:2087  lot.dateOfPurchase */\n      0xa0\n      add\n      mload\n        /* \"contracts/ProductTracking.sol\":1982:2088  return (lot.id, lot.manufacturer, lot.productCount, lot.productName, lot.currentOwner, lot.dateOfPurchase) */\n      swap7\n      pop\n      swap7\n      pop\n      swap7\n      pop\n      swap7\n      pop\n      swap7\n      pop\n      swap7\n      pop\n      pop\n        /* \"contracts/ProductTracking.sol\":1807:2096  function getLotDetails(uint256 lotId) public view returns (uint256, string memory, uint256, string memory, address, uint256) {... */\n      swap2\n      swap4\n      swap6\n      pop\n      swap2\n      swap4\n      swap6\n      jump\t// out\n        /* \"contracts/ProductTracking.sol\":766:1297  function registerLot(string memory manufacturer, uint256 productCount, string memory productName) public isOwner {... */\n    tag_46:\n        /* \"contracts/Owner.sol\":366:371  owner */\n      0x00\n      dup1\n      sload\n      swap1\n      0x0100\n      exp\n      swap1\n      div\n      0xffffffffffffffffffffffffffffffffffffffff\n      and\n        /* \"contracts/Owner.sol\":352:371  msg.sender == owner */\n      0xffffffffffffffffffffffffffffffffffffffff\n      and\n        /* \"contracts/Owner.sol\":352:362  msg.sender */\n      caller\n        /* \"contracts/Owner.sol\":352:371  msg.sender == owner */\n      0xffffffffffffffffffffffffffffffffffffffff\n      and\n      eq\n        /* \"contracts/Owner.sol\":344:395  require(msg.sender == owner, \"Caller is not owner\") */\n      tag_102\n      jumpi\n      mload(0x40)\n      0x08c379a000000000000000000000000000000000000000000000000000000000\n      dup2\n      mstore\n      0x04\n      add\n      tag_103\n      swap1\n      tag_54\n      jump\t// in\n    tag_103:\n      mload(0x40)\n      dup1\n      swap2\n      sub\n      swap1\n      revert\n    tag_102:\n        /* \"contracts/ProductTracking.sol\":890:900  lotCounter */\n      0x02\n      0x00\n        /* \"contracts/ProductTracking.sol\":890:902  lotCounter++ */\n      dup2\n      sload\n      dup1\n      swap3\n      swap2\n      swap1\n      tag_105\n      swap1\n      tag_106\n      jump\t// in\n    tag_105:\n      swap2\n      swap1\n      pop\n      sstore\n      pop\n        /* \"contracts/ProductTracking.sol\":913:929  uint256 newLotId */\n      0x00\n        /* \"contracts/ProductTracking.sol\":932:942  lotCounter */\n      sload(0x02)\n        /* \"contracts/ProductTracking.sol\":913:942  uint256 newLotId = lotCounter */\n      swap1\n      pop\n        /* \"contracts/ProductTracking.sol\":972:1221  Lot({... */\n      mload(0x40)\n      dup1\n      0xc0\n      add\n      0x40\n      mstore\n      dup1\n        /* \"contracts/ProductTracking.sol\":995:1003  newLotId */\n      dup3\n        /* \"contracts/ProductTracking.sol\":972:1221  Lot({... */\n      dup2\n      mstore\n      0x20\n      add\n        /* \"contracts/ProductTracking.sol\":1032:1044  manufacturer */\n      dup6\n        /* \"contracts/ProductTracking.sol\":972:1221  Lot({... */\n      dup2\n      mstore\n      0x20\n      add\n        /* \"contracts/ProductTracking.sol\":1073:1085  productCount */\n      dup5\n        /* \"contracts/ProductTracking.sol\":972:1221  Lot({... */\n      dup2\n      mstore\n      0x20\n      add\n        /* \"contracts/ProductTracking.sol\":1113:1124  productName */\n      dup4\n        /* \"contracts/ProductTracking.sol\":972:1221  Lot({... */\n      dup2\n      mstore\n      0x20\n      add\n        /* \"contracts/ProductTracking.sol\":1153:1163  msg.sender */\n      caller\n        /* \"contracts/ProductTracking.sol\":972:1221  Lot({... */\n      0xffffffffffffffffffffffffffffffffffffffff\n      and\n      dup2\n      mstore\n      0x20\n      add\n        /* \"contracts/ProductTracking.sol\":1194:1209  block.timestamp */\n      timestamp\n        /* \"contracts/ProductTracking.sol\":972:1221  Lot({... */\n      dup2\n      mstore\n      pop\n        /* \"contracts/ProductTracking.sol\":955:959  lots */\n      0x03\n        /* \"contracts/ProductTracking.sol\":955:969  lots[newLotId] */\n      0x00\n        /* \"contracts/ProductTracking.sol\":960:968  newLotId */\n      dup4\n        /* \"contracts/ProductTracking.sol\":955:969  lots[newLotId] */\n      dup2\n      mstore\n      0x20\n      add\n      swap1\n      dup2\n      mstore\n      0x20\n      add\n      0x00\n      keccak256\n        /* \"contracts/ProductTracking.sol\":955:1221  lots[newLotId] = Lot({... */\n      0x00\n      dup3\n      add\n      mload\n      dup2\n      0x00\n      add\n      sstore\n      0x20\n      dup3\n      add\n      mload\n      dup2\n      0x01\n      add\n      swap1\n      dup2\n      tag_107\n      swap2\n      swap1\n      tag_108\n      jump\t// in\n    tag_107:\n      pop\n      0x40\n      dup3\n      add\n      mload\n      dup2\n      0x02\n      add\n      sstore\n      0x60\n      dup3\n      add\n      mload\n      dup2\n      0x03\n      add\n      swap1\n      dup2\n      tag_109\n      swap2\n      swap1\n      tag_108\n      jump\t// in\n    tag_109:\n      pop\n      0x80\n      dup3\n      add\n      mload\n      dup2\n      0x04\n      add\n      exp(0x0100, 0x00)\n      dup2\n      sload\n      dup2\n      0xffffffffffffffffffffffffffffffffffffffff\n      mul\n      not\n      and\n      swap1\n      dup4\n      0xffffffffffffffffffffffffffffffffffffffff\n      and\n      mul\n      or\n      swap1\n      sstore\n      pop\n      0xa0\n      dup3\n      add\n      mload\n      dup2\n      0x05\n      add\n      sstore\n      swap1\n      pop\n      pop\n        /* \"contracts/ProductTracking.sol\":1239:1289  LotRegistered(newLotId, manufacturer, productName) */\n      0x15b6890af0e66873b46f545c2578a72329a3f376146d1847dd82e30d4b37bfd6\n        /* \"contracts/ProductTracking.sol\":1253:1261  newLotId */\n      dup2\n        /* \"contracts/ProductTracking.sol\":1263:1275  manufacturer */\n      dup6\n        /* \"contracts/ProductTracking.sol\":1277:1288  productName */\n      dup5\n        /* \"contracts/ProductTracking.sol\":1239:1289  LotRegistered(newLotId, manufacturer, productName) */\n      mload(0x40)\n      tag_110\n      swap4\n      swap3\n      swap2\n      swap1\n      tag_111\n      jump\t// in\n    tag_110:\n      mload(0x40)\n      dup1\n      swap2\n      sub\n      swap1\n      log1\n        /* \"contracts/ProductTracking.sol\":879:1297  {... */\n      pop\n        /* \"contracts/ProductTracking.sol\":766:1297  function registerLot(string memory manufacturer, uint256 productCount, string memory productName) public isOwner {... */\n      pop\n      pop\n      pop\n      jump\t// out\n        /* \"contracts/ProductTracking.sol\":478:513  mapping(uint256 => Lot) public lots */\n    tag_49:\n      mstore(0x20, 0x03)\n      dup1\n      0x00\n      mstore\n      keccak256(0x00, 0x40)\n      0x00\n      swap2\n      pop\n      swap1\n      pop\n      dup1\n      0x00\n      add\n      sload\n      swap1\n      dup1\n      0x01\n      add\n      dup1\n      sload\n      tag_112\n      swap1\n      tag_91\n      jump\t// in\n    tag_112:\n      dup1\n      0x1f\n      add\n      0x20\n      dup1\n      swap2\n      div\n      mul\n      0x20\n      add\n      mload(0x40)\n      swap1\n      dup2\n      add\n      0x40\n      mstore\n      dup1\n      swap3\n      swap2\n      swap1\n      dup2\n      dup2\n      mstore\n      0x20\n      add\n      dup3\n      dup1\n      sload\n      tag_113\n      swap1\n      tag_91\n      jump\t// in\n    tag_113:\n      dup1\n      iszero\n      tag_114\n      jumpi\n      dup1\n      0x1f\n      lt\n      tag_115\n      jumpi\n      0x0100\n      dup1\n      dup4\n      sload\n      div\n      mul\n      dup4\n      mstore\n      swap2\n      0x20\n      add\n      swap2\n      jump(tag_114)\n    tag_115:\n      dup3\n      add\n      swap2\n      swap1\n      0x00\n      mstore\n      keccak256(0x00, 0x20)\n      swap1\n    tag_116:\n      dup2\n      sload\n      dup2\n      mstore\n      swap1\n      0x01\n      add\n      swap1\n      0x20\n      add\n      dup1\n      dup4\n      gt\n      tag_116\n      jumpi\n      dup3\n      swap1\n      sub\n      0x1f\n      and\n      dup3\n      add\n      swap2\n    tag_114:\n      pop\n      pop\n      pop\n      pop\n      pop\n      swap1\n      dup1\n      0x02\n      add\n      sload\n      swap1\n      dup1\n      0x03\n      add\n      dup1\n      sload\n      tag_117\n      swap1\n      tag_91\n      jump\t// in\n    tag_117:\n      dup1\n      0x1f\n      add\n      0x20\n      dup1\n      swap2\n      div\n      mul\n      0x20\n      add\n      mload(0x40)\n      swap1\n      dup2\n      add\n      0x40\n      mstore\n      dup1\n      swap3\n      swap2\n      swap1\n      dup2\n      dup2\n      mstore\n      0x20\n      add\n      dup3\n      dup1\n      sload\n      tag_118\n      swap1\n      tag_91\n      jump\t// in\n    tag_118:\n      dup1\n      iszero\n      tag_119\n      jumpi\n      dup1\n      0x1f\n      lt\n      tag_120\n      jumpi\n      0x0100\n      dup1\n      dup4\n      sload\n      div\n      mul\n      dup4\n      mstore\n      swap2\n      0x20\n      add\n      swap2\n      jump(tag_119)\n    tag_120:\n      dup3\n      add\n      swap2\n      swap1\n      0x00\n      mstore\n      keccak256(0x00, 0x20)\n      swap1\n    tag_121:\n      dup2\n      sload\n      dup2\n      mstore\n      swap1\n      0x01\n      add\n      swap1\n      0x20\n      add\n      dup1\n      dup4\n      gt\n      tag_121\n      jumpi\n      dup3\n      swap1\n      sub\n      0x1f\n      and\n      dup3\n      add\n      swap2\n    tag_119:\n      pop\n      pop\n      pop\n      pop\n      pop\n      swap1\n      dup1\n      0x04\n      add\n      0x00\n      swap1\n      sload\n      swap1\n      0x0100\n      exp\n      swap1\n      div\n      0xffffffffffffffffffffffffffffffffffffffff\n      and\n      swap1\n      dup1\n      0x05\n      add\n      sload\n      swap1\n      pop\n      dup7\n      jump\t// out\n        /* \"contracts/WhiteList.sol\":318:439  function isWhitelisted(address beneficiary) internal view returns (bool) {... */\n    tag_80:\n        /* \"contracts/WhiteList.sol\":385:389  bool */\n      0x00\n        /* \"contracts/WhiteList.sol\":409:418  whitelist */\n      0x01\n        /* \"contracts/WhiteList.sol\":409:431  whitelist[beneficiary] */\n      0x00\n        /* \"contracts/WhiteList.sol\":419:430  beneficiary */\n      dup4\n        /* \"contracts/WhiteList.sol\":409:431  whitelist[beneficiary] */\n      0xffffffffffffffffffffffffffffffffffffffff\n      and\n      0xffffffffffffffffffffffffffffffffffffffff\n      and\n      dup2\n      mstore\n      0x20\n      add\n      swap1\n      dup2\n      mstore\n      0x20\n      add\n      0x00\n      keccak256\n      0x00\n      swap1\n      sload\n      swap1\n      0x0100\n      exp\n      swap1\n      div\n      0xff\n      and\n        /* \"contracts/WhiteList.sol\":402:431  return whitelist[beneficiary] */\n      swap1\n      pop\n        /* \"contracts/WhiteList.sol\":318:439  function isWhitelisted(address beneficiary) internal view returns (bool) {... */\n      swap2\n      swap1\n      pop\n      jump\t// out\n        /* \"#utility.yul\":7:82   */\n    tag_123:\n        /* \"#utility.yul\":40:46   */\n      0x00\n        /* \"#utility.yul\":73:75   */\n      0x40\n        /* \"#utility.yul\":67:76   */\n      mload\n        /* \"#utility.yul\":57:76   */\n      swap1\n      pop\n        /* \"#utility.yul\":7:82   */\n      swap1\n      jump\t// out\n        /* \"#utility.yul\":88:205   */\n    tag_124:\n        /* \"#utility.yul\":197:198   */\n      0x00\n        /* \"#utility.yul\":194:195   */\n      dup1\n        /* \"#utility.yul\":187:199   */\n      revert\n        /* \"#utility.yul\":211:328   */\n    tag_125:\n        /* \"#utility.yul\":320:321   */\n      0x00\n        /* \"#utility.yul\":317:318   */\n      dup1\n        /* \"#utility.yul\":310:322   */\n      revert\n        /* \"#utility.yul\":334:451   */\n    tag_126:\n        /* \"#utility.yul\":443:444   */\n      0x00\n        /* \"#utility.yul\":440:441   */\n      dup1\n        /* \"#utility.yul\":433:445   */\n      revert\n        /* \"#utility.yul\":457:574   */\n    tag_127:\n        /* \"#utility.yul\":566:567   */\n      0x00\n        /* \"#utility.yul\":563:564   */\n      dup1\n        /* \"#utility.yul\":556:568   */\n      revert\n        /* \"#utility.yul\":580:697   */\n    tag_128:\n        /* \"#utility.yul\":689:690   */\n      0x00\n        /* \"#utility.yul\":686:687   */\n      dup1\n        /* \"#utility.yul\":679:691   */\n      revert\n        /* \"#utility.yul\":720:1288   */\n    tag_129:\n        /* \"#utility.yul\":793:801   */\n      0x00\n        /* \"#utility.yul\":803:809   */\n      dup1\n        /* \"#utility.yul\":853:856   */\n      dup4\n        /* \"#utility.yul\":846:850   */\n      0x1f\n        /* \"#utility.yul\":838:844   */\n      dup5\n        /* \"#utility.yul\":834:851   */\n      add\n        /* \"#utility.yul\":830:857   */\n      slt\n        /* \"#utility.yul\":820:942   */\n      tag_187\n      jumpi\n        /* \"#utility.yul\":861:940   */\n      tag_188\n      tag_126\n      jump\t// in\n    tag_188:\n        /* \"#utility.yul\":820:942   */\n    tag_187:\n        /* \"#utility.yul\":974:980   */\n      dup3\n        /* \"#utility.yul\":961:981   */\n      calldataload\n        /* \"#utility.yul\":951:981   */\n      swap1\n      pop\n        /* \"#utility.yul\":1004:1022   */\n      0xffffffffffffffff\n        /* \"#utility.yul\":996:1002   */\n      dup2\n        /* \"#utility.yul\":993:1023   */\n      gt\n        /* \"#utility.yul\":990:1107   */\n      iszero\n      tag_189\n      jumpi\n        /* \"#utility.yul\":1026:1105   */\n      tag_190\n      tag_127\n      jump\t// in\n    tag_190:\n        /* \"#utility.yul\":990:1107   */\n    tag_189:\n        /* \"#utility.yul\":1140:1144   */\n      0x20\n        /* \"#utility.yul\":1132:1138   */\n      dup4\n        /* \"#utility.yul\":1128:1145   */\n      add\n        /* \"#utility.yul\":1116:1145   */\n      swap2\n      pop\n        /* \"#utility.yul\":1194:1197   */\n      dup4\n        /* \"#utility.yul\":1186:1190   */\n      0x20\n        /* \"#utility.yul\":1178:1184   */\n      dup3\n        /* \"#utility.yul\":1174:1191   */\n      mul\n        /* \"#utility.yul\":1164:1172   */\n      dup4\n        /* \"#utility.yul\":1160:1192   */\n      add\n        /* \"#utility.yul\":1157:1198   */\n      gt\n        /* \"#utility.yul\":1154:1282   */\n      iszero\n      tag_191\n      jumpi\n        /* \"#utility.yul\":1201:1280   */\n      tag_192\n      tag_128\n      jump\t// in\n    tag_192:\n        /* \"#utility.yul\":1154:1282   */\n    tag_191:\n        /* \"#utility.yul\":720:1288   */\n      swap3\n      pop\n      swap3\n      swap1\n      pop\n      jump\t// out\n        /* \"#utility.yul\":1294:1853   */\n    tag_15:\n        /* \"#utility.yul\":1380:1386   */\n      0x00\n        /* \"#utility.yul\":1388:1394   */\n      dup1\n        /* \"#utility.yul\":1437:1439   */\n      0x20\n        /* \"#utility.yul\":1425:1434   */\n      dup4\n        /* \"#utility.yul\":1416:1423   */\n      dup6\n        /* \"#utility.yul\":1412:1435   */\n      sub\n        /* \"#utility.yul\":1408:1440   */\n      slt\n        /* \"#utility.yul\":1405:1524   */\n      iszero\n      tag_194\n      jumpi\n        /* \"#utility.yul\":1443:1522   */\n      tag_195\n      tag_124\n      jump\t// in\n    tag_195:\n        /* \"#utility.yul\":1405:1524   */\n    tag_194:\n        /* \"#utility.yul\":1591:1592   */\n      0x00\n        /* \"#utility.yul\":1580:1589   */\n      dup4\n        /* \"#utility.yul\":1576:1593   */\n      add\n        /* \"#utility.yul\":1563:1594   */\n      calldataload\n        /* \"#utility.yul\":1621:1639   */\n      0xffffffffffffffff\n        /* \"#utility.yul\":1613:1619   */\n      dup2\n        /* \"#utility.yul\":1610:1640   */\n      gt\n        /* \"#utility.yul\":1607:1724   */\n      iszero\n      tag_196\n      jumpi\n        /* \"#utility.yul\":1643:1722   */\n      tag_197\n      tag_125\n      jump\t// in\n    tag_197:\n        /* \"#utility.yul\":1607:1724   */\n    tag_196:\n        /* \"#utility.yul\":1756:1836   */\n      tag_198\n        /* \"#utility.yul\":1828:1835   */\n      dup6\n        /* \"#utility.yul\":1819:1825   */\n      dup3\n        /* \"#utility.yul\":1808:1817   */\n      dup7\n        /* \"#utility.yul\":1804:1826   */\n      add\n        /* \"#utility.yul\":1756:1836   */\n      tag_129\n      jump\t// in\n    tag_198:\n        /* \"#utility.yul\":1738:1836   */\n      swap3\n      pop\n      swap3\n      pop\n        /* \"#utility.yul\":1534:1846   */\n      pop\n        /* \"#utility.yul\":1294:1853   */\n      swap3\n      pop\n      swap3\n      swap1\n      pop\n      jump\t// out\n        /* \"#utility.yul\":1859:1985   */\n    tag_130:\n        /* \"#utility.yul\":1896:1903   */\n      0x00\n        /* \"#utility.yul\":1936:1978   */\n      0xffffffffffffffffffffffffffffffffffffffff\n        /* \"#utility.yul\":1929:1934   */\n      dup3\n        /* \"#utility.yul\":1925:1979   */\n      and\n        /* \"#utility.yul\":1914:1979   */\n      swap1\n      pop\n        /* \"#utility.yul\":1859:1985   */\n      swap2\n      swap1\n      pop\n      jump\t// out\n        /* \"#utility.yul\":1991:2087   */\n    tag_131:\n        /* \"#utility.yul\":2028:2035   */\n      0x00\n        /* \"#utility.yul\":2057:2081   */\n      tag_201\n        /* \"#utility.yul\":2075:2080   */\n      dup3\n        /* \"#utility.yul\":2057:2081   */\n      tag_130\n      jump\t// in\n    tag_201:\n        /* \"#utility.yul\":2046:2081   */\n      swap1\n      pop\n        /* \"#utility.yul\":1991:2087   */\n      swap2\n      swap1\n      pop\n      jump\t// out\n        /* \"#utility.yul\":2093:2211   */\n    tag_132:\n        /* \"#utility.yul\":2180:2204   */\n      tag_203\n        /* \"#utility.yul\":2198:2203   */\n      dup2\n        /* \"#utility.yul\":2180:2204   */\n      tag_131\n      jump\t// in\n    tag_203:\n        /* \"#utility.yul\":2175:2178   */\n      dup3\n        /* \"#utility.yul\":2168:2205   */\n      mstore\n        /* \"#utility.yul\":2093:2211   */\n      pop\n      pop\n      jump\t// out\n        /* \"#utility.yul\":2217:2439   */\n    tag_20:\n        /* \"#utility.yul\":2310:2314   */\n      0x00\n        /* \"#utility.yul\":2348:2350   */\n      0x20\n        /* \"#utility.yul\":2337:2346   */\n      dup3\n        /* \"#utility.yul\":2333:2351   */\n      add\n        /* \"#utility.yul\":2325:2351   */\n      swap1\n      pop\n        /* \"#utility.yul\":2361:2432   */\n      tag_205\n        /* \"#utility.yul\":2429:2430   */\n      0x00\n        /* \"#utility.yul\":2418:2427   */\n      dup4\n        /* \"#utility.yul\":2414:2431   */\n      add\n        /* \"#utility.yul\":2405:2411   */\n      dup5\n        /* \"#utility.yul\":2361:2432   */\n      tag_132\n      jump\t// in\n    tag_205:\n        /* \"#utility.yul\":2217:2439   */\n      swap3\n      swap2\n      pop\n      pop\n      jump\t// out\n        /* \"#utility.yul\":2445:2567   */\n    tag_133:\n        /* \"#utility.yul\":2518:2542   */\n      tag_207\n        /* \"#utility.yul\":2536:2541   */\n      dup2\n        /* \"#utility.yul\":2518:2542   */\n      tag_131\n      jump\t// in\n    tag_207:\n        /* \"#utility.yul\":2511:2516   */\n      dup2\n        /* \"#utility.yul\":2508:2543   */\n      eq\n        /* \"#utility.yul\":2498:2561   */\n      tag_208\n      jumpi\n        /* \"#utility.yul\":2557:2558   */\n      0x00\n        /* \"#utility.yul\":2554:2555   */\n      dup1\n        /* \"#utility.yul\":2547:2559   */\n      revert\n        /* \"#utility.yul\":2498:2561   */\n    tag_208:\n        /* \"#utility.yul\":2445:2567   */\n      pop\n      jump\t// out\n        /* \"#utility.yul\":2573:2712   */\n    tag_134:\n        /* \"#utility.yul\":2619:2624   */\n      0x00\n        /* \"#utility.yul\":2657:2663   */\n      dup2\n        /* \"#utility.yul\":2644:2664   */\n      calldataload\n        /* \"#utility.yul\":2635:2664   */\n      swap1\n      pop\n        /* \"#utility.yul\":2673:2706   */\n      tag_210\n        /* \"#utility.yul\":2700:2705   */\n      dup2\n        /* \"#utility.yul\":2673:2706   */\n      tag_133\n      jump\t// in\n    tag_210:\n        /* \"#utility.yul\":2573:2712   */\n      swap3\n      swap2\n      pop\n      pop\n      jump\t// out\n        /* \"#utility.yul\":2718:3047   */\n    tag_23:\n        /* \"#utility.yul\":2777:2783   */\n      0x00\n        /* \"#utility.yul\":2826:2828   */\n      0x20\n        /* \"#utility.yul\":2814:2823   */\n      dup3\n        /* \"#utility.yul\":2805:2812   */\n      dup5\n        /* \"#utility.yul\":2801:2824   */\n      sub\n        /* \"#utility.yul\":2797:2829   */\n      slt\n        /* \"#utility.yul\":2794:2913   */\n      iszero\n      tag_212\n      jumpi\n        /* \"#utility.yul\":2832:2911   */\n      tag_213\n      tag_124\n      jump\t// in\n    tag_213:\n        /* \"#utility.yul\":2794:2913   */\n    tag_212:\n        /* \"#utility.yul\":2952:2953   */\n      0x00\n        /* \"#utility.yul\":2977:3030   */\n      tag_214\n        /* \"#utility.yul\":3022:3029   */\n      dup5\n        /* \"#utility.yul\":3013:3019   */\n      dup3\n        /* \"#utility.yul\":3002:3011   */\n      dup6\n        /* \"#utility.yul\":2998:3020   */\n      add\n        /* \"#utility.yul\":2977:3030   */\n      tag_134\n      jump\t// in\n    tag_214:\n        /* \"#utility.yul\":2967:3030   */\n      swap2\n      pop\n        /* \"#utility.yul\":2923:3040   */\n      pop\n        /* \"#utility.yul\":2718:3047   */\n      swap3\n      swap2\n      pop\n      pop\n      jump\t// out\n        /* \"#utility.yul\":3053:3143   */\n    tag_135:\n        /* \"#utility.yul\":3087:3094   */\n      0x00\n        /* \"#utility.yul\":3130:3135   */\n      dup2\n        /* \"#utility.yul\":3123:3136   */\n      iszero\n        /* \"#utility.yul\":3116:3137   */\n      iszero\n        /* \"#utility.yul\":3105:3137   */\n      swap1\n      pop\n        /* \"#utility.yul\":3053:3143   */\n      swap2\n      swap1\n      pop\n      jump\t// out\n        /* \"#utility.yul\":3149:3258   */\n    tag_136:\n        /* \"#utility.yul\":3230:3251   */\n      tag_217\n        /* \"#utility.yul\":3245:3250   */\n      dup2\n        /* \"#utility.yul\":3230:3251   */\n      tag_135\n      jump\t// in\n    tag_217:\n        /* \"#utility.yul\":3225:3228   */\n      dup3\n        /* \"#utility.yul\":3218:3252   */\n      mstore\n        /* \"#utility.yul\":3149:3258   */\n      pop\n      pop\n      jump\t// out\n        /* \"#utility.yul\":3264:3474   */\n    tag_29:\n        /* \"#utility.yul\":3351:3355   */\n      0x00\n        /* \"#utility.yul\":3389:3391   */\n      0x20\n        /* \"#utility.yul\":3378:3387   */\n      dup3\n        /* \"#utility.yul\":3374:3392   */\n      add\n        /* \"#utility.yul\":3366:3392   */\n      swap1\n      pop\n        /* \"#utility.yul\":3402:3467   */\n      tag_219\n        /* \"#utility.yul\":3464:3465   */\n      0x00\n        /* \"#utility.yul\":3453:3462   */\n      dup4\n        /* \"#utility.yul\":3449:3466   */\n      add\n        /* \"#utility.yul\":3440:3446   */\n      dup5\n        /* \"#utility.yul\":3402:3467   */\n      tag_136\n      jump\t// in\n    tag_219:\n        /* \"#utility.yul\":3264:3474   */\n      swap3\n      swap2\n      pop\n      pop\n      jump\t// out\n        /* \"#utility.yul\":3480:3557   */\n    tag_137:\n        /* \"#utility.yul\":3517:3524   */\n      0x00\n        /* \"#utility.yul\":3546:3551   */\n      dup2\n        /* \"#utility.yul\":3535:3551   */\n      swap1\n      pop\n        /* \"#utility.yul\":3480:3557   */\n      swap2\n      swap1\n      pop\n      jump\t// out\n        /* \"#utility.yul\":3563:3685   */\n    tag_138:\n        /* \"#utility.yul\":3636:3660   */\n      tag_222\n        /* \"#utility.yul\":3654:3659   */\n      dup2\n        /* \"#utility.yul\":3636:3660   */\n      tag_137\n      jump\t// in\n    tag_222:\n        /* \"#utility.yul\":3629:3634   */\n      dup2\n        /* \"#utility.yul\":3626:3661   */\n      eq\n        /* \"#utility.yul\":3616:3679   */\n      tag_223\n      jumpi\n        /* \"#utility.yul\":3675:3676   */\n      0x00\n        /* \"#utility.yul\":3672:3673   */\n      dup1\n        /* \"#utility.yul\":3665:3677   */\n      revert\n        /* \"#utility.yul\":3616:3679   */\n    tag_223:\n        /* \"#utility.yul\":3563:3685   */\n      pop\n      jump\t// out\n        /* \"#utility.yul\":3691:3830   */\n    tag_139:\n        /* \"#utility.yul\":3737:3742   */\n      0x00\n        /* \"#utility.yul\":3775:3781   */\n      dup2\n        /* \"#utility.yul\":3762:3782   */\n      calldataload\n        /* \"#utility.yul\":3753:3782   */\n      swap1\n      pop\n        /* \"#utility.yul\":3791:3824   */\n      tag_225\n        /* \"#utility.yul\":3818:3823   */\n      dup2\n        /* \"#utility.yul\":3791:3824   */\n      tag_138\n      jump\t// in\n    tag_225:\n        /* \"#utility.yul\":3691:3830   */\n      swap3\n      swap2\n      pop\n      pop\n      jump\t// out\n        /* \"#utility.yul\":3836:4310   */\n    tag_35:\n        /* \"#utility.yul\":3904:3910   */\n      0x00\n        /* \"#utility.yul\":3912:3918   */\n      dup1\n        /* \"#utility.yul\":3961:3963   */\n      0x40\n        /* \"#utility.yul\":3949:3958   */\n      dup4\n        /* \"#utility.yul\":3940:3947   */\n      dup6\n        /* \"#utility.yul\":3936:3959   */\n      sub\n        /* \"#utility.yul\":3932:3964   */\n      slt\n        /* \"#utility.yul\":3929:4048   */\n      iszero\n      tag_227\n      jumpi\n        /* \"#utility.yul\":3967:4046   */\n      tag_228\n      tag_124\n      jump\t// in\n    tag_228:\n        /* \"#utility.yul\":3929:4048   */\n    tag_227:\n        /* \"#utility.yul\":4087:4088   */\n      0x00\n        /* \"#utility.yul\":4112:4165   */\n      tag_229\n        /* \"#utility.yul\":4157:4164   */\n      dup6\n        /* \"#utility.yul\":4148:4154   */\n      dup3\n        /* \"#utility.yul\":4137:4146   */\n      dup7\n        /* \"#utility.yul\":4133:4155   */\n      add\n        /* \"#utility.yul\":4112:4165   */\n      tag_139\n      jump\t// in\n    tag_229:\n        /* \"#utility.yul\":4102:4165   */\n      swap3\n      pop\n        /* \"#utility.yul\":4058:4175   */\n      pop\n        /* \"#utility.yul\":4214:4216   */\n      0x20\n        /* \"#utility.yul\":4240:4293   */\n      tag_230\n        /* \"#utility.yul\":4285:4292   */\n      dup6\n        /* \"#utility.yul\":4276:4282   */\n      dup3\n        /* \"#utility.yul\":4265:4274   */\n      dup7\n        /* \"#utility.yul\":4261:4283   */\n      add\n        /* \"#utility.yul\":4240:4293   */\n      tag_134\n      jump\t// in\n    tag_230:\n        /* \"#utility.yul\":4230:4293   */\n      swap2\n      pop\n        /* \"#utility.yul\":4185:4303   */\n      pop\n        /* \"#utility.yul\":3836:4310   */\n      swap3\n      pop\n      swap3\n      swap1\n      pop\n      jump\t// out\n        /* \"#utility.yul\":4316:4645   */\n    tag_39:\n        /* \"#utility.yul\":4375:4381   */\n      0x00\n        /* \"#utility.yul\":4424:4426   */\n      0x20\n        /* \"#utility.yul\":4412:4421   */\n      dup3\n        /* \"#utility.yul\":4403:4410   */\n      dup5\n        /* \"#utility.yul\":4399:4422   */\n      sub\n        /* \"#utility.yul\":4395:4427   */\n      slt\n        /* \"#utility.yul\":4392:4511   */\n      iszero\n      tag_232\n      jumpi\n        /* \"#utility.yul\":4430:4509   */\n      tag_233\n      tag_124\n      jump\t// in\n    tag_233:\n        /* \"#utility.yul\":4392:4511   */\n    tag_232:\n        /* \"#utility.yul\":4550:4551   */\n      0x00\n        /* \"#utility.yul\":4575:4628   */\n      tag_234\n        /* \"#utility.yul\":4620:4627   */\n      dup5\n        /* \"#utility.yul\":4611:4617   */\n      dup3\n        /* \"#utility.yul\":4600:4609   */\n      dup6\n        /* \"#utility.yul\":4596:4618   */\n      add\n        /* \"#utility.yul\":4575:4628   */\n      tag_139\n      jump\t// in\n    tag_234:\n        /* \"#utility.yul\":4565:4628   */\n      swap2\n      pop\n        /* \"#utility.yul\":4521:4638   */\n      pop\n        /* \"#utility.yul\":4316:4645   */\n      swap3\n      swap2\n      pop\n      pop\n      jump\t// out\n        /* \"#utility.yul\":4651:4769   */\n    tag_140:\n        /* \"#utility.yul\":4738:4762   */\n      tag_236\n        /* \"#utility.yul\":4756:4761   */\n      dup2\n        /* \"#utility.yul\":4738:4762   */\n      tag_137\n      jump\t// in\n    tag_236:\n        /* \"#utility.yul\":4733:4736   */\n      dup3\n        /* \"#utility.yul\":4726:4763   */\n      mstore\n        /* \"#utility.yul\":4651:4769   */\n      pop\n      pop\n      jump\t// out\n        /* \"#utility.yul\":4775:4874   */\n    tag_141:\n        /* \"#utility.yul\":4827:4833   */\n      0x00\n        /* \"#utility.yul\":4861:4866   */\n      dup2\n        /* \"#utility.yul\":4855:4867   */\n      mload\n        /* \"#utility.yul\":4845:4867   */\n      swap1\n      pop\n        /* \"#utility.yul\":4775:4874   */\n      swap2\n      swap1\n      pop\n      jump\t// out\n        /* \"#utility.yul\":4880:5049   */\n    tag_142:\n        /* \"#utility.yul\":4964:4975   */\n      0x00\n        /* \"#utility.yul\":4998:5004   */\n      dup3\n        /* \"#utility.yul\":4993:4996   */\n      dup3\n        /* \"#utility.yul\":4986:5005   */\n      mstore\n        /* \"#utility.yul\":5038:5042   */\n      0x20\n        /* \"#utility.yul\":5033:5036   */\n      dup3\n        /* \"#utility.yul\":5029:5043   */\n      add\n        /* \"#utility.yul\":5014:5043   */\n      swap1\n      pop\n        /* \"#utility.yul\":4880:5049   */\n      swap3\n      swap2\n      pop\n      pop\n      jump\t// out\n        /* \"#utility.yul\":5055:5194   */\n    tag_143:\n        /* \"#utility.yul\":5144:5150   */\n      dup3\n        /* \"#utility.yul\":5139:5142   */\n      dup2\n        /* \"#utility.yul\":5134:5137   */\n      dup4\n        /* \"#utility.yul\":5128:5151   */\n      mcopy\n        /* \"#utility.yul\":5185:5186   */\n      0x00\n        /* \"#utility.yul\":5176:5182   */\n      dup4\n        /* \"#utility.yul\":5171:5174   */\n      dup4\n        /* \"#utility.yul\":5167:5183   */\n      add\n        /* \"#utility.yul\":5160:5187   */\n      mstore\n        /* \"#utility.yul\":5055:5194   */\n      pop\n      pop\n      pop\n      jump\t// out\n        /* \"#utility.yul\":5200:5302   */\n    tag_144:\n        /* \"#utility.yul\":5241:5247   */\n      0x00\n        /* \"#utility.yul\":5292:5294   */\n      0x1f\n        /* \"#utility.yul\":5288:5295   */\n      not\n        /* \"#utility.yul\":5283:5285   */\n      0x1f\n        /* \"#utility.yul\":5276:5281   */\n      dup4\n        /* \"#utility.yul\":5272:5286   */\n      add\n        /* \"#utility.yul\":5268:5296   */\n      and\n        /* \"#utility.yul\":5258:5296   */\n      swap1\n      pop\n        /* \"#utility.yul\":5200:5302   */\n      swap2\n      swap1\n      pop\n      jump\t// out\n        /* \"#utility.yul\":5308:5685   */\n    tag_145:\n        /* \"#utility.yul\":5396:5399   */\n      0x00\n        /* \"#utility.yul\":5424:5463   */\n      tag_242\n        /* \"#utility.yul\":5457:5462   */\n      dup3\n        /* \"#utility.yul\":5424:5463   */\n      tag_141\n      jump\t// in\n    tag_242:\n        /* \"#utility.yul\":5479:5550   */\n      tag_243\n        /* \"#utility.yul\":5543:5549   */\n      dup2\n        /* \"#utility.yul\":5538:5541   */\n      dup6\n        /* \"#utility.yul\":5479:5550   */\n      tag_142\n      jump\t// in\n    tag_243:\n        /* \"#utility.yul\":5472:5550   */\n      swap4\n      pop\n        /* \"#utility.yul\":5559:5624   */\n      tag_244\n        /* \"#utility.yul\":5617:5623   */\n      dup2\n        /* \"#utility.yul\":5612:5615   */\n      dup6\n        /* \"#utility.yul\":5605:5609   */\n      0x20\n        /* \"#utility.yul\":5598:5603   */\n      dup7\n        /* \"#utility.yul\":5594:5610   */\n      add\n        /* \"#utility.yul\":5559:5624   */\n      tag_143\n      jump\t// in\n    tag_244:\n        /* \"#utility.yul\":5649:5678   */\n      tag_245\n        /* \"#utility.yul\":5671:5677   */\n      dup2\n        /* \"#utility.yul\":5649:5678   */\n      tag_144\n      jump\t// in\n    tag_245:\n        /* \"#utility.yul\":5644:5647   */\n      dup5\n        /* \"#utility.yul\":5640:5679   */\n      add\n        /* \"#utility.yul\":5633:5679   */\n      swap2\n      pop\n        /* \"#utility.yul\":5400:5685   */\n      pop\n        /* \"#utility.yul\":5308:5685   */\n      swap3\n      swap2\n      pop\n      pop\n      jump\t// out\n        /* \"#utility.yul\":5691:6648   */\n    tag_42:\n        /* \"#utility.yul\":5964:5968   */\n      0x00\n        /* \"#utility.yul\":6002:6005   */\n      0xc0\n        /* \"#utility.yul\":5991:6000   */\n      dup3\n        /* \"#utility.yul\":5987:6006   */\n      add\n        /* \"#utility.yul\":5979:6006   */\n      swap1\n      pop\n        /* \"#utility.yul\":6016:6087   */\n      tag_247\n        /* \"#utility.yul\":6084:6085   */\n      0x00\n        /* \"#utility.yul\":6073:6082   */\n      dup4\n        /* \"#utility.yul\":6069:6086   */\n      add\n        /* \"#utility.yul\":6060:6066   */\n      dup10\n        /* \"#utility.yul\":6016:6087   */\n      tag_140\n      jump\t// in\n    tag_247:\n        /* \"#utility.yul\":6134:6143   */\n      dup2\n        /* \"#utility.yul\":6128:6132   */\n      dup2\n        /* \"#utility.yul\":6124:6144   */\n      sub\n        /* \"#utility.yul\":6119:6121   */\n      0x20\n        /* \"#utility.yul\":6108:6117   */\n      dup4\n        /* \"#utility.yul\":6104:6122   */\n      add\n        /* \"#utility.yul\":6097:6145   */\n      mstore\n        /* \"#utility.yul\":6162:6240   */\n      tag_248\n        /* \"#utility.yul\":6235:6239   */\n      dup2\n        /* \"#utility.yul\":6226:6232   */\n      dup9\n        /* \"#utility.yul\":6162:6240   */\n      tag_145\n      jump\t// in\n    tag_248:\n        /* \"#utility.yul\":6154:6240   */\n      swap1\n      pop\n        /* \"#utility.yul\":6250:6322   */\n      tag_249\n        /* \"#utility.yul\":6318:6320   */\n      0x40\n        /* \"#utility.yul\":6307:6316   */\n      dup4\n        /* \"#utility.yul\":6303:6321   */\n      add\n        /* \"#utility.yul\":6294:6300   */\n      dup8\n        /* \"#utility.yul\":6250:6322   */\n      tag_140\n      jump\t// in\n    tag_249:\n        /* \"#utility.yul\":6369:6378   */\n      dup2\n        /* \"#utility.yul\":6363:6367   */\n      dup2\n        /* \"#utility.yul\":6359:6379   */\n      sub\n        /* \"#utility.yul\":6354:6356   */\n      0x60\n        /* \"#utility.yul\":6343:6352   */\n      dup4\n        /* \"#utility.yul\":6339:6357   */\n      add\n        /* \"#utility.yul\":6332:6380   */\n      mstore\n        /* \"#utility.yul\":6397:6475   */\n      tag_250\n        /* \"#utility.yul\":6470:6474   */\n      dup2\n        /* \"#utility.yul\":6461:6467   */\n      dup7\n        /* \"#utility.yul\":6397:6475   */\n      tag_145\n      jump\t// in\n    tag_250:\n        /* \"#utility.yul\":6389:6475   */\n      swap1\n      pop\n        /* \"#utility.yul\":6485:6558   */\n      tag_251\n        /* \"#utility.yul\":6553:6556   */\n      0x80\n        /* \"#utility.yul\":6542:6551   */\n      dup4\n        /* \"#utility.yul\":6538:6557   */\n      add\n        /* \"#utility.yul\":6529:6535   */\n      dup6\n        /* \"#utility.yul\":6485:6558   */\n      tag_132\n      jump\t// in\n    tag_251:\n        /* \"#utility.yul\":6568:6641   */\n      tag_252\n        /* \"#utility.yul\":6636:6639   */\n      0xa0\n        /* \"#utility.yul\":6625:6634   */\n      dup4\n        /* \"#utility.yul\":6621:6640   */\n      add\n        /* \"#utility.yul\":6612:6618   */\n      dup5\n        /* \"#utility.yul\":6568:6641   */\n      tag_140\n      jump\t// in\n    tag_252:\n        /* \"#utility.yul\":5691:6648   */\n      swap8\n      swap7\n      pop\n      pop\n      pop\n      pop\n      pop\n      pop\n      pop\n      jump\t// out\n        /* \"#utility.yul\":6654:6771   */\n    tag_146:\n        /* \"#utility.yul\":6763:6764   */\n      0x00\n        /* \"#utility.yul\":6760:6761   */\n      dup1\n        /* \"#utility.yul\":6753:6765   */\n      revert\n        /* \"#utility.yul\":6777:6957   */\n    tag_147:\n        /* \"#utility.yul\":6825:6902   */\n      0x4e487b7100000000000000000000000000000000000000000000000000000000\n        /* \"#utility.yul\":6822:6823   */\n      0x00\n        /* \"#utility.yul\":6815:6903   */\n      mstore\n        /* \"#utility.yul\":6922:6926   */\n      0x41\n        /* \"#utility.yul\":6919:6920   */\n      0x04\n        /* \"#utility.yul\":6912:6927   */\n      mstore\n        /* \"#utility.yul\":6946:6950   */\n      0x24\n        /* \"#utility.yul\":6943:6944   */\n      0x00\n        /* \"#utility.yul\":6936:6951   */\n      revert\n        /* \"#utility.yul\":6963:7244   */\n    tag_148:\n        /* \"#utility.yul\":7046:7073   */\n      tag_256\n        /* \"#utility.yul\":7068:7072   */\n      dup3\n        /* \"#utility.yul\":7046:7073   */\n      tag_144\n      jump\t// in\n    tag_256:\n        /* \"#utility.yul\":7038:7044   */\n      dup2\n        /* \"#utility.yul\":7034:7074   */\n      add\n        /* \"#utility.yul\":7176:7182   */\n      dup2\n        /* \"#utility.yul\":7164:7174   */\n      dup2\n        /* \"#utility.yul\":7161:7183   */\n      lt\n        /* \"#utility.yul\":7140:7158   */\n      0xffffffffffffffff\n        /* \"#utility.yul\":7128:7138   */\n      dup3\n        /* \"#utility.yul\":7125:7159   */\n      gt\n        /* \"#utility.yul\":7122:7184   */\n      or\n        /* \"#utility.yul\":7119:7207   */\n      iszero\n      tag_257\n      jumpi\n        /* \"#utility.yul\":7187:7205   */\n      tag_258\n      tag_147\n      jump\t// in\n    tag_258:\n        /* \"#utility.yul\":7119:7207   */\n    tag_257:\n        /* \"#utility.yul\":7227:7237   */\n      dup1\n        /* \"#utility.yul\":7223:7225   */\n      0x40\n        /* \"#utility.yul\":7216:7238   */\n      mstore\n        /* \"#utility.yul\":7006:7244   */\n      pop\n        /* \"#utility.yul\":6963:7244   */\n      pop\n      pop\n      jump\t// out\n        /* \"#utility.yul\":7250:7379   */\n    tag_149:\n        /* \"#utility.yul\":7284:7290   */\n      0x00\n        /* \"#utility.yul\":7311:7331   */\n      tag_260\n      tag_123\n      jump\t// in\n    tag_260:\n        /* \"#utility.yul\":7301:7331   */\n      swap1\n      pop\n        /* \"#utility.yul\":7340:7373   */\n      tag_261\n        /* \"#utility.yul\":7368:7372   */\n      dup3\n        /* \"#utility.yul\":7360:7366   */\n      dup3\n        /* \"#utility.yul\":7340:7373   */\n      tag_148\n      jump\t// in\n    tag_261:\n        /* \"#utility.yul\":7250:7379   */\n      swap2\n      swap1\n      pop\n      jump\t// out\n        /* \"#utility.yul\":7385:7693   */\n    tag_150:\n        /* \"#utility.yul\":7447:7451   */\n      0x00\n        /* \"#utility.yul\":7537:7555   */\n      0xffffffffffffffff\n        /* \"#utility.yul\":7529:7535   */\n      dup3\n        /* \"#utility.yul\":7526:7556   */\n      gt\n        /* \"#utility.yul\":7523:7579   */\n      iszero\n      tag_263\n      jumpi\n        /* \"#utility.yul\":7559:7577   */\n      tag_264\n      tag_147\n      jump\t// in\n    tag_264:\n        /* \"#utility.yul\":7523:7579   */\n    tag_263:\n        /* \"#utility.yul\":7597:7626   */\n      tag_265\n        /* \"#utility.yul\":7619:7625   */\n      dup3\n        /* \"#utility.yul\":7597:7626   */\n      tag_144\n      jump\t// in\n    tag_265:\n        /* \"#utility.yul\":7589:7626   */\n      swap1\n      pop\n        /* \"#utility.yul\":7681:7685   */\n      0x20\n        /* \"#utility.yul\":7675:7679   */\n      dup2\n        /* \"#utility.yul\":7671:7686   */\n      add\n        /* \"#utility.yul\":7663:7686   */\n      swap1\n      pop\n        /* \"#utility.yul\":7385:7693   */\n      swap2\n      swap1\n      pop\n      jump\t// out\n        /* \"#utility.yul\":7699:7847   */\n    tag_151:\n        /* \"#utility.yul\":7797:7803   */\n      dup3\n        /* \"#utility.yul\":7792:7795   */\n      dup2\n        /* \"#utility.yul\":7787:7790   */\n      dup4\n        /* \"#utility.yul\":7774:7804   */\n      calldatacopy\n        /* \"#utility.yul\":7838:7839   */\n      0x00\n        /* \"#utility.yul\":7829:7835   */\n      dup4\n        /* \"#utility.yul\":7824:7827   */\n      dup4\n        /* \"#utility.yul\":7820:7836   */\n      add\n        /* \"#utility.yul\":7813:7840   */\n      mstore\n        /* \"#utility.yul\":7699:7847   */\n      pop\n      pop\n      pop\n      jump\t// out\n        /* \"#utility.yul\":7853:8278   */\n    tag_152:\n        /* \"#utility.yul\":7931:7936   */\n      0x00\n        /* \"#utility.yul\":7956:8022   */\n      tag_268\n        /* \"#utility.yul\":7972:8021   */\n      tag_269\n        /* \"#utility.yul\":8014:8020   */\n      dup5\n        /* \"#utility.yul\":7972:8021   */\n      tag_150\n      jump\t// in\n    tag_269:\n        /* \"#utility.yul\":7956:8022   */\n      tag_149\n      jump\t// in\n    tag_268:\n        /* \"#utility.yul\":7947:8022   */\n      swap1\n      pop\n        /* \"#utility.yul\":8045:8051   */\n      dup3\n        /* \"#utility.yul\":8038:8043   */\n      dup2\n        /* \"#utility.yul\":8031:8052   */\n      mstore\n        /* \"#utility.yul\":8083:8087   */\n      0x20\n        /* \"#utility.yul\":8076:8081   */\n      dup2\n        /* \"#utility.yul\":8072:8088   */\n      add\n        /* \"#utility.yul\":8121:8124   */\n      dup5\n        /* \"#utility.yul\":8112:8118   */\n      dup5\n        /* \"#utility.yul\":8107:8110   */\n      dup5\n        /* \"#utility.yul\":8103:8119   */\n      add\n        /* \"#utility.yul\":8100:8125   */\n      gt\n        /* \"#utility.yul\":8097:8209   */\n      iszero\n      tag_270\n      jumpi\n        /* \"#utility.yul\":8128:8207   */\n      tag_271\n      tag_146\n      jump\t// in\n    tag_271:\n        /* \"#utility.yul\":8097:8209   */\n    tag_270:\n        /* \"#utility.yul\":8218:8272   */\n      tag_272\n        /* \"#utility.yul\":8265:8271   */\n      dup5\n        /* \"#utility.yul\":8260:8263   */\n      dup3\n        /* \"#utility.yul\":8255:8258   */\n      dup6\n        /* \"#utility.yul\":8218:8272   */\n      tag_151\n      jump\t// in\n    tag_272:\n        /* \"#utility.yul\":7937:8278   */\n      pop\n        /* \"#utility.yul\":7853:8278   */\n      swap4\n      swap3\n      pop\n      pop\n      pop\n      jump\t// out\n        /* \"#utility.yul\":8298:8638   */\n    tag_153:\n        /* \"#utility.yul\":8354:8359   */\n      0x00\n        /* \"#utility.yul\":8403:8406   */\n      dup3\n        /* \"#utility.yul\":8396:8400   */\n      0x1f\n        /* \"#utility.yul\":8388:8394   */\n      dup4\n        /* \"#utility.yul\":8384:8401   */\n      add\n        /* \"#utility.yul\":8380:8407   */\n      slt\n        /* \"#utility.yul\":8370:8492   */\n      tag_274\n      jumpi\n        /* \"#utility.yul\":8411:8490   */\n      tag_275\n      tag_126\n      jump\t// in\n    tag_275:\n        /* \"#utility.yul\":8370:8492   */\n    tag_274:\n        /* \"#utility.yul\":8528:8534   */\n      dup2\n        /* \"#utility.yul\":8515:8535   */\n      calldataload\n        /* \"#utility.yul\":8553:8632   */\n      tag_276\n        /* \"#utility.yul\":8628:8631   */\n      dup5\n        /* \"#utility.yul\":8620:8626   */\n      dup3\n        /* \"#utility.yul\":8613:8617   */\n      0x20\n        /* \"#utility.yul\":8605:8611   */\n      dup7\n        /* \"#utility.yul\":8601:8618   */\n      add\n        /* \"#utility.yul\":8553:8632   */\n      tag_152\n      jump\t// in\n    tag_276:\n        /* \"#utility.yul\":8544:8632   */\n      swap2\n      pop\n        /* \"#utility.yul\":8360:8638   */\n      pop\n        /* \"#utility.yul\":8298:8638   */\n      swap3\n      swap2\n      pop\n      pop\n      jump\t// out\n        /* \"#utility.yul\":8644:9623   */\n    tag_45:\n        /* \"#utility.yul\":8741:8747   */\n      0x00\n        /* \"#utility.yul\":8749:8755   */\n      dup1\n        /* \"#utility.yul\":8757:8763   */\n      0x00\n        /* \"#utility.yul\":8806:8808   */\n      0x60\n        /* \"#utility.yul\":8794:8803   */\n      dup5\n        /* \"#utility.yul\":8785:8792   */\n      dup7\n        /* \"#utility.yul\":8781:8804   */\n      sub\n        /* \"#utility.yul\":8777:8809   */\n      slt\n        /* \"#utility.yul\":8774:8893   */\n      iszero\n      tag_278\n      jumpi\n        /* \"#utility.yul\":8812:8891   */\n      tag_279\n      tag_124\n      jump\t// in\n    tag_279:\n        /* \"#utility.yul\":8774:8893   */\n    tag_278:\n        /* \"#utility.yul\":8960:8961   */\n      0x00\n        /* \"#utility.yul\":8949:8958   */\n      dup5\n        /* \"#utility.yul\":8945:8962   */\n      add\n        /* \"#utility.yul\":8932:8963   */\n      calldataload\n        /* \"#utility.yul\":8990:9008   */\n      0xffffffffffffffff\n        /* \"#utility.yul\":8982:8988   */\n      dup2\n        /* \"#utility.yul\":8979:9009   */\n      gt\n        /* \"#utility.yul\":8976:9093   */\n      iszero\n      tag_280\n      jumpi\n        /* \"#utility.yul\":9012:9091   */\n      tag_281\n      tag_125\n      jump\t// in\n    tag_281:\n        /* \"#utility.yul\":8976:9093   */\n    tag_280:\n        /* \"#utility.yul\":9117:9180   */\n      tag_282\n        /* \"#utility.yul\":9172:9179   */\n      dup7\n        /* \"#utility.yul\":9163:9169   */\n      dup3\n        /* \"#utility.yul\":9152:9161   */\n      dup8\n        /* \"#utility.yul\":9148:9170   */\n      add\n        /* \"#utility.yul\":9117:9180   */\n      tag_153\n      jump\t// in\n    tag_282:\n        /* \"#utility.yul\":9107:9180   */\n      swap4\n      pop\n        /* \"#utility.yul\":8903:9190   */\n      pop\n        /* \"#utility.yul\":9229:9231   */\n      0x20\n        /* \"#utility.yul\":9255:9308   */\n      tag_283\n        /* \"#utility.yul\":9300:9307   */\n      dup7\n        /* \"#utility.yul\":9291:9297   */\n      dup3\n        /* \"#utility.yul\":9280:9289   */\n      dup8\n        /* \"#utility.yul\":9276:9298   */\n      add\n        /* \"#utility.yul\":9255:9308   */\n      tag_139\n      jump\t// in\n    tag_283:\n        /* \"#utility.yul\":9245:9308   */\n      swap3\n      pop\n        /* \"#utility.yul\":9200:9318   */\n      pop\n        /* \"#utility.yul\":9385:9387   */\n      0x40\n        /* \"#utility.yul\":9374:9383   */\n      dup5\n        /* \"#utility.yul\":9370:9388   */\n      add\n        /* \"#utility.yul\":9357:9389   */\n      calldataload\n        /* \"#utility.yul\":9416:9434   */\n      0xffffffffffffffff\n        /* \"#utility.yul\":9408:9414   */\n      dup2\n        /* \"#utility.yul\":9405:9435   */\n      gt\n        /* \"#utility.yul\":9402:9519   */\n      iszero\n      tag_284\n      jumpi\n        /* \"#utility.yul\":9438:9517   */\n      tag_285\n      tag_125\n      jump\t// in\n    tag_285:\n        /* \"#utility.yul\":9402:9519   */\n    tag_284:\n        /* \"#utility.yul\":9543:9606   */\n      tag_286\n        /* \"#utility.yul\":9598:9605   */\n      dup7\n        /* \"#utility.yul\":9589:9595   */\n      dup3\n        /* \"#utility.yul\":9578:9587   */\n      dup8\n        /* \"#utility.yul\":9574:9596   */\n      add\n        /* \"#utility.yul\":9543:9606   */\n      tag_153\n      jump\t// in\n    tag_286:\n        /* \"#utility.yul\":9533:9606   */\n      swap2\n      pop\n        /* \"#utility.yul\":9328:9616   */\n      pop\n        /* \"#utility.yul\":8644:9623   */\n      swap3\n      pop\n      swap3\n      pop\n      swap3\n      jump\t// out\n        /* \"#utility.yul\":9629:9798   */\n    tag_154:\n        /* \"#utility.yul\":9769:9790   */\n      0x43616c6c6572206973206e6f74206f776e657200000000000000000000000000\n        /* \"#utility.yul\":9765:9766   */\n      0x00\n        /* \"#utility.yul\":9757:9763   */\n      dup3\n        /* \"#utility.yul\":9753:9767   */\n      add\n        /* \"#utility.yul\":9746:9791   */\n      mstore\n        /* \"#utility.yul\":9629:9798   */\n      pop\n      jump\t// out\n        /* \"#utility.yul\":9804:10170   */\n    tag_155:\n        /* \"#utility.yul\":9946:9949   */\n      0x00\n        /* \"#utility.yul\":9967:10034   */\n      tag_289\n        /* \"#utility.yul\":10031:10033   */\n      0x13\n        /* \"#utility.yul\":10026:10029   */\n      dup4\n        /* \"#utility.yul\":9967:10034   */\n      tag_142\n      jump\t// in\n    tag_289:\n        /* \"#utility.yul\":9960:10034   */\n      swap2\n      pop\n        /* \"#utility.yul\":10043:10136   */\n      tag_290\n        /* \"#utility.yul\":10132:10135   */\n      dup3\n        /* \"#utility.yul\":10043:10136   */\n      tag_154\n      jump\t// in\n    tag_290:\n        /* \"#utility.yul\":10161:10163   */\n      0x20\n        /* \"#utility.yul\":10156:10159   */\n      dup3\n        /* \"#utility.yul\":10152:10164   */\n      add\n        /* \"#utility.yul\":10145:10164   */\n      swap1\n      pop\n        /* \"#utility.yul\":9804:10170   */\n      swap2\n      swap1\n      pop\n      jump\t// out\n        /* \"#utility.yul\":10176:10595   */\n    tag_54:\n        /* \"#utility.yul\":10342:10346   */\n      0x00\n        /* \"#utility.yul\":10380:10382   */\n      0x20\n        /* \"#utility.yul\":10369:10378   */\n      dup3\n        /* \"#utility.yul\":10365:10383   */\n      add\n        /* \"#utility.yul\":10357:10383   */\n      swap1\n      pop\n        /* \"#utility.yul\":10429:10438   */\n      dup2\n        /* \"#utility.yul\":10423:10427   */\n      dup2\n        /* \"#utility.yul\":10419:10439   */\n      sub\n        /* \"#utility.yul\":10415:10416   */\n      0x00\n        /* \"#utility.yul\":10404:10413   */\n      dup4\n        /* \"#utility.yul\":10400:10417   */\n      add\n        /* \"#utility.yul\":10393:10440   */\n      mstore\n        /* \"#utility.yul\":10457:10588   */\n      tag_292\n        /* \"#utility.yul\":10583:10587   */\n      dup2\n        /* \"#utility.yul\":10457:10588   */\n      tag_155\n      jump\t// in\n    tag_292:\n        /* \"#utility.yul\":10449:10588   */\n      swap1\n      pop\n        /* \"#utility.yul\":10176:10595   */\n      swap2\n      swap1\n      pop\n      jump\t// out\n        /* \"#utility.yul\":10601:10781   */\n    tag_61:\n        /* \"#utility.yul\":10649:10726   */\n      0x4e487b7100000000000000000000000000000000000000000000000000000000\n        /* \"#utility.yul\":10646:10647   */\n      0x00\n        /* \"#utility.yul\":10639:10727   */\n      mstore\n        /* \"#utility.yul\":10746:10750   */\n      0x32\n        /* \"#utility.yul\":10743:10744   */\n      0x04\n        /* \"#utility.yul\":10736:10751   */\n      mstore\n        /* \"#utility.yul\":10770:10774   */\n      0x24\n        /* \"#utility.yul\":10767:10768   */\n      0x00\n        /* \"#utility.yul\":10760:10775   */\n      revert\n        /* \"#utility.yul\":10787:11010   */\n    tag_156:\n        /* \"#utility.yul\":10927:10961   */\n      0x4e6577206f776e65722063616e6e6f7420626520746865207a65726f20616464\n        /* \"#utility.yul\":10923:10924   */\n      0x00\n        /* \"#utility.yul\":10915:10921   */\n      dup3\n        /* \"#utility.yul\":10911:10925   */\n      add\n        /* \"#utility.yul\":10904:10962   */\n      mstore\n        /* \"#utility.yul\":10996:11002   */\n      0x7265737300000000000000000000000000000000000000000000000000000000\n        /* \"#utility.yul\":10991:10993   */\n      0x20\n        /* \"#utility.yul\":10983:10989   */\n      dup3\n        /* \"#utility.yul\":10979:10994   */\n      add\n        /* \"#utility.yul\":10972:11003   */\n      mstore\n        /* \"#utility.yul\":10787:11010   */\n      pop\n      jump\t// out\n        /* \"#utility.yul\":11016:11382   */\n    tag_157:\n        /* \"#utility.yul\":11158:11161   */\n      0x00\n        /* \"#utility.yul\":11179:11246   */\n      tag_296\n        /* \"#utility.yul\":11243:11245   */\n      0x24\n        /* \"#utility.yul\":11238:11241   */\n      dup4\n        /* \"#utility.yul\":11179:11246   */\n      tag_142\n      jump\t// in\n    tag_296:\n        /* \"#utility.yul\":11172:11246   */\n      swap2\n      pop\n        /* \"#utility.yul\":11255:11348   */\n      tag_297\n        /* \"#utility.yul\":11344:11347   */\n      dup3\n        /* \"#utility.yul\":11255:11348   */\n      tag_156\n      jump\t// in\n    tag_297:\n        /* \"#utility.yul\":11373:11375   */\n      0x40\n        /* \"#utility.yul\":11368:11371   */\n      dup3\n        /* \"#utility.yul\":11364:11376   */\n      add\n        /* \"#utility.yul\":11357:11376   */\n      swap1\n      pop\n        /* \"#utility.yul\":11016:11382   */\n      swap2\n      swap1\n      pop\n      jump\t// out\n        /* \"#utility.yul\":11388:11807   */\n    tag_77:\n        /* \"#utility.yul\":11554:11558   */\n      0x00\n        /* \"#utility.yul\":11592:11594   */\n      0x20\n        /* \"#utility.yul\":11581:11590   */\n      dup3\n        /* \"#utility.yul\":11577:11595   */\n      add\n        /* \"#utility.yul\":11569:11595   */\n      swap1\n      pop\n        /* \"#utility.yul\":11641:11650   */\n      dup2\n        /* \"#utility.yul\":11635:11639   */\n      dup2\n        /* \"#utility.yul\":11631:11651   */\n      sub\n        /* \"#utility.yul\":11627:11628   */\n      0x00\n        /* \"#utility.yul\":11616:11625   */\n      dup4\n        /* \"#utility.yul\":11612:11629   */\n      add\n        /* \"#utility.yul\":11605:11652   */\n      mstore\n        /* \"#utility.yul\":11669:11800   */\n      tag_299\n        /* \"#utility.yul\":11795:11799   */\n      dup2\n        /* \"#utility.yul\":11669:11800   */\n      tag_157\n      jump\t// in\n    tag_299:\n        /* \"#utility.yul\":11661:11800   */\n      swap1\n      pop\n        /* \"#utility.yul\":11388:11807   */\n      swap2\n      swap1\n      pop\n      jump\t// out\n        /* \"#utility.yul\":11813:11991   */\n    tag_158:\n        /* \"#utility.yul\":11953:11983   */\n      0x4e6577206f776e6572206973206e6f742077686974656c697374656400000000\n        /* \"#utility.yul\":11949:11950   */\n      0x00\n        /* \"#utility.yul\":11941:11947   */\n      dup3\n        /* \"#utility.yul\":11937:11951   */\n      add\n        /* \"#utility.yul\":11930:11984   */\n      mstore\n        /* \"#utility.yul\":11813:11991   */\n      pop\n      jump\t// out\n        /* \"#utility.yul\":11997:12363   */\n    tag_159:\n        /* \"#utility.yul\":12139:12142   */\n      0x00\n        /* \"#utility.yul\":12160:12227   */\n      tag_302\n        /* \"#utility.yul\":12224:12226   */\n      0x1c\n        /* \"#utility.yul\":12219:12222   */\n      dup4\n        /* \"#utility.yul\":12160:12227   */\n      tag_142\n      jump\t// in\n    tag_302:\n        /* \"#utility.yul\":12153:12227   */\n      swap2\n      pop\n        /* \"#utility.yul\":12236:12329   */\n      tag_303\n        /* \"#utility.yul\":12325:12328   */\n      dup3\n        /* \"#utility.yul\":12236:12329   */\n      tag_158\n      jump\t// in\n    tag_303:\n        /* \"#utility.yul\":12354:12356   */\n      0x20\n        /* \"#utility.yul\":12349:12352   */\n      dup3\n        /* \"#utility.yul\":12345:12357   */\n      add\n        /* \"#utility.yul\":12338:12357   */\n      swap1\n      pop\n        /* \"#utility.yul\":11997:12363   */\n      swap2\n      swap1\n      pop\n      jump\t// out\n        /* \"#utility.yul\":12369:12788   */\n    tag_83:\n        /* \"#utility.yul\":12535:12539   */\n      0x00\n        /* \"#utility.yul\":12573:12575   */\n      0x20\n        /* \"#utility.yul\":12562:12571   */\n      dup3\n        /* \"#utility.yul\":12558:12576   */\n      add\n        /* \"#utility.yul\":12550:12576   */\n      swap1\n      pop\n        /* \"#utility.yul\":12622:12631   */\n      dup2\n        /* \"#utility.yul\":12616:12620   */\n      dup2\n        /* \"#utility.yul\":12612:12632   */\n      sub\n        /* \"#utility.yul\":12608:12609   */\n      0x00\n        /* \"#utility.yul\":12597:12606   */\n      dup4\n        /* \"#utility.yul\":12593:12610   */\n      add\n        /* \"#utility.yul\":12586:12633   */\n      mstore\n        /* \"#utility.yul\":12650:12781   */\n      tag_305\n        /* \"#utility.yul\":12776:12780   */\n      dup2\n        /* \"#utility.yul\":12650:12781   */\n      tag_159\n      jump\t// in\n    tag_305:\n        /* \"#utility.yul\":12642:12781   */\n      swap1\n      pop\n        /* \"#utility.yul\":12369:12788   */\n      swap2\n      swap1\n      pop\n      jump\t// out\n        /* \"#utility.yul\":12794:13020   */\n    tag_160:\n        /* \"#utility.yul\":12934:12968   */\n      0x4f6e6c792063757272656e74206f776e65722063616e207472616e7366657220\n        /* \"#utility.yul\":12930:12931   */\n      0x00\n        /* \"#utility.yul\":12922:12928   */\n      dup3\n        /* \"#utility.yul\":12918:12932   */\n      add\n        /* \"#utility.yul\":12911:12969   */\n      mstore\n        /* \"#utility.yul\":13003:13012   */\n      0x746865206c6f7400000000000000000000000000000000000000000000000000\n        /* \"#utility.yul\":12998:13000   */\n      0x20\n        /* \"#utility.yul\":12990:12996   */\n      dup3\n        /* \"#utility.yul\":12986:13001   */\n      add\n        /* \"#utility.yul\":12979:13013   */\n      mstore\n        /* \"#utility.yul\":12794:13020   */\n      pop\n      jump\t// out\n        /* \"#utility.yul\":13026:13392   */\n    tag_161:\n        /* \"#utility.yul\":13168:13171   */\n      0x00\n        /* \"#utility.yul\":13189:13256   */\n      tag_308\n        /* \"#utility.yul\":13253:13255   */\n      0x27\n        /* \"#utility.yul\":13248:13251   */\n      dup4\n        /* \"#utility.yul\":13189:13256   */\n      tag_142\n      jump\t// in\n    tag_308:\n        /* \"#utility.yul\":13182:13256   */\n      swap2\n      pop\n        /* \"#utility.yul\":13265:13358   */\n      tag_309\n        /* \"#utility.yul\":13354:13357   */\n      dup3\n        /* \"#utility.yul\":13265:13358   */\n      tag_160\n      jump\t// in\n    tag_309:\n        /* \"#utility.yul\":13383:13385   */\n      0x40\n        /* \"#utility.yul\":13378:13381   */\n      dup3\n        /* \"#utility.yul\":13374:13386   */\n      add\n        /* \"#utility.yul\":13367:13386   */\n      swap1\n      pop\n        /* \"#utility.yul\":13026:13392   */\n      swap2\n      swap1\n      pop\n      jump\t// out\n        /* \"#utility.yul\":13398:13817   */\n    tag_86:\n        /* \"#utility.yul\":13564:13568   */\n      0x00\n        /* \"#utility.yul\":13602:13604   */\n      0x20\n        /* \"#utility.yul\":13591:13600   */\n      dup3\n        /* \"#utility.yul\":13587:13605   */\n      add\n        /* \"#utility.yul\":13579:13605   */\n      swap1\n      pop\n        /* \"#utility.yul\":13651:13660   */\n      dup2\n        /* \"#utility.yul\":13645:13649   */\n      dup2\n        /* \"#utility.yul\":13641:13661   */\n      sub\n        /* \"#utility.yul\":13637:13638   */\n      0x00\n        /* \"#utility.yul\":13626:13635   */\n      dup4\n        /* \"#utility.yul\":13622:13639   */\n      add\n        /* \"#utility.yul\":13615:13662   */\n      mstore\n        /* \"#utility.yul\":13679:13810   */\n      tag_311\n        /* \"#utility.yul\":13805:13809   */\n      dup2\n        /* \"#utility.yul\":13679:13810   */\n      tag_161\n      jump\t// in\n    tag_311:\n        /* \"#utility.yul\":13671:13810   */\n      swap1\n      pop\n        /* \"#utility.yul\":13398:13817   */\n      swap2\n      swap1\n      pop\n      jump\t// out\n        /* \"#utility.yul\":13823:14045   */\n    tag_88:\n        /* \"#utility.yul\":13916:13920   */\n      0x00\n        /* \"#utility.yul\":13954:13956   */\n      0x20\n        /* \"#utility.yul\":13943:13952   */\n      dup3\n        /* \"#utility.yul\":13939:13957   */\n      add\n        /* \"#utility.yul\":13931:13957   */\n      swap1\n      pop\n        /* \"#utility.yul\":13967:14038   */\n      tag_313\n        /* \"#utility.yul\":14035:14036   */\n      0x00\n        /* \"#utility.yul\":14024:14033   */\n      dup4\n        /* \"#utility.yul\":14020:14037   */\n      add\n        /* \"#utility.yul\":14011:14017   */\n      dup5\n        /* \"#utility.yul\":13967:14038   */\n      tag_140\n      jump\t// in\n    tag_313:\n        /* \"#utility.yul\":13823:14045   */\n      swap3\n      swap2\n      pop\n      pop\n      jump\t// out\n        /* \"#utility.yul\":14051:14231   */\n    tag_162:\n        /* \"#utility.yul\":14099:14176   */\n      0x4e487b7100000000000000000000000000000000000000000000000000000000\n        /* \"#utility.yul\":14096:14097   */\n      0x00\n        /* \"#utility.yul\":14089:14177   */\n      mstore\n        /* \"#utility.yul\":14196:14200   */\n      0x22\n        /* \"#utility.yul\":14193:14194   */\n      0x04\n        /* \"#utility.yul\":14186:14201   */\n      mstore\n        /* \"#utility.yul\":14220:14224   */\n      0x24\n        /* \"#utility.yul\":14217:14218   */\n      0x00\n        /* \"#utility.yul\":14210:14225   */\n      revert\n        /* \"#utility.yul\":14237:14557   */\n    tag_91:\n        /* \"#utility.yul\":14281:14287   */\n      0x00\n        /* \"#utility.yul\":14318:14319   */\n      0x02\n        /* \"#utility.yul\":14312:14316   */\n      dup3\n        /* \"#utility.yul\":14308:14320   */\n      div\n        /* \"#utility.yul\":14298:14320   */\n      swap1\n      pop\n        /* \"#utility.yul\":14365:14366   */\n      0x01\n        /* \"#utility.yul\":14359:14363   */\n      dup3\n        /* \"#utility.yul\":14355:14367   */\n      and\n        /* \"#utility.yul\":14386:14404   */\n      dup1\n        /* \"#utility.yul\":14376:14457   */\n      tag_316\n      jumpi\n        /* \"#utility.yul\":14442:14446   */\n      0x7f\n        /* \"#utility.yul\":14434:14440   */\n      dup3\n        /* \"#utility.yul\":14430:14447   */\n      and\n        /* \"#utility.yul\":14420:14447   */\n      swap2\n      pop\n        /* \"#utility.yul\":14376:14457   */\n    tag_316:\n        /* \"#utility.yul\":14504:14506   */\n      0x20\n        /* \"#utility.yul\":14496:14502   */\n      dup3\n        /* \"#utility.yul\":14493:14507   */\n      lt\n        /* \"#utility.yul\":14473:14491   */\n      dup2\n        /* \"#utility.yul\":14470:14508   */\n      sub\n        /* \"#utility.yul\":14467:14551   */\n      tag_317\n      jumpi\n        /* \"#utility.yul\":14523:14541   */\n      tag_318\n      tag_162\n      jump\t// in\n    tag_318:\n        /* \"#utility.yul\":14467:14551   */\n    tag_317:\n        /* \"#utility.yul\":14288:14557   */\n      pop\n        /* \"#utility.yul\":14237:14557   */\n      swap2\n      swap1\n      pop\n      jump\t// out\n        /* \"#utility.yul\":14563:14743   */\n    tag_163:\n        /* \"#utility.yul\":14611:14688   */\n      0x4e487b7100000000000000000000000000000000000000000000000000000000\n        /* \"#utility.yul\":14608:14609   */\n      0x00\n        /* \"#utility.yul\":14601:14689   */\n      mstore\n        /* \"#utility.yul\":14708:14712   */\n      0x11\n        /* \"#utility.yul\":14705:14706   */\n      0x04\n        /* \"#utility.yul\":14698:14713   */\n      mstore\n        /* \"#utility.yul\":14732:14736   */\n      0x24\n        /* \"#utility.yul\":14729:14730   */\n      0x00\n        /* \"#utility.yul\":14722:14737   */\n      revert\n        /* \"#utility.yul\":14749:14982   */\n    tag_106:\n        /* \"#utility.yul\":14788:14791   */\n      0x00\n        /* \"#utility.yul\":14811:14835   */\n      tag_321\n        /* \"#utility.yul\":14829:14834   */\n      dup3\n        /* \"#utility.yul\":14811:14835   */\n      tag_137\n      jump\t// in\n    tag_321:\n        /* \"#utility.yul\":14802:14835   */\n      swap2\n      pop\n        /* \"#utility.yul\":14857:14923   */\n      0xffffffffffffffffffffffffffffffffffffffffffffffffffffffffffffffff\n        /* \"#utility.yul\":14850:14855   */\n      dup3\n        /* \"#utility.yul\":14847:14924   */\n      sub\n        /* \"#utility.yul\":14844:14947   */\n      tag_322\n      jumpi\n        /* \"#utility.yul\":14927:14945   */\n      tag_323\n      tag_163\n      jump\t// in\n    tag_323:\n        /* \"#utility.yul\":14844:14947   */\n    tag_322:\n        /* \"#utility.yul\":14974:14975   */\n      0x01\n        /* \"#utility.yul\":14967:14972   */\n      dup3\n        /* \"#utility.yul\":14963:14976   */\n      add\n        /* \"#utility.yul\":14956:14976   */\n      swap1\n      pop\n        /* \"#utility.yul\":14749:14982   */\n      swap2\n      swap1\n      pop\n      jump\t// out\n        /* \"#utility.yul\":14988:15129   */\n    tag_164:\n        /* \"#utility.yul\":15037:15041   */\n      0x00\n        /* \"#utility.yul\":15060:15063   */\n      dup2\n        /* \"#utility.yul\":15052:15063   */\n      swap1\n      pop\n        /* \"#utility.yul\":15083:15086   */\n      dup2\n        /* \"#utility.yul\":15080:15081   */\n      0x00\n        /* \"#utility.yul\":15073:15087   */\n      mstore\n        /* \"#utility.yul\":15117:15121   */\n      0x20\n        /* \"#utility.yul\":15114:15115   */\n      0x00\n        /* \"#utility.yul\":15104:15122   */\n      keccak256\n        /* \"#utility.yul\":15096:15122   */\n      swap1\n      pop\n        /* \"#utility.yul\":14988:15129   */\n      swap2\n      swap1\n      pop\n      jump\t// out\n        /* \"#utility.yul\":15135:15228   */\n    tag_165:\n        /* \"#utility.yul\":15172:15178   */\n      0x00\n        /* \"#utility.yul\":15219:15221   */\n      0x20\n        /* \"#utility.yul\":15214:15216   */\n      0x1f\n        /* \"#utility.yul\":15207:15212   */\n      dup4\n        /* \"#utility.yul\":15203:15217   */\n      add\n        /* \"#utility.yul\":15199:15222   */\n      div\n        /* \"#utility.yul\":15189:15222   */\n      swap1\n      pop\n        /* \"#utility.yul\":15135:15228   */\n      swap2\n      swap1\n      pop\n      jump\t// out\n        /* \"#utility.yul\":15234:15341   */\n    tag_166:\n        /* \"#utility.yul\":15278:15286   */\n      0x00\n        /* \"#utility.yul\":15328:15333   */\n      dup3\n        /* \"#utility.yul\":15322:15326   */\n      dup3\n        /* \"#utility.yul\":15318:15334   */\n      shl\n        /* \"#utility.yul\":15297:15334   */\n      swap1\n      pop\n        /* \"#utility.yul\":15234:15341   */\n      swap3\n      swap2\n      pop\n      pop\n      jump\t// out\n        /* \"#utility.yul\":15347:15740   */\n    tag_167:\n        /* \"#utility.yul\":15416:15422   */\n      0x00\n        /* \"#utility.yul\":15466:15467   */\n      0x08\n        /* \"#utility.yul\":15454:15464   */\n      dup4\n        /* \"#utility.yul\":15450:15468   */\n      mul\n        /* \"#utility.yul\":15489:15586   */\n      tag_328\n        /* \"#utility.yul\":15519:15585   */\n      0xffffffffffffffffffffffffffffffffffffffffffffffffffffffffffffffff\n        /* \"#utility.yul\":15508:15517   */\n      dup3\n        /* \"#utility.yul\":15489:15586   */\n      tag_166\n      jump\t// in\n    tag_328:\n        /* \"#utility.yul\":15607:15646   */\n      tag_329\n        /* \"#utility.yul\":15637:15645   */\n      dup7\n        /* \"#utility.yul\":15626:15635   */\n      dup4\n        /* \"#utility.yul\":15607:15646   */\n      tag_166\n      jump\t// in\n    tag_329:\n        /* \"#utility.yul\":15595:15646   */\n      swap6\n      pop\n        /* \"#utility.yul\":15679:15683   */\n      dup1\n        /* \"#utility.yul\":15675:15684   */\n      not\n        /* \"#utility.yul\":15668:15673   */\n      dup5\n        /* \"#utility.yul\":15664:15685   */\n      and\n        /* \"#utility.yul\":15655:15685   */\n      swap4\n      pop\n        /* \"#utility.yul\":15728:15732   */\n      dup1\n        /* \"#utility.yul\":15718:15726   */\n      dup7\n        /* \"#utility.yul\":15714:15733   */\n      and\n        /* \"#utility.yul\":15707:15712   */\n      dup5\n        /* \"#utility.yul\":15704:15734   */\n      or\n        /* \"#utility.yul\":15694:15734   */\n      swap3\n      pop\n        /* \"#utility.yul\":15423:15740   */\n      pop\n      pop\n        /* \"#utility.yul\":15347:15740   */\n      swap4\n      swap3\n      pop\n      pop\n      pop\n      jump\t// out\n        /* \"#utility.yul\":15746:15806   */\n    tag_168:\n        /* \"#utility.yul\":15774:15777   */\n      0x00\n        /* \"#utility.yul\":15795:15800   */\n      dup2\n        /* \"#utility.yul\":15788:15800   */\n      swap1\n      pop\n        /* \"#utility.yul\":15746:15806   */\n      swap2\n      swap1\n      pop\n      jump\t// out\n        /* \"#utility.yul\":15812:15954   */\n    tag_169:\n        /* \"#utility.yul\":15862:15871   */\n      0x00\n        /* \"#utility.yul\":15895:15948   */\n      tag_332\n        /* \"#utility.yul\":15913:15947   */\n      tag_333\n        /* \"#utility.yul\":15922:15946   */\n      tag_334\n        /* \"#utility.yul\":15940:15945   */\n      dup5\n        /* \"#utility.yul\":15922:15946   */\n      tag_137\n      jump\t// in\n    tag_334:\n        /* \"#utility.yul\":15913:15947   */\n      tag_168\n      jump\t// in\n    tag_333:\n        /* \"#utility.yul\":15895:15948   */\n      tag_137\n      jump\t// in\n    tag_332:\n        /* \"#utility.yul\":15882:15948   */\n      swap1\n      pop\n        /* \"#utility.yul\":15812:15954   */\n      swap2\n      swap1\n      pop\n      jump\t// out\n        /* \"#utility.yul\":15960:16035   */\n    tag_170:\n        /* \"#utility.yul\":16003:16006   */\n      0x00\n        /* \"#utility.yul\":16024:16029   */\n      dup2\n        /* \"#utility.yul\":16017:16029   */\n      swap1\n      pop\n        /* \"#utility.yul\":15960:16035   */\n      swap2\n      swap1\n      pop\n      jump\t// out\n        /* \"#utility.yul\":16041:16310   */\n    tag_171:\n        /* \"#utility.yul\":16151:16190   */\n      tag_337\n        /* \"#utility.yul\":16182:16189   */\n      dup4\n        /* \"#utility.yul\":16151:16190   */\n      tag_169\n      jump\t// in\n    tag_337:\n        /* \"#utility.yul\":16212:16303   */\n      tag_338\n        /* \"#utility.yul\":16261:16302   */\n      tag_339\n        /* \"#utility.yul\":16285:16301   */\n      dup3\n        /* \"#utility.yul\":16261:16302   */\n      tag_170\n      jump\t// in\n    tag_339:\n        /* \"#utility.yul\":16253:16259   */\n      dup5\n        /* \"#utility.yul\":16246:16250   */\n      dup5\n        /* \"#utility.yul\":16240:16251   */\n      sload\n        /* \"#utility.yul\":16212:16303   */\n      tag_167\n      jump\t// in\n    tag_338:\n        /* \"#utility.yul\":16206:16210   */\n      dup3\n        /* \"#utility.yul\":16199:16304   */\n      sstore\n        /* \"#utility.yul\":16117:16310   */\n      pop\n        /* \"#utility.yul\":16041:16310   */\n      pop\n      pop\n      pop\n      jump\t// out\n        /* \"#utility.yul\":16316:16389   */\n    tag_172:\n        /* \"#utility.yul\":16361:16364   */\n      0x00\n        /* \"#utility.yul\":16316:16389   */\n      swap1\n      jump\t// out\n        /* \"#utility.yul\":16395:16584   */\n    tag_173:\n        /* \"#utility.yul\":16472:16504   */\n      tag_342\n      tag_172\n      jump\t// in\n    tag_342:\n        /* \"#utility.yul\":16513:16578   */\n      tag_343\n        /* \"#utility.yul\":16571:16577   */\n      dup2\n        /* \"#utility.yul\":16563:16569   */\n      dup5\n        /* \"#utility.yul\":16557:16561   */\n      dup5\n        /* \"#utility.yul\":16513:16578   */\n      tag_171\n      jump\t// in\n    tag_343:\n        /* \"#utility.yul\":16448:16584   */\n      pop\n        /* \"#utility.yul\":16395:16584   */\n      pop\n      pop\n      jump\t// out\n        /* \"#utility.yul\":16590:16776   */\n    tag_174:\n        /* \"#utility.yul\":16650:16770   */\n    tag_345:\n        /* \"#utility.yul\":16667:16670   */\n      dup2\n        /* \"#utility.yul\":16660:16665   */\n      dup2\n        /* \"#utility.yul\":16657:16671   */\n      lt\n        /* \"#utility.yul\":16650:16770   */\n      iszero\n      tag_347\n      jumpi\n        /* \"#utility.yul\":16721:16760   */\n      tag_348\n        /* \"#utility.yul\":16758:16759   */\n      0x00\n        /* \"#utility.yul\":16751:16756   */\n      dup3\n        /* \"#utility.yul\":16721:16760   */\n      tag_173\n      jump\t// in\n    tag_348:\n        /* \"#utility.yul\":16694:16695   */\n      0x01\n        /* \"#utility.yul\":16687:16692   */\n      dup2\n        /* \"#utility.yul\":16683:16696   */\n      add\n        /* \"#utility.yul\":16674:16696   */\n      swap1\n      pop\n        /* \"#utility.yul\":16650:16770   */\n      jump(tag_345)\n    tag_347:\n        /* \"#utility.yul\":16590:16776   */\n      pop\n      pop\n      jump\t// out\n        /* \"#utility.yul\":16782:17325   */\n    tag_175:\n        /* \"#utility.yul\":16883:16885   */\n      0x1f\n        /* \"#utility.yul\":16878:16881   */\n      dup3\n        /* \"#utility.yul\":16875:16886   */\n      gt\n        /* \"#utility.yul\":16872:17318   */\n      iszero\n      tag_350\n      jumpi\n        /* \"#utility.yul\":16917:16955   */\n      tag_351\n        /* \"#utility.yul\":16949:16954   */\n      dup2\n        /* \"#utility.yul\":16917:16955   */\n      tag_164\n      jump\t// in\n    tag_351:\n        /* \"#utility.yul\":17001:17030   */\n      tag_352\n        /* \"#utility.yul\":17019:17029   */\n      dup5\n        /* \"#utility.yul\":17001:17030   */\n      tag_165\n      jump\t// in\n    tag_352:\n        /* \"#utility.yul\":16991:16999   */\n      dup2\n        /* \"#utility.yul\":16987:17031   */\n      add\n        /* \"#utility.yul\":17184:17186   */\n      0x20\n        /* \"#utility.yul\":17172:17182   */\n      dup6\n        /* \"#utility.yul\":17169:17187   */\n      lt\n        /* \"#utility.yul\":17166:17215   */\n      iszero\n      tag_353\n      jumpi\n        /* \"#utility.yul\":17205:17213   */\n      dup2\n        /* \"#utility.yul\":17190:17213   */\n      swap1\n      pop\n        /* \"#utility.yul\":17166:17215   */\n    tag_353:\n        /* \"#utility.yul\":17228:17308   */\n      tag_354\n        /* \"#utility.yul\":17284:17306   */\n      tag_355\n        /* \"#utility.yul\":17302:17305   */\n      dup6\n        /* \"#utility.yul\":17284:17306   */\n      tag_165\n      jump\t// in\n    tag_355:\n        /* \"#utility.yul\":17274:17282   */\n      dup4\n        /* \"#utility.yul\":17270:17307   */\n      add\n        /* \"#utility.yul\":17257:17268   */\n      dup3\n        /* \"#utility.yul\":17228:17308   */\n      tag_174\n      jump\t// in\n    tag_354:\n        /* \"#utility.yul\":16887:17318   */\n      pop\n      pop\n        /* \"#utility.yul\":16872:17318   */\n    tag_350:\n        /* \"#utility.yul\":16782:17325   */\n      pop\n      pop\n      pop\n      jump\t// out\n        /* \"#utility.yul\":17331:17448   */\n    tag_176:\n        /* \"#utility.yul\":17385:17393   */\n      0x00\n        /* \"#utility.yul\":17435:17440   */\n      dup3\n        /* \"#utility.yul\":17429:17433   */\n      dup3\n        /* \"#utility.yul\":17425:17441   */\n      shr\n        /* \"#utility.yul\":17404:17441   */\n      swap1\n      pop\n        /* \"#utility.yul\":17331:17448   */\n      swap3\n      swap2\n      pop\n      pop\n      jump\t// out\n        /* \"#utility.yul\":17454:17623   */\n    tag_177:\n        /* \"#utility.yul\":17498:17504   */\n      0x00\n        /* \"#utility.yul\":17531:17582   */\n      tag_358\n        /* \"#utility.yul\":17579:17580   */\n      0x00\n        /* \"#utility.yul\":17575:17581   */\n      not\n        /* \"#utility.yul\":17567:17572   */\n      dup5\n        /* \"#utility.yul\":17564:17565   */\n      0x08\n        /* \"#utility.yul\":17560:17573   */\n      mul\n        /* \"#utility.yul\":17531:17582   */\n      tag_176\n      jump\t// in\n    tag_358:\n        /* \"#utility.yul\":17527:17583   */\n      not\n        /* \"#utility.yul\":17612:17616   */\n      dup1\n        /* \"#utility.yul\":17606:17610   */\n      dup4\n        /* \"#utility.yul\":17602:17617   */\n      and\n        /* \"#utility.yul\":17592:17617   */\n      swap2\n      pop\n        /* \"#utility.yul\":17505:17623   */\n      pop\n        /* \"#utility.yul\":17454:17623   */\n      swap3\n      swap2\n      pop\n      pop\n      jump\t// out\n        /* \"#utility.yul\":17628:17923   */\n    tag_178:\n        /* \"#utility.yul\":17704:17708   */\n      0x00\n        /* \"#utility.yul\":17850:17879   */\n      tag_360\n        /* \"#utility.yul\":17875:17878   */\n      dup4\n        /* \"#utility.yul\":17869:17873   */\n      dup4\n        /* \"#utility.yul\":17850:17879   */\n      tag_177\n      jump\t// in\n    tag_360:\n        /* \"#utility.yul\":17842:17879   */\n      swap2\n      pop\n        /* \"#utility.yul\":17912:17915   */\n      dup3\n        /* \"#utility.yul\":17909:17910   */\n      0x02\n        /* \"#utility.yul\":17905:17916   */\n      mul\n        /* \"#utility.yul\":17899:17903   */\n      dup3\n        /* \"#utility.yul\":17896:17917   */\n      or\n        /* \"#utility.yul\":17888:17917   */\n      swap1\n      pop\n        /* \"#utility.yul\":17628:17923   */\n      swap3\n      swap2\n      pop\n      pop\n      jump\t// out\n        /* \"#utility.yul\":17928:19323   */\n    tag_108:\n        /* \"#utility.yul\":18045:18082   */\n      tag_362\n        /* \"#utility.yul\":18078:18081   */\n      dup3\n        /* \"#utility.yul\":18045:18082   */\n      tag_141\n      jump\t// in\n    tag_362:\n        /* \"#utility.yul\":18147:18165   */\n      0xffffffffffffffff\n        /* \"#utility.yul\":18139:18145   */\n      dup2\n        /* \"#utility.yul\":18136:18166   */\n      gt\n        /* \"#utility.yul\":18133:18189   */\n      iszero\n      tag_363\n      jumpi\n        /* \"#utility.yul\":18169:18187   */\n      tag_364\n      tag_147\n      jump\t// in\n    tag_364:\n        /* \"#utility.yul\":18133:18189   */\n    tag_363:\n        /* \"#utility.yul\":18213:18251   */\n      tag_365\n        /* \"#utility.yul\":18245:18249   */\n      dup3\n        /* \"#utility.yul\":18239:18250   */\n      sload\n        /* \"#utility.yul\":18213:18251   */\n      tag_91\n      jump\t// in\n    tag_365:\n        /* \"#utility.yul\":18298:18365   */\n      tag_366\n        /* \"#utility.yul\":18358:18364   */\n      dup3\n        /* \"#utility.yul\":18350:18356   */\n      dup3\n        /* \"#utility.yul\":18344:18348   */\n      dup6\n        /* \"#utility.yul\":18298:18365   */\n      tag_175\n      jump\t// in\n    tag_366:\n        /* \"#utility.yul\":18392:18393   */\n      0x00\n        /* \"#utility.yul\":18416:18420   */\n      0x20\n        /* \"#utility.yul\":18403:18420   */\n      swap1\n      pop\n        /* \"#utility.yul\":18448:18450   */\n      0x1f\n        /* \"#utility.yul\":18440:18446   */\n      dup4\n        /* \"#utility.yul\":18437:18451   */\n      gt\n        /* \"#utility.yul\":18465:18466   */\n      0x01\n        /* \"#utility.yul\":18460:19078   */\n      dup2\n      eq\n      tag_368\n      jumpi\n        /* \"#utility.yul\":19122:19123   */\n      0x00\n        /* \"#utility.yul\":19139:19145   */\n      dup5\n        /* \"#utility.yul\":19136:19213   */\n      iszero\n      tag_369\n      jumpi\n        /* \"#utility.yul\":19188:19197   */\n      dup3\n        /* \"#utility.yul\":19183:19186   */\n      dup8\n        /* \"#utility.yul\":19179:19198   */\n      add\n        /* \"#utility.yul\":19173:19199   */\n      mload\n        /* \"#utility.yul\":19164:19199   */\n      swap1\n      pop\n        /* \"#utility.yul\":19136:19213   */\n    tag_369:\n        /* \"#utility.yul\":19239:19306   */\n      tag_370\n        /* \"#utility.yul\":19299:19305   */\n      dup6\n        /* \"#utility.yul\":19292:19297   */\n      dup3\n        /* \"#utility.yul\":19239:19306   */\n      tag_178\n      jump\t// in\n    tag_370:\n        /* \"#utility.yul\":19233:19237   */\n      dup7\n        /* \"#utility.yul\":19226:19307   */\n      sstore\n        /* \"#utility.yul\":19095:19317   */\n      pop\n        /* \"#utility.yul\":18430:19317   */\n      jump(tag_367)\n        /* \"#utility.yul\":18460:19078   */\n    tag_368:\n        /* \"#utility.yul\":18512:18516   */\n      0x1f\n        /* \"#utility.yul\":18508:18517   */\n      not\n        /* \"#utility.yul\":18500:18506   */\n      dup5\n        /* \"#utility.yul\":18496:18518   */\n      and\n        /* \"#utility.yul\":18546:18583   */\n      tag_371\n        /* \"#utility.yul\":18578:18582   */\n      dup7\n        /* \"#utility.yul\":18546:18583   */\n      tag_164\n      jump\t// in\n    tag_371:\n        /* \"#utility.yul\":18605:18606   */\n      0x00\n        /* \"#utility.yul\":18619:18827   */\n    tag_372:\n        /* \"#utility.yul\":18633:18640   */\n      dup3\n        /* \"#utility.yul\":18630:18631   */\n      dup2\n        /* \"#utility.yul\":18627:18641   */\n      lt\n        /* \"#utility.yul\":18619:18827   */\n      iszero\n      tag_374\n      jumpi\n        /* \"#utility.yul\":18712:18721   */\n      dup5\n        /* \"#utility.yul\":18707:18710   */\n      dup10\n        /* \"#utility.yul\":18703:18722   */\n      add\n        /* \"#utility.yul\":18697:18723   */\n      mload\n        /* \"#utility.yul\":18689:18695   */\n      dup3\n        /* \"#utility.yul\":18682:18724   */\n      sstore\n        /* \"#utility.yul\":18763:18764   */\n      0x01\n        /* \"#utility.yul\":18755:18761   */\n      dup3\n        /* \"#utility.yul\":18751:18765   */\n      add\n        /* \"#utility.yul\":18741:18765   */\n      swap2\n      pop\n        /* \"#utility.yul\":18810:18812   */\n      0x20\n        /* \"#utility.yul\":18799:18808   */\n      dup6\n        /* \"#utility.yul\":18795:18813   */\n      add\n        /* \"#utility.yul\":18782:18813   */\n      swap5\n      pop\n        /* \"#utility.yul\":18656:18660   */\n      0x20\n        /* \"#utility.yul\":18653:18654   */\n      dup2\n        /* \"#utility.yul\":18649:18661   */\n      add\n        /* \"#utility.yul\":18644:18661   */\n      swap1\n      pop\n        /* \"#utility.yul\":18619:18827   */\n      jump(tag_372)\n    tag_374:\n        /* \"#utility.yul\":18855:18861   */\n      dup7\n        /* \"#utility.yul\":18846:18853   */\n      dup4\n        /* \"#utility.yul\":18843:18862   */\n      lt\n        /* \"#utility.yul\":18840:19019   */\n      iszero\n      tag_375\n      jumpi\n        /* \"#utility.yul\":18913:18922   */\n      dup5\n        /* \"#utility.yul\":18908:18911   */\n      dup10\n        /* \"#utility.yul\":18904:18923   */\n      add\n        /* \"#utility.yul\":18898:18924   */\n      mload\n        /* \"#utility.yul\":18956:19004   */\n      tag_376\n        /* \"#utility.yul\":18998:19002   */\n      0x1f\n        /* \"#utility.yul\":18990:18996   */\n      dup10\n        /* \"#utility.yul\":18986:19003   */\n      and\n        /* \"#utility.yul\":18975:18984   */\n      dup3\n        /* \"#utility.yul\":18956:19004   */\n      tag_177\n      jump\t// in\n    tag_376:\n        /* \"#utility.yul\":18948:18954   */\n      dup4\n        /* \"#utility.yul\":18941:19005   */\n      sstore\n        /* \"#utility.yul\":18863:19019   */\n      pop\n        /* \"#utility.yul\":18840:19019   */\n    tag_375:\n        /* \"#utility.yul\":19065:19066   */\n      0x01\n        /* \"#utility.yul\":19061:19062   */\n      0x02\n        /* \"#utility.yul\":19053:19059   */\n      dup9\n        /* \"#utility.yul\":19049:19063   */\n      mul\n        /* \"#utility.yul\":19045:19067   */\n      add\n        /* \"#utility.yul\":19039:19043   */\n      dup9\n        /* \"#utility.yul\":19032:19068   */\n      sstore\n        /* \"#utility.yul\":18467:19078   */\n      pop\n      pop\n      pop\n        /* \"#utility.yul\":18430:19317   */\n    tag_367:\n      pop\n        /* \"#utility.yul\":18020:19323   */\n      pop\n      pop\n      pop\n        /* \"#utility.yul\":17928:19323   */\n      pop\n      pop\n      jump\t// out\n        /* \"#utility.yul\":19329:19953   */\n    tag_111:\n        /* \"#utility.yul\":19518:19522   */\n      0x00\n        /* \"#utility.yul\":19556:19558   */\n      0x60\n        /* \"#utility.yul\":19545:19554   */\n      dup3\n        /* \"#utility.yul\":19541:19559   */\n      add\n        /* \"#utility.yul\":19533:19559   */\n      swap1\n      pop\n        /* \"#utility.yul\":19569:19640   */\n      tag_378\n        /* \"#utility.yul\":19637:19638   */\n      0x00\n        /* \"#utility.yul\":19626:19635   */\n      dup4\n        /* \"#utility.yul\":19622:19639   */\n      add\n        /* \"#utility.yul\":19613:19619   */\n      dup7\n        /* \"#utility.yul\":19569:19640   */\n      tag_140\n      jump\t// in\n    tag_378:\n        /* \"#utility.yul\":19687:19696   */\n      dup2\n        /* \"#utility.yul\":19681:19685   */\n      dup2\n        /* \"#utility.yul\":19677:19697   */\n      sub\n        /* \"#utility.yul\":19672:19674   */\n      0x20\n        /* \"#utility.yul\":19661:19670   */\n      dup4\n        /* \"#utility.yul\":19657:19675   */\n      add\n        /* \"#utility.yul\":19650:19698   */\n      mstore\n        /* \"#utility.yul\":19715:19793   */\n      tag_379\n        /* \"#utility.yul\":19788:19792   */\n      dup2\n        /* \"#utility.yul\":19779:19785   */\n      dup6\n        /* \"#utility.yul\":19715:19793   */\n      tag_145\n      jump\t// in\n    tag_379:\n        /* \"#utility.yul\":19707:19793   */\n      swap1\n      pop\n        /* \"#utility.yul\":19840:19849   */\n      dup2\n        /* \"#utility.yul\":19834:19838   */\n      dup2\n        /* \"#utility.yul\":19830:19850   */\n      sub\n        /* \"#utility.yul\":19825:19827   */\n      0x40\n        /* \"#utility.yul\":19814:19823   */\n      dup4\n        /* \"#utility.yul\":19810:19828   */\n      add\n        /* \"#utility.yul\":19803:19851   */\n      mstore\n        /* \"#utility.yul\":19868:19946   */\n      tag_380\n        /* \"#utility.yul\":19941:19945   */\n      dup2\n        /* \"#utility.yul\":19932:19938   */\n      dup5\n        /* \"#utility.yul\":19868:19946   */\n      tag_145\n      jump\t// in\n    tag_380:\n        /* \"#utility.yul\":19860:19946   */\n      swap1\n      pop\n        /* \"#utility.yul\":19329:19953   */\n      swap5\n      swap4\n      pop\n      pop\n      pop\n      pop\n      jump\t// out\n\n    auxdata: 0xa264697066735822122073600a2d63af1c32b6c3e74ef0d6627b91f5e356d38243dd64a025614d26c68e64736f6c63430008190033\n}\n",
				"bytecode": {
					"linkReferences": {},
					"object": "6080604052348015600e575f80fd5b50335f806101000a81548173ffffffffffffffffffffffffffffffffffffffff021916908373ffffffffffffffffffffffffffffffffffffffff1602179055505f8054906101000a900473ffffffffffffffffffffffffffffffffffffffff1673ffffffffffffffffffffffffffffffffffffffff165f73ffffffffffffffffffffffffffffffffffffffff167f342827c97908e5e2f71151c08502a66d44b6f758e3ac2f1de95f02eb95f0a73560405160405180910390a35f600281905550611883806100db5f395ff3fe608060405234801561000f575f80fd5b5060043610610091575f3560e01c8063a6f9dae111610064578063a6f9dae11461011b578063c00b29d814610137578063e3c7f6df14610153578063e4cfa27814610188578063f1648e84146101a457610091565b80637f64978314610095578063893d20e8146100b15780638ab1d681146100cf5780639b19251a146100eb575b5f80fd5b6100af60048036038101906100aa9190610e38565b6101d9565b005b6100b961036a565b6040516100c69190610ec2565b60405180910390f35b6100e960048036038101906100e49190610f05565b610391565b005b61010560048036038101906101009190610f05565b6104b8565b6040516101129190610f4a565b60405180910390f35b61013560048036038101906101309190610f05565b6104d5565b005b610151600480360381019061014c9190610f96565b61068b565b005b61016d60048036038101906101689190610fd4565b610855565b60405161017f9695949392919061107e565b60405180910390f35b6101a2600480360381019061019d9190611213565b610a41565b005b6101be60048036038101906101b99190610fd4565b610c11565b6040516101d09695949392919061107e565b60405180910390f35b5f8054906101000a900473ffffffffffffffffffffffffffffffffffffffff1673ffffffffffffffffffffffffffffffffffffffff163373ffffffffffffffffffffffffffffffffffffffff1614610266576040517f08c379a000000000000000000000000000000000000000000000000000000000815260040161025d906112e5565b60405180910390fd5b5f5b82829050811015610365576001805f85858581811061028a57610289611303565b5b905060200201602081019061029f9190610f05565b73ffffffffffffffffffffffffffffffffffffffff1673ffffffffffffffffffffffffffffffffffffffff1681526020019081526020015f205f6101000a81548160ff02191690831515021790555082828281811061030157610300611303565b5b90506020020160208101906103169190610f05565b73ffffffffffffffffffffffffffffffffffffffff167f2e3361a4e7a8b067d0bbafcb5811e35ba5eccbb7a274be8bcfe4fb6f81fe30c860405160405180910390a28080600101915050610268565b505050565b5f805f9054906101000a900473ffffffffffffffffffffffffffffffffffffffff16905090565b5f8054906101000a900473ffffffffffffffffffffffffffffffffffffffff1673ffffffffffffffffffffffffffffffffffffffff163373ffffffffffffffffffffffffffffffffffffffff161461041e576040517f08c379a0000000000000000000000000000000000000000000000000000000008152600401610415906112e5565b60405180910390fd5b5f60015f8373ffffffffffffffffffffffffffffffffffffffff1673ffffffffffffffffffffffffffffffffffffffff1681526020019081526020015f205f6101000a81548160ff0219169083151502179055508073ffffffffffffffffffffffffffffffffffffffff167f2e3361a4e7a8b067d0bbafcb5811e35ba5eccbb7a274be8bcfe4fb6f81fe30c860405160405180910390a250565b6001602052805f5260405f205f915054906101000a900460ff1681565b5f8054906101000a900473ffffffffffffffffffffffffffffffffffffffff1673ffffffffffffffffffffffffffffffffffffffff163373ffffffffffffffffffffffffffffffffffffffff1614610562576040517f08c379a0000000000000000000000000000000000000000000000000000000008152600401610559906112e5565b60405180910390fd5b5f73ffffffffffffffffffffffffffffffffffffffff168173ffffffffffffffffffffffffffffffffffffffff16036105d0576040517f08c379a00000000000000000000000000000000000000000000000000000000081526004016105c7906113a0565b60405180910390fd5b8073ffffffffffffffffffffffffffffffffffffffff165f8054906101000a900473ffffffffffffffffffffffffffffffffffffffff1673ffffffffffffffffffffffffffffffffffffffff167f342827c97908e5e2f71151c08502a66d44b6f758e3ac2f1de95f02eb95f0a73560405160405180910390a3805f806101000a81548173ffffffffffffffffffffffffffffffffffffffff021916908373ffffffffffffffffffffffffffffffffffffffff16021790555050565b61069481610d74565b6106d3576040517f08c379a00000000000000000000000000000000000000000000000000000000081526004016106ca90611408565b60405180910390fd5b5f60035f8481526020019081526020015f209050806004015f9054906101000a900473ffffffffffffffffffffffffffffffffffffffff1673ffffffffffffffffffffffffffffffffffffffff163373ffffffffffffffffffffffffffffffffffffffff1614610778576040517f08c379a000000000000000000000000000000000000000000000000000000000815260040161076f90611496565b60405180910390fd5b5f816004015f9054906101000a900473ffffffffffffffffffffffffffffffffffffffff16905082826004015f6101000a81548173ffffffffffffffffffffffffffffffffffffffff021916908373ffffffffffffffffffffffffffffffffffffffff1602179055504282600501819055508273ffffffffffffffffffffffffffffffffffffffff168173ffffffffffffffffffffffffffffffffffffffff167f16b85f49bf01212961345d3016c9a531894accf62eb7680f2045d79185cc0ec08660405161084791906114b4565b60405180910390a350505050565b5f60605f60605f805f60035f8981526020019081526020015f206040518060c00160405290815f8201548152602001600182018054610893906114fa565b80601f01602080910402602001604051908101604052809291908181526020018280546108bf906114fa565b801561090a5780601f106108e15761010080835404028352916020019161090a565b820191905f5260205f20905b8154815290600101906020018083116108ed57829003601f168201915b505050505081526020016002820154815260200160038201805461092d906114fa565b80601f0160208091040260200160405190810160405280929190818152602001828054610959906114fa565b80156109a45780601f1061097b576101008083540402835291602001916109a4565b820191905f5260205f20905b81548152906001019060200180831161098757829003601f168201915b50505050508152602001600482015f9054906101000a900473ffffffffffffffffffffffffffffffffffffffff1673ffffffffffffffffffffffffffffffffffffffff1673ffffffffffffffffffffffffffffffffffffffff1681526020016005820154815250509050805f015181602001518260400151836060015184608001518560a001519650965096509650965096505091939550919395565b5f8054906101000a900473ffffffffffffffffffffffffffffffffffffffff1673ffffffffffffffffffffffffffffffffffffffff163373ffffffffffffffffffffffffffffffffffffffff1614610ace576040517f08c379a0000000000000000000000000000000000000000000000000000000008152600401610ac5906112e5565b60405180910390fd5b60025f815480929190610ae090611557565b91905055505f60025490506040518060c001604052808281526020018581526020018481526020018381526020013373ffffffffffffffffffffffffffffffffffffffff1681526020014281525060035f8381526020019081526020015f205f820151815f01556020820151816001019081610b5c919061173b565b50604082015181600201556060820151816003019081610b7c919061173b565b506080820151816004015f6101000a81548173ffffffffffffffffffffffffffffffffffffffff021916908373ffffffffffffffffffffffffffffffffffffffff16021790555060a082015181600501559050507f15b6890af0e66873b46f545c2578a72329a3f376146d1847dd82e30d4b37bfd6818584604051610c039392919061180a565b60405180910390a150505050565b6003602052805f5260405f205f91509050805f015490806001018054610c36906114fa565b80601f0160208091040260200160405190810160405280929190818152602001828054610c62906114fa565b8015610cad5780601f10610c8457610100808354040283529160200191610cad565b820191905f5260205f20905b815481529060010190602001808311610c9057829003601f168201915b505050505090806002015490806003018054610cc8906114fa565b80601f0160208091040260200160405190810160405280929190818152602001828054610cf4906114fa565b8015610d3f5780601f10610d1657610100808354040283529160200191610d3f565b820191905f5260205f20905b815481529060010190602001808311610d2257829003601f168201915b505050505090806004015f9054906101000a900473ffffffffffffffffffffffffffffffffffffffff16908060050154905086565b5f60015f8373ffffffffffffffffffffffffffffffffffffffff1673ffffffffffffffffffffffffffffffffffffffff1681526020019081526020015f205f9054906101000a900460ff169050919050565b5f604051905090565b5f80fd5b5f80fd5b5f80fd5b5f80fd5b5f80fd5b5f8083601f840112610df857610df7610dd7565b5b8235905067ffffffffffffffff811115610e1557610e14610ddb565b5b602083019150836020820283011115610e3157610e30610ddf565b5b9250929050565b5f8060208385031215610e4e57610e4d610dcf565b5b5f83013567ffffffffffffffff811115610e6b57610e6a610dd3565b5b610e7785828601610de3565b92509250509250929050565b5f73ffffffffffffffffffffffffffffffffffffffff82169050919050565b5f610eac82610e83565b9050919050565b610ebc81610ea2565b82525050565b5f602082019050610ed55f830184610eb3565b92915050565b610ee481610ea2565b8114610eee575f80fd5b50565b5f81359050610eff81610edb565b92915050565b5f60208284031215610f1a57610f19610dcf565b5b5f610f2784828501610ef1565b91505092915050565b5f8115159050919050565b610f4481610f30565b82525050565b5f602082019050610f5d5f830184610f3b565b92915050565b5f819050919050565b610f7581610f63565b8114610f7f575f80fd5b50565b5f81359050610f9081610f6c565b92915050565b5f8060408385031215610fac57610fab610dcf565b5b5f610fb985828601610f82565b9250506020610fca85828601610ef1565b9150509250929050565b5f60208284031215610fe957610fe8610dcf565b5b5f610ff684828501610f82565b91505092915050565b61100881610f63565b82525050565b5f81519050919050565b5f82825260208201905092915050565b8281835e5f83830152505050565b5f601f19601f8301169050919050565b5f6110508261100e565b61105a8185611018565b935061106a818560208601611028565b61107381611036565b840191505092915050565b5f60c0820190506110915f830189610fff565b81810360208301526110a38188611046565b90506110b26040830187610fff565b81810360608301526110c48186611046565b90506110d36080830185610eb3565b6110e060a0830184610fff565b979650505050505050565b5f80fd5b7f4e487b71000000000000000000000000000000000000000000000000000000005f52604160045260245ffd5b61112582611036565b810181811067ffffffffffffffff82111715611144576111436110ef565b5b80604052505050565b5f611156610dc6565b9050611162828261111c565b919050565b5f67ffffffffffffffff821115611181576111806110ef565b5b61118a82611036565b9050602081019050919050565b828183375f83830152505050565b5f6111b76111b284611167565b61114d565b9050828152602081018484840111156111d3576111d26110eb565b5b6111de848285611197565b509392505050565b5f82601f8301126111fa576111f9610dd7565b5b813561120a8482602086016111a5565b91505092915050565b5f805f6060848603121561122a57611229610dcf565b5b5f84013567ffffffffffffffff81111561124757611246610dd3565b5b611253868287016111e6565b935050602061126486828701610f82565b925050604084013567ffffffffffffffff81111561128557611284610dd3565b5b611291868287016111e6565b9150509250925092565b7f43616c6c6572206973206e6f74206f776e6572000000000000000000000000005f82015250565b5f6112cf601383611018565b91506112da8261129b565b602082019050919050565b5f6020820190508181035f8301526112fc816112c3565b9050919050565b7f4e487b71000000000000000000000000000000000000000000000000000000005f52603260045260245ffd5b7f4e6577206f776e65722063616e6e6f7420626520746865207a65726f206164645f8201527f7265737300000000000000000000000000000000000000000000000000000000602082015250565b5f61138a602483611018565b915061139582611330565b604082019050919050565b5f6020820190508181035f8301526113b78161137e565b9050919050565b7f4e6577206f776e6572206973206e6f742077686974656c6973746564000000005f82015250565b5f6113f2601c83611018565b91506113fd826113be565b602082019050919050565b5f6020820190508181035f83015261141f816113e6565b9050919050565b7f4f6e6c792063757272656e74206f776e65722063616e207472616e73666572205f8201527f746865206c6f7400000000000000000000000000000000000000000000000000602082015250565b5f611480602783611018565b915061148b82611426565b604082019050919050565b5f6020820190508181035f8301526114ad81611474565b9050919050565b5f6020820190506114c75f830184610fff565b92915050565b7f4e487b71000000000000000000000000000000000000000000000000000000005f52602260045260245ffd5b5f600282049050600182168061151157607f821691505b602082108103611524576115236114cd565b5b50919050565b7f4e487b71000000000000000000000000000000000000000000000000000000005f52601160045260245ffd5b5f61156182610f63565b91507fffffffffffffffffffffffffffffffffffffffffffffffffffffffffffffffff82036115935761159261152a565b5b600182019050919050565b5f819050815f5260205f209050919050565b5f6020601f8301049050919050565b5f82821b905092915050565b5f600883026115fa7fffffffffffffffffffffffffffffffffffffffffffffffffffffffffffffffff826115bf565b61160486836115bf565b95508019841693508086168417925050509392505050565b5f819050919050565b5f61163f61163a61163584610f63565b61161c565b610f63565b9050919050565b5f819050919050565b61165883611625565b61166c61166482611646565b8484546115cb565b825550505050565b5f90565b611680611674565b61168b81848461164f565b505050565b5b818110156116ae576116a35f82611678565b600181019050611691565b5050565b601f8211156116f3576116c48161159e565b6116cd846115b0565b810160208510156116dc578190505b6116f06116e8856115b0565b830182611690565b50505b505050565b5f82821c905092915050565b5f6117135f19846008026116f8565b1980831691505092915050565b5f61172b8383611704565b9150826002028217905092915050565b6117448261100e565b67ffffffffffffffff81111561175d5761175c6110ef565b5b61176782546114fa565b6117728282856116b2565b5f60209050601f8311600181146117a3575f8415611791578287015190505b61179b8582611720565b865550611802565b601f1984166117b18661159e565b5f5b828110156117d8578489015182556001820191506020850194506020810190506117b3565b868310156117f557848901516117f1601f891682611704565b8355505b6001600288020188555050505b505050505050565b5f60608201905061181d5f830186610fff565b818103602083015261182f8185611046565b905081810360408301526118438184611046565b905094935050505056fea264697066735822122073600a2d63af1c32b6c3e74ef0d6627b91f5e356d38243dd64a025614d26c68e64736f6c63430008190033",
					"opcodes": "PUSH1 0x80 PUSH1 0x40 MSTORE CALLVALUE DUP1 ISZERO PUSH1 0xE JUMPI PUSH0 DUP1 REVERT JUMPDEST POP CALLER PUSH0 DUP1 PUSH2 0x100 EXP DUP2 SLOAD DUP2 PUSH20 0xFFFFFFFFFFFFFFFFFFFFFFFFFFFFFFFFFFFFFFFF MUL NOT AND SWAP1 DUP4 PUSH20 0xFFFFFFFFFFFFFFFFFFFFFFFFFFFFFFFFFFFFFFFF AND MUL OR SWAP1 SSTORE POP PUSH0 DUP1 SLOAD SWAP1 PUSH2 0x100 EXP SWAP1 DIV PUSH20 0xFFFFFFFFFFFFFFFFFFFFFFFFFFFFFFFFFFFFFFFF AND PUSH20 0xFFFFFFFFFFFFFFFFFFFFFFFFFFFFFFFFFFFFFFFF AND PUSH0 PUSH20 0xFFFFFFFFFFFFFFFFFFFFFFFFFFFFFFFFFFFFFFFF AND PUSH32 0x342827C97908E5E2F71151C08502A66D44B6F758E3AC2F1DE95F02EB95F0A735 PUSH1 0x40 MLOAD PUSH1 0x40 MLOAD DUP1 SWAP2 SUB SWAP1 LOG3 PUSH0 PUSH1 0x2 DUP2 SWAP1 SSTORE POP PUSH2 0x1883 DUP1 PUSH2 0xDB PUSH0 CODECOPY PUSH0 RETURN INVALID PUSH1 0x80 PUSH1 0x40 MSTORE CALLVALUE DUP1 ISZERO PUSH2 0xF JUMPI PUSH0 DUP1 REVERT JUMPDEST POP PUSH1 0x4 CALLDATASIZE LT PUSH2 0x91 JUMPI PUSH0 CALLDATALOAD PUSH1 0xE0 SHR DUP1 PUSH4 0xA6F9DAE1 GT PUSH2 0x64 JUMPI DUP1 PUSH4 0xA6F9DAE1 EQ PUSH2 0x11B JUMPI DUP1 PUSH4 0xC00B29D8 EQ PUSH2 0x137 JUMPI DUP1 PUSH4 0xE3C7F6DF EQ PUSH2 0x153 JUMPI DUP1 PUSH4 0xE4CFA278 EQ PUSH2 0x188 JUMPI DUP1 PUSH4 0xF1648E84 EQ PUSH2 0x1A4 JUMPI PUSH2 0x91 JUMP JUMPDEST DUP1 PUSH4 0x7F649783 EQ PUSH2 0x95 JUMPI DUP1 PUSH4 0x893D20E8 EQ PUSH2 0xB1 JUMPI DUP1 PUSH4 0x8AB1D681 EQ PUSH2 0xCF JUMPI DUP1 PUSH4 0x9B19251A EQ PUSH2 0xEB JUMPI JUMPDEST PUSH0 DUP1 REVERT JUMPDEST PUSH2 0xAF PUSH1 0x4 DUP1 CALLDATASIZE SUB DUP2 ADD SWAP1 PUSH2 0xAA SWAP2 SWAP1 PUSH2 0xE38 JUMP JUMPDEST PUSH2 0x1D9 JUMP JUMPDEST STOP JUMPDEST PUSH2 0xB9 PUSH2 0x36A JUMP JUMPDEST PUSH1 0x40 MLOAD PUSH2 0xC6 SWAP2 SWAP1 PUSH2 0xEC2 JUMP JUMPDEST PUSH1 0x40 MLOAD DUP1 SWAP2 SUB SWAP1 RETURN JUMPDEST PUSH2 0xE9 PUSH1 0x4 DUP1 CALLDATASIZE SUB DUP2 ADD SWAP1 PUSH2 0xE4 SWAP2 SWAP1 PUSH2 0xF05 JUMP JUMPDEST PUSH2 0x391 JUMP JUMPDEST STOP JUMPDEST PUSH2 0x105 PUSH1 0x4 DUP1 CALLDATASIZE SUB DUP2 ADD SWAP1 PUSH2 0x100 SWAP2 SWAP1 PUSH2 0xF05 JUMP JUMPDEST PUSH2 0x4B8 JUMP JUMPDEST PUSH1 0x40 MLOAD PUSH2 0x112 SWAP2 SWAP1 PUSH2 0xF4A JUMP JUMPDEST PUSH1 0x40 MLOAD DUP1 SWAP2 SUB SWAP1 RETURN JUMPDEST PUSH2 0x135 PUSH1 0x4 DUP1 CALLDATASIZE SUB DUP2 ADD SWAP1 PUSH2 0x130 SWAP2 SWAP1 PUSH2 0xF05 JUMP JUMPDEST PUSH2 0x4D5 JUMP JUMPDEST STOP JUMPDEST PUSH2 0x151 PUSH1 0x4 DUP1 CALLDATASIZE SUB DUP2 ADD SWAP1 PUSH2 0x14C SWAP2 SWAP1 PUSH2 0xF96 JUMP JUMPDEST PUSH2 0x68B JUMP JUMPDEST STOP JUMPDEST PUSH2 0x16D PUSH1 0x4 DUP1 CALLDATASIZE SUB DUP2 ADD SWAP1 PUSH2 0x168 SWAP2 SWAP1 PUSH2 0xFD4 JUMP JUMPDEST PUSH2 0x855 JUMP JUMPDEST PUSH1 0x40 MLOAD PUSH2 0x17F SWAP7 SWAP6 SWAP5 SWAP4 SWAP3 SWAP2 SWAP1 PUSH2 0x107E JUMP JUMPDEST PUSH1 0x40 MLOAD DUP1 SWAP2 SUB SWAP1 RETURN JUMPDEST PUSH2 0x1A2 PUSH1 0x4 DUP1 CALLDATASIZE SUB DUP2 ADD SWAP1 PUSH2 0x19D SWAP2 SWAP1 PUSH2 0x1213 JUMP JUMPDEST PUSH2 0xA41 JUMP JUMPDEST STOP JUMPDEST PUSH2 0x1BE PUSH1 0x4 DUP1 CALLDATASIZE SUB DUP2 ADD SWAP1 PUSH2 0x1B9 SWAP2 SWAP1 PUSH2 0xFD4 JUMP JUMPDEST PUSH2 0xC11 JUMP JUMPDEST PUSH1 0x40 MLOAD PUSH2 0x1D0 SWAP7 SWAP6 SWAP5 SWAP4 SWAP3 SWAP2 SWAP1 PUSH2 0x107E JUMP JUMPDEST PUSH1 0x40 MLOAD DUP1 SWAP2 SUB SWAP1 RETURN JUMPDEST PUSH0 DUP1 SLOAD SWAP1 PUSH2 0x100 EXP SWAP1 DIV PUSH20 0xFFFFFFFFFFFFFFFFFFFFFFFFFFFFFFFFFFFFFFFF AND PUSH20 0xFFFFFFFFFFFFFFFFFFFFFFFFFFFFFFFFFFFFFFFF AND CALLER PUSH20 0xFFFFFFFFFFFFFFFFFFFFFFFFFFFFFFFFFFFFFFFF AND EQ PUSH2 0x266 JUMPI PUSH1 0x40 MLOAD PUSH32 0x8C379A000000000000000000000000000000000000000000000000000000000 DUP2 MSTORE PUSH1 0x4 ADD PUSH2 0x25D SWAP1 PUSH2 0x12E5 JUMP JUMPDEST PUSH1 0x40 MLOAD DUP1 SWAP2 SUB SWAP1 REVERT JUMPDEST PUSH0 JUMPDEST DUP3 DUP3 SWAP1 POP DUP2 LT ISZERO PUSH2 0x365 JUMPI PUSH1 0x1 DUP1 PUSH0 DUP6 DUP6 DUP6 DUP2 DUP2 LT PUSH2 0x28A JUMPI PUSH2 0x289 PUSH2 0x1303 JUMP JUMPDEST JUMPDEST SWAP1 POP PUSH1 0x20 MUL ADD PUSH1 0x20 DUP2 ADD SWAP1 PUSH2 0x29F SWAP2 SWAP1 PUSH2 0xF05 JUMP JUMPDEST PUSH20 0xFFFFFFFFFFFFFFFFFFFFFFFFFFFFFFFFFFFFFFFF AND PUSH20 0xFFFFFFFFFFFFFFFFFFFFFFFFFFFFFFFFFFFFFFFF AND DUP2 MSTORE PUSH1 0x20 ADD SWAP1 DUP2 MSTORE PUSH1 0x20 ADD PUSH0 KECCAK256 PUSH0 PUSH2 0x100 EXP DUP2 SLOAD DUP2 PUSH1 0xFF MUL NOT AND SWAP1 DUP4 ISZERO ISZERO MUL OR SWAP1 SSTORE POP DUP3 DUP3 DUP3 DUP2 DUP2 LT PUSH2 0x301 JUMPI PUSH2 0x300 PUSH2 0x1303 JUMP JUMPDEST JUMPDEST SWAP1 POP PUSH1 0x20 MUL ADD PUSH1 0x20 DUP2 ADD SWAP1 PUSH2 0x316 SWAP2 SWAP1 PUSH2 0xF05 JUMP JUMPDEST PUSH20 0xFFFFFFFFFFFFFFFFFFFFFFFFFFFFFFFFFFFFFFFF AND PUSH32 0x2E3361A4E7A8B067D0BBAFCB5811E35BA5ECCBB7A274BE8BCFE4FB6F81FE30C8 PUSH1 0x40 MLOAD PUSH1 0x40 MLOAD DUP1 SWAP2 SUB SWAP1 LOG2 DUP1 DUP1 PUSH1 0x1 ADD SWAP2 POP POP PUSH2 0x268 JUMP JUMPDEST POP POP POP JUMP JUMPDEST PUSH0 DUP1 PUSH0 SWAP1 SLOAD SWAP1 PUSH2 0x100 EXP SWAP1 DIV PUSH20 0xFFFFFFFFFFFFFFFFFFFFFFFFFFFFFFFFFFFFFFFF AND SWAP1 POP SWAP1 JUMP JUMPDEST PUSH0 DUP1 SLOAD SWAP1 PUSH2 0x100 EXP SWAP1 DIV PUSH20 0xFFFFFFFFFFFFFFFFFFFFFFFFFFFFFFFFFFFFFFFF AND PUSH20 0xFFFFFFFFFFFFFFFFFFFFFFFFFFFFFFFFFFFFFFFF AND CALLER PUSH20 0xFFFFFFFFFFFFFFFFFFFFFFFFFFFFFFFFFFFFFFFF AND EQ PUSH2 0x41E JUMPI PUSH1 0x40 MLOAD PUSH32 0x8C379A000000000000000000000000000000000000000000000000000000000 DUP2 MSTORE PUSH1 0x4 ADD PUSH2 0x415 SWAP1 PUSH2 0x12E5 JUMP JUMPDEST PUSH1 0x40 MLOAD DUP1 SWAP2 SUB SWAP1 REVERT JUMPDEST PUSH0 PUSH1 0x1 PUSH0 DUP4 PUSH20 0xFFFFFFFFFFFFFFFFFFFFFFFFFFFFFFFFFFFFFFFF AND PUSH20 0xFFFFFFFFFFFFFFFFFFFFFFFFFFFFFFFFFFFFFFFF AND DUP2 MSTORE PUSH1 0x20 ADD SWAP1 DUP2 MSTORE PUSH1 0x20 ADD PUSH0 KECCAK256 PUSH0 PUSH2 0x100 EXP DUP2 SLOAD DUP2 PUSH1 0xFF MUL NOT AND SWAP1 DUP4 ISZERO ISZERO MUL OR SWAP1 SSTORE POP DUP1 PUSH20 0xFFFFFFFFFFFFFFFFFFFFFFFFFFFFFFFFFFFFFFFF AND PUSH32 0x2E3361A4E7A8B067D0BBAFCB5811E35BA5ECCBB7A274BE8BCFE4FB6F81FE30C8 PUSH1 0x40 MLOAD PUSH1 0x40 MLOAD DUP1 SWAP2 SUB SWAP1 LOG2 POP JUMP JUMPDEST PUSH1 0x1 PUSH1 0x20 MSTORE DUP1 PUSH0 MSTORE PUSH1 0x40 PUSH0 KECCAK256 PUSH0 SWAP2 POP SLOAD SWAP1 PUSH2 0x100 EXP SWAP1 DIV PUSH1 0xFF AND DUP2 JUMP JUMPDEST PUSH0 DUP1 SLOAD SWAP1 PUSH2 0x100 EXP SWAP1 DIV PUSH20 0xFFFFFFFFFFFFFFFFFFFFFFFFFFFFFFFFFFFFFFFF AND PUSH20 0xFFFFFFFFFFFFFFFFFFFFFFFFFFFFFFFFFFFFFFFF AND CALLER PUSH20 0xFFFFFFFFFFFFFFFFFFFFFFFFFFFFFFFFFFFFFFFF AND EQ PUSH2 0x562 JUMPI PUSH1 0x40 MLOAD PUSH32 0x8C379A000000000000000000000000000000000000000000000000000000000 DUP2 MSTORE PUSH1 0x4 ADD PUSH2 0x559 SWAP1 PUSH2 0x12E5 JUMP JUMPDEST PUSH1 0x40 MLOAD DUP1 SWAP2 SUB SWAP1 REVERT JUMPDEST PUSH0 PUSH20 0xFFFFFFFFFFFFFFFFFFFFFFFFFFFFFFFFFFFFFFFF AND DUP2 PUSH20 0xFFFFFFFFFFFFFFFFFFFFFFFFFFFFFFFFFFFFFFFF AND SUB PUSH2 0x5D0 JUMPI PUSH1 0x40 MLOAD PUSH32 0x8C379A000000000000000000000000000000000000000000000000000000000 DUP2 MSTORE PUSH1 0x4 ADD PUSH2 0x5C7 SWAP1 PUSH2 0x13A0 JUMP JUMPDEST PUSH1 0x40 MLOAD DUP1 SWAP2 SUB SWAP1 REVERT JUMPDEST DUP1 PUSH20 0xFFFFFFFFFFFFFFFFFFFFFFFFFFFFFFFFFFFFFFFF AND PUSH0 DUP1 SLOAD SWAP1 PUSH2 0x100 EXP SWAP1 DIV PUSH20 0xFFFFFFFFFFFFFFFFFFFFFFFFFFFFFFFFFFFFFFFF AND PUSH20 0xFFFFFFFFFFFFFFFFFFFFFFFFFFFFFFFFFFFFFFFF AND PUSH32 0x342827C97908E5E2F71151C08502A66D44B6F758E3AC2F1DE95F02EB95F0A735 PUSH1 0x40 MLOAD PUSH1 0x40 MLOAD DUP1 SWAP2 SUB SWAP1 LOG3 DUP1 PUSH0 DUP1 PUSH2 0x100 EXP DUP2 SLOAD DUP2 PUSH20 0xFFFFFFFFFFFFFFFFFFFFFFFFFFFFFFFFFFFFFFFF MUL NOT AND SWAP1 DUP4 PUSH20 0xFFFFFFFFFFFFFFFFFFFFFFFFFFFFFFFFFFFFFFFF AND MUL OR SWAP1 SSTORE POP POP JUMP JUMPDEST PUSH2 0x694 DUP2 PUSH2 0xD74 JUMP JUMPDEST PUSH2 0x6D3 JUMPI PUSH1 0x40 MLOAD PUSH32 0x8C379A000000000000000000000000000000000000000000000000000000000 DUP2 MSTORE PUSH1 0x4 ADD PUSH2 0x6CA SWAP1 PUSH2 0x1408 JUMP JUMPDEST PUSH1 0x40 MLOAD DUP1 SWAP2 SUB SWAP1 REVERT JUMPDEST PUSH0 PUSH1 0x3 PUSH0 DUP5 DUP2 MSTORE PUSH1 0x20 ADD SWAP1 DUP2 MSTORE PUSH1 0x20 ADD PUSH0 KECCAK256 SWAP1 POP DUP1 PUSH1 0x4 ADD PUSH0 SWAP1 SLOAD SWAP1 PUSH2 0x100 EXP SWAP1 DIV PUSH20 0xFFFFFFFFFFFFFFFFFFFFFFFFFFFFFFFFFFFFFFFF AND PUSH20 0xFFFFFFFFFFFFFFFFFFFFFFFFFFFFFFFFFFFFFFFF AND CALLER PUSH20 0xFFFFFFFFFFFFFFFFFFFFFFFFFFFFFFFFFFFFFFFF AND EQ PUSH2 0x778 JUMPI PUSH1 0x40 MLOAD PUSH32 0x8C379A000000000000000000000000000000000000000000000000000000000 DUP2 MSTORE PUSH1 0x4 ADD PUSH2 0x76F SWAP1 PUSH2 0x1496 JUMP JUMPDEST PUSH1 0x40 MLOAD DUP1 SWAP2 SUB SWAP1 REVERT JUMPDEST PUSH0 DUP2 PUSH1 0x4 ADD PUSH0 SWAP1 SLOAD SWAP1 PUSH2 0x100 EXP SWAP1 DIV PUSH20 0xFFFFFFFFFFFFFFFFFFFFFFFFFFFFFFFFFFFFFFFF AND SWAP1 POP DUP3 DUP3 PUSH1 0x4 ADD PUSH0 PUSH2 0x100 EXP DUP2 SLOAD DUP2 PUSH20 0xFFFFFFFFFFFFFFFFFFFFFFFFFFFFFFFFFFFFFFFF MUL NOT AND SWAP1 DUP4 PUSH20 0xFFFFFFFFFFFFFFFFFFFFFFFFFFFFFFFFFFFFFFFF AND MUL OR SWAP1 SSTORE POP TIMESTAMP DUP3 PUSH1 0x5 ADD DUP2 SWAP1 SSTORE POP DUP3 PUSH20 0xFFFFFFFFFFFFFFFFFFFFFFFFFFFFFFFFFFFFFFFF AND DUP2 PUSH20 0xFFFFFFFFFFFFFFFFFFFFFFFFFFFFFFFFFFFFFFFF AND PUSH32 0x16B85F49BF01212961345D3016C9A531894ACCF62EB7680F2045D79185CC0EC0 DUP7 PUSH1 0x40 MLOAD PUSH2 0x847 SWAP2 SWAP1 PUSH2 0x14B4 JUMP JUMPDEST PUSH1 0x40 MLOAD DUP1 SWAP2 SUB SWAP1 LOG3 POP POP POP POP JUMP JUMPDEST PUSH0 PUSH1 0x60 PUSH0 PUSH1 0x60 PUSH0 DUP1 PUSH0 PUSH1 0x3 PUSH0 DUP10 DUP2 MSTORE PUSH1 0x20 ADD SWAP1 DUP2 MSTORE PUSH1 0x20 ADD PUSH0 KECCAK256 PUSH1 0x40 MLOAD DUP1 PUSH1 0xC0 ADD PUSH1 0x40 MSTORE SWAP1 DUP2 PUSH0 DUP3 ADD SLOAD DUP2 MSTORE PUSH1 0x20 ADD PUSH1 0x1 DUP3 ADD DUP1 SLOAD PUSH2 0x893 SWAP1 PUSH2 0x14FA JUMP JUMPDEST DUP1 PUSH1 0x1F ADD PUSH1 0x20 DUP1 SWAP2 DIV MUL PUSH1 0x20 ADD PUSH1 0x40 MLOAD SWAP1 DUP2 ADD PUSH1 0x40 MSTORE DUP1 SWAP3 SWAP2 SWAP1 DUP2 DUP2 MSTORE PUSH1 0x20 ADD DUP3 DUP1 SLOAD PUSH2 0x8BF SWAP1 PUSH2 0x14FA JUMP JUMPDEST DUP1 ISZERO PUSH2 0x90A JUMPI DUP1 PUSH1 0x1F LT PUSH2 0x8E1 JUMPI PUSH2 0x100 DUP1 DUP4 SLOAD DIV MUL DUP4 MSTORE SWAP2 PUSH1 0x20 ADD SWAP2 PUSH2 0x90A JUMP JUMPDEST DUP3 ADD SWAP2 SWAP1 PUSH0 MSTORE PUSH1 0x20 PUSH0 KECCAK256 SWAP1 JUMPDEST DUP2 SLOAD DUP2 MSTORE SWAP1 PUSH1 0x1 ADD SWAP1 PUSH1 0x20 ADD DUP1 DUP4 GT PUSH2 0x8ED JUMPI DUP3 SWAP1 SUB PUSH1 0x1F AND DUP3 ADD SWAP2 JUMPDEST POP POP POP POP POP DUP2 MSTORE PUSH1 0x20 ADD PUSH1 0x2 DUP3 ADD SLOAD DUP2 MSTORE PUSH1 0x20 ADD PUSH1 0x3 DUP3 ADD DUP1 SLOAD PUSH2 0x92D SWAP1 PUSH2 0x14FA JUMP JUMPDEST DUP1 PUSH1 0x1F ADD PUSH1 0x20 DUP1 SWAP2 DIV MUL PUSH1 0x20 ADD PUSH1 0x40 MLOAD SWAP1 DUP2 ADD PUSH1 0x40 MSTORE DUP1 SWAP3 SWAP2 SWAP1 DUP2 DUP2 MSTORE PUSH1 0x20 ADD DUP3 DUP1 SLOAD PUSH2 0x959 SWAP1 PUSH2 0x14FA JUMP JUMPDEST DUP1 ISZERO PUSH2 0x9A4 JUMPI DUP1 PUSH1 0x1F LT PUSH2 0x97B JUMPI PUSH2 0x100 DUP1 DUP4 SLOAD DIV MUL DUP4 MSTORE SWAP2 PUSH1 0x20 ADD SWAP2 PUSH2 0x9A4 JUMP JUMPDEST DUP3 ADD SWAP2 SWAP1 PUSH0 MSTORE PUSH1 0x20 PUSH0 KECCAK256 SWAP1 JUMPDEST DUP2 SLOAD DUP2 MSTORE SWAP1 PUSH1 0x1 ADD SWAP1 PUSH1 0x20 ADD DUP1 DUP4 GT PUSH2 0x987 JUMPI DUP3 SWAP1 SUB PUSH1 0x1F AND DUP3 ADD SWAP2 JUMPDEST POP POP POP POP POP DUP2 MSTORE PUSH1 0x20 ADD PUSH1 0x4 DUP3 ADD PUSH0 SWAP1 SLOAD SWAP1 PUSH2 0x100 EXP SWAP1 DIV PUSH20 0xFFFFFFFFFFFFFFFFFFFFFFFFFFFFFFFFFFFFFFFF AND PUSH20 0xFFFFFFFFFFFFFFFFFFFFFFFFFFFFFFFFFFFFFFFF AND PUSH20 0xFFFFFFFFFFFFFFFFFFFFFFFFFFFFFFFFFFFFFFFF AND DUP2 MSTORE PUSH1 0x20 ADD PUSH1 0x5 DUP3 ADD SLOAD DUP2 MSTORE POP POP SWAP1 POP DUP1 PUSH0 ADD MLOAD DUP2 PUSH1 0x20 ADD MLOAD DUP3 PUSH1 0x40 ADD MLOAD DUP4 PUSH1 0x60 ADD MLOAD DUP5 PUSH1 0x80 ADD MLOAD DUP6 PUSH1 0xA0 ADD MLOAD SWAP7 POP SWAP7 POP SWAP7 POP SWAP7 POP SWAP7 POP SWAP7 POP POP SWAP2 SWAP4 SWAP6 POP SWAP2 SWAP4 SWAP6 JUMP JUMPDEST PUSH0 DUP1 SLOAD SWAP1 PUSH2 0x100 EXP SWAP1 DIV PUSH20 0xFFFFFFFFFFFFFFFFFFFFFFFFFFFFFFFFFFFFFFFF AND PUSH20 0xFFFFFFFFFFFFFFFFFFFFFFFFFFFFFFFFFFFFFFFF AND CALLER PUSH20 0xFFFFFFFFFFFFFFFFFFFFFFFFFFFFFFFFFFFFFFFF AND EQ PUSH2 0xACE JUMPI PUSH1 0x40 MLOAD PUSH32 0x8C379A000000000000000000000000000000000000000000000000000000000 DUP2 MSTORE PUSH1 0x4 ADD PUSH2 0xAC5 SWAP1 PUSH2 0x12E5 JUMP JUMPDEST PUSH1 0x40 MLOAD DUP1 SWAP2 SUB SWAP1 REVERT JUMPDEST PUSH1 0x2 PUSH0 DUP2 SLOAD DUP1 SWAP3 SWAP2 SWAP1 PUSH2 0xAE0 SWAP1 PUSH2 0x1557 JUMP JUMPDEST SWAP2 SWAP1 POP SSTORE POP PUSH0 PUSH1 0x2 SLOAD SWAP1 POP PUSH1 0x40 MLOAD DUP1 PUSH1 0xC0 ADD PUSH1 0x40 MSTORE DUP1 DUP3 DUP2 MSTORE PUSH1 0x20 ADD DUP6 DUP2 MSTORE PUSH1 0x20 ADD DUP5 DUP2 MSTORE PUSH1 0x20 ADD DUP4 DUP2 MSTORE PUSH1 0x20 ADD CALLER PUSH20 0xFFFFFFFFFFFFFFFFFFFFFFFFFFFFFFFFFFFFFFFF AND DUP2 MSTORE PUSH1 0x20 ADD TIMESTAMP DUP2 MSTORE POP PUSH1 0x3 PUSH0 DUP4 DUP2 MSTORE PUSH1 0x20 ADD SWAP1 DUP2 MSTORE PUSH1 0x20 ADD PUSH0 KECCAK256 PUSH0 DUP3 ADD MLOAD DUP2 PUSH0 ADD SSTORE PUSH1 0x20 DUP3 ADD MLOAD DUP2 PUSH1 0x1 ADD SWAP1 DUP2 PUSH2 0xB5C SWAP2 SWAP1 PUSH2 0x173B JUMP JUMPDEST POP PUSH1 0x40 DUP3 ADD MLOAD DUP2 PUSH1 0x2 ADD SSTORE PUSH1 0x60 DUP3 ADD MLOAD DUP2 PUSH1 0x3 ADD SWAP1 DUP2 PUSH2 0xB7C SWAP2 SWAP1 PUSH2 0x173B JUMP JUMPDEST POP PUSH1 0x80 DUP3 ADD MLOAD DUP2 PUSH1 0x4 ADD PUSH0 PUSH2 0x100 EXP DUP2 SLOAD DUP2 PUSH20 0xFFFFFFFFFFFFFFFFFFFFFFFFFFFFFFFFFFFFFFFF MUL NOT AND SWAP1 DUP4 PUSH20 0xFFFFFFFFFFFFFFFFFFFFFFFFFFFFFFFFFFFFFFFF AND MUL OR SWAP1 SSTORE POP PUSH1 0xA0 DUP3 ADD MLOAD DUP2 PUSH1 0x5 ADD SSTORE SWAP1 POP POP PUSH32 0x15B6890AF0E66873B46F545C2578A72329A3F376146D1847DD82E30D4B37BFD6 DUP2 DUP6 DUP5 PUSH1 0x40 MLOAD PUSH2 0xC03 SWAP4 SWAP3 SWAP2 SWAP1 PUSH2 0x180A JUMP JUMPDEST PUSH1 0x40 MLOAD DUP1 SWAP2 SUB SWAP1 LOG1 POP POP POP POP JUMP JUMPDEST PUSH1 0x3 PUSH1 0x20 MSTORE DUP1 PUSH0 MSTORE PUSH1 0x40 PUSH0 KECCAK256 PUSH0 SWAP2 POP SWAP1 POP DUP1 PUSH0 ADD SLOAD SWAP1 DUP1 PUSH1 0x1 ADD DUP1 SLOAD PUSH2 0xC36 SWAP1 PUSH2 0x14FA JUMP JUMPDEST DUP1 PUSH1 0x1F ADD PUSH1 0x20 DUP1 SWAP2 DIV MUL PUSH1 0x20 ADD PUSH1 0x40 MLOAD SWAP1 DUP2 ADD PUSH1 0x40 MSTORE DUP1 SWAP3 SWAP2 SWAP1 DUP2 DUP2 MSTORE PUSH1 0x20 ADD DUP3 DUP1 SLOAD PUSH2 0xC62 SWAP1 PUSH2 0x14FA JUMP JUMPDEST DUP1 ISZERO PUSH2 0xCAD JUMPI DUP1 PUSH1 0x1F LT PUSH2 0xC84 JUMPI PUSH2 0x100 DUP1 DUP4 SLOAD DIV MUL DUP4 MSTORE SWAP2 PUSH1 0x20 ADD SWAP2 PUSH2 0xCAD JUMP JUMPDEST DUP3 ADD SWAP2 SWAP1 PUSH0 MSTORE PUSH1 0x20 PUSH0 KECCAK256 SWAP1 JUMPDEST DUP2 SLOAD DUP2 MSTORE SWAP1 PUSH1 0x1 ADD SWAP1 PUSH1 0x20 ADD DUP1 DUP4 GT PUSH2 0xC90 JUMPI DUP3 SWAP1 SUB PUSH1 0x1F AND DUP3 ADD SWAP2 JUMPDEST POP POP POP POP POP SWAP1 DUP1 PUSH1 0x2 ADD SLOAD SWAP1 DUP1 PUSH1 0x3 ADD DUP1 SLOAD PUSH2 0xCC8 SWAP1 PUSH2 0x14FA JUMP JUMPDEST DUP1 PUSH1 0x1F ADD PUSH1 0x20 DUP1 SWAP2 DIV MUL PUSH1 0x20 ADD PUSH1 0x40 MLOAD SWAP1 DUP2 ADD PUSH1 0x40 MSTORE DUP1 SWAP3 SWAP2 SWAP1 DUP2 DUP2 MSTORE PUSH1 0x20 ADD DUP3 DUP1 SLOAD PUSH2 0xCF4 SWAP1 PUSH2 0x14FA JUMP JUMPDEST DUP1 ISZERO PUSH2 0xD3F JUMPI DUP1 PUSH1 0x1F LT PUSH2 0xD16 JUMPI PUSH2 0x100 DUP1 DUP4 SLOAD DIV MUL DUP4 MSTORE SWAP2 PUSH1 0x20 ADD SWAP2 PUSH2 0xD3F JUMP JUMPDEST DUP3 ADD SWAP2 SWAP1 PUSH0 MSTORE PUSH1 0x20 PUSH0 KECCAK256 SWAP1 JUMPDEST DUP2 SLOAD DUP2 MSTORE SWAP1 PUSH1 0x1 ADD SWAP1 PUSH1 0x20 ADD DUP1 DUP4 GT PUSH2 0xD22 JUMPI DUP3 SWAP1 SUB PUSH1 0x1F AND DUP3 ADD SWAP2 JUMPDEST POP POP POP POP POP SWAP1 DUP1 PUSH1 0x4 ADD PUSH0 SWAP1 SLOAD SWAP1 PUSH2 0x100 EXP SWAP1 DIV PUSH20 0xFFFFFFFFFFFFFFFFFFFFFFFFFFFFFFFFFFFFFFFF AND SWAP1 DUP1 PUSH1 0x5 ADD SLOAD SWAP1 POP DUP7 JUMP JUMPDEST PUSH0 PUSH1 0x1 PUSH0 DUP4 PUSH20 0xFFFFFFFFFFFFFFFFFFFFFFFFFFFFFFFFFFFFFFFF AND PUSH20 0xFFFFFFFFFFFFFFFFFFFFFFFFFFFFFFFFFFFFFFFF AND DUP2 MSTORE PUSH1 0x20 ADD SWAP1 DUP2 MSTORE PUSH1 0x20 ADD PUSH0 KECCAK256 PUSH0 SWAP1 SLOAD SWAP1 PUSH2 0x100 EXP SWAP1 DIV PUSH1 0xFF AND SWAP1 POP SWAP2 SWAP1 POP JUMP JUMPDEST PUSH0 PUSH1 0x40 MLOAD SWAP1 POP SWAP1 JUMP JUMPDEST PUSH0 DUP1 REVERT JUMPDEST PUSH0 DUP1 REVERT JUMPDEST PUSH0 DUP1 REVERT JUMPDEST PUSH0 DUP1 REVERT JUMPDEST PUSH0 DUP1 REVERT JUMPDEST PUSH0 DUP1 DUP4 PUSH1 0x1F DUP5 ADD SLT PUSH2 0xDF8 JUMPI PUSH2 0xDF7 PUSH2 0xDD7 JUMP JUMPDEST JUMPDEST DUP3 CALLDATALOAD SWAP1 POP PUSH8 0xFFFFFFFFFFFFFFFF DUP2 GT ISZERO PUSH2 0xE15 JUMPI PUSH2 0xE14 PUSH2 0xDDB JUMP JUMPDEST JUMPDEST PUSH1 0x20 DUP4 ADD SWAP2 POP DUP4 PUSH1 0x20 DUP3 MUL DUP4 ADD GT ISZERO PUSH2 0xE31 JUMPI PUSH2 0xE30 PUSH2 0xDDF JUMP JUMPDEST JUMPDEST SWAP3 POP SWAP3 SWAP1 POP JUMP JUMPDEST PUSH0 DUP1 PUSH1 0x20 DUP4 DUP6 SUB SLT ISZERO PUSH2 0xE4E JUMPI PUSH2 0xE4D PUSH2 0xDCF JUMP JUMPDEST JUMPDEST PUSH0 DUP4 ADD CALLDATALOAD PUSH8 0xFFFFFFFFFFFFFFFF DUP2 GT ISZERO PUSH2 0xE6B JUMPI PUSH2 0xE6A PUSH2 0xDD3 JUMP JUMPDEST JUMPDEST PUSH2 0xE77 DUP6 DUP3 DUP7 ADD PUSH2 0xDE3 JUMP JUMPDEST SWAP3 POP SWAP3 POP POP SWAP3 POP SWAP3 SWAP1 POP JUMP JUMPDEST PUSH0 PUSH20 0xFFFFFFFFFFFFFFFFFFFFFFFFFFFFFFFFFFFFFFFF DUP3 AND SWAP1 POP SWAP2 SWAP1 POP JUMP JUMPDEST PUSH0 PUSH2 0xEAC DUP3 PUSH2 0xE83 JUMP JUMPDEST SWAP1 POP SWAP2 SWAP1 POP JUMP JUMPDEST PUSH2 0xEBC DUP2 PUSH2 0xEA2 JUMP JUMPDEST DUP3 MSTORE POP POP JUMP JUMPDEST PUSH0 PUSH1 0x20 DUP3 ADD SWAP1 POP PUSH2 0xED5 PUSH0 DUP4 ADD DUP5 PUSH2 0xEB3 JUMP JUMPDEST SWAP3 SWAP2 POP POP JUMP JUMPDEST PUSH2 0xEE4 DUP2 PUSH2 0xEA2 JUMP JUMPDEST DUP2 EQ PUSH2 0xEEE JUMPI PUSH0 DUP1 REVERT JUMPDEST POP JUMP JUMPDEST PUSH0 DUP2 CALLDATALOAD SWAP1 POP PUSH2 0xEFF DUP2 PUSH2 0xEDB JUMP JUMPDEST SWAP3 SWAP2 POP POP JUMP JUMPDEST PUSH0 PUSH1 0x20 DUP3 DUP5 SUB SLT ISZERO PUSH2 0xF1A JUMPI PUSH2 0xF19 PUSH2 0xDCF JUMP JUMPDEST JUMPDEST PUSH0 PUSH2 0xF27 DUP5 DUP3 DUP6 ADD PUSH2 0xEF1 JUMP JUMPDEST SWAP2 POP POP SWAP3 SWAP2 POP POP JUMP JUMPDEST PUSH0 DUP2 ISZERO ISZERO SWAP1 POP SWAP2 SWAP1 POP JUMP JUMPDEST PUSH2 0xF44 DUP2 PUSH2 0xF30 JUMP JUMPDEST DUP3 MSTORE POP POP JUMP JUMPDEST PUSH0 PUSH1 0x20 DUP3 ADD SWAP1 POP PUSH2 0xF5D PUSH0 DUP4 ADD DUP5 PUSH2 0xF3B JUMP JUMPDEST SWAP3 SWAP2 POP POP JUMP JUMPDEST PUSH0 DUP2 SWAP1 POP SWAP2 SWAP1 POP JUMP JUMPDEST PUSH2 0xF75 DUP2 PUSH2 0xF63 JUMP JUMPDEST DUP2 EQ PUSH2 0xF7F JUMPI PUSH0 DUP1 REVERT JUMPDEST POP JUMP JUMPDEST PUSH0 DUP2 CALLDATALOAD SWAP1 POP PUSH2 0xF90 DUP2 PUSH2 0xF6C JUMP JUMPDEST SWAP3 SWAP2 POP POP JUMP JUMPDEST PUSH0 DUP1 PUSH1 0x40 DUP4 DUP6 SUB SLT ISZERO PUSH2 0xFAC JUMPI PUSH2 0xFAB PUSH2 0xDCF JUMP JUMPDEST JUMPDEST PUSH0 PUSH2 0xFB9 DUP6 DUP3 DUP7 ADD PUSH2 0xF82 JUMP JUMPDEST SWAP3 POP POP PUSH1 0x20 PUSH2 0xFCA DUP6 DUP3 DUP7 ADD PUSH2 0xEF1 JUMP JUMPDEST SWAP2 POP POP SWAP3 POP SWAP3 SWAP1 POP JUMP JUMPDEST PUSH0 PUSH1 0x20 DUP3 DUP5 SUB SLT ISZERO PUSH2 0xFE9 JUMPI PUSH2 0xFE8 PUSH2 0xDCF JUMP JUMPDEST JUMPDEST PUSH0 PUSH2 0xFF6 DUP5 DUP3 DUP6 ADD PUSH2 0xF82 JUMP JUMPDEST SWAP2 POP POP SWAP3 SWAP2 POP POP JUMP JUMPDEST PUSH2 0x1008 DUP2 PUSH2 0xF63 JUMP JUMPDEST DUP3 MSTORE POP POP JUMP JUMPDEST PUSH0 DUP2 MLOAD SWAP1 POP SWAP2 SWAP1 POP JUMP JUMPDEST PUSH0 DUP3 DUP3 MSTORE PUSH1 0x20 DUP3 ADD SWAP1 POP SWAP3 SWAP2 POP POP JUMP JUMPDEST DUP3 DUP2 DUP4 MCOPY PUSH0 DUP4 DUP4 ADD MSTORE POP POP POP JUMP JUMPDEST PUSH0 PUSH1 0x1F NOT PUSH1 0x1F DUP4 ADD AND SWAP1 POP SWAP2 SWAP1 POP JUMP JUMPDEST PUSH0 PUSH2 0x1050 DUP3 PUSH2 0x100E JUMP JUMPDEST PUSH2 0x105A DUP2 DUP6 PUSH2 0x1018 JUMP JUMPDEST SWAP4 POP PUSH2 0x106A DUP2 DUP6 PUSH1 0x20 DUP7 ADD PUSH2 0x1028 JUMP JUMPDEST PUSH2 0x1073 DUP2 PUSH2 0x1036 JUMP JUMPDEST DUP5 ADD SWAP2 POP POP SWAP3 SWAP2 POP POP JUMP JUMPDEST PUSH0 PUSH1 0xC0 DUP3 ADD SWAP1 POP PUSH2 0x1091 PUSH0 DUP4 ADD DUP10 PUSH2 0xFFF JUMP JUMPDEST DUP2 DUP2 SUB PUSH1 0x20 DUP4 ADD MSTORE PUSH2 0x10A3 DUP2 DUP9 PUSH2 0x1046 JUMP JUMPDEST SWAP1 POP PUSH2 0x10B2 PUSH1 0x40 DUP4 ADD DUP8 PUSH2 0xFFF JUMP JUMPDEST DUP2 DUP2 SUB PUSH1 0x60 DUP4 ADD MSTORE PUSH2 0x10C4 DUP2 DUP7 PUSH2 0x1046 JUMP JUMPDEST SWAP1 POP PUSH2 0x10D3 PUSH1 0x80 DUP4 ADD DUP6 PUSH2 0xEB3 JUMP JUMPDEST PUSH2 0x10E0 PUSH1 0xA0 DUP4 ADD DUP5 PUSH2 0xFFF JUMP JUMPDEST SWAP8 SWAP7 POP POP POP POP POP POP POP JUMP JUMPDEST PUSH0 DUP1 REVERT JUMPDEST PUSH32 0x4E487B7100000000000000000000000000000000000000000000000000000000 PUSH0 MSTORE PUSH1 0x41 PUSH1 0x4 MSTORE PUSH1 0x24 PUSH0 REVERT JUMPDEST PUSH2 0x1125 DUP3 PUSH2 0x1036 JUMP JUMPDEST DUP2 ADD DUP2 DUP2 LT PUSH8 0xFFFFFFFFFFFFFFFF DUP3 GT OR ISZERO PUSH2 0x1144 JUMPI PUSH2 0x1143 PUSH2 0x10EF JUMP JUMPDEST JUMPDEST DUP1 PUSH1 0x40 MSTORE POP POP POP JUMP JUMPDEST PUSH0 PUSH2 0x1156 PUSH2 0xDC6 JUMP JUMPDEST SWAP1 POP PUSH2 0x1162 DUP3 DUP3 PUSH2 0x111C JUMP JUMPDEST SWAP2 SWAP1 POP JUMP JUMPDEST PUSH0 PUSH8 0xFFFFFFFFFFFFFFFF DUP3 GT ISZERO PUSH2 0x1181 JUMPI PUSH2 0x1180 PUSH2 0x10EF JUMP JUMPDEST JUMPDEST PUSH2 0x118A DUP3 PUSH2 0x1036 JUMP JUMPDEST SWAP1 POP PUSH1 0x20 DUP2 ADD SWAP1 POP SWAP2 SWAP1 POP JUMP JUMPDEST DUP3 DUP2 DUP4 CALLDATACOPY PUSH0 DUP4 DUP4 ADD MSTORE POP POP POP JUMP JUMPDEST PUSH0 PUSH2 0x11B7 PUSH2 0x11B2 DUP5 PUSH2 0x1167 JUMP JUMPDEST PUSH2 0x114D JUMP JUMPDEST SWAP1 POP DUP3 DUP2 MSTORE PUSH1 0x20 DUP2 ADD DUP5 DUP5 DUP5 ADD GT ISZERO PUSH2 0x11D3 JUMPI PUSH2 0x11D2 PUSH2 0x10EB JUMP JUMPDEST JUMPDEST PUSH2 0x11DE DUP5 DUP3 DUP6 PUSH2 0x1197 JUMP JUMPDEST POP SWAP4 SWAP3 POP POP POP JUMP JUMPDEST PUSH0 DUP3 PUSH1 0x1F DUP4 ADD SLT PUSH2 0x11FA JUMPI PUSH2 0x11F9 PUSH2 0xDD7 JUMP JUMPDEST JUMPDEST DUP2 CALLDATALOAD PUSH2 0x120A DUP5 DUP3 PUSH1 0x20 DUP7 ADD PUSH2 0x11A5 JUMP JUMPDEST SWAP2 POP POP SWAP3 SWAP2 POP POP JUMP JUMPDEST PUSH0 DUP1 PUSH0 PUSH1 0x60 DUP5 DUP7 SUB SLT ISZERO PUSH2 0x122A JUMPI PUSH2 0x1229 PUSH2 0xDCF JUMP JUMPDEST JUMPDEST PUSH0 DUP5 ADD CALLDATALOAD PUSH8 0xFFFFFFFFFFFFFFFF DUP2 GT ISZERO PUSH2 0x1247 JUMPI PUSH2 0x1246 PUSH2 0xDD3 JUMP JUMPDEST JUMPDEST PUSH2 0x1253 DUP7 DUP3 DUP8 ADD PUSH2 0x11E6 JUMP JUMPDEST SWAP4 POP POP PUSH1 0x20 PUSH2 0x1264 DUP7 DUP3 DUP8 ADD PUSH2 0xF82 JUMP JUMPDEST SWAP3 POP POP PUSH1 0x40 DUP5 ADD CALLDATALOAD PUSH8 0xFFFFFFFFFFFFFFFF DUP2 GT ISZERO PUSH2 0x1285 JUMPI PUSH2 0x1284 PUSH2 0xDD3 JUMP JUMPDEST JUMPDEST PUSH2 0x1291 DUP7 DUP3 DUP8 ADD PUSH2 0x11E6 JUMP JUMPDEST SWAP2 POP POP SWAP3 POP SWAP3 POP SWAP3 JUMP JUMPDEST PUSH32 0x43616C6C6572206973206E6F74206F776E657200000000000000000000000000 PUSH0 DUP3 ADD MSTORE POP JUMP JUMPDEST PUSH0 PUSH2 0x12CF PUSH1 0x13 DUP4 PUSH2 0x1018 JUMP JUMPDEST SWAP2 POP PUSH2 0x12DA DUP3 PUSH2 0x129B JUMP JUMPDEST PUSH1 0x20 DUP3 ADD SWAP1 POP SWAP2 SWAP1 POP JUMP JUMPDEST PUSH0 PUSH1 0x20 DUP3 ADD SWAP1 POP DUP2 DUP2 SUB PUSH0 DUP4 ADD MSTORE PUSH2 0x12FC DUP2 PUSH2 0x12C3 JUMP JUMPDEST SWAP1 POP SWAP2 SWAP1 POP JUMP JUMPDEST PUSH32 0x4E487B7100000000000000000000000000000000000000000000000000000000 PUSH0 MSTORE PUSH1 0x32 PUSH1 0x4 MSTORE PUSH1 0x24 PUSH0 REVERT JUMPDEST PUSH32 0x4E6577206F776E65722063616E6E6F7420626520746865207A65726F20616464 PUSH0 DUP3 ADD MSTORE PUSH32 0x7265737300000000000000000000000000000000000000000000000000000000 PUSH1 0x20 DUP3 ADD MSTORE POP JUMP JUMPDEST PUSH0 PUSH2 0x138A PUSH1 0x24 DUP4 PUSH2 0x1018 JUMP JUMPDEST SWAP2 POP PUSH2 0x1395 DUP3 PUSH2 0x1330 JUMP JUMPDEST PUSH1 0x40 DUP3 ADD SWAP1 POP SWAP2 SWAP1 POP JUMP JUMPDEST PUSH0 PUSH1 0x20 DUP3 ADD SWAP1 POP DUP2 DUP2 SUB PUSH0 DUP4 ADD MSTORE PUSH2 0x13B7 DUP2 PUSH2 0x137E JUMP JUMPDEST SWAP1 POP SWAP2 SWAP1 POP JUMP JUMPDEST PUSH32 0x4E6577206F776E6572206973206E6F742077686974656C697374656400000000 PUSH0 DUP3 ADD MSTORE POP JUMP JUMPDEST PUSH0 PUSH2 0x13F2 PUSH1 0x1C DUP4 PUSH2 0x1018 JUMP JUMPDEST SWAP2 POP PUSH2 0x13FD DUP3 PUSH2 0x13BE JUMP JUMPDEST PUSH1 0x20 DUP3 ADD SWAP1 POP SWAP2 SWAP1 POP JUMP JUMPDEST PUSH0 PUSH1 0x20 DUP3 ADD SWAP1 POP DUP2 DUP2 SUB PUSH0 DUP4 ADD MSTORE PUSH2 0x141F DUP2 PUSH2 0x13E6 JUMP JUMPDEST SWAP1 POP SWAP2 SWAP1 POP JUMP JUMPDEST PUSH32 0x4F6E6C792063757272656E74206F776E65722063616E207472616E7366657220 PUSH0 DUP3 ADD MSTORE PUSH32 0x746865206C6F7400000000000000000000000000000000000000000000000000 PUSH1 0x20 DUP3 ADD MSTORE POP JUMP JUMPDEST PUSH0 PUSH2 0x1480 PUSH1 0x27 DUP4 PUSH2 0x1018 JUMP JUMPDEST SWAP2 POP PUSH2 0x148B DUP3 PUSH2 0x1426 JUMP JUMPDEST PUSH1 0x40 DUP3 ADD SWAP1 POP SWAP2 SWAP1 POP JUMP JUMPDEST PUSH0 PUSH1 0x20 DUP3 ADD SWAP1 POP DUP2 DUP2 SUB PUSH0 DUP4 ADD MSTORE PUSH2 0x14AD DUP2 PUSH2 0x1474 JUMP JUMPDEST SWAP1 POP SWAP2 SWAP1 POP JUMP JUMPDEST PUSH0 PUSH1 0x20 DUP3 ADD SWAP1 POP PUSH2 0x14C7 PUSH0 DUP4 ADD DUP5 PUSH2 0xFFF JUMP JUMPDEST SWAP3 SWAP2 POP POP JUMP JUMPDEST PUSH32 0x4E487B7100000000000000000000000000000000000000000000000000000000 PUSH0 MSTORE PUSH1 0x22 PUSH1 0x4 MSTORE PUSH1 0x24 PUSH0 REVERT JUMPDEST PUSH0 PUSH1 0x2 DUP3 DIV SWAP1 POP PUSH1 0x1 DUP3 AND DUP1 PUSH2 0x1511 JUMPI PUSH1 0x7F DUP3 AND SWAP2 POP JUMPDEST PUSH1 0x20 DUP3 LT DUP2 SUB PUSH2 0x1524 JUMPI PUSH2 0x1523 PUSH2 0x14CD JUMP JUMPDEST JUMPDEST POP SWAP2 SWAP1 POP JUMP JUMPDEST PUSH32 0x4E487B7100000000000000000000000000000000000000000000000000000000 PUSH0 MSTORE PUSH1 0x11 PUSH1 0x4 MSTORE PUSH1 0x24 PUSH0 REVERT JUMPDEST PUSH0 PUSH2 0x1561 DUP3 PUSH2 0xF63 JUMP JUMPDEST SWAP2 POP PUSH32 0xFFFFFFFFFFFFFFFFFFFFFFFFFFFFFFFFFFFFFFFFFFFFFFFFFFFFFFFFFFFFFFFF DUP3 SUB PUSH2 0x1593 JUMPI PUSH2 0x1592 PUSH2 0x152A JUMP JUMPDEST JUMPDEST PUSH1 0x1 DUP3 ADD SWAP1 POP SWAP2 SWAP1 POP JUMP JUMPDEST PUSH0 DUP2 SWAP1 POP DUP2 PUSH0 MSTORE PUSH1 0x20 PUSH0 KECCAK256 SWAP1 POP SWAP2 SWAP1 POP JUMP JUMPDEST PUSH0 PUSH1 0x20 PUSH1 0x1F DUP4 ADD DIV SWAP1 POP SWAP2 SWAP1 POP JUMP JUMPDEST PUSH0 DUP3 DUP3 SHL SWAP1 POP SWAP3 SWAP2 POP POP JUMP JUMPDEST PUSH0 PUSH1 0x8 DUP4 MUL PUSH2 0x15FA PUSH32 0xFFFFFFFFFFFFFFFFFFFFFFFFFFFFFFFFFFFFFFFFFFFFFFFFFFFFFFFFFFFFFFFF DUP3 PUSH2 0x15BF JUMP JUMPDEST PUSH2 0x1604 DUP7 DUP4 PUSH2 0x15BF JUMP JUMPDEST SWAP6 POP DUP1 NOT DUP5 AND SWAP4 POP DUP1 DUP7 AND DUP5 OR SWAP3 POP POP POP SWAP4 SWAP3 POP POP POP JUMP JUMPDEST PUSH0 DUP2 SWAP1 POP SWAP2 SWAP1 POP JUMP JUMPDEST PUSH0 PUSH2 0x163F PUSH2 0x163A PUSH2 0x1635 DUP5 PUSH2 0xF63 JUMP JUMPDEST PUSH2 0x161C JUMP JUMPDEST PUSH2 0xF63 JUMP JUMPDEST SWAP1 POP SWAP2 SWAP1 POP JUMP JUMPDEST PUSH0 DUP2 SWAP1 POP SWAP2 SWAP1 POP JUMP JUMPDEST PUSH2 0x1658 DUP4 PUSH2 0x1625 JUMP JUMPDEST PUSH2 0x166C PUSH2 0x1664 DUP3 PUSH2 0x1646 JUMP JUMPDEST DUP5 DUP5 SLOAD PUSH2 0x15CB JUMP JUMPDEST DUP3 SSTORE POP POP POP POP JUMP JUMPDEST PUSH0 SWAP1 JUMP JUMPDEST PUSH2 0x1680 PUSH2 0x1674 JUMP JUMPDEST PUSH2 0x168B DUP2 DUP5 DUP5 PUSH2 0x164F JUMP JUMPDEST POP POP POP JUMP JUMPDEST JUMPDEST DUP2 DUP2 LT ISZERO PUSH2 0x16AE JUMPI PUSH2 0x16A3 PUSH0 DUP3 PUSH2 0x1678 JUMP JUMPDEST PUSH1 0x1 DUP2 ADD SWAP1 POP PUSH2 0x1691 JUMP JUMPDEST POP POP JUMP JUMPDEST PUSH1 0x1F DUP3 GT ISZERO PUSH2 0x16F3 JUMPI PUSH2 0x16C4 DUP2 PUSH2 0x159E JUMP JUMPDEST PUSH2 0x16CD DUP5 PUSH2 0x15B0 JUMP JUMPDEST DUP2 ADD PUSH1 0x20 DUP6 LT ISZERO PUSH2 0x16DC JUMPI DUP2 SWAP1 POP JUMPDEST PUSH2 0x16F0 PUSH2 0x16E8 DUP6 PUSH2 0x15B0 JUMP JUMPDEST DUP4 ADD DUP3 PUSH2 0x1690 JUMP JUMPDEST POP POP JUMPDEST POP POP POP JUMP JUMPDEST PUSH0 DUP3 DUP3 SHR SWAP1 POP SWAP3 SWAP2 POP POP JUMP JUMPDEST PUSH0 PUSH2 0x1713 PUSH0 NOT DUP5 PUSH1 0x8 MUL PUSH2 0x16F8 JUMP JUMPDEST NOT DUP1 DUP4 AND SWAP2 POP POP SWAP3 SWAP2 POP POP JUMP JUMPDEST PUSH0 PUSH2 0x172B DUP4 DUP4 PUSH2 0x1704 JUMP JUMPDEST SWAP2 POP DUP3 PUSH1 0x2 MUL DUP3 OR SWAP1 POP SWAP3 SWAP2 POP POP JUMP JUMPDEST PUSH2 0x1744 DUP3 PUSH2 0x100E JUMP JUMPDEST PUSH8 0xFFFFFFFFFFFFFFFF DUP2 GT ISZERO PUSH2 0x175D JUMPI PUSH2 0x175C PUSH2 0x10EF JUMP JUMPDEST JUMPDEST PUSH2 0x1767 DUP3 SLOAD PUSH2 0x14FA JUMP JUMPDEST PUSH2 0x1772 DUP3 DUP3 DUP6 PUSH2 0x16B2 JUMP JUMPDEST PUSH0 PUSH1 0x20 SWAP1 POP PUSH1 0x1F DUP4 GT PUSH1 0x1 DUP2 EQ PUSH2 0x17A3 JUMPI PUSH0 DUP5 ISZERO PUSH2 0x1791 JUMPI DUP3 DUP8 ADD MLOAD SWAP1 POP JUMPDEST PUSH2 0x179B DUP6 DUP3 PUSH2 0x1720 JUMP JUMPDEST DUP7 SSTORE POP PUSH2 0x1802 JUMP JUMPDEST PUSH1 0x1F NOT DUP5 AND PUSH2 0x17B1 DUP7 PUSH2 0x159E JUMP JUMPDEST PUSH0 JUMPDEST DUP3 DUP2 LT ISZERO PUSH2 0x17D8 JUMPI DUP5 DUP10 ADD MLOAD DUP3 SSTORE PUSH1 0x1 DUP3 ADD SWAP2 POP PUSH1 0x20 DUP6 ADD SWAP5 POP PUSH1 0x20 DUP2 ADD SWAP1 POP PUSH2 0x17B3 JUMP JUMPDEST DUP7 DUP4 LT ISZERO PUSH2 0x17F5 JUMPI DUP5 DUP10 ADD MLOAD PUSH2 0x17F1 PUSH1 0x1F DUP10 AND DUP3 PUSH2 0x1704 JUMP JUMPDEST DUP4 SSTORE POP JUMPDEST PUSH1 0x1 PUSH1 0x2 DUP9 MUL ADD DUP9 SSTORE POP POP POP JUMPDEST POP POP POP POP POP POP JUMP JUMPDEST PUSH0 PUSH1 0x60 DUP3 ADD SWAP1 POP PUSH2 0x181D PUSH0 DUP4 ADD DUP7 PUSH2 0xFFF JUMP JUMPDEST DUP2 DUP2 SUB PUSH1 0x20 DUP4 ADD MSTORE PUSH2 0x182F DUP2 DUP6 PUSH2 0x1046 JUMP JUMPDEST SWAP1 POP DUP2 DUP2 SUB PUSH1 0x40 DUP4 ADD MSTORE PUSH2 0x1843 DUP2 DUP5 PUSH2 0x1046 JUMP JUMPDEST SWAP1 POP SWAP5 SWAP4 POP POP POP POP JUMP INVALID LOG2 PUSH5 0x6970667358 0x22 SLT KECCAK256 PUSH20 0x600A2D63AF1C32B6C3E74EF0D6627B91F5E356D3 DUP3 NUMBER 0xDD PUSH5 0xA025614D26 0xC6 DUP15 PUSH5 0x736F6C6343 STOP ADDMOD NOT STOP CALLER "
				},
				"gasEstimates": {
					"creation": {
						"codeDepositCost": "1255000",
						"executionCost": "34260",
						"totalCost": "1289260"
					},
					"external": {
						"addToWhitelist(address[])": "infinite",
						"changeOwner(address)": "30592",
						"getLotDetails(uint256)": "infinite",
						"getOwner()": "2538",
						"lots(uint256)": "infinite",
						"registerLot(string,uint256,string)": "infinite",
						"removeFromWhitelist(address)": "28174",
						"transferLotOwnership(uint256,address)": "infinite",
						"whitelist(address)": "2900"
					}
				},
				"methodIdentifiers": {
					"addToWhitelist(address[])": "7f649783",
					"changeOwner(address)": "a6f9dae1",
					"getLotDetails(uint256)": "e3c7f6df",
					"getOwner()": "893d20e8",
					"lots(uint256)": "f1648e84",
					"registerLot(string,uint256,string)": "e4cfa278",
					"removeFromWhitelist(address)": "8ab1d681",
					"transferLotOwnership(uint256,address)": "c00b29d8",
					"whitelist(address)": "9b19251a"
				}
			},
			"storageLayout": {
				"storage": [
					{
						"astId": 4,
						"contract": "contracts/ProductTracking.sol:ProductTracking",
						"label": "owner",
						"offset": 0,
						"slot": "0",
						"type": "t_address"
					},
					{
						"astId": 273,
						"contract": "contracts/ProductTracking.sol:ProductTracking",
						"label": "whitelist",
						"offset": 0,
						"slot": "1",
						"type": "t_mapping(t_address,t_bool)"
					},
					{
						"astId": 99,
						"contract": "contracts/ProductTracking.sol:ProductTracking",
						"label": "lotCounter",
						"offset": 0,
						"slot": "2",
						"type": "t_uint256"
					},
					{
						"astId": 104,
						"contract": "contracts/ProductTracking.sol:ProductTracking",
						"label": "lots",
						"offset": 0,
						"slot": "3",
						"type": "t_mapping(t_uint256,t_struct(Lot)97_storage)"
					}
				],
				"types": {
					"t_address": {
						"encoding": "inplace",
						"label": "address",
						"numberOfBytes": "20"
					},
					"t_bool": {
						"encoding": "inplace",
						"label": "bool",
						"numberOfBytes": "1"
					},
					"t_mapping(t_address,t_bool)": {
						"encoding": "mapping",
						"key": "t_address",
						"label": "mapping(address => bool)",
						"numberOfBytes": "32",
						"value": "t_bool"
					},
					"t_mapping(t_uint256,t_struct(Lot)97_storage)": {
						"encoding": "mapping",
						"key": "t_uint256",
						"label": "mapping(uint256 => struct ProductTracking.Lot)",
						"numberOfBytes": "32",
						"value": "t_struct(Lot)97_storage"
					},
					"t_string_storage": {
						"encoding": "bytes",
						"label": "string",
						"numberOfBytes": "32"
					},
					"t_struct(Lot)97_storage": {
						"encoding": "inplace",
						"label": "struct ProductTracking.Lot",
						"members": [
							{
								"astId": 86,
								"contract": "contracts/ProductTracking.sol:ProductTracking",
								"label": "id",
								"offset": 0,
								"slot": "0",
								"type": "t_uint256"
							},
							{
								"astId": 88,
								"contract": "contracts/ProductTracking.sol:ProductTracking",
								"label": "manufacturer",
								"offset": 0,
								"slot": "1",
								"type": "t_string_storage"
							},
							{
								"astId": 90,
								"contract": "contracts/ProductTracking.sol:ProductTracking",
								"label": "productCount",
								"offset": 0,
								"slot": "2",
								"type": "t_uint256"
							},
							{
								"astId": 92,
								"contract": "contracts/ProductTracking.sol:ProductTracking",
								"label": "productName",
								"offset": 0,
								"slot": "3",
								"type": "t_string_storage"
							},
							{
								"astId": 94,
								"contract": "contracts/ProductTracking.sol:ProductTracking",
								"label": "currentOwner",
								"offset": 0,
								"slot": "4",
								"type": "t_address"
							},
							{
								"astId": 96,
								"contract": "contracts/ProductTracking.sol:ProductTracking",
								"label": "dateOfPurchase",
								"offset": 0,
								"slot": "5",
								"type": "t_uint256"
							}
						],
						"numberOfBytes": "192"
					},
					"t_uint256": {
						"encoding": "inplace",
						"label": "uint256",
						"numberOfBytes": "32"
					}
				}
			},
			"userdoc": {
				"kind": "user",
				"methods": {},
				"version": 1
			}
		}
	}
}