{
	"contracts/AccessList.sol": {
		"AccessList": {
			"abi": [
				{
					"inputs": [],
					"stateMutability": "nonpayable",
					"type": "constructor"
				},
				{
					"anonymous": false,
					"inputs": [
						{
							"indexed": true,
							"internalType": "bytes32",
							"name": "role",
							"type": "bytes32"
						},
						{
							"indexed": true,
							"internalType": "address",
							"name": "account",
							"type": "address"
						},
						{
							"indexed": true,
							"internalType": "address",
							"name": "admin",
							"type": "address"
						}
					],
					"name": "RoleGranted",
					"type": "event"
				},
				{
					"anonymous": false,
					"inputs": [
						{
							"indexed": true,
							"internalType": "bytes32",
							"name": "role",
							"type": "bytes32"
						},
						{
							"indexed": true,
							"internalType": "address",
							"name": "account",
							"type": "address"
						},
						{
							"indexed": true,
							"internalType": "address",
							"name": "admin",
							"type": "address"
						}
					],
					"name": "RoleRevoked",
					"type": "event"
				},
				{
					"inputs": [],
					"name": "LOGISTICS_ROLE",
					"outputs": [
						{
							"internalType": "bytes32",
							"name": "",
							"type": "bytes32"
						}
					],
					"stateMutability": "view",
					"type": "function"
				},
				{
					"inputs": [],
					"name": "MANUFACTURER_ROLE",
					"outputs": [
						{
							"internalType": "bytes32",
							"name": "",
							"type": "bytes32"
						}
					],
					"stateMutability": "view",
					"type": "function"
				},
				{
					"inputs": [],
					"name": "RETAILER_ROLE",
					"outputs": [
						{
							"internalType": "bytes32",
							"name": "",
							"type": "bytes32"
						}
					],
					"stateMutability": "view",
					"type": "function"
				},
				{
					"inputs": [
						{
							"internalType": "address",
							"name": "account",
							"type": "address"
						}
					],
					"name": "getRole",
					"outputs": [
						{
							"internalType": "bytes32",
							"name": "",
							"type": "bytes32"
						}
					],
					"stateMutability": "view",
					"type": "function"
				},
				{
					"inputs": [
						{
							"internalType": "address",
							"name": "account",
							"type": "address"
						}
					],
					"name": "grantAdmin",
					"outputs": [],
					"stateMutability": "nonpayable",
					"type": "function"
				},
				{
					"inputs": [
						{
							"internalType": "bytes32",
							"name": "role",
							"type": "bytes32"
						},
						{
							"internalType": "address",
							"name": "account",
							"type": "address"
						}
					],
					"name": "grantRole",
					"outputs": [],
					"stateMutability": "nonpayable",
					"type": "function"
				},
				{
					"inputs": [
						{
							"internalType": "bytes32",
							"name": "role",
							"type": "bytes32"
						},
						{
							"internalType": "address",
							"name": "account",
							"type": "address"
						}
					],
					"name": "hasRole",
					"outputs": [
						{
							"internalType": "bool",
							"name": "",
							"type": "bool"
						}
					],
					"stateMutability": "view",
					"type": "function"
				},
				{
					"inputs": [
						{
							"internalType": "address",
							"name": "account",
							"type": "address"
						}
					],
					"name": "isAdmin",
					"outputs": [
						{
							"internalType": "bool",
							"name": "",
							"type": "bool"
						}
					],
					"stateMutability": "view",
					"type": "function"
				},
				{
					"inputs": [
						{
							"internalType": "address",
							"name": "account",
							"type": "address"
						}
					],
					"name": "isLogistics",
					"outputs": [
						{
							"internalType": "bool",
							"name": "",
							"type": "bool"
						}
					],
					"stateMutability": "view",
					"type": "function"
				},
				{
					"inputs": [
						{
							"internalType": "address",
							"name": "account",
							"type": "address"
						}
					],
					"name": "isManufacturer",
					"outputs": [
						{
							"internalType": "bool",
							"name": "",
							"type": "bool"
						}
					],
					"stateMutability": "view",
					"type": "function"
				},
				{
					"inputs": [
						{
							"internalType": "address",
							"name": "account",
							"type": "address"
						}
					],
					"name": "isRetailer",
					"outputs": [
						{
							"internalType": "bool",
							"name": "",
							"type": "bool"
						}
					],
					"stateMutability": "view",
					"type": "function"
				},
				{
					"inputs": [],
					"name": "owner",
					"outputs": [
						{
							"internalType": "address",
							"name": "",
							"type": "address"
						}
					],
					"stateMutability": "view",
					"type": "function"
				},
				{
					"inputs": [
						{
							"internalType": "address",
							"name": "account",
							"type": "address"
						}
					],
					"name": "revokeAdmin",
					"outputs": [],
					"stateMutability": "nonpayable",
					"type": "function"
				},
				{
					"inputs": [
						{
							"internalType": "bytes32",
							"name": "role",
							"type": "bytes32"
						},
						{
							"internalType": "address",
							"name": "account",
							"type": "address"
						}
					],
					"name": "revokeRole",
					"outputs": [],
					"stateMutability": "nonpayable",
					"type": "function"
				}
			],
			"devdoc": {
				"details": "Manages role-based access control for different actors within the product tracking system.",
				"kind": "dev",
				"methods": {},
				"title": "AccessList",
				"version": 1
			},
			"evm": {
				"assembly": "    /* \"contracts/AccessList.sol\":200:2977  contract AccessList {... */\n  mstore(0x40, 0x80)\n    /* \"contracts/AccessList.sol\":1258:1372  constructor() {... */\n  callvalue\n  dup1\n  iszero\n  tag_1\n  jumpi\n  0x00\n  dup1\n  revert\ntag_1:\n  pop\n    /* \"contracts/AccessList.sol\":1291:1301  msg.sender */\n  caller\n    /* \"contracts/AccessList.sol\":1283:1288  owner */\n  0x00\n  dup1\n    /* \"contracts/AccessList.sol\":1283:1301  owner = msg.sender */\n  0x0100\n  exp\n  dup2\n  sload\n  dup2\n  0xffffffffffffffffffffffffffffffffffffffff\n  mul\n  not\n  and\n  swap1\n  dup4\n  0xffffffffffffffffffffffffffffffffffffffff\n  and\n  mul\n  or\n  swap1\n  sstore\n  pop\n    /* \"contracts/AccessList.sol\":1328:1332  true */\n  0x01\n    /* \"contracts/AccessList.sol\":1312:1318  admins */\n  dup1\n    /* \"contracts/AccessList.sol\":1312:1325  admins[owner] */\n  0x00\n    /* \"contracts/AccessList.sol\":1319:1324  owner */\n  dup1\n  0x00\n  swap1\n  sload\n  swap1\n  0x0100\n  exp\n  swap1\n  div\n  0xffffffffffffffffffffffffffffffffffffffff\n  and\n    /* \"contracts/AccessList.sol\":1312:1325  admins[owner] */\n  0xffffffffffffffffffffffffffffffffffffffff\n  and\n  0xffffffffffffffffffffffffffffffffffffffff\n  and\n  dup2\n  mstore\n  0x20\n  add\n  swap1\n  dup2\n  mstore\n  0x20\n  add\n  0x00\n  keccak256\n  0x00\n    /* \"contracts/AccessList.sol\":1312:1332  admins[owner] = true */\n  0x0100\n  exp\n  dup2\n  sload\n  dup2\n  0xff\n  mul\n  not\n  and\n  swap1\n  dup4\n  iszero\n  iszero\n  mul\n  or\n  swap1\n  sstore\n  pop\n    /* \"contracts/AccessList.sol\":200:2977  contract AccessList {... */\n  dataSize(sub_0)\n  dup1\n  dataOffset(sub_0)\n  0x00\n  codecopy\n  0x00\n  return\nstop\n\nsub_0: assembly {\n        /* \"contracts/AccessList.sol\":200:2977  contract AccessList {... */\n      mstore(0x40, 0x80)\n      callvalue\n      dup1\n      iszero\n      tag_1\n      jumpi\n      0x00\n      dup1\n      revert\n    tag_1:\n      pop\n      jumpi(tag_2, lt(calldatasize, 0x04))\n      shr(0xe0, calldataload(0x00))\n      dup1\n      0x5da09b88\n      gt\n      tag_17\n      jumpi\n      dup1\n      0x91d14854\n      gt\n      tag_18\n      jumpi\n      dup1\n      0x91d14854\n      eq\n      tag_13\n      jumpi\n      dup1\n      0x965288b0\n      eq\n      tag_14\n      jumpi\n      dup1\n      0xc602d3fb\n      eq\n      tag_15\n      jumpi\n      dup1\n      0xd547741f\n      eq\n      tag_16\n      jumpi\n      jump(tag_2)\n    tag_18:\n      dup1\n      0x5da09b88\n      eq\n      tag_10\n      jumpi\n      dup1\n      0x8305866f\n      eq\n      tag_11\n      jumpi\n      dup1\n      0x8da5cb5b\n      eq\n      tag_12\n      jumpi\n      jump(tag_2)\n    tag_17:\n      dup1\n      0x2d345670\n      gt\n      tag_19\n      jumpi\n      dup1\n      0x2d345670\n      eq\n      tag_6\n      jumpi\n      dup1\n      0x2f2ff15d\n      eq\n      tag_7\n      jumpi\n      dup1\n      0x35bb3e16\n      eq\n      tag_8\n      jumpi\n      dup1\n      0x44276733\n      eq\n      tag_9\n      jumpi\n      jump(tag_2)\n    tag_19:\n      dup1\n      0x17d4a491\n      eq\n      tag_3\n      jumpi\n      dup1\n      0x2115e7bf\n      eq\n      tag_4\n      jumpi\n      dup1\n      0x24d7806c\n      eq\n      tag_5\n      jumpi\n    tag_2:\n      0x00\n      dup1\n      revert\n        /* \"contracts/AccessList.sol\":2585:2714  function isManufacturer(address account) public view returns (bool) {... */\n    tag_3:\n      tag_20\n      0x04\n      dup1\n      calldatasize\n      sub\n      dup2\n      add\n      swap1\n      tag_21\n      swap2\n      swap1\n      tag_22\n      jump\t// in\n    tag_21:\n      tag_23\n      jump\t// in\n    tag_20:\n      mload(0x40)\n      tag_24\n      swap2\n      swap1\n      tag_25\n      jump\t// in\n    tag_24:\n      mload(0x40)\n      dup1\n      swap2\n      sub\n      swap1\n      return\n        /* \"contracts/AccessList.sol\":647:713  bytes32 public constant RETAILER_ROLE = keccak256(\"RETAILER_ROLE\") */\n    tag_4:\n      tag_26\n      tag_27\n      jump\t// in\n    tag_26:\n      mload(0x40)\n      tag_28\n      swap2\n      swap1\n      tag_29\n      jump\t// in\n    tag_28:\n      mload(0x40)\n      dup1\n      swap2\n      sub\n      swap1\n      return\n        /* \"contracts/AccessList.sol\":2280:2382  function isAdmin(address account) public view returns (bool) {... */\n    tag_5:\n      tag_30\n      0x04\n      dup1\n      calldatasize\n      sub\n      dup2\n      add\n      swap1\n      tag_31\n      swap2\n      swap1\n      tag_22\n      jump\t// in\n    tag_31:\n      tag_32\n      jump\t// in\n    tag_30:\n      mload(0x40)\n      tag_33\n      swap2\n      swap1\n      tag_25\n      jump\t// in\n    tag_33:\n      mload(0x40)\n      dup1\n      swap2\n      sub\n      swap1\n      return\n        /* \"contracts/AccessList.sol\":1483:1655  function revokeAdmin(address account) public onlyOwner {... */\n    tag_6:\n      tag_34\n      0x04\n      dup1\n      calldatasize\n      sub\n      dup2\n      add\n      swap1\n      tag_35\n      swap2\n      swap1\n      tag_22\n      jump\t// in\n    tag_35:\n      tag_36\n      jump\t// in\n    tag_34:\n      stop\n        /* \"contracts/AccessList.sol\":1663:1905  function grantRole(bytes32 role, address account) public onlyAdmin {... */\n    tag_7:\n      tag_37\n      0x04\n      dup1\n      calldatasize\n      sub\n      dup2\n      add\n      swap1\n      tag_38\n      swap2\n      swap1\n      tag_39\n      jump\t// in\n    tag_38:\n      tag_40\n      jump\t// in\n    tag_37:\n      stop\n        /* \"contracts/AccessList.sol\":1380:1475  function grantAdmin(address account) public onlyOwner {... */\n    tag_8:\n      tag_41\n      0x04\n      dup1\n      calldatasize\n      sub\n      dup2\n      add\n      swap1\n      tag_42\n      swap2\n      swap1\n      tag_22\n      jump\t// in\n    tag_42:\n      tag_43\n      jump\t// in\n    tag_41:\n      stop\n        /* \"contracts/AccessList.sol\":2168:2272  function getRole(address account) public view returns (bytes32) {... */\n    tag_9:\n      tag_44\n      0x04\n      dup1\n      calldatasize\n      sub\n      dup2\n      add\n      swap1\n      tag_45\n      swap2\n      swap1\n      tag_22\n      jump\t// in\n    tag_45:\n      tag_46\n      jump\t// in\n    tag_44:\n      mload(0x40)\n      tag_47\n      swap2\n      swap1\n      tag_29\n      jump\t// in\n    tag_47:\n      mload(0x40)\n      dup1\n      swap2\n      sub\n      swap1\n      return\n        /* \"contracts/AccessList.sol\":2853:2974  function isRetailer(address account) public view returns (bool) {... */\n    tag_10:\n      tag_48\n      0x04\n      dup1\n      calldatasize\n      sub\n      dup2\n      add\n      swap1\n      tag_49\n      swap2\n      swap1\n      tag_22\n      jump\t// in\n    tag_49:\n      tag_50\n      jump\t// in\n    tag_48:\n      mload(0x40)\n      tag_51\n      swap2\n      swap1\n      tag_25\n      jump\t// in\n    tag_51:\n      mload(0x40)\n      dup1\n      swap2\n      sub\n      swap1\n      return\n        /* \"contracts/AccessList.sol\":2722:2845  function isLogistics(address account) public view returns (bool) {... */\n    tag_11:\n      tag_52\n      0x04\n      dup1\n      calldatasize\n      sub\n      dup2\n      add\n      swap1\n      tag_53\n      swap2\n      swap1\n      tag_22\n      jump\t// in\n    tag_53:\n      tag_54\n      jump\t// in\n    tag_52:\n      mload(0x40)\n      tag_55\n      swap2\n      swap1\n      tag_25\n      jump\t// in\n    tag_55:\n      mload(0x40)\n      dup1\n      swap2\n      sub\n      swap1\n      return\n        /* \"contracts/AccessList.sol\":227:247  address public owner */\n    tag_12:\n      tag_56\n      tag_57\n      jump\t// in\n    tag_56:\n      mload(0x40)\n      tag_58\n      swap2\n      swap1\n      tag_59\n      jump\t// in\n    tag_58:\n      mload(0x40)\n      dup1\n      swap2\n      sub\n      swap1\n      return\n        /* \"contracts/AccessList.sol\":2390:2513  function hasRole(bytes32 role, address account) public view returns (bool) {... */\n    tag_13:\n      tag_60\n      0x04\n      dup1\n      calldatasize\n      sub\n      dup2\n      add\n      swap1\n      tag_61\n      swap2\n      swap1\n      tag_39\n      jump\t// in\n    tag_61:\n      tag_62\n      jump\t// in\n    tag_60:\n      mload(0x40)\n      tag_63\n      swap2\n      swap1\n      tag_25\n      jump\t// in\n    tag_63:\n      mload(0x40)\n      dup1\n      swap2\n      sub\n      swap1\n      return\n        /* \"contracts/AccessList.sol\":491:565  bytes32 public constant MANUFACTURER_ROLE = keccak256(\"MANUFACTURER_ROLE\") */\n    tag_14:\n      tag_64\n      tag_65\n      jump\t// in\n    tag_64:\n      mload(0x40)\n      tag_66\n      swap2\n      swap1\n      tag_29\n      jump\t// in\n    tag_66:\n      mload(0x40)\n      dup1\n      swap2\n      sub\n      swap1\n      return\n        /* \"contracts/AccessList.sol\":572:640  bytes32 public constant LOGISTICS_ROLE = keccak256(\"LOGISTICS_ROLE\") */\n    tag_15:\n      tag_67\n      tag_68\n      jump\t// in\n    tag_67:\n      mload(0x40)\n      tag_69\n      swap2\n      swap1\n      tag_29\n      jump\t// in\n    tag_69:\n      mload(0x40)\n      dup1\n      swap2\n      sub\n      swap1\n      return\n        /* \"contracts/AccessList.sol\":1913:2160  function revokeRole(bytes32 role, address account) public onlyAdmin {... */\n    tag_16:\n      tag_70\n      0x04\n      dup1\n      calldatasize\n      sub\n      dup2\n      add\n      swap1\n      tag_71\n      swap2\n      swap1\n      tag_39\n      jump\t// in\n    tag_71:\n      tag_72\n      jump\t// in\n    tag_70:\n      stop\n        /* \"contracts/AccessList.sol\":2585:2714  function isManufacturer(address account) public view returns (bool) {... */\n    tag_23:\n        /* \"contracts/AccessList.sol\":2647:2651  bool */\n      0x00\n        /* \"contracts/AccessList.sol\":2671:2706  hasRole(MANUFACTURER_ROLE, account) */\n      tag_74\n        /* \"contracts/AccessList.sol\":535:565  keccak256(\"MANUFACTURER_ROLE\") */\n      0xeefb95e842a3287179d933b4460be539a1d5af11aa8b325bb45c5c8dc92de4ed\n        /* \"contracts/AccessList.sol\":2698:2705  account */\n      dup4\n        /* \"contracts/AccessList.sol\":2671:2678  hasRole */\n      tag_62\n        /* \"contracts/AccessList.sol\":2671:2706  hasRole(MANUFACTURER_ROLE, account) */\n      jump\t// in\n    tag_74:\n        /* \"contracts/AccessList.sol\":2664:2706  return hasRole(MANUFACTURER_ROLE, account) */\n      swap1\n      pop\n        /* \"contracts/AccessList.sol\":2585:2714  function isManufacturer(address account) public view returns (bool) {... */\n      swap2\n      swap1\n      pop\n      jump\t// out\n        /* \"contracts/AccessList.sol\":647:713  bytes32 public constant RETAILER_ROLE = keccak256(\"RETAILER_ROLE\") */\n    tag_27:\n        /* \"contracts/AccessList.sol\":687:713  keccak256(\"RETAILER_ROLE\") */\n      0x2a5f906c256a5d799494fcd066e1f6c077689de1cdb65052a1624de4bace99bf\n        /* \"contracts/AccessList.sol\":647:713  bytes32 public constant RETAILER_ROLE = keccak256(\"RETAILER_ROLE\") */\n      dup2\n      jump\t// out\n        /* \"contracts/AccessList.sol\":2280:2382  function isAdmin(address account) public view returns (bool) {... */\n    tag_32:\n        /* \"contracts/AccessList.sol\":2335:2339  bool */\n      0x00\n        /* \"contracts/AccessList.sol\":2359:2365  admins */\n      0x01\n        /* \"contracts/AccessList.sol\":2359:2374  admins[account] */\n      0x00\n        /* \"contracts/AccessList.sol\":2366:2373  account */\n      dup4\n        /* \"contracts/AccessList.sol\":2359:2374  admins[account] */\n      0xffffffffffffffffffffffffffffffffffffffff\n      and\n      0xffffffffffffffffffffffffffffffffffffffff\n      and\n      dup2\n      mstore\n      0x20\n      add\n      swap1\n      dup2\n      mstore\n      0x20\n      add\n      0x00\n      keccak256\n      0x00\n      swap1\n      sload\n      swap1\n      0x0100\n      exp\n      swap1\n      div\n      0xff\n      and\n        /* \"contracts/AccessList.sol\":2352:2374  return admins[account] */\n      swap1\n      pop\n        /* \"contracts/AccessList.sol\":2280:2382  function isAdmin(address account) public view returns (bool) {... */\n      swap2\n      swap1\n      pop\n      jump\t// out\n        /* \"contracts/AccessList.sol\":1483:1655  function revokeAdmin(address account) public onlyOwner {... */\n    tag_36:\n        /* \"contracts/AccessList.sol\":1060:1065  owner */\n      0x00\n      dup1\n      sload\n      swap1\n      0x0100\n      exp\n      swap1\n      div\n      0xffffffffffffffffffffffffffffffffffffffff\n      and\n        /* \"contracts/AccessList.sol\":1046:1065  msg.sender == owner */\n      0xffffffffffffffffffffffffffffffffffffffff\n      and\n        /* \"contracts/AccessList.sol\":1046:1056  msg.sender */\n      caller\n        /* \"contracts/AccessList.sol\":1046:1065  msg.sender == owner */\n      0xffffffffffffffffffffffffffffffffffffffff\n      and\n      eq\n        /* \"contracts/AccessList.sol\":1038:1105  require(msg.sender == owner, \"AccessList: caller is not the owner\") */\n      tag_77\n      jumpi\n      mload(0x40)\n      0x08c379a000000000000000000000000000000000000000000000000000000000\n      dup2\n      mstore\n      0x04\n      add\n      tag_78\n      swap1\n      tag_79\n      jump\t// in\n    tag_78:\n      mload(0x40)\n      dup1\n      swap2\n      sub\n      swap1\n      revert\n    tag_77:\n        /* \"contracts/AccessList.sol\":1568:1578  msg.sender */\n      caller\n        /* \"contracts/AccessList.sol\":1557:1578  account != msg.sender */\n      0xffffffffffffffffffffffffffffffffffffffff\n      and\n        /* \"contracts/AccessList.sol\":1557:1564  account */\n      dup2\n        /* \"contracts/AccessList.sol\":1557:1578  account != msg.sender */\n      0xffffffffffffffffffffffffffffffffffffffff\n      and\n      sub\n        /* \"contracts/AccessList.sol\":1549:1613  require(account != msg.sender, \"AccessList: cannot revoke self\") */\n      tag_81\n      jumpi\n      mload(0x40)\n      0x08c379a000000000000000000000000000000000000000000000000000000000\n      dup2\n      mstore\n      0x04\n      add\n      tag_82\n      swap1\n      tag_83\n      jump\t// in\n    tag_82:\n      mload(0x40)\n      dup1\n      swap2\n      sub\n      swap1\n      revert\n    tag_81:\n        /* \"contracts/AccessList.sol\":1642:1647  false */\n      0x00\n        /* \"contracts/AccessList.sol\":1624:1630  admins */\n      0x01\n        /* \"contracts/AccessList.sol\":1624:1639  admins[account] */\n      0x00\n        /* \"contracts/AccessList.sol\":1631:1638  account */\n      dup4\n        /* \"contracts/AccessList.sol\":1624:1639  admins[account] */\n      0xffffffffffffffffffffffffffffffffffffffff\n      and\n      0xffffffffffffffffffffffffffffffffffffffff\n      and\n      dup2\n      mstore\n      0x20\n      add\n      swap1\n      dup2\n      mstore\n      0x20\n      add\n      0x00\n      keccak256\n      0x00\n        /* \"contracts/AccessList.sol\":1624:1647  admins[account] = false */\n      0x0100\n      exp\n      dup2\n      sload\n      dup2\n      0xff\n      mul\n      not\n      and\n      swap1\n      dup4\n      iszero\n      iszero\n      mul\n      or\n      swap1\n      sstore\n      pop\n        /* \"contracts/AccessList.sol\":1483:1655  function revokeAdmin(address account) public onlyOwner {... */\n      pop\n      jump\t// out\n        /* \"contracts/AccessList.sol\":1663:1905  function grantRole(bytes32 role, address account) public onlyAdmin {... */\n    tag_40:\n        /* \"contracts/AccessList.sol\":1173:1179  admins */\n      0x01\n        /* \"contracts/AccessList.sol\":1173:1191  admins[msg.sender] */\n      0x00\n        /* \"contracts/AccessList.sol\":1180:1190  msg.sender */\n      caller\n        /* \"contracts/AccessList.sol\":1173:1191  admins[msg.sender] */\n      0xffffffffffffffffffffffffffffffffffffffff\n      and\n      0xffffffffffffffffffffffffffffffffffffffff\n      and\n      dup2\n      mstore\n      0x20\n      add\n      swap1\n      dup2\n      mstore\n      0x20\n      add\n      0x00\n      keccak256\n      0x00\n      swap1\n      sload\n      swap1\n      0x0100\n      exp\n      swap1\n      div\n      0xff\n      and\n        /* \"contracts/AccessList.sol\":1165:1230  require(admins[msg.sender], \"AccessList: caller is not an admin\") */\n      tag_85\n      jumpi\n      mload(0x40)\n      0x08c379a000000000000000000000000000000000000000000000000000000000\n      dup2\n      mstore\n      0x04\n      add\n      tag_86\n      swap1\n      tag_87\n      jump\t// in\n    tag_86:\n      mload(0x40)\n      dup1\n      swap2\n      sub\n      swap1\n      revert\n    tag_85:\n        /* \"contracts/AccessList.sol\":1767:1768  0 */\n      0x00\n        /* \"contracts/AccessList.sol\":1749:1768  roles[account] == 0 */\n      dup1\n      shl\n        /* \"contracts/AccessList.sol\":1749:1754  roles */\n      0x02\n        /* \"contracts/AccessList.sol\":1749:1763  roles[account] */\n      0x00\n        /* \"contracts/AccessList.sol\":1755:1762  account */\n      dup4\n        /* \"contracts/AccessList.sol\":1749:1763  roles[account] */\n      0xffffffffffffffffffffffffffffffffffffffff\n      and\n      0xffffffffffffffffffffffffffffffffffffffff\n      and\n      dup2\n      mstore\n      0x20\n      add\n      swap1\n      dup2\n      mstore\n      0x20\n      add\n      0x00\n      keccak256\n      sload\n        /* \"contracts/AccessList.sol\":1749:1768  roles[account] == 0 */\n      eq\n        /* \"contracts/AccessList.sol\":1741:1811  require(roles[account] == 0, \"AccessList: account already has a role\") */\n      tag_89\n      jumpi\n      mload(0x40)\n      0x08c379a000000000000000000000000000000000000000000000000000000000\n      dup2\n      mstore\n      0x04\n      add\n      tag_90\n      swap1\n      tag_91\n      jump\t// in\n    tag_90:\n      mload(0x40)\n      dup1\n      swap2\n      sub\n      swap1\n      revert\n    tag_89:\n        /* \"contracts/AccessList.sol\":1839:1843  role */\n      dup2\n        /* \"contracts/AccessList.sol\":1822:1827  roles */\n      0x02\n        /* \"contracts/AccessList.sol\":1822:1836  roles[account] */\n      0x00\n        /* \"contracts/AccessList.sol\":1828:1835  account */\n      dup4\n        /* \"contracts/AccessList.sol\":1822:1836  roles[account] */\n      0xffffffffffffffffffffffffffffffffffffffff\n      and\n      0xffffffffffffffffffffffffffffffffffffffff\n      and\n      dup2\n      mstore\n      0x20\n      add\n      swap1\n      dup2\n      mstore\n      0x20\n      add\n      0x00\n      keccak256\n        /* \"contracts/AccessList.sol\":1822:1843  roles[account] = role */\n      dup2\n      swap1\n      sstore\n      pop\n        /* \"contracts/AccessList.sol\":1886:1896  msg.sender */\n      caller\n        /* \"contracts/AccessList.sol\":1859:1897  RoleGranted(role, account, msg.sender) */\n      0xffffffffffffffffffffffffffffffffffffffff\n      and\n        /* \"contracts/AccessList.sol\":1877:1884  account */\n      dup2\n        /* \"contracts/AccessList.sol\":1859:1897  RoleGranted(role, account, msg.sender) */\n      0xffffffffffffffffffffffffffffffffffffffff\n      and\n        /* \"contracts/AccessList.sol\":1871:1875  role */\n      dup4\n        /* \"contracts/AccessList.sol\":1859:1897  RoleGranted(role, account, msg.sender) */\n      0x2f8788117e7eff1d82e926ec794901d17c78024a50270940304540a733656f0d\n      mload(0x40)\n      mload(0x40)\n      dup1\n      swap2\n      sub\n      swap1\n      log4\n        /* \"contracts/AccessList.sol\":1663:1905  function grantRole(bytes32 role, address account) public onlyAdmin {... */\n      pop\n      pop\n      jump\t// out\n        /* \"contracts/AccessList.sol\":1380:1475  function grantAdmin(address account) public onlyOwner {... */\n    tag_43:\n        /* \"contracts/AccessList.sol\":1060:1065  owner */\n      0x00\n      dup1\n      sload\n      swap1\n      0x0100\n      exp\n      swap1\n      div\n      0xffffffffffffffffffffffffffffffffffffffff\n      and\n        /* \"contracts/AccessList.sol\":1046:1065  msg.sender == owner */\n      0xffffffffffffffffffffffffffffffffffffffff\n      and\n        /* \"contracts/AccessList.sol\":1046:1056  msg.sender */\n      caller\n        /* \"contracts/AccessList.sol\":1046:1065  msg.sender == owner */\n      0xffffffffffffffffffffffffffffffffffffffff\n      and\n      eq\n        /* \"contracts/AccessList.sol\":1038:1105  require(msg.sender == owner, \"AccessList: caller is not the owner\") */\n      tag_93\n      jumpi\n      mload(0x40)\n      0x08c379a000000000000000000000000000000000000000000000000000000000\n      dup2\n      mstore\n      0x04\n      add\n      tag_94\n      swap1\n      tag_79\n      jump\t// in\n    tag_94:\n      mload(0x40)\n      dup1\n      swap2\n      sub\n      swap1\n      revert\n    tag_93:\n        /* \"contracts/AccessList.sol\":1463:1467  true */\n      0x01\n        /* \"contracts/AccessList.sol\":1445:1451  admins */\n      dup1\n        /* \"contracts/AccessList.sol\":1445:1460  admins[account] */\n      0x00\n        /* \"contracts/AccessList.sol\":1452:1459  account */\n      dup4\n        /* \"contracts/AccessList.sol\":1445:1460  admins[account] */\n      0xffffffffffffffffffffffffffffffffffffffff\n      and\n      0xffffffffffffffffffffffffffffffffffffffff\n      and\n      dup2\n      mstore\n      0x20\n      add\n      swap1\n      dup2\n      mstore\n      0x20\n      add\n      0x00\n      keccak256\n      0x00\n        /* \"contracts/AccessList.sol\":1445:1467  admins[account] = true */\n      0x0100\n      exp\n      dup2\n      sload\n      dup2\n      0xff\n      mul\n      not\n      and\n      swap1\n      dup4\n      iszero\n      iszero\n      mul\n      or\n      swap1\n      sstore\n      pop\n        /* \"contracts/AccessList.sol\":1380:1475  function grantAdmin(address account) public onlyOwner {... */\n      pop\n      jump\t// out\n        /* \"contracts/AccessList.sol\":2168:2272  function getRole(address account) public view returns (bytes32) {... */\n    tag_46:\n        /* \"contracts/AccessList.sol\":2223:2230  bytes32 */\n      0x00\n        /* \"contracts/AccessList.sol\":2250:2255  roles */\n      0x02\n        /* \"contracts/AccessList.sol\":2250:2264  roles[account] */\n      0x00\n        /* \"contracts/AccessList.sol\":2256:2263  account */\n      dup4\n        /* \"contracts/AccessList.sol\":2250:2264  roles[account] */\n      0xffffffffffffffffffffffffffffffffffffffff\n      and\n      0xffffffffffffffffffffffffffffffffffffffff\n      and\n      dup2\n      mstore\n      0x20\n      add\n      swap1\n      dup2\n      mstore\n      0x20\n      add\n      0x00\n      keccak256\n      sload\n        /* \"contracts/AccessList.sol\":2243:2264  return roles[account] */\n      swap1\n      pop\n        /* \"contracts/AccessList.sol\":2168:2272  function getRole(address account) public view returns (bytes32) {... */\n      swap2\n      swap1\n      pop\n      jump\t// out\n        /* \"contracts/AccessList.sol\":2853:2974  function isRetailer(address account) public view returns (bool) {... */\n    tag_50:\n        /* \"contracts/AccessList.sol\":2911:2915  bool */\n      0x00\n        /* \"contracts/AccessList.sol\":2935:2966  hasRole(RETAILER_ROLE, account) */\n      tag_98\n        /* \"contracts/AccessList.sol\":687:713  keccak256(\"RETAILER_ROLE\") */\n      0x2a5f906c256a5d799494fcd066e1f6c077689de1cdb65052a1624de4bace99bf\n        /* \"contracts/AccessList.sol\":2958:2965  account */\n      dup4\n        /* \"contracts/AccessList.sol\":2935:2942  hasRole */\n      tag_62\n        /* \"contracts/AccessList.sol\":2935:2966  hasRole(RETAILER_ROLE, account) */\n      jump\t// in\n    tag_98:\n        /* \"contracts/AccessList.sol\":2928:2966  return hasRole(RETAILER_ROLE, account) */\n      swap1\n      pop\n        /* \"contracts/AccessList.sol\":2853:2974  function isRetailer(address account) public view returns (bool) {... */\n      swap2\n      swap1\n      pop\n      jump\t// out\n        /* \"contracts/AccessList.sol\":2722:2845  function isLogistics(address account) public view returns (bool) {... */\n    tag_54:\n        /* \"contracts/AccessList.sol\":2781:2785  bool */\n      0x00\n        /* \"contracts/AccessList.sol\":2805:2837  hasRole(LOGISTICS_ROLE, account) */\n      tag_100\n        /* \"contracts/AccessList.sol\":613:640  keccak256(\"LOGISTICS_ROLE\") */\n      0xded9b5e0e0e3a2b3f09a0bc36ec64b9bf7a7c2319f3c4d9cff5ce48714257b21\n        /* \"contracts/AccessList.sol\":2829:2836  account */\n      dup4\n        /* \"contracts/AccessList.sol\":2805:2812  hasRole */\n      tag_62\n        /* \"contracts/AccessList.sol\":2805:2837  hasRole(LOGISTICS_ROLE, account) */\n      jump\t// in\n    tag_100:\n        /* \"contracts/AccessList.sol\":2798:2837  return hasRole(LOGISTICS_ROLE, account) */\n      swap1\n      pop\n        /* \"contracts/AccessList.sol\":2722:2845  function isLogistics(address account) public view returns (bool) {... */\n      swap2\n      swap1\n      pop\n      jump\t// out\n        /* \"contracts/AccessList.sol\":227:247  address public owner */\n    tag_57:\n      0x00\n      dup1\n      sload\n      swap1\n      0x0100\n      exp\n      swap1\n      div\n      0xffffffffffffffffffffffffffffffffffffffff\n      and\n      dup2\n      jump\t// out\n        /* \"contracts/AccessList.sol\":2390:2513  function hasRole(bytes32 role, address account) public view returns (bool) {... */\n    tag_62:\n        /* \"contracts/AccessList.sol\":2459:2463  bool */\n      0x00\n        /* \"contracts/AccessList.sol\":2501:2505  role */\n      dup3\n        /* \"contracts/AccessList.sol\":2483:2488  roles */\n      0x02\n        /* \"contracts/AccessList.sol\":2483:2497  roles[account] */\n      0x00\n        /* \"contracts/AccessList.sol\":2489:2496  account */\n      dup5\n        /* \"contracts/AccessList.sol\":2483:2497  roles[account] */\n      0xffffffffffffffffffffffffffffffffffffffff\n      and\n      0xffffffffffffffffffffffffffffffffffffffff\n      and\n      dup2\n      mstore\n      0x20\n      add\n      swap1\n      dup2\n      mstore\n      0x20\n      add\n      0x00\n      keccak256\n      sload\n        /* \"contracts/AccessList.sol\":2483:2505  roles[account] == role */\n      eq\n        /* \"contracts/AccessList.sol\":2476:2505  return roles[account] == role */\n      swap1\n      pop\n        /* \"contracts/AccessList.sol\":2390:2513  function hasRole(bytes32 role, address account) public view returns (bool) {... */\n      swap3\n      swap2\n      pop\n      pop\n      jump\t// out\n        /* \"contracts/AccessList.sol\":491:565  bytes32 public constant MANUFACTURER_ROLE = keccak256(\"MANUFACTURER_ROLE\") */\n    tag_65:\n        /* \"contracts/AccessList.sol\":535:565  keccak256(\"MANUFACTURER_ROLE\") */\n      0xeefb95e842a3287179d933b4460be539a1d5af11aa8b325bb45c5c8dc92de4ed\n        /* \"contracts/AccessList.sol\":491:565  bytes32 public constant MANUFACTURER_ROLE = keccak256(\"MANUFACTURER_ROLE\") */\n      dup2\n      jump\t// out\n        /* \"contracts/AccessList.sol\":572:640  bytes32 public constant LOGISTICS_ROLE = keccak256(\"LOGISTICS_ROLE\") */\n    tag_68:\n        /* \"contracts/AccessList.sol\":613:640  keccak256(\"LOGISTICS_ROLE\") */\n      0xded9b5e0e0e3a2b3f09a0bc36ec64b9bf7a7c2319f3c4d9cff5ce48714257b21\n        /* \"contracts/AccessList.sol\":572:640  bytes32 public constant LOGISTICS_ROLE = keccak256(\"LOGISTICS_ROLE\") */\n      dup2\n      jump\t// out\n        /* \"contracts/AccessList.sol\":1913:2160  function revokeRole(bytes32 role, address account) public onlyAdmin {... */\n    tag_72:\n        /* \"contracts/AccessList.sol\":1173:1179  admins */\n      0x01\n        /* \"contracts/AccessList.sol\":1173:1191  admins[msg.sender] */\n      0x00\n        /* \"contracts/AccessList.sol\":1180:1190  msg.sender */\n      caller\n        /* \"contracts/AccessList.sol\":1173:1191  admins[msg.sender] */\n      0xffffffffffffffffffffffffffffffffffffffff\n      and\n      0xffffffffffffffffffffffffffffffffffffffff\n      and\n      dup2\n      mstore\n      0x20\n      add\n      swap1\n      dup2\n      mstore\n      0x20\n      add\n      0x00\n      keccak256\n      0x00\n      swap1\n      sload\n      swap1\n      0x0100\n      exp\n      swap1\n      div\n      0xff\n      and\n        /* \"contracts/AccessList.sol\":1165:1230  require(admins[msg.sender], \"AccessList: caller is not an admin\") */\n      tag_103\n      jumpi\n      mload(0x40)\n      0x08c379a000000000000000000000000000000000000000000000000000000000\n      dup2\n      mstore\n      0x04\n      add\n      tag_104\n      swap1\n      tag_87\n      jump\t// in\n    tag_104:\n      mload(0x40)\n      dup1\n      swap2\n      sub\n      swap1\n      revert\n    tag_103:\n        /* \"contracts/AccessList.sol\":2018:2022  role */\n      dup2\n        /* \"contracts/AccessList.sol\":2000:2005  roles */\n      0x02\n        /* \"contracts/AccessList.sol\":2000:2014  roles[account] */\n      0x00\n        /* \"contracts/AccessList.sol\":2006:2013  account */\n      dup4\n        /* \"contracts/AccessList.sol\":2000:2014  roles[account] */\n      0xffffffffffffffffffffffffffffffffffffffff\n      and\n      0xffffffffffffffffffffffffffffffffffffffff\n      and\n      dup2\n      mstore\n      0x20\n      add\n      swap1\n      dup2\n      mstore\n      0x20\n      add\n      0x00\n      keccak256\n      sload\n        /* \"contracts/AccessList.sol\":2000:2022  roles[account] == role */\n      eq\n        /* \"contracts/AccessList.sol\":1992:2069  require(roles[account] == role, \"AccessList: account does not have the role\") */\n      tag_106\n      jumpi\n      mload(0x40)\n      0x08c379a000000000000000000000000000000000000000000000000000000000\n      dup2\n      mstore\n      0x04\n      add\n      tag_107\n      swap1\n      tag_108\n      jump\t// in\n    tag_107:\n      mload(0x40)\n      dup1\n      swap2\n      sub\n      swap1\n      revert\n    tag_106:\n        /* \"contracts/AccessList.sol\":2097:2098  0 */\n      0x00\n        /* \"contracts/AccessList.sol\":2080:2098  roles[account] = 0 */\n      dup1\n      shl\n        /* \"contracts/AccessList.sol\":2080:2085  roles */\n      0x02\n        /* \"contracts/AccessList.sol\":2080:2094  roles[account] */\n      0x00\n        /* \"contracts/AccessList.sol\":2086:2093  account */\n      dup4\n        /* \"contracts/AccessList.sol\":2080:2094  roles[account] */\n      0xffffffffffffffffffffffffffffffffffffffff\n      and\n      0xffffffffffffffffffffffffffffffffffffffff\n      and\n      dup2\n      mstore\n      0x20\n      add\n      swap1\n      dup2\n      mstore\n      0x20\n      add\n      0x00\n      keccak256\n        /* \"contracts/AccessList.sol\":2080:2098  roles[account] = 0 */\n      dup2\n      swap1\n      sstore\n      pop\n        /* \"contracts/AccessList.sol\":2141:2151  msg.sender */\n      caller\n        /* \"contracts/AccessList.sol\":2114:2152  RoleRevoked(role, account, msg.sender) */\n      0xffffffffffffffffffffffffffffffffffffffff\n      and\n        /* \"contracts/AccessList.sol\":2132:2139  account */\n      dup2\n        /* \"contracts/AccessList.sol\":2114:2152  RoleRevoked(role, account, msg.sender) */\n      0xffffffffffffffffffffffffffffffffffffffff\n      and\n        /* \"contracts/AccessList.sol\":2126:2130  role */\n      dup4\n        /* \"contracts/AccessList.sol\":2114:2152  RoleRevoked(role, account, msg.sender) */\n      0xf6391f5c32d9c69d2a47ea670b442974b53935d1edc7fd64eb21e047a839171b\n      mload(0x40)\n      mload(0x40)\n      dup1\n      swap2\n      sub\n      swap1\n      log4\n        /* \"contracts/AccessList.sol\":1913:2160  function revokeRole(bytes32 role, address account) public onlyAdmin {... */\n      pop\n      pop\n      jump\t// out\n        /* \"#utility.yul\":88:205   */\n    tag_110:\n        /* \"#utility.yul\":197:198   */\n      0x00\n        /* \"#utility.yul\":194:195   */\n      dup1\n        /* \"#utility.yul\":187:199   */\n      revert\n        /* \"#utility.yul\":334:460   */\n    tag_112:\n        /* \"#utility.yul\":371:378   */\n      0x00\n        /* \"#utility.yul\":411:453   */\n      0xffffffffffffffffffffffffffffffffffffffff\n        /* \"#utility.yul\":404:409   */\n      dup3\n        /* \"#utility.yul\":400:454   */\n      and\n        /* \"#utility.yul\":389:454   */\n      swap1\n      pop\n        /* \"#utility.yul\":334:460   */\n      swap2\n      swap1\n      pop\n      jump\t// out\n        /* \"#utility.yul\":466:562   */\n    tag_113:\n        /* \"#utility.yul\":503:510   */\n      0x00\n        /* \"#utility.yul\":532:556   */\n      tag_140\n        /* \"#utility.yul\":550:555   */\n      dup3\n        /* \"#utility.yul\":532:556   */\n      tag_112\n      jump\t// in\n    tag_140:\n        /* \"#utility.yul\":521:556   */\n      swap1\n      pop\n        /* \"#utility.yul\":466:562   */\n      swap2\n      swap1\n      pop\n      jump\t// out\n        /* \"#utility.yul\":568:690   */\n    tag_114:\n        /* \"#utility.yul\":641:665   */\n      tag_142\n        /* \"#utility.yul\":659:664   */\n      dup2\n        /* \"#utility.yul\":641:665   */\n      tag_113\n      jump\t// in\n    tag_142:\n        /* \"#utility.yul\":634:639   */\n      dup2\n        /* \"#utility.yul\":631:666   */\n      eq\n        /* \"#utility.yul\":621:684   */\n      tag_143\n      jumpi\n        /* \"#utility.yul\":680:681   */\n      0x00\n        /* \"#utility.yul\":677:678   */\n      dup1\n        /* \"#utility.yul\":670:682   */\n      revert\n        /* \"#utility.yul\":621:684   */\n    tag_143:\n        /* \"#utility.yul\":568:690   */\n      pop\n      jump\t// out\n        /* \"#utility.yul\":696:835   */\n    tag_115:\n        /* \"#utility.yul\":742:747   */\n      0x00\n        /* \"#utility.yul\":780:786   */\n      dup2\n        /* \"#utility.yul\":767:787   */\n      calldataload\n        /* \"#utility.yul\":758:787   */\n      swap1\n      pop\n        /* \"#utility.yul\":796:829   */\n      tag_145\n        /* \"#utility.yul\":823:828   */\n      dup2\n        /* \"#utility.yul\":796:829   */\n      tag_114\n      jump\t// in\n    tag_145:\n        /* \"#utility.yul\":696:835   */\n      swap3\n      swap2\n      pop\n      pop\n      jump\t// out\n        /* \"#utility.yul\":841:1170   */\n    tag_22:\n        /* \"#utility.yul\":900:906   */\n      0x00\n        /* \"#utility.yul\":949:951   */\n      0x20\n        /* \"#utility.yul\":937:946   */\n      dup3\n        /* \"#utility.yul\":928:935   */\n      dup5\n        /* \"#utility.yul\":924:947   */\n      sub\n        /* \"#utility.yul\":920:952   */\n      slt\n        /* \"#utility.yul\":917:1036   */\n      iszero\n      tag_147\n      jumpi\n        /* \"#utility.yul\":955:1034   */\n      tag_148\n      tag_110\n      jump\t// in\n    tag_148:\n        /* \"#utility.yul\":917:1036   */\n    tag_147:\n        /* \"#utility.yul\":1075:1076   */\n      0x00\n        /* \"#utility.yul\":1100:1153   */\n      tag_149\n        /* \"#utility.yul\":1145:1152   */\n      dup5\n        /* \"#utility.yul\":1136:1142   */\n      dup3\n        /* \"#utility.yul\":1125:1134   */\n      dup6\n        /* \"#utility.yul\":1121:1143   */\n      add\n        /* \"#utility.yul\":1100:1153   */\n      tag_115\n      jump\t// in\n    tag_149:\n        /* \"#utility.yul\":1090:1153   */\n      swap2\n      pop\n        /* \"#utility.yul\":1046:1163   */\n      pop\n        /* \"#utility.yul\":841:1170   */\n      swap3\n      swap2\n      pop\n      pop\n      jump\t// out\n        /* \"#utility.yul\":1176:1266   */\n    tag_116:\n        /* \"#utility.yul\":1210:1217   */\n      0x00\n        /* \"#utility.yul\":1253:1258   */\n      dup2\n        /* \"#utility.yul\":1246:1259   */\n      iszero\n        /* \"#utility.yul\":1239:1260   */\n      iszero\n        /* \"#utility.yul\":1228:1260   */\n      swap1\n      pop\n        /* \"#utility.yul\":1176:1266   */\n      swap2\n      swap1\n      pop\n      jump\t// out\n        /* \"#utility.yul\":1272:1381   */\n    tag_117:\n        /* \"#utility.yul\":1353:1374   */\n      tag_152\n        /* \"#utility.yul\":1368:1373   */\n      dup2\n        /* \"#utility.yul\":1353:1374   */\n      tag_116\n      jump\t// in\n    tag_152:\n        /* \"#utility.yul\":1348:1351   */\n      dup3\n        /* \"#utility.yul\":1341:1375   */\n      mstore\n        /* \"#utility.yul\":1272:1381   */\n      pop\n      pop\n      jump\t// out\n        /* \"#utility.yul\":1387:1597   */\n    tag_25:\n        /* \"#utility.yul\":1474:1478   */\n      0x00\n        /* \"#utility.yul\":1512:1514   */\n      0x20\n        /* \"#utility.yul\":1501:1510   */\n      dup3\n        /* \"#utility.yul\":1497:1515   */\n      add\n        /* \"#utility.yul\":1489:1515   */\n      swap1\n      pop\n        /* \"#utility.yul\":1525:1590   */\n      tag_154\n        /* \"#utility.yul\":1587:1588   */\n      0x00\n        /* \"#utility.yul\":1576:1585   */\n      dup4\n        /* \"#utility.yul\":1572:1589   */\n      add\n        /* \"#utility.yul\":1563:1569   */\n      dup5\n        /* \"#utility.yul\":1525:1590   */\n      tag_117\n      jump\t// in\n    tag_154:\n        /* \"#utility.yul\":1387:1597   */\n      swap3\n      swap2\n      pop\n      pop\n      jump\t// out\n        /* \"#utility.yul\":1603:1680   */\n    tag_118:\n        /* \"#utility.yul\":1640:1647   */\n      0x00\n        /* \"#utility.yul\":1669:1674   */\n      dup2\n        /* \"#utility.yul\":1658:1674   */\n      swap1\n      pop\n        /* \"#utility.yul\":1603:1680   */\n      swap2\n      swap1\n      pop\n      jump\t// out\n        /* \"#utility.yul\":1686:1804   */\n    tag_119:\n        /* \"#utility.yul\":1773:1797   */\n      tag_157\n        /* \"#utility.yul\":1791:1796   */\n      dup2\n        /* \"#utility.yul\":1773:1797   */\n      tag_118\n      jump\t// in\n    tag_157:\n        /* \"#utility.yul\":1768:1771   */\n      dup3\n        /* \"#utility.yul\":1761:1798   */\n      mstore\n        /* \"#utility.yul\":1686:1804   */\n      pop\n      pop\n      jump\t// out\n        /* \"#utility.yul\":1810:2032   */\n    tag_29:\n        /* \"#utility.yul\":1903:1907   */\n      0x00\n        /* \"#utility.yul\":1941:1943   */\n      0x20\n        /* \"#utility.yul\":1930:1939   */\n      dup3\n        /* \"#utility.yul\":1926:1944   */\n      add\n        /* \"#utility.yul\":1918:1944   */\n      swap1\n      pop\n        /* \"#utility.yul\":1954:2025   */\n      tag_159\n        /* \"#utility.yul\":2022:2023   */\n      0x00\n        /* \"#utility.yul\":2011:2020   */\n      dup4\n        /* \"#utility.yul\":2007:2024   */\n      add\n        /* \"#utility.yul\":1998:2004   */\n      dup5\n        /* \"#utility.yul\":1954:2025   */\n      tag_119\n      jump\t// in\n    tag_159:\n        /* \"#utility.yul\":1810:2032   */\n      swap3\n      swap2\n      pop\n      pop\n      jump\t// out\n        /* \"#utility.yul\":2038:2160   */\n    tag_120:\n        /* \"#utility.yul\":2111:2135   */\n      tag_161\n        /* \"#utility.yul\":2129:2134   */\n      dup2\n        /* \"#utility.yul\":2111:2135   */\n      tag_118\n      jump\t// in\n    tag_161:\n        /* \"#utility.yul\":2104:2109   */\n      dup2\n        /* \"#utility.yul\":2101:2136   */\n      eq\n        /* \"#utility.yul\":2091:2154   */\n      tag_162\n      jumpi\n        /* \"#utility.yul\":2150:2151   */\n      0x00\n        /* \"#utility.yul\":2147:2148   */\n      dup1\n        /* \"#utility.yul\":2140:2152   */\n      revert\n        /* \"#utility.yul\":2091:2154   */\n    tag_162:\n        /* \"#utility.yul\":2038:2160   */\n      pop\n      jump\t// out\n        /* \"#utility.yul\":2166:2305   */\n    tag_121:\n        /* \"#utility.yul\":2212:2217   */\n      0x00\n        /* \"#utility.yul\":2250:2256   */\n      dup2\n        /* \"#utility.yul\":2237:2257   */\n      calldataload\n        /* \"#utility.yul\":2228:2257   */\n      swap1\n      pop\n        /* \"#utility.yul\":2266:2299   */\n      tag_164\n        /* \"#utility.yul\":2293:2298   */\n      dup2\n        /* \"#utility.yul\":2266:2299   */\n      tag_120\n      jump\t// in\n    tag_164:\n        /* \"#utility.yul\":2166:2305   */\n      swap3\n      swap2\n      pop\n      pop\n      jump\t// out\n        /* \"#utility.yul\":2311:2785   */\n    tag_39:\n        /* \"#utility.yul\":2379:2385   */\n      0x00\n        /* \"#utility.yul\":2387:2393   */\n      dup1\n        /* \"#utility.yul\":2436:2438   */\n      0x40\n        /* \"#utility.yul\":2424:2433   */\n      dup4\n        /* \"#utility.yul\":2415:2422   */\n      dup6\n        /* \"#utility.yul\":2411:2434   */\n      sub\n        /* \"#utility.yul\":2407:2439   */\n      slt\n        /* \"#utility.yul\":2404:2523   */\n      iszero\n      tag_166\n      jumpi\n        /* \"#utility.yul\":2442:2521   */\n      tag_167\n      tag_110\n      jump\t// in\n    tag_167:\n        /* \"#utility.yul\":2404:2523   */\n    tag_166:\n        /* \"#utility.yul\":2562:2563   */\n      0x00\n        /* \"#utility.yul\":2587:2640   */\n      tag_168\n        /* \"#utility.yul\":2632:2639   */\n      dup6\n        /* \"#utility.yul\":2623:2629   */\n      dup3\n        /* \"#utility.yul\":2612:2621   */\n      dup7\n        /* \"#utility.yul\":2608:2630   */\n      add\n        /* \"#utility.yul\":2587:2640   */\n      tag_121\n      jump\t// in\n    tag_168:\n        /* \"#utility.yul\":2577:2640   */\n      swap3\n      pop\n        /* \"#utility.yul\":2533:2650   */\n      pop\n        /* \"#utility.yul\":2689:2691   */\n      0x20\n        /* \"#utility.yul\":2715:2768   */\n      tag_169\n        /* \"#utility.yul\":2760:2767   */\n      dup6\n        /* \"#utility.yul\":2751:2757   */\n      dup3\n        /* \"#utility.yul\":2740:2749   */\n      dup7\n        /* \"#utility.yul\":2736:2758   */\n      add\n        /* \"#utility.yul\":2715:2768   */\n      tag_115\n      jump\t// in\n    tag_169:\n        /* \"#utility.yul\":2705:2768   */\n      swap2\n      pop\n        /* \"#utility.yul\":2660:2778   */\n      pop\n        /* \"#utility.yul\":2311:2785   */\n      swap3\n      pop\n      swap3\n      swap1\n      pop\n      jump\t// out\n        /* \"#utility.yul\":2791:2909   */\n    tag_122:\n        /* \"#utility.yul\":2878:2902   */\n      tag_171\n        /* \"#utility.yul\":2896:2901   */\n      dup2\n        /* \"#utility.yul\":2878:2902   */\n      tag_113\n      jump\t// in\n    tag_171:\n        /* \"#utility.yul\":2873:2876   */\n      dup3\n        /* \"#utility.yul\":2866:2903   */\n      mstore\n        /* \"#utility.yul\":2791:2909   */\n      pop\n      pop\n      jump\t// out\n        /* \"#utility.yul\":2915:3137   */\n    tag_59:\n        /* \"#utility.yul\":3008:3012   */\n      0x00\n        /* \"#utility.yul\":3046:3048   */\n      0x20\n        /* \"#utility.yul\":3035:3044   */\n      dup3\n        /* \"#utility.yul\":3031:3049   */\n      add\n        /* \"#utility.yul\":3023:3049   */\n      swap1\n      pop\n        /* \"#utility.yul\":3059:3130   */\n      tag_173\n        /* \"#utility.yul\":3127:3128   */\n      0x00\n        /* \"#utility.yul\":3116:3125   */\n      dup4\n        /* \"#utility.yul\":3112:3129   */\n      add\n        /* \"#utility.yul\":3103:3109   */\n      dup5\n        /* \"#utility.yul\":3059:3130   */\n      tag_122\n      jump\t// in\n    tag_173:\n        /* \"#utility.yul\":2915:3137   */\n      swap3\n      swap2\n      pop\n      pop\n      jump\t// out\n        /* \"#utility.yul\":3143:3312   */\n    tag_123:\n        /* \"#utility.yul\":3227:3238   */\n      0x00\n        /* \"#utility.yul\":3261:3267   */\n      dup3\n        /* \"#utility.yul\":3256:3259   */\n      dup3\n        /* \"#utility.yul\":3249:3268   */\n      mstore\n        /* \"#utility.yul\":3301:3305   */\n      0x20\n        /* \"#utility.yul\":3296:3299   */\n      dup3\n        /* \"#utility.yul\":3292:3306   */\n      add\n        /* \"#utility.yul\":3277:3306   */\n      swap1\n      pop\n        /* \"#utility.yul\":3143:3312   */\n      swap3\n      swap2\n      pop\n      pop\n      jump\t// out\n        /* \"#utility.yul\":3318:3540   */\n    tag_124:\n        /* \"#utility.yul\":3458:3492   */\n      0x4163636573734c6973743a2063616c6c6572206973206e6f7420746865206f77\n        /* \"#utility.yul\":3454:3455   */\n      0x00\n        /* \"#utility.yul\":3446:3452   */\n      dup3\n        /* \"#utility.yul\":3442:3456   */\n      add\n        /* \"#utility.yul\":3435:3493   */\n      mstore\n        /* \"#utility.yul\":3527:3532   */\n      0x6e65720000000000000000000000000000000000000000000000000000000000\n        /* \"#utility.yul\":3522:3524   */\n      0x20\n        /* \"#utility.yul\":3514:3520   */\n      dup3\n        /* \"#utility.yul\":3510:3525   */\n      add\n        /* \"#utility.yul\":3503:3533   */\n      mstore\n        /* \"#utility.yul\":3318:3540   */\n      pop\n      jump\t// out\n        /* \"#utility.yul\":3546:3912   */\n    tag_125:\n        /* \"#utility.yul\":3688:3691   */\n      0x00\n        /* \"#utility.yul\":3709:3776   */\n      tag_177\n        /* \"#utility.yul\":3773:3775   */\n      0x23\n        /* \"#utility.yul\":3768:3771   */\n      dup4\n        /* \"#utility.yul\":3709:3776   */\n      tag_123\n      jump\t// in\n    tag_177:\n        /* \"#utility.yul\":3702:3776   */\n      swap2\n      pop\n        /* \"#utility.yul\":3785:3878   */\n      tag_178\n        /* \"#utility.yul\":3874:3877   */\n      dup3\n        /* \"#utility.yul\":3785:3878   */\n      tag_124\n      jump\t// in\n    tag_178:\n        /* \"#utility.yul\":3903:3905   */\n      0x40\n        /* \"#utility.yul\":3898:3901   */\n      dup3\n        /* \"#utility.yul\":3894:3906   */\n      add\n        /* \"#utility.yul\":3887:3906   */\n      swap1\n      pop\n        /* \"#utility.yul\":3546:3912   */\n      swap2\n      swap1\n      pop\n      jump\t// out\n        /* \"#utility.yul\":3918:4337   */\n    tag_79:\n        /* \"#utility.yul\":4084:4088   */\n      0x00\n        /* \"#utility.yul\":4122:4124   */\n      0x20\n        /* \"#utility.yul\":4111:4120   */\n      dup3\n        /* \"#utility.yul\":4107:4125   */\n      add\n        /* \"#utility.yul\":4099:4125   */\n      swap1\n      pop\n        /* \"#utility.yul\":4171:4180   */\n      dup2\n        /* \"#utility.yul\":4165:4169   */\n      dup2\n        /* \"#utility.yul\":4161:4181   */\n      sub\n        /* \"#utility.yul\":4157:4158   */\n      0x00\n        /* \"#utility.yul\":4146:4155   */\n      dup4\n        /* \"#utility.yul\":4142:4159   */\n      add\n        /* \"#utility.yul\":4135:4182   */\n      mstore\n        /* \"#utility.yul\":4199:4330   */\n      tag_180\n        /* \"#utility.yul\":4325:4329   */\n      dup2\n        /* \"#utility.yul\":4199:4330   */\n      tag_125\n      jump\t// in\n    tag_180:\n        /* \"#utility.yul\":4191:4330   */\n      swap1\n      pop\n        /* \"#utility.yul\":3918:4337   */\n      swap2\n      swap1\n      pop\n      jump\t// out\n        /* \"#utility.yul\":4343:4523   */\n    tag_126:\n        /* \"#utility.yul\":4483:4515   */\n      0x4163636573734c6973743a2063616e6e6f74207265766f6b652073656c660000\n        /* \"#utility.yul\":4479:4480   */\n      0x00\n        /* \"#utility.yul\":4471:4477   */\n      dup3\n        /* \"#utility.yul\":4467:4481   */\n      add\n        /* \"#utility.yul\":4460:4516   */\n      mstore\n        /* \"#utility.yul\":4343:4523   */\n      pop\n      jump\t// out\n        /* \"#utility.yul\":4529:4895   */\n    tag_127:\n        /* \"#utility.yul\":4671:4674   */\n      0x00\n        /* \"#utility.yul\":4692:4759   */\n      tag_183\n        /* \"#utility.yul\":4756:4758   */\n      0x1e\n        /* \"#utility.yul\":4751:4754   */\n      dup4\n        /* \"#utility.yul\":4692:4759   */\n      tag_123\n      jump\t// in\n    tag_183:\n        /* \"#utility.yul\":4685:4759   */\n      swap2\n      pop\n        /* \"#utility.yul\":4768:4861   */\n      tag_184\n        /* \"#utility.yul\":4857:4860   */\n      dup3\n        /* \"#utility.yul\":4768:4861   */\n      tag_126\n      jump\t// in\n    tag_184:\n        /* \"#utility.yul\":4886:4888   */\n      0x20\n        /* \"#utility.yul\":4881:4884   */\n      dup3\n        /* \"#utility.yul\":4877:4889   */\n      add\n        /* \"#utility.yul\":4870:4889   */\n      swap1\n      pop\n        /* \"#utility.yul\":4529:4895   */\n      swap2\n      swap1\n      pop\n      jump\t// out\n        /* \"#utility.yul\":4901:5320   */\n    tag_83:\n        /* \"#utility.yul\":5067:5071   */\n      0x00\n        /* \"#utility.yul\":5105:5107   */\n      0x20\n        /* \"#utility.yul\":5094:5103   */\n      dup3\n        /* \"#utility.yul\":5090:5108   */\n      add\n        /* \"#utility.yul\":5082:5108   */\n      swap1\n      pop\n        /* \"#utility.yul\":5154:5163   */\n      dup2\n        /* \"#utility.yul\":5148:5152   */\n      dup2\n        /* \"#utility.yul\":5144:5164   */\n      sub\n        /* \"#utility.yul\":5140:5141   */\n      0x00\n        /* \"#utility.yul\":5129:5138   */\n      dup4\n        /* \"#utility.yul\":5125:5142   */\n      add\n        /* \"#utility.yul\":5118:5165   */\n      mstore\n        /* \"#utility.yul\":5182:5313   */\n      tag_186\n        /* \"#utility.yul\":5308:5312   */\n      dup2\n        /* \"#utility.yul\":5182:5313   */\n      tag_127\n      jump\t// in\n    tag_186:\n        /* \"#utility.yul\":5174:5313   */\n      swap1\n      pop\n        /* \"#utility.yul\":4901:5320   */\n      swap2\n      swap1\n      pop\n      jump\t// out\n        /* \"#utility.yul\":5326:5547   */\n    tag_128:\n        /* \"#utility.yul\":5466:5500   */\n      0x4163636573734c6973743a2063616c6c6572206973206e6f7420616e2061646d\n        /* \"#utility.yul\":5462:5463   */\n      0x00\n        /* \"#utility.yul\":5454:5460   */\n      dup3\n        /* \"#utility.yul\":5450:5464   */\n      add\n        /* \"#utility.yul\":5443:5501   */\n      mstore\n        /* \"#utility.yul\":5535:5539   */\n      0x696e000000000000000000000000000000000000000000000000000000000000\n        /* \"#utility.yul\":5530:5532   */\n      0x20\n        /* \"#utility.yul\":5522:5528   */\n      dup3\n        /* \"#utility.yul\":5518:5533   */\n      add\n        /* \"#utility.yul\":5511:5540   */\n      mstore\n        /* \"#utility.yul\":5326:5547   */\n      pop\n      jump\t// out\n        /* \"#utility.yul\":5553:5919   */\n    tag_129:\n        /* \"#utility.yul\":5695:5698   */\n      0x00\n        /* \"#utility.yul\":5716:5783   */\n      tag_189\n        /* \"#utility.yul\":5780:5782   */\n      0x22\n        /* \"#utility.yul\":5775:5778   */\n      dup4\n        /* \"#utility.yul\":5716:5783   */\n      tag_123\n      jump\t// in\n    tag_189:\n        /* \"#utility.yul\":5709:5783   */\n      swap2\n      pop\n        /* \"#utility.yul\":5792:5885   */\n      tag_190\n        /* \"#utility.yul\":5881:5884   */\n      dup3\n        /* \"#utility.yul\":5792:5885   */\n      tag_128\n      jump\t// in\n    tag_190:\n        /* \"#utility.yul\":5910:5912   */\n      0x40\n        /* \"#utility.yul\":5905:5908   */\n      dup3\n        /* \"#utility.yul\":5901:5913   */\n      add\n        /* \"#utility.yul\":5894:5913   */\n      swap1\n      pop\n        /* \"#utility.yul\":5553:5919   */\n      swap2\n      swap1\n      pop\n      jump\t// out\n        /* \"#utility.yul\":5925:6344   */\n    tag_87:\n        /* \"#utility.yul\":6091:6095   */\n      0x00\n        /* \"#utility.yul\":6129:6131   */\n      0x20\n        /* \"#utility.yul\":6118:6127   */\n      dup3\n        /* \"#utility.yul\":6114:6132   */\n      add\n        /* \"#utility.yul\":6106:6132   */\n      swap1\n      pop\n        /* \"#utility.yul\":6178:6187   */\n      dup2\n        /* \"#utility.yul\":6172:6176   */\n      dup2\n        /* \"#utility.yul\":6168:6188   */\n      sub\n        /* \"#utility.yul\":6164:6165   */\n      0x00\n        /* \"#utility.yul\":6153:6162   */\n      dup4\n        /* \"#utility.yul\":6149:6166   */\n      add\n        /* \"#utility.yul\":6142:6189   */\n      mstore\n        /* \"#utility.yul\":6206:6337   */\n      tag_192\n        /* \"#utility.yul\":6332:6336   */\n      dup2\n        /* \"#utility.yul\":6206:6337   */\n      tag_129\n      jump\t// in\n    tag_192:\n        /* \"#utility.yul\":6198:6337   */\n      swap1\n      pop\n        /* \"#utility.yul\":5925:6344   */\n      swap2\n      swap1\n      pop\n      jump\t// out\n        /* \"#utility.yul\":6350:6575   */\n    tag_130:\n        /* \"#utility.yul\":6490:6524   */\n      0x4163636573734c6973743a206163636f756e7420616c72656164792068617320\n        /* \"#utility.yul\":6486:6487   */\n      0x00\n        /* \"#utility.yul\":6478:6484   */\n      dup3\n        /* \"#utility.yul\":6474:6488   */\n      add\n        /* \"#utility.yul\":6467:6525   */\n      mstore\n        /* \"#utility.yul\":6559:6567   */\n      0x6120726f6c650000000000000000000000000000000000000000000000000000\n        /* \"#utility.yul\":6554:6556   */\n      0x20\n        /* \"#utility.yul\":6546:6552   */\n      dup3\n        /* \"#utility.yul\":6542:6557   */\n      add\n        /* \"#utility.yul\":6535:6568   */\n      mstore\n        /* \"#utility.yul\":6350:6575   */\n      pop\n      jump\t// out\n        /* \"#utility.yul\":6581:6947   */\n    tag_131:\n        /* \"#utility.yul\":6723:6726   */\n      0x00\n        /* \"#utility.yul\":6744:6811   */\n      tag_195\n        /* \"#utility.yul\":6808:6810   */\n      0x26\n        /* \"#utility.yul\":6803:6806   */\n      dup4\n        /* \"#utility.yul\":6744:6811   */\n      tag_123\n      jump\t// in\n    tag_195:\n        /* \"#utility.yul\":6737:6811   */\n      swap2\n      pop\n        /* \"#utility.yul\":6820:6913   */\n      tag_196\n        /* \"#utility.yul\":6909:6912   */\n      dup3\n        /* \"#utility.yul\":6820:6913   */\n      tag_130\n      jump\t// in\n    tag_196:\n        /* \"#utility.yul\":6938:6940   */\n      0x40\n        /* \"#utility.yul\":6933:6936   */\n      dup3\n        /* \"#utility.yul\":6929:6941   */\n      add\n        /* \"#utility.yul\":6922:6941   */\n      swap1\n      pop\n        /* \"#utility.yul\":6581:6947   */\n      swap2\n      swap1\n      pop\n      jump\t// out\n        /* \"#utility.yul\":6953:7372   */\n    tag_91:\n        /* \"#utility.yul\":7119:7123   */\n      0x00\n        /* \"#utility.yul\":7157:7159   */\n      0x20\n        /* \"#utility.yul\":7146:7155   */\n      dup3\n        /* \"#utility.yul\":7142:7160   */\n      add\n        /* \"#utility.yul\":7134:7160   */\n      swap1\n      pop\n        /* \"#utility.yul\":7206:7215   */\n      dup2\n        /* \"#utility.yul\":7200:7204   */\n      dup2\n        /* \"#utility.yul\":7196:7216   */\n      sub\n        /* \"#utility.yul\":7192:7193   */\n      0x00\n        /* \"#utility.yul\":7181:7190   */\n      dup4\n        /* \"#utility.yul\":7177:7194   */\n      add\n        /* \"#utility.yul\":7170:7217   */\n      mstore\n        /* \"#utility.yul\":7234:7365   */\n      tag_198\n        /* \"#utility.yul\":7360:7364   */\n      dup2\n        /* \"#utility.yul\":7234:7365   */\n      tag_131\n      jump\t// in\n    tag_198:\n        /* \"#utility.yul\":7226:7365   */\n      swap1\n      pop\n        /* \"#utility.yul\":6953:7372   */\n      swap2\n      swap1\n      pop\n      jump\t// out\n        /* \"#utility.yul\":7378:7607   */\n    tag_132:\n        /* \"#utility.yul\":7518:7552   */\n      0x4163636573734c6973743a206163636f756e7420646f6573206e6f7420686176\n        /* \"#utility.yul\":7514:7515   */\n      0x00\n        /* \"#utility.yul\":7506:7512   */\n      dup3\n        /* \"#utility.yul\":7502:7516   */\n      add\n        /* \"#utility.yul\":7495:7553   */\n      mstore\n        /* \"#utility.yul\":7587:7599   */\n      0x652074686520726f6c6500000000000000000000000000000000000000000000\n        /* \"#utility.yul\":7582:7584   */\n      0x20\n        /* \"#utility.yul\":7574:7580   */\n      dup3\n        /* \"#utility.yul\":7570:7585   */\n      add\n        /* \"#utility.yul\":7563:7600   */\n      mstore\n        /* \"#utility.yul\":7378:7607   */\n      pop\n      jump\t// out\n        /* \"#utility.yul\":7613:7979   */\n    tag_133:\n        /* \"#utility.yul\":7755:7758   */\n      0x00\n        /* \"#utility.yul\":7776:7843   */\n      tag_201\n        /* \"#utility.yul\":7840:7842   */\n      0x2a\n        /* \"#utility.yul\":7835:7838   */\n      dup4\n        /* \"#utility.yul\":7776:7843   */\n      tag_123\n      jump\t// in\n    tag_201:\n        /* \"#utility.yul\":7769:7843   */\n      swap2\n      pop\n        /* \"#utility.yul\":7852:7945   */\n      tag_202\n        /* \"#utility.yul\":7941:7944   */\n      dup3\n        /* \"#utility.yul\":7852:7945   */\n      tag_132\n      jump\t// in\n    tag_202:\n        /* \"#utility.yul\":7970:7972   */\n      0x40\n        /* \"#utility.yul\":7965:7968   */\n      dup3\n        /* \"#utility.yul\":7961:7973   */\n      add\n        /* \"#utility.yul\":7954:7973   */\n      swap1\n      pop\n        /* \"#utility.yul\":7613:7979   */\n      swap2\n      swap1\n      pop\n      jump\t// out\n        /* \"#utility.yul\":7985:8404   */\n    tag_108:\n        /* \"#utility.yul\":8151:8155   */\n      0x00\n        /* \"#utility.yul\":8189:8191   */\n      0x20\n        /* \"#utility.yul\":8178:8187   */\n      dup3\n        /* \"#utility.yul\":8174:8192   */\n      add\n        /* \"#utility.yul\":8166:8192   */\n      swap1\n      pop\n        /* \"#utility.yul\":8238:8247   */\n      dup2\n        /* \"#utility.yul\":8232:8236   */\n      dup2\n        /* \"#utility.yul\":8228:8248   */\n      sub\n        /* \"#utility.yul\":8224:8225   */\n      0x00\n        /* \"#utility.yul\":8213:8222   */\n      dup4\n        /* \"#utility.yul\":8209:8226   */\n      add\n        /* \"#utility.yul\":8202:8249   */\n      mstore\n        /* \"#utility.yul\":8266:8397   */\n      tag_204\n        /* \"#utility.yul\":8392:8396   */\n      dup2\n        /* \"#utility.yul\":8266:8397   */\n      tag_133\n      jump\t// in\n    tag_204:\n        /* \"#utility.yul\":8258:8397   */\n      swap1\n      pop\n        /* \"#utility.yul\":7985:8404   */\n      swap2\n      swap1\n      pop\n      jump\t// out\n\n    auxdata: 0xa2646970667358221220dd9afef7316dcfa90b99bfb7cae9d7cffe0518d017452743188d87a3bf2c079d64736f6c63430008190033\n}\n",
				"bytecode": {
					"linkReferences": {},
					"object": "6080604052348015600f57600080fd5b50336000806101000a81548173ffffffffffffffffffffffffffffffffffffffff021916908373ffffffffffffffffffffffffffffffffffffffff16021790555060018060008060009054906101000a900473ffffffffffffffffffffffffffffffffffffffff1673ffffffffffffffffffffffffffffffffffffffff1673ffffffffffffffffffffffffffffffffffffffff16815260200190815260200160002060006101000a81548160ff021916908315150217905550610f3b806100d76000396000f3fe608060405234801561001057600080fd5b50600436106100ea5760003560e01c80635da09b881161008c57806391d148541161006657806391d148541461026f578063965288b01461029f578063c602d3fb146102bd578063d547741f146102db576100ea565b80635da09b88146101f15780638305866f146102215780638da5cb5b14610251576100ea565b80632d345670116100c85780632d3456701461016d5780632f2ff15d1461018957806335bb3e16146101a557806344276733146101c1576100ea565b806317d4a491146100ef5780632115e7bf1461011f57806324d7806c1461013d575b600080fd5b61010960048036038101906101049190610b13565b6102f7565b6040516101169190610b5b565b60405180910390f35b61012761032a565b6040516101349190610b8f565b60405180910390f35b61015760048036038101906101529190610b13565b61034e565b6040516101649190610b5b565b60405180910390f35b61018760048036038101906101829190610b13565b6103a4565b005b6101a3600480360381019061019e9190610bd6565b6104fb565b005b6101bf60048036038101906101ba9190610b13565b6106ae565b005b6101db60048036038101906101d69190610b13565b610796565b6040516101e89190610b8f565b60405180910390f35b61020b60048036038101906102069190610b13565b6107df565b6040516102189190610b5b565b60405180910390f35b61023b60048036038101906102369190610b13565b610812565b6040516102489190610b5b565b60405180910390f35b610259610845565b6040516102669190610c25565b60405180910390f35b61028960048036038101906102849190610bd6565b610869565b6040516102969190610b5b565b60405180910390f35b6102a76108b5565b6040516102b49190610b8f565b60405180910390f35b6102c56108d9565b6040516102d29190610b8f565b60405180910390f35b6102f560048036038101906102f09190610bd6565b6108fd565b005b60006103237feefb95e842a3287179d933b4460be539a1d5af11aa8b325bb45c5c8dc92de4ed83610869565b9050919050565b7f2a5f906c256a5d799494fcd066e1f6c077689de1cdb65052a1624de4bace99bf81565b6000600160008373ffffffffffffffffffffffffffffffffffffffff1673ffffffffffffffffffffffffffffffffffffffff16815260200190815260200160002060009054906101000a900460ff169050919050565b60008054906101000a900473ffffffffffffffffffffffffffffffffffffffff1673ffffffffffffffffffffffffffffffffffffffff163373ffffffffffffffffffffffffffffffffffffffff1614610432576040517f08c379a000000000000000000000000000000000000000000000000000000000815260040161042990610cc3565b60405180910390fd5b3373ffffffffffffffffffffffffffffffffffffffff168173ffffffffffffffffffffffffffffffffffffffff16036104a0576040517f08c379a000000000000000000000000000000000000000000000000000000000815260040161049790610d2f565b60405180910390fd5b6000600160008373ffffffffffffffffffffffffffffffffffffffff1673ffffffffffffffffffffffffffffffffffffffff16815260200190815260200160002060006101000a81548160ff02191690831515021790555050565b600160003373ffffffffffffffffffffffffffffffffffffffff1673ffffffffffffffffffffffffffffffffffffffff16815260200190815260200160002060009054906101000a900460ff16610587576040517f08c379a000000000000000000000000000000000000000000000000000000000815260040161057e90610dc1565b60405180910390fd5b6000801b600260008373ffffffffffffffffffffffffffffffffffffffff1673ffffffffffffffffffffffffffffffffffffffff168152602001908152602001600020541461060b576040517f08c379a000000000000000000000000000000000000000000000000000000000815260040161060290610e53565b60405180910390fd5b81600260008373ffffffffffffffffffffffffffffffffffffffff1673ffffffffffffffffffffffffffffffffffffffff168152602001908152602001600020819055503373ffffffffffffffffffffffffffffffffffffffff168173ffffffffffffffffffffffffffffffffffffffff16837f2f8788117e7eff1d82e926ec794901d17c78024a50270940304540a733656f0d60405160405180910390a45050565b60008054906101000a900473ffffffffffffffffffffffffffffffffffffffff1673ffffffffffffffffffffffffffffffffffffffff163373ffffffffffffffffffffffffffffffffffffffff161461073c576040517f08c379a000000000000000000000000000000000000000000000000000000000815260040161073390610cc3565b60405180910390fd5b60018060008373ffffffffffffffffffffffffffffffffffffffff1673ffffffffffffffffffffffffffffffffffffffff16815260200190815260200160002060006101000a81548160ff02191690831515021790555050565b6000600260008373ffffffffffffffffffffffffffffffffffffffff1673ffffffffffffffffffffffffffffffffffffffff168152602001908152602001600020549050919050565b600061080b7f2a5f906c256a5d799494fcd066e1f6c077689de1cdb65052a1624de4bace99bf83610869565b9050919050565b600061083e7fded9b5e0e0e3a2b3f09a0bc36ec64b9bf7a7c2319f3c4d9cff5ce48714257b2183610869565b9050919050565b60008054906101000a900473ffffffffffffffffffffffffffffffffffffffff1681565b600082600260008473ffffffffffffffffffffffffffffffffffffffff1673ffffffffffffffffffffffffffffffffffffffff1681526020019081526020016000205414905092915050565b7feefb95e842a3287179d933b4460be539a1d5af11aa8b325bb45c5c8dc92de4ed81565b7fded9b5e0e0e3a2b3f09a0bc36ec64b9bf7a7c2319f3c4d9cff5ce48714257b2181565b600160003373ffffffffffffffffffffffffffffffffffffffff1673ffffffffffffffffffffffffffffffffffffffff16815260200190815260200160002060009054906101000a900460ff16610989576040517f08c379a000000000000000000000000000000000000000000000000000000000815260040161098090610dc1565b60405180910390fd5b81600260008373ffffffffffffffffffffffffffffffffffffffff1673ffffffffffffffffffffffffffffffffffffffff1681526020019081526020016000205414610a0a576040517f08c379a0000000000000000000000000000000000000000000000000000000008152600401610a0190610ee5565b60405180910390fd5b6000801b600260008373ffffffffffffffffffffffffffffffffffffffff1673ffffffffffffffffffffffffffffffffffffffff168152602001908152602001600020819055503373ffffffffffffffffffffffffffffffffffffffff168173ffffffffffffffffffffffffffffffffffffffff16837ff6391f5c32d9c69d2a47ea670b442974b53935d1edc7fd64eb21e047a839171b60405160405180910390a45050565b600080fd5b600073ffffffffffffffffffffffffffffffffffffffff82169050919050565b6000610ae082610ab5565b9050919050565b610af081610ad5565b8114610afb57600080fd5b50565b600081359050610b0d81610ae7565b92915050565b600060208284031215610b2957610b28610ab0565b5b6000610b3784828501610afe565b91505092915050565b60008115159050919050565b610b5581610b40565b82525050565b6000602082019050610b706000830184610b4c565b92915050565b6000819050919050565b610b8981610b76565b82525050565b6000602082019050610ba46000830184610b80565b92915050565b610bb381610b76565b8114610bbe57600080fd5b50565b600081359050610bd081610baa565b92915050565b60008060408385031215610bed57610bec610ab0565b5b6000610bfb85828601610bc1565b9250506020610c0c85828601610afe565b9150509250929050565b610c1f81610ad5565b82525050565b6000602082019050610c3a6000830184610c16565b92915050565b600082825260208201905092915050565b7f4163636573734c6973743a2063616c6c6572206973206e6f7420746865206f7760008201527f6e65720000000000000000000000000000000000000000000000000000000000602082015250565b6000610cad602383610c40565b9150610cb882610c51565b604082019050919050565b60006020820190508181036000830152610cdc81610ca0565b9050919050565b7f4163636573734c6973743a2063616e6e6f74207265766f6b652073656c660000600082015250565b6000610d19601e83610c40565b9150610d2482610ce3565b602082019050919050565b60006020820190508181036000830152610d4881610d0c565b9050919050565b7f4163636573734c6973743a2063616c6c6572206973206e6f7420616e2061646d60008201527f696e000000000000000000000000000000000000000000000000000000000000602082015250565b6000610dab602283610c40565b9150610db682610d4f565b604082019050919050565b60006020820190508181036000830152610dda81610d9e565b9050919050565b7f4163636573734c6973743a206163636f756e7420616c7265616479206861732060008201527f6120726f6c650000000000000000000000000000000000000000000000000000602082015250565b6000610e3d602683610c40565b9150610e4882610de1565b604082019050919050565b60006020820190508181036000830152610e6c81610e30565b9050919050565b7f4163636573734c6973743a206163636f756e7420646f6573206e6f742068617660008201527f652074686520726f6c6500000000000000000000000000000000000000000000602082015250565b6000610ecf602a83610c40565b9150610eda82610e73565b604082019050919050565b60006020820190508181036000830152610efe81610ec2565b905091905056fea2646970667358221220dd9afef7316dcfa90b99bfb7cae9d7cffe0518d017452743188d87a3bf2c079d64736f6c63430008190033",
					"opcodes": "PUSH1 0x80 PUSH1 0x40 MSTORE CALLVALUE DUP1 ISZERO PUSH1 0xF JUMPI PUSH1 0x0 DUP1 REVERT JUMPDEST POP CALLER PUSH1 0x0 DUP1 PUSH2 0x100 EXP DUP2 SLOAD DUP2 PUSH20 0xFFFFFFFFFFFFFFFFFFFFFFFFFFFFFFFFFFFFFFFF MUL NOT AND SWAP1 DUP4 PUSH20 0xFFFFFFFFFFFFFFFFFFFFFFFFFFFFFFFFFFFFFFFF AND MUL OR SWAP1 SSTORE POP PUSH1 0x1 DUP1 PUSH1 0x0 DUP1 PUSH1 0x0 SWAP1 SLOAD SWAP1 PUSH2 0x100 EXP SWAP1 DIV PUSH20 0xFFFFFFFFFFFFFFFFFFFFFFFFFFFFFFFFFFFFFFFF AND PUSH20 0xFFFFFFFFFFFFFFFFFFFFFFFFFFFFFFFFFFFFFFFF AND PUSH20 0xFFFFFFFFFFFFFFFFFFFFFFFFFFFFFFFFFFFFFFFF AND DUP2 MSTORE PUSH1 0x20 ADD SWAP1 DUP2 MSTORE PUSH1 0x20 ADD PUSH1 0x0 KECCAK256 PUSH1 0x0 PUSH2 0x100 EXP DUP2 SLOAD DUP2 PUSH1 0xFF MUL NOT AND SWAP1 DUP4 ISZERO ISZERO MUL OR SWAP1 SSTORE POP PUSH2 0xF3B DUP1 PUSH2 0xD7 PUSH1 0x0 CODECOPY PUSH1 0x0 RETURN INVALID PUSH1 0x80 PUSH1 0x40 MSTORE CALLVALUE DUP1 ISZERO PUSH2 0x10 JUMPI PUSH1 0x0 DUP1 REVERT JUMPDEST POP PUSH1 0x4 CALLDATASIZE LT PUSH2 0xEA JUMPI PUSH1 0x0 CALLDATALOAD PUSH1 0xE0 SHR DUP1 PUSH4 0x5DA09B88 GT PUSH2 0x8C JUMPI DUP1 PUSH4 0x91D14854 GT PUSH2 0x66 JUMPI DUP1 PUSH4 0x91D14854 EQ PUSH2 0x26F JUMPI DUP1 PUSH4 0x965288B0 EQ PUSH2 0x29F JUMPI DUP1 PUSH4 0xC602D3FB EQ PUSH2 0x2BD JUMPI DUP1 PUSH4 0xD547741F EQ PUSH2 0x2DB JUMPI PUSH2 0xEA JUMP JUMPDEST DUP1 PUSH4 0x5DA09B88 EQ PUSH2 0x1F1 JUMPI DUP1 PUSH4 0x8305866F EQ PUSH2 0x221 JUMPI DUP1 PUSH4 0x8DA5CB5B EQ PUSH2 0x251 JUMPI PUSH2 0xEA JUMP JUMPDEST DUP1 PUSH4 0x2D345670 GT PUSH2 0xC8 JUMPI DUP1 PUSH4 0x2D345670 EQ PUSH2 0x16D JUMPI DUP1 PUSH4 0x2F2FF15D EQ PUSH2 0x189 JUMPI DUP1 PUSH4 0x35BB3E16 EQ PUSH2 0x1A5 JUMPI DUP1 PUSH4 0x44276733 EQ PUSH2 0x1C1 JUMPI PUSH2 0xEA JUMP JUMPDEST DUP1 PUSH4 0x17D4A491 EQ PUSH2 0xEF JUMPI DUP1 PUSH4 0x2115E7BF EQ PUSH2 0x11F JUMPI DUP1 PUSH4 0x24D7806C EQ PUSH2 0x13D JUMPI JUMPDEST PUSH1 0x0 DUP1 REVERT JUMPDEST PUSH2 0x109 PUSH1 0x4 DUP1 CALLDATASIZE SUB DUP2 ADD SWAP1 PUSH2 0x104 SWAP2 SWAP1 PUSH2 0xB13 JUMP JUMPDEST PUSH2 0x2F7 JUMP JUMPDEST PUSH1 0x40 MLOAD PUSH2 0x116 SWAP2 SWAP1 PUSH2 0xB5B JUMP JUMPDEST PUSH1 0x40 MLOAD DUP1 SWAP2 SUB SWAP1 RETURN JUMPDEST PUSH2 0x127 PUSH2 0x32A JUMP JUMPDEST PUSH1 0x40 MLOAD PUSH2 0x134 SWAP2 SWAP1 PUSH2 0xB8F JUMP JUMPDEST PUSH1 0x40 MLOAD DUP1 SWAP2 SUB SWAP1 RETURN JUMPDEST PUSH2 0x157 PUSH1 0x4 DUP1 CALLDATASIZE SUB DUP2 ADD SWAP1 PUSH2 0x152 SWAP2 SWAP1 PUSH2 0xB13 JUMP JUMPDEST PUSH2 0x34E JUMP JUMPDEST PUSH1 0x40 MLOAD PUSH2 0x164 SWAP2 SWAP1 PUSH2 0xB5B JUMP JUMPDEST PUSH1 0x40 MLOAD DUP1 SWAP2 SUB SWAP1 RETURN JUMPDEST PUSH2 0x187 PUSH1 0x4 DUP1 CALLDATASIZE SUB DUP2 ADD SWAP1 PUSH2 0x182 SWAP2 SWAP1 PUSH2 0xB13 JUMP JUMPDEST PUSH2 0x3A4 JUMP JUMPDEST STOP JUMPDEST PUSH2 0x1A3 PUSH1 0x4 DUP1 CALLDATASIZE SUB DUP2 ADD SWAP1 PUSH2 0x19E SWAP2 SWAP1 PUSH2 0xBD6 JUMP JUMPDEST PUSH2 0x4FB JUMP JUMPDEST STOP JUMPDEST PUSH2 0x1BF PUSH1 0x4 DUP1 CALLDATASIZE SUB DUP2 ADD SWAP1 PUSH2 0x1BA SWAP2 SWAP1 PUSH2 0xB13 JUMP JUMPDEST PUSH2 0x6AE JUMP JUMPDEST STOP JUMPDEST PUSH2 0x1DB PUSH1 0x4 DUP1 CALLDATASIZE SUB DUP2 ADD SWAP1 PUSH2 0x1D6 SWAP2 SWAP1 PUSH2 0xB13 JUMP JUMPDEST PUSH2 0x796 JUMP JUMPDEST PUSH1 0x40 MLOAD PUSH2 0x1E8 SWAP2 SWAP1 PUSH2 0xB8F JUMP JUMPDEST PUSH1 0x40 MLOAD DUP1 SWAP2 SUB SWAP1 RETURN JUMPDEST PUSH2 0x20B PUSH1 0x4 DUP1 CALLDATASIZE SUB DUP2 ADD SWAP1 PUSH2 0x206 SWAP2 SWAP1 PUSH2 0xB13 JUMP JUMPDEST PUSH2 0x7DF JUMP JUMPDEST PUSH1 0x40 MLOAD PUSH2 0x218 SWAP2 SWAP1 PUSH2 0xB5B JUMP JUMPDEST PUSH1 0x40 MLOAD DUP1 SWAP2 SUB SWAP1 RETURN JUMPDEST PUSH2 0x23B PUSH1 0x4 DUP1 CALLDATASIZE SUB DUP2 ADD SWAP1 PUSH2 0x236 SWAP2 SWAP1 PUSH2 0xB13 JUMP JUMPDEST PUSH2 0x812 JUMP JUMPDEST PUSH1 0x40 MLOAD PUSH2 0x248 SWAP2 SWAP1 PUSH2 0xB5B JUMP JUMPDEST PUSH1 0x40 MLOAD DUP1 SWAP2 SUB SWAP1 RETURN JUMPDEST PUSH2 0x259 PUSH2 0x845 JUMP JUMPDEST PUSH1 0x40 MLOAD PUSH2 0x266 SWAP2 SWAP1 PUSH2 0xC25 JUMP JUMPDEST PUSH1 0x40 MLOAD DUP1 SWAP2 SUB SWAP1 RETURN JUMPDEST PUSH2 0x289 PUSH1 0x4 DUP1 CALLDATASIZE SUB DUP2 ADD SWAP1 PUSH2 0x284 SWAP2 SWAP1 PUSH2 0xBD6 JUMP JUMPDEST PUSH2 0x869 JUMP JUMPDEST PUSH1 0x40 MLOAD PUSH2 0x296 SWAP2 SWAP1 PUSH2 0xB5B JUMP JUMPDEST PUSH1 0x40 MLOAD DUP1 SWAP2 SUB SWAP1 RETURN JUMPDEST PUSH2 0x2A7 PUSH2 0x8B5 JUMP JUMPDEST PUSH1 0x40 MLOAD PUSH2 0x2B4 SWAP2 SWAP1 PUSH2 0xB8F JUMP JUMPDEST PUSH1 0x40 MLOAD DUP1 SWAP2 SUB SWAP1 RETURN JUMPDEST PUSH2 0x2C5 PUSH2 0x8D9 JUMP JUMPDEST PUSH1 0x40 MLOAD PUSH2 0x2D2 SWAP2 SWAP1 PUSH2 0xB8F JUMP JUMPDEST PUSH1 0x40 MLOAD DUP1 SWAP2 SUB SWAP1 RETURN JUMPDEST PUSH2 0x2F5 PUSH1 0x4 DUP1 CALLDATASIZE SUB DUP2 ADD SWAP1 PUSH2 0x2F0 SWAP2 SWAP1 PUSH2 0xBD6 JUMP JUMPDEST PUSH2 0x8FD JUMP JUMPDEST STOP JUMPDEST PUSH1 0x0 PUSH2 0x323 PUSH32 0xEEFB95E842A3287179D933B4460BE539A1D5AF11AA8B325BB45C5C8DC92DE4ED DUP4 PUSH2 0x869 JUMP JUMPDEST SWAP1 POP SWAP2 SWAP1 POP JUMP JUMPDEST PUSH32 0x2A5F906C256A5D799494FCD066E1F6C077689DE1CDB65052A1624DE4BACE99BF DUP2 JUMP JUMPDEST PUSH1 0x0 PUSH1 0x1 PUSH1 0x0 DUP4 PUSH20 0xFFFFFFFFFFFFFFFFFFFFFFFFFFFFFFFFFFFFFFFF AND PUSH20 0xFFFFFFFFFFFFFFFFFFFFFFFFFFFFFFFFFFFFFFFF AND DUP2 MSTORE PUSH1 0x20 ADD SWAP1 DUP2 MSTORE PUSH1 0x20 ADD PUSH1 0x0 KECCAK256 PUSH1 0x0 SWAP1 SLOAD SWAP1 PUSH2 0x100 EXP SWAP1 DIV PUSH1 0xFF AND SWAP1 POP SWAP2 SWAP1 POP JUMP JUMPDEST PUSH1 0x0 DUP1 SLOAD SWAP1 PUSH2 0x100 EXP SWAP1 DIV PUSH20 0xFFFFFFFFFFFFFFFFFFFFFFFFFFFFFFFFFFFFFFFF AND PUSH20 0xFFFFFFFFFFFFFFFFFFFFFFFFFFFFFFFFFFFFFFFF AND CALLER PUSH20 0xFFFFFFFFFFFFFFFFFFFFFFFFFFFFFFFFFFFFFFFF AND EQ PUSH2 0x432 JUMPI PUSH1 0x40 MLOAD PUSH32 0x8C379A000000000000000000000000000000000000000000000000000000000 DUP2 MSTORE PUSH1 0x4 ADD PUSH2 0x429 SWAP1 PUSH2 0xCC3 JUMP JUMPDEST PUSH1 0x40 MLOAD DUP1 SWAP2 SUB SWAP1 REVERT JUMPDEST CALLER PUSH20 0xFFFFFFFFFFFFFFFFFFFFFFFFFFFFFFFFFFFFFFFF AND DUP2 PUSH20 0xFFFFFFFFFFFFFFFFFFFFFFFFFFFFFFFFFFFFFFFF AND SUB PUSH2 0x4A0 JUMPI PUSH1 0x40 MLOAD PUSH32 0x8C379A000000000000000000000000000000000000000000000000000000000 DUP2 MSTORE PUSH1 0x4 ADD PUSH2 0x497 SWAP1 PUSH2 0xD2F JUMP JUMPDEST PUSH1 0x40 MLOAD DUP1 SWAP2 SUB SWAP1 REVERT JUMPDEST PUSH1 0x0 PUSH1 0x1 PUSH1 0x0 DUP4 PUSH20 0xFFFFFFFFFFFFFFFFFFFFFFFFFFFFFFFFFFFFFFFF AND PUSH20 0xFFFFFFFFFFFFFFFFFFFFFFFFFFFFFFFFFFFFFFFF AND DUP2 MSTORE PUSH1 0x20 ADD SWAP1 DUP2 MSTORE PUSH1 0x20 ADD PUSH1 0x0 KECCAK256 PUSH1 0x0 PUSH2 0x100 EXP DUP2 SLOAD DUP2 PUSH1 0xFF MUL NOT AND SWAP1 DUP4 ISZERO ISZERO MUL OR SWAP1 SSTORE POP POP JUMP JUMPDEST PUSH1 0x1 PUSH1 0x0 CALLER PUSH20 0xFFFFFFFFFFFFFFFFFFFFFFFFFFFFFFFFFFFFFFFF AND PUSH20 0xFFFFFFFFFFFFFFFFFFFFFFFFFFFFFFFFFFFFFFFF AND DUP2 MSTORE PUSH1 0x20 ADD SWAP1 DUP2 MSTORE PUSH1 0x20 ADD PUSH1 0x0 KECCAK256 PUSH1 0x0 SWAP1 SLOAD SWAP1 PUSH2 0x100 EXP SWAP1 DIV PUSH1 0xFF AND PUSH2 0x587 JUMPI PUSH1 0x40 MLOAD PUSH32 0x8C379A000000000000000000000000000000000000000000000000000000000 DUP2 MSTORE PUSH1 0x4 ADD PUSH2 0x57E SWAP1 PUSH2 0xDC1 JUMP JUMPDEST PUSH1 0x40 MLOAD DUP1 SWAP2 SUB SWAP1 REVERT JUMPDEST PUSH1 0x0 DUP1 SHL PUSH1 0x2 PUSH1 0x0 DUP4 PUSH20 0xFFFFFFFFFFFFFFFFFFFFFFFFFFFFFFFFFFFFFFFF AND PUSH20 0xFFFFFFFFFFFFFFFFFFFFFFFFFFFFFFFFFFFFFFFF AND DUP2 MSTORE PUSH1 0x20 ADD SWAP1 DUP2 MSTORE PUSH1 0x20 ADD PUSH1 0x0 KECCAK256 SLOAD EQ PUSH2 0x60B JUMPI PUSH1 0x40 MLOAD PUSH32 0x8C379A000000000000000000000000000000000000000000000000000000000 DUP2 MSTORE PUSH1 0x4 ADD PUSH2 0x602 SWAP1 PUSH2 0xE53 JUMP JUMPDEST PUSH1 0x40 MLOAD DUP1 SWAP2 SUB SWAP1 REVERT JUMPDEST DUP2 PUSH1 0x2 PUSH1 0x0 DUP4 PUSH20 0xFFFFFFFFFFFFFFFFFFFFFFFFFFFFFFFFFFFFFFFF AND PUSH20 0xFFFFFFFFFFFFFFFFFFFFFFFFFFFFFFFFFFFFFFFF AND DUP2 MSTORE PUSH1 0x20 ADD SWAP1 DUP2 MSTORE PUSH1 0x20 ADD PUSH1 0x0 KECCAK256 DUP2 SWAP1 SSTORE POP CALLER PUSH20 0xFFFFFFFFFFFFFFFFFFFFFFFFFFFFFFFFFFFFFFFF AND DUP2 PUSH20 0xFFFFFFFFFFFFFFFFFFFFFFFFFFFFFFFFFFFFFFFF AND DUP4 PUSH32 0x2F8788117E7EFF1D82E926EC794901D17C78024A50270940304540A733656F0D PUSH1 0x40 MLOAD PUSH1 0x40 MLOAD DUP1 SWAP2 SUB SWAP1 LOG4 POP POP JUMP JUMPDEST PUSH1 0x0 DUP1 SLOAD SWAP1 PUSH2 0x100 EXP SWAP1 DIV PUSH20 0xFFFFFFFFFFFFFFFFFFFFFFFFFFFFFFFFFFFFFFFF AND PUSH20 0xFFFFFFFFFFFFFFFFFFFFFFFFFFFFFFFFFFFFFFFF AND CALLER PUSH20 0xFFFFFFFFFFFFFFFFFFFFFFFFFFFFFFFFFFFFFFFF AND EQ PUSH2 0x73C JUMPI PUSH1 0x40 MLOAD PUSH32 0x8C379A000000000000000000000000000000000000000000000000000000000 DUP2 MSTORE PUSH1 0x4 ADD PUSH2 0x733 SWAP1 PUSH2 0xCC3 JUMP JUMPDEST PUSH1 0x40 MLOAD DUP1 SWAP2 SUB SWAP1 REVERT JUMPDEST PUSH1 0x1 DUP1 PUSH1 0x0 DUP4 PUSH20 0xFFFFFFFFFFFFFFFFFFFFFFFFFFFFFFFFFFFFFFFF AND PUSH20 0xFFFFFFFFFFFFFFFFFFFFFFFFFFFFFFFFFFFFFFFF AND DUP2 MSTORE PUSH1 0x20 ADD SWAP1 DUP2 MSTORE PUSH1 0x20 ADD PUSH1 0x0 KECCAK256 PUSH1 0x0 PUSH2 0x100 EXP DUP2 SLOAD DUP2 PUSH1 0xFF MUL NOT AND SWAP1 DUP4 ISZERO ISZERO MUL OR SWAP1 SSTORE POP POP JUMP JUMPDEST PUSH1 0x0 PUSH1 0x2 PUSH1 0x0 DUP4 PUSH20 0xFFFFFFFFFFFFFFFFFFFFFFFFFFFFFFFFFFFFFFFF AND PUSH20 0xFFFFFFFFFFFFFFFFFFFFFFFFFFFFFFFFFFFFFFFF AND DUP2 MSTORE PUSH1 0x20 ADD SWAP1 DUP2 MSTORE PUSH1 0x20 ADD PUSH1 0x0 KECCAK256 SLOAD SWAP1 POP SWAP2 SWAP1 POP JUMP JUMPDEST PUSH1 0x0 PUSH2 0x80B PUSH32 0x2A5F906C256A5D799494FCD066E1F6C077689DE1CDB65052A1624DE4BACE99BF DUP4 PUSH2 0x869 JUMP JUMPDEST SWAP1 POP SWAP2 SWAP1 POP JUMP JUMPDEST PUSH1 0x0 PUSH2 0x83E PUSH32 0xDED9B5E0E0E3A2B3F09A0BC36EC64B9BF7A7C2319F3C4D9CFF5CE48714257B21 DUP4 PUSH2 0x869 JUMP JUMPDEST SWAP1 POP SWAP2 SWAP1 POP JUMP JUMPDEST PUSH1 0x0 DUP1 SLOAD SWAP1 PUSH2 0x100 EXP SWAP1 DIV PUSH20 0xFFFFFFFFFFFFFFFFFFFFFFFFFFFFFFFFFFFFFFFF AND DUP2 JUMP JUMPDEST PUSH1 0x0 DUP3 PUSH1 0x2 PUSH1 0x0 DUP5 PUSH20 0xFFFFFFFFFFFFFFFFFFFFFFFFFFFFFFFFFFFFFFFF AND PUSH20 0xFFFFFFFFFFFFFFFFFFFFFFFFFFFFFFFFFFFFFFFF AND DUP2 MSTORE PUSH1 0x20 ADD SWAP1 DUP2 MSTORE PUSH1 0x20 ADD PUSH1 0x0 KECCAK256 SLOAD EQ SWAP1 POP SWAP3 SWAP2 POP POP JUMP JUMPDEST PUSH32 0xEEFB95E842A3287179D933B4460BE539A1D5AF11AA8B325BB45C5C8DC92DE4ED DUP2 JUMP JUMPDEST PUSH32 0xDED9B5E0E0E3A2B3F09A0BC36EC64B9BF7A7C2319F3C4D9CFF5CE48714257B21 DUP2 JUMP JUMPDEST PUSH1 0x1 PUSH1 0x0 CALLER PUSH20 0xFFFFFFFFFFFFFFFFFFFFFFFFFFFFFFFFFFFFFFFF AND PUSH20 0xFFFFFFFFFFFFFFFFFFFFFFFFFFFFFFFFFFFFFFFF AND DUP2 MSTORE PUSH1 0x20 ADD SWAP1 DUP2 MSTORE PUSH1 0x20 ADD PUSH1 0x0 KECCAK256 PUSH1 0x0 SWAP1 SLOAD SWAP1 PUSH2 0x100 EXP SWAP1 DIV PUSH1 0xFF AND PUSH2 0x989 JUMPI PUSH1 0x40 MLOAD PUSH32 0x8C379A000000000000000000000000000000000000000000000000000000000 DUP2 MSTORE PUSH1 0x4 ADD PUSH2 0x980 SWAP1 PUSH2 0xDC1 JUMP JUMPDEST PUSH1 0x40 MLOAD DUP1 SWAP2 SUB SWAP1 REVERT JUMPDEST DUP2 PUSH1 0x2 PUSH1 0x0 DUP4 PUSH20 0xFFFFFFFFFFFFFFFFFFFFFFFFFFFFFFFFFFFFFFFF AND PUSH20 0xFFFFFFFFFFFFFFFFFFFFFFFFFFFFFFFFFFFFFFFF AND DUP2 MSTORE PUSH1 0x20 ADD SWAP1 DUP2 MSTORE PUSH1 0x20 ADD PUSH1 0x0 KECCAK256 SLOAD EQ PUSH2 0xA0A JUMPI PUSH1 0x40 MLOAD PUSH32 0x8C379A000000000000000000000000000000000000000000000000000000000 DUP2 MSTORE PUSH1 0x4 ADD PUSH2 0xA01 SWAP1 PUSH2 0xEE5 JUMP JUMPDEST PUSH1 0x40 MLOAD DUP1 SWAP2 SUB SWAP1 REVERT JUMPDEST PUSH1 0x0 DUP1 SHL PUSH1 0x2 PUSH1 0x0 DUP4 PUSH20 0xFFFFFFFFFFFFFFFFFFFFFFFFFFFFFFFFFFFFFFFF AND PUSH20 0xFFFFFFFFFFFFFFFFFFFFFFFFFFFFFFFFFFFFFFFF AND DUP2 MSTORE PUSH1 0x20 ADD SWAP1 DUP2 MSTORE PUSH1 0x20 ADD PUSH1 0x0 KECCAK256 DUP2 SWAP1 SSTORE POP CALLER PUSH20 0xFFFFFFFFFFFFFFFFFFFFFFFFFFFFFFFFFFFFFFFF AND DUP2 PUSH20 0xFFFFFFFFFFFFFFFFFFFFFFFFFFFFFFFFFFFFFFFF AND DUP4 PUSH32 0xF6391F5C32D9C69D2A47EA670B442974B53935D1EDC7FD64EB21E047A839171B PUSH1 0x40 MLOAD PUSH1 0x40 MLOAD DUP1 SWAP2 SUB SWAP1 LOG4 POP POP JUMP JUMPDEST PUSH1 0x0 DUP1 REVERT JUMPDEST PUSH1 0x0 PUSH20 0xFFFFFFFFFFFFFFFFFFFFFFFFFFFFFFFFFFFFFFFF DUP3 AND SWAP1 POP SWAP2 SWAP1 POP JUMP JUMPDEST PUSH1 0x0 PUSH2 0xAE0 DUP3 PUSH2 0xAB5 JUMP JUMPDEST SWAP1 POP SWAP2 SWAP1 POP JUMP JUMPDEST PUSH2 0xAF0 DUP2 PUSH2 0xAD5 JUMP JUMPDEST DUP2 EQ PUSH2 0xAFB JUMPI PUSH1 0x0 DUP1 REVERT JUMPDEST POP JUMP JUMPDEST PUSH1 0x0 DUP2 CALLDATALOAD SWAP1 POP PUSH2 0xB0D DUP2 PUSH2 0xAE7 JUMP JUMPDEST SWAP3 SWAP2 POP POP JUMP JUMPDEST PUSH1 0x0 PUSH1 0x20 DUP3 DUP5 SUB SLT ISZERO PUSH2 0xB29 JUMPI PUSH2 0xB28 PUSH2 0xAB0 JUMP JUMPDEST JUMPDEST PUSH1 0x0 PUSH2 0xB37 DUP5 DUP3 DUP6 ADD PUSH2 0xAFE JUMP JUMPDEST SWAP2 POP POP SWAP3 SWAP2 POP POP JUMP JUMPDEST PUSH1 0x0 DUP2 ISZERO ISZERO SWAP1 POP SWAP2 SWAP1 POP JUMP JUMPDEST PUSH2 0xB55 DUP2 PUSH2 0xB40 JUMP JUMPDEST DUP3 MSTORE POP POP JUMP JUMPDEST PUSH1 0x0 PUSH1 0x20 DUP3 ADD SWAP1 POP PUSH2 0xB70 PUSH1 0x0 DUP4 ADD DUP5 PUSH2 0xB4C JUMP JUMPDEST SWAP3 SWAP2 POP POP JUMP JUMPDEST PUSH1 0x0 DUP2 SWAP1 POP SWAP2 SWAP1 POP JUMP JUMPDEST PUSH2 0xB89 DUP2 PUSH2 0xB76 JUMP JUMPDEST DUP3 MSTORE POP POP JUMP JUMPDEST PUSH1 0x0 PUSH1 0x20 DUP3 ADD SWAP1 POP PUSH2 0xBA4 PUSH1 0x0 DUP4 ADD DUP5 PUSH2 0xB80 JUMP JUMPDEST SWAP3 SWAP2 POP POP JUMP JUMPDEST PUSH2 0xBB3 DUP2 PUSH2 0xB76 JUMP JUMPDEST DUP2 EQ PUSH2 0xBBE JUMPI PUSH1 0x0 DUP1 REVERT JUMPDEST POP JUMP JUMPDEST PUSH1 0x0 DUP2 CALLDATALOAD SWAP1 POP PUSH2 0xBD0 DUP2 PUSH2 0xBAA JUMP JUMPDEST SWAP3 SWAP2 POP POP JUMP JUMPDEST PUSH1 0x0 DUP1 PUSH1 0x40 DUP4 DUP6 SUB SLT ISZERO PUSH2 0xBED JUMPI PUSH2 0xBEC PUSH2 0xAB0 JUMP JUMPDEST JUMPDEST PUSH1 0x0 PUSH2 0xBFB DUP6 DUP3 DUP7 ADD PUSH2 0xBC1 JUMP JUMPDEST SWAP3 POP POP PUSH1 0x20 PUSH2 0xC0C DUP6 DUP3 DUP7 ADD PUSH2 0xAFE JUMP JUMPDEST SWAP2 POP POP SWAP3 POP SWAP3 SWAP1 POP JUMP JUMPDEST PUSH2 0xC1F DUP2 PUSH2 0xAD5 JUMP JUMPDEST DUP3 MSTORE POP POP JUMP JUMPDEST PUSH1 0x0 PUSH1 0x20 DUP3 ADD SWAP1 POP PUSH2 0xC3A PUSH1 0x0 DUP4 ADD DUP5 PUSH2 0xC16 JUMP JUMPDEST SWAP3 SWAP2 POP POP JUMP JUMPDEST PUSH1 0x0 DUP3 DUP3 MSTORE PUSH1 0x20 DUP3 ADD SWAP1 POP SWAP3 SWAP2 POP POP JUMP JUMPDEST PUSH32 0x4163636573734C6973743A2063616C6C6572206973206E6F7420746865206F77 PUSH1 0x0 DUP3 ADD MSTORE PUSH32 0x6E65720000000000000000000000000000000000000000000000000000000000 PUSH1 0x20 DUP3 ADD MSTORE POP JUMP JUMPDEST PUSH1 0x0 PUSH2 0xCAD PUSH1 0x23 DUP4 PUSH2 0xC40 JUMP JUMPDEST SWAP2 POP PUSH2 0xCB8 DUP3 PUSH2 0xC51 JUMP JUMPDEST PUSH1 0x40 DUP3 ADD SWAP1 POP SWAP2 SWAP1 POP JUMP JUMPDEST PUSH1 0x0 PUSH1 0x20 DUP3 ADD SWAP1 POP DUP2 DUP2 SUB PUSH1 0x0 DUP4 ADD MSTORE PUSH2 0xCDC DUP2 PUSH2 0xCA0 JUMP JUMPDEST SWAP1 POP SWAP2 SWAP1 POP JUMP JUMPDEST PUSH32 0x4163636573734C6973743A2063616E6E6F74207265766F6B652073656C660000 PUSH1 0x0 DUP3 ADD MSTORE POP JUMP JUMPDEST PUSH1 0x0 PUSH2 0xD19 PUSH1 0x1E DUP4 PUSH2 0xC40 JUMP JUMPDEST SWAP2 POP PUSH2 0xD24 DUP3 PUSH2 0xCE3 JUMP JUMPDEST PUSH1 0x20 DUP3 ADD SWAP1 POP SWAP2 SWAP1 POP JUMP JUMPDEST PUSH1 0x0 PUSH1 0x20 DUP3 ADD SWAP1 POP DUP2 DUP2 SUB PUSH1 0x0 DUP4 ADD MSTORE PUSH2 0xD48 DUP2 PUSH2 0xD0C JUMP JUMPDEST SWAP1 POP SWAP2 SWAP1 POP JUMP JUMPDEST PUSH32 0x4163636573734C6973743A2063616C6C6572206973206E6F7420616E2061646D PUSH1 0x0 DUP3 ADD MSTORE PUSH32 0x696E000000000000000000000000000000000000000000000000000000000000 PUSH1 0x20 DUP3 ADD MSTORE POP JUMP JUMPDEST PUSH1 0x0 PUSH2 0xDAB PUSH1 0x22 DUP4 PUSH2 0xC40 JUMP JUMPDEST SWAP2 POP PUSH2 0xDB6 DUP3 PUSH2 0xD4F JUMP JUMPDEST PUSH1 0x40 DUP3 ADD SWAP1 POP SWAP2 SWAP1 POP JUMP JUMPDEST PUSH1 0x0 PUSH1 0x20 DUP3 ADD SWAP1 POP DUP2 DUP2 SUB PUSH1 0x0 DUP4 ADD MSTORE PUSH2 0xDDA DUP2 PUSH2 0xD9E JUMP JUMPDEST SWAP1 POP SWAP2 SWAP1 POP JUMP JUMPDEST PUSH32 0x4163636573734C6973743A206163636F756E7420616C72656164792068617320 PUSH1 0x0 DUP3 ADD MSTORE PUSH32 0x6120726F6C650000000000000000000000000000000000000000000000000000 PUSH1 0x20 DUP3 ADD MSTORE POP JUMP JUMPDEST PUSH1 0x0 PUSH2 0xE3D PUSH1 0x26 DUP4 PUSH2 0xC40 JUMP JUMPDEST SWAP2 POP PUSH2 0xE48 DUP3 PUSH2 0xDE1 JUMP JUMPDEST PUSH1 0x40 DUP3 ADD SWAP1 POP SWAP2 SWAP1 POP JUMP JUMPDEST PUSH1 0x0 PUSH1 0x20 DUP3 ADD SWAP1 POP DUP2 DUP2 SUB PUSH1 0x0 DUP4 ADD MSTORE PUSH2 0xE6C DUP2 PUSH2 0xE30 JUMP JUMPDEST SWAP1 POP SWAP2 SWAP1 POP JUMP JUMPDEST PUSH32 0x4163636573734C6973743A206163636F756E7420646F6573206E6F7420686176 PUSH1 0x0 DUP3 ADD MSTORE PUSH32 0x652074686520726F6C6500000000000000000000000000000000000000000000 PUSH1 0x20 DUP3 ADD MSTORE POP JUMP JUMPDEST PUSH1 0x0 PUSH2 0xECF PUSH1 0x2A DUP4 PUSH2 0xC40 JUMP JUMPDEST SWAP2 POP PUSH2 0xEDA DUP3 PUSH2 0xE73 JUMP JUMPDEST PUSH1 0x40 DUP3 ADD SWAP1 POP SWAP2 SWAP1 POP JUMP JUMPDEST PUSH1 0x0 PUSH1 0x20 DUP3 ADD SWAP1 POP DUP2 DUP2 SUB PUSH1 0x0 DUP4 ADD MSTORE PUSH2 0xEFE DUP2 PUSH2 0xEC2 JUMP JUMPDEST SWAP1 POP SWAP2 SWAP1 POP JUMP INVALID LOG2 PUSH5 0x6970667358 0x22 SLT KECCAK256 0xDD SWAP11 INVALID 0xF7 BALANCE PUSH14 0xCFA90B99BFB7CAE9D7CFFE0518D0 OR GASLIMIT 0x27 NUMBER XOR DUP14 DUP8 LOG3 0xBF 0x2C SMOD SWAP14 PUSH5 0x736F6C6343 STOP ADDMOD NOT STOP CALLER "
				},
				"gasEstimates": {
					"creation": {
						"codeDepositCost": "779800",
						"executionCost": "51571",
						"totalCost": "831371"
					},
					"external": {
						"LOGISTICS_ROLE()": "395",
						"MANUFACTURER_ROLE()": "373",
						"RETAILER_ROLE()": "375",
						"getRole(address)": "2930",
						"grantAdmin(address)": "27046",
						"grantRole(bytes32,address)": "29260",
						"hasRole(bytes32,address)": "3048",
						"isAdmin(address)": "2951",
						"isLogistics(address)": "2946",
						"isManufacturer(address)": "2925",
						"isRetailer(address)": "2924",
						"owner()": "2578",
						"revokeAdmin(address)": "27036",
						"revokeRole(bytes32,address)": "12203"
					}
				},
				"methodIdentifiers": {
					"LOGISTICS_ROLE()": "c602d3fb",
					"MANUFACTURER_ROLE()": "965288b0",
					"RETAILER_ROLE()": "2115e7bf",
					"getRole(address)": "44276733",
					"grantAdmin(address)": "35bb3e16",
					"grantRole(bytes32,address)": "2f2ff15d",
					"hasRole(bytes32,address)": "91d14854",
					"isAdmin(address)": "24d7806c",
					"isLogistics(address)": "8305866f",
					"isManufacturer(address)": "17d4a491",
					"isRetailer(address)": "5da09b88",
					"owner()": "8da5cb5b",
					"revokeAdmin(address)": "2d345670",
					"revokeRole(bytes32,address)": "d547741f"
				}
			},
			"storageLayout": {
				"storage": [
					{
						"astId": 4,
						"contract": "contracts/AccessList.sol:AccessList",
						"label": "owner",
						"offset": 0,
						"slot": "0",
						"type": "t_address"
					},
					{
						"astId": 8,
						"contract": "contracts/AccessList.sol:AccessList",
						"label": "admins",
						"offset": 0,
						"slot": "1",
						"type": "t_mapping(t_address,t_bool)"
					},
					{
						"astId": 12,
						"contract": "contracts/AccessList.sol:AccessList",
						"label": "roles",
						"offset": 0,
						"slot": "2",
						"type": "t_mapping(t_address,t_bytes32)"
					}
				],
				"types": {
					"t_address": {
						"encoding": "inplace",
						"label": "address",
						"numberOfBytes": "20"
					},
					"t_bool": {
						"encoding": "inplace",
						"label": "bool",
						"numberOfBytes": "1"
					},
					"t_bytes32": {
						"encoding": "inplace",
						"label": "bytes32",
						"numberOfBytes": "32"
					},
					"t_mapping(t_address,t_bool)": {
						"encoding": "mapping",
						"key": "t_address",
						"label": "mapping(address => bool)",
						"numberOfBytes": "32",
						"value": "t_bool"
					},
					"t_mapping(t_address,t_bytes32)": {
						"encoding": "mapping",
						"key": "t_address",
						"label": "mapping(address => bytes32)",
						"numberOfBytes": "32",
						"value": "t_bytes32"
					}
				}
			},
			"userdoc": {
				"kind": "user",
				"methods": {},
				"version": 1
			}
		}
	}
}